:10000000021634008F828E83E0540100000070F8E5
:100010002278FFE4F6D8FD0216920203DBE8648042
:10002000F8E933E83360110460F0ED33EC33700924
:10003000E8FCE9FDEAFEEBFF220460DED3EB9FEA79
:100040009EE99DE8C2E78CF0C2F795F0400CE8CC41
:10005000F8E9CDF9EACEFAEBCFFB1203A685D0F092
:100060005804700320D5B3E80470075002B2D502DB
:1000700003E592D5EC0460F7E4CCC0E0C398F860E7
:100080003B94186008400DD0E0FB0203BDE4FBFA8E
:10009000C9FC8028E830E406E4C9FBE4CAFCE83087
:1000A000E305E4C9CACBFCE854076010F8C3E913C0
:1000B000F9EA13FAEB13FBEC13FCD8F130F52FC37C
:1000C000E49CFCEF9BFFEE9AFEED99FDD0E0FBEF88
:1000D0004E4D4C701222DB030203E2EC2CFCEF339A
:1000E000FFEE33FEED33FDED30E7EB0203BDEF2B0A
:1000F000FFEE3AFEED39FDD0E0FB50130BBB0003E1
:100100000203E5ED13FDEE13FEEF13FFEC13FC020B
:1001100003BDEC4D6011E8497017ED33EC3304601A
:100120000DE4FCFFFEFD22E933E8330470F802031E
:10013000DB1203A658046009E4CC24815006285041
:10014000090203E52840030203E2C0E0EB4A7044E1
:10015000B98006D0E0FB0203D1EF4E701CBD8008D1
:10016000EBFFEAFEE9FD80EBE98DF0A4FEE5F0028D
:1001700001FBE9CDF9EAFEEBFFEF89F0A4FCE5F025
:10018000CE89F0A42EFFE435F0CD89F0A42DFEE455
:1001900035F08067EF4E7005BD80D780C3EF8BF0E0
:1001A000A4ACF0EE8BF0A42CFCE435F0F8EF8AF070
:1001B000A42CE5F038FCE433CB8DF0A42CFCE5F066
:1001C0003BF8EE8AF0A42CFCE5F038F8E433CF8954
:1001D000F0A42CFCE5F038CF3400CE89F0A42FFF3A
:1001E000E5F03EFEE433C98DF0A42EFEE5F039CDF6
:1001F0008AF0A42FFFE5F03EFEE43DFD33D0E0FBA6
:1002000050070BBB000F0203E5EC2CFCEF33FFEEB5
:1002100033FEED33FD0203BD0203E5EC5D04600532
:10022000E8590470030203DB1203A6580460F6ECDD
:100230004860F2EC7004FDFEFF22C860DB2481C838
:100240005009C398600250060203E29850CAF58232
:10025000E9294B4A7005AB820203D175F0007C1A84
:100260007880C3EF9BEE9AED99400DC3EF9BFFEEB4
:100270009AFEED99FDE842F0DC23ACF0D0E0FFD02F
:10028000E0FED0E0FDAB8220E7101BEB60BAEC2C67
:10029000FCEF33FFEE33FEED33FD0203BDE803F860
:1002A00030E705C0F075F000EF2FFFEE33FEED33C1
:1002B000FD40B830E7C280AA74F8CC6480CCC86432
:1002C00080C8F58204604FC3EB9FF5F0EA9E42F0D0
:1002D000E99D42F0E89C45F0603C501DE5825FFFDF
:1002E000E582D313CB5BCBF42B5582FB50280ABAA3
:1002F000002409B9002008801DE5825BFBE582D35C
:1003000013CF5FCFF4C3132F5582FF50090EBE00E9
:10031000050DBD00010CC3EB9FF5F0EA9E42F0E92C
:100320009D42F0E89C45F06007CC4820E701B3EC23
:100330002275F020800E75F010800575F0087D00A4
:100340007E007F003392D530D50312077DEC334019
:1003500010EF33FFEE33FEED33FDEC33FCD5F0ED63
:1003600022E5F0247EA2D513CC92E7CDCEFF22ED7C
:10037000D2E7CD33EC3392D524814006E4FFFEFD75
:10038000FC22FCE4CFCECDCC24E0501174FF80EDF4
:10039000C3CC13CCCD13CDCE13CECF13CF0470F07E
:1003A00030D5DE02077DE9D2E7C933E833F892D5CC
:1003B000EDD2E7CD33EC33FC5002B2D522EC30E77E
:1003C000100FBF000C0EBE00080DBD00040BEB604B
:1003D00014A2D5EB13FCED92E7FD2274FFFCFDFEA9
:1003E000FF22E480F8A2D574FF13FC7D80E480EF47
:1003F000F920E73624F950037907E4F42402FBE5F9
:1004000082158270021583DBF6E024FB501BE96045
:1004100014E4F0E582158270021583E004F0B40A5A
:1004200008E4F0D9EE7401F00A22C2D522ED33ECD3
:100430003392D5FA602AB4FF33EDC2E77BFF600642
:100440007A047952E4227A04795B20D5047A04791B
:1004500056224E614E002B494E46002D494E460015
:10046000E47A08F0A3DAFC7B00740722C083C08220
:10047000ECC0E0EDC0E0EEC0E0EFC0E0EA75F010E7
:10048000A4CAABF075F04DA42BFBE435F0FCEA24D4
:1004900010FAEB34C5FBEC34D9FCEDC2E7FF75F084
:1004A00056A4F42411C5F0F434C58FF0A42AE5F065
:1004B0003BE43CF020E714120562D0E0FFD0E0FE00
:1004C000D0E0FDD0E0FC12021B8014F4041205629F
:1004D000D0E0FFD0E0FED0E0FDD0E0FC120112D071
:1004E00082D083E0FAEDD2E7CD33EC332482FBE413
:1004F000C3CF33CFCE33CECD33CD33DBF37B0775D4
:10050000F00A846004F0A31B0AE5F0F0A38FF074F6
:100510000AA4FFACF08EF0740AA42CFEACF05001DB
:100520000C8DF0740AA42CFDE435F0F0A3DBDE742E
:1005300007223F8000004120000042C80000447AAA
:100540000000461C400047C35000497424004B186B
:1005500096804CBEBC205A0E1BCA6753C21C749DA9
:10056000C5AEFB60065407601C2323120590EB54B4
:1005700038600912057C12058B120112ECF8EDF9B6
:10058000EEFAEFCB22EB12058B80F1543803241CDA
:10059000900532FE93FC0EEE93FD0EEE930ECE937D
:1005A000FF22BB010689828A83E0225002E722BB38
:1005B000FE02E32289828A83E49322BB010CE58256
:1005C00029F582E5833AF583E0225006E92582F891
:1005D000E622BBFE06E92582F8E222E58229F582C1
:1005E000E5833AF583E49322BB010689828A83F08E
:1005F000225002F722BBFE01F322C2D5EC30E709FC
:10060000B2D5E4C39DFDE49CFCEE30E715B2D5E421
:10061000C39FFFE49EFE1208B2C3E49DFDE49CFC70
:1006200080031208B230D507C3E49FFFE49EFE2288
:10063000C5F0F8A3E028F0C5F0F8E5821582700255
:100640001583E038F022EF2BFFEE3AFEED39FDEC9A
:1006500038FC22E88FF0A4CC8BF0A42CFCE98EF0BF
:10066000A42CFC8AF0EDA42CFCEA8EF0A4CDA8F01A
:100670008BF0A42DCC3825F0FDE98FF0A42CCD35DE
:10068000F0FCEB8EF0A4FEA9F0EB8FF0A4CFC5F048
:100690002ECD39FEE43CFCEAA42DCE35F0FDE43C41
:1006A000FC2275F008758200EF2FFFEE33FECD338C
:1006B000CDCC33CCC58233C5829BED9AEC99E582D3
:1006C00098400CF582EE9BFEED9AFDEC99FC0FD55F
:1006D000F0D6E4CEFBE4CDFAE4CCF9A88222B8004F
:1006E000C1B90059BA002DEC8BF084CFCECDFCE51A
:1006F000F0CBF97818EF2FFFEE33FEED33FDEC333E
:10070000FCEB33FB10D703994004EB99FB0FD8E5C2
:10071000E4F9FA227818EF2FFFEE33FEED33FDEC0B
:1007200033FCC933C910D7059BE99A4007EC9BFC01
:10073000E99AF90FD8E0E4C9FAE4CCFB2275F0108D
:10074000EF2FFFEE33FEED33FDCC33CCC833C810B2
:10075000D7079BEC9AE899400AED9BFDEC9AFCE8E0
:1007600099F80FD5F0DAE4CDFBE4CCFAE4C8F9222D
:10077000EF4BFFEE4AFEED49FDEC48FC22C3E49F3F
:10078000FFE49EFEE49DFDE49CFC22EB9FF5F0EA75
:100790009E42F0E99D42F0E89C45F022E8600FECB3
:1007A000C313FCED13FDEE13FEEF13FFD8F122E8A7
:1007B000600FEFC333FFEE33FEED33FDEC33FCD8B7
:1007C000F122E0FCA3E0FDA3E0FEA3E0FF22E0F8BD
:1007D000A3E0F9A3E0FAA3E0FB22BB010789828A28
:1007E000830207CE5005E9F8020907BBFE05E9F8C8
:1007F00002091489828A83020921ECF0A3EDF0A397
:10080000EEF0A3EFF022E0FBA3E0FAA3E0F922F878
:10081000E0FBA3A3E0F925F0F0E582158270021554
:1008200083E0FA38F022EBF0A3EAF0A3E9F022E447
:1008300093FB740193FA740293F922D083D082F867
:10084000E4937012740193700DA3A393F874019351
:10085000F5828883E4737402936860EFA3A3A38096
:10086000DFE5112582F582E5103583F583B51004A7
:100870008582112210AF06858211F5102285821122
:10088000F510D2AF22EC8EF0A4CCC5F0CCCDF8EFB1
:10089000A4CEC5F02DFDE43CFCE8A42EC8C5F03D77
:1008A000FDE43CFCEFA4FFE5F028FEE43DFDE43C64
:1008B000FC22BC000BBE0029EF8DF084FFADF022BE
:1008C000E4CCF875F008EF2FFFEE33FEEC33FCEECE
:1008D0009DEC984005FCEE9DFE0FD5F0E9E4CEFDC1
:1008E00022EDF8F5F0EE8420D21CFEADF075F00894
:1008F000EF2FFFED33FD4007985006D5F0F222C3ED
:1009000098FD0FD5F0EA22E6FB08E6F908E6FA08BA
:10091000E6CBF822E2FB08E2F908E2FA08E2CBF8BB
:1009200022E493F8740193F9740293FA740393FB2D
:1009300022E508242CF582E43400F583E005082242
:1009400090002930070390002CE475F00112080F85
:100950000205A22000E97F2ED2008018EF540F2458
:1009600090D43440D4FF30040BEF24BFB41A0050AD
:10097000032461FFE50960021509050CE50C70020E
:10098000050B30070E900029E475F00112080FEFF7
:100990000205E8021CFE7403D2078003E4C207F5D7
:1009A00008900029120826E4F509F50BF50CE50975
:1009B00060077F2012097480F5750AFFC201C2002A
:1009C000C202C203C205C206C208120940FF700D6E
:1009D0003007057F00120985AF0CAE0B22B4255FEE
:1009E000C2D5C204120940FF24D0B40A00501A75BF
:1009F000F00A780930D50508B6FF0106C6A426F628
:100A000020D5047002D20380D924CFB41A00EF504D
:100A100004C2E5D204020C77D20180C6D20080C0A5
:100A2000D20280BCD2D580BAD20580B47F20120910
:100A3000742002077401B5090040F1120931FF1258
:100A400009740209AED208D2068095120931FB1250
:100A50000931FA120931F94A4B700679757A0D7B22
:100A6000FF20022EE509602A7E008E827583001227
:100A700005BB60060EEE650A70F0C2D5EBC0E0EA79
:100A8000C0E0E9C0E0EE120CD8D0E0F9D0E0FAD036
:100A9000E0FB1205A2FF60AAEBC0E0EAC0E0E9C0FB
:100AA000E0120974D0E02401F9D0E03400FAD0E07B
:100AB000FBE50A0460DCD50AD98087D20280A21245
:100AC0000CBA60F7E50A7001041203F0A90A600D80
:100AD000E50A600914F50A120D62EF60F3EA30E7E7
:100AE00002F404C3995079EAF4250A0430E701E4DA
:100AF00004F50A800D120CBA60C1EA050A250A1233
:100B000003F0EA900058F030E701E4250A04D50A22
:100B10000420050114120CD8E4C0E0120D6290000C
:100B200058E0601320E70714F012095C802204F0FB
:100B3000D0E014C0E07F0012095CE50A60071209EA
:100B400053150A800B300503120953D0E00209AE99
:100B5000D0E00480C4120CBA609EE50A041203F0CF
:100B6000900058EAF0E50A2005026001042404120E
:100B70000CD874FF04C0E0120D6212095CE50A2073
:100B800005026003120953D0E0B50AE87F45120957
:100B900066900058E07F2B30E7047F2DF404C0E01E
:100BA000120974D0E075F00A84C0F012095DD0E03B
:100BB00012095D0209AE791080027908C206C208E6
:100BC0008008D2D5790A8004790AC2D5E50A047072
:100BD00002F50AE4FAFDFEFF120931FC7B08200150
:100BE00013120931FD7B1030000A120931FE12097F
:100BF00031FF7B20EC3382D592D55013C3E4300013
:100C0000069FFFE49EFEE42001039DFDE49CFCE4BE
:100C1000CBF8C201EC700CCFCECDCCE824F8F87044
:100C2000F38017C3EF33FFEE33FEED33FDEC33FCFF
:100C3000EB33FB994002FB0FD8E9EB300105F8D00C
:100C4000E0C448B201C0E00AEC4D4E4F78207B0072
:100C500070C2EAB50A0040BCC0E0120CDAD0F0D095
:100C6000E0200104C4C0E0C4B201C0F012095DD0AC
:100C7000F0D5F0EB0209AE12083B0A4B530BB65805
:100C80000A1C4C0A18420BBA4F0BC2440BC2490A49
:100C900031430BC8550AF5460B55450ABF470D951C
:100CA000500A202D0A242E0A472B0A28230A452001
:100CB0000D7E2A09E04800000A3FE50AB4FF0375EB
:100CC0000A06120931FC120931FD120931FE12091E
:100CD00031FF90005102042D790AA2D5200314306F
:100CE0000509B910020404B9080104A2D5200602BE
:100CF0005001042002689202B509005034C0E07F20
:100D0000203003197F30A20272067205500F120DB7
:100D100031C202C206C205C2087F30800F3005030F
:100D2000E9C0E0120974300503D0E0F9D0E0B5095C
:100D3000CC3005177F30B9100C1209747F5830047D
:100D4000077F788003B908031209743002057F2DEC
:100D50000209747F202008F87F2B2006F3229202DC
:100D600080CF7F00B40700500B2451F582E434009B
:100D7000F583E0FF22286E756C6C2900D201120900
:100D8000313001F8C201780930D50108F60209E0D6
:100D90002D504349581209312403B405004001E4A1
:100DA000900D9093120965743A120965D203750982
:100DB00004020BB6C0E0C0F0C083C082C085C0840E
:100DC000C086758600C093759300C0D075D000C0F2
:100DD00000C001C002C003C004C005C006C0077F38
:100DE000007E007D007C009000001207FA7F007EEC
:100DF000007D007C009000041207FA7F007E007DD9
:100E0000007C009000081207FA7F007E007D007CC5
:100E10000090000C1207FA7F007E007D007C00909D
:100E200000101207FA7F007E007D007C00900023F6
:100E30001207FA900027E4F0A3E4F09000AAE0FE85
:100E4000A3E0FFEF64014E7018121EE2E4120331BA
:100E50009000C01207FA9000AAE4F0A3E4F0021197
:100E600015121EE2E41203319000001207FA9000FE
:100E7000001207C29000C01207CE1202B8502E9086
:100E800000C01207C2C004C005C006C007121F4937
:100E9000E4120331A804A905AA06AB07D007D006BF
:100EA000D005D0041200219000C01207FA90000073
:100EB0001207CE9000C01207C212001D900004124B
:100EC00007FA121F49E4120331A804A905AA06ABC8
:100ED000079000041207C212021B7BFE7AF479B25B
:100EE00078431201129000081207FA9000041207CA
:100EF000C2C004C005C006C0079000A8E0FEA3E081
:100F0000FF7C007D051205FAEDAE047802C333CEF6
:100F100033CED8F9FF74AC2FF58274003EF583D040
:100F200007D006D005D0041207FA9000A8E475F0A7
:100F30000112063012186C9000C41207FA900000DB
:100F40001207C29000C01207FA9000C41207CE7FA9
:100F5000337E337D437C4012001D90000C1207FA53
:100F60009000C81207C2C004C005C006C0079000A8
:100F7000081207C290000C1207CE120112A804A991
:100F800005AA06AB07D007D006D005D00412002171
:100F90009000C81207FA9000A8E0FEA3E0FFEF64FB
:100FA0001C4E700E7F007E007D007C009000C812F9
:100FB00007FA7F007E107DA47C4590000C1207CEBE
:100FC0001201127B007A0079617844120021C0047A
:100FD000C005C006C0077F007E007DFA7C439000FC
:100FE0000C1207CE1201129000081207CE12021B3B
:100FF000A804A905AA06AB07D007D006D005D004DF
:101000001200219000231207FA7F01121B957D0028
:101010007F0012199C7B017A007914C003C002C0C2
:10102000017BFF7A1E799990002C12082690000C03
:101030001207C290002F1207FAD001D002D003127B
:1010400009967B017A007914121A467BFF7A1E7981
:101050009C121A467B017A007914C003C002C001B9
:101060007BFF7A1E799990002C1208267F007E0063
:101070007DFA7C4390000C1207CE120112900008FA
:101080001207CE12021B90002F1207FAD001D002D5
:10109000D0031209967B017A007914121A467F0058
:1010A0007E007D7A7C459000231207CE1202B86044
:1010B00010400E7F007EC07DA87C44900023120764
:1010C000FA7F007E007D007C009000231207CE1284
:1010D00002B86002500E7F007E007D807C3F900051
:1010E000231207FA9000231207C212036F90002701
:1010F000EEF0A3EFF07D007F0112199C900027E035
:10110000FEA3E0FFE4FCFD12171E900027E0FEA303
:10111000E0FF121D77D007D006D005D004D003D051
:1011200002D001D000D0D0D093D086D084D085D04A
:1011300082D083D0F0D0E0327B007A4679E8121F6B
:1011400031EF4405FD7B007A4679E8121F3D750FAB
:1011500000E50FC3940A503AAF0FEF75F005A424D1
:1011600071F582E4341FF583AF82AE838E0D8F0E4E
:10117000AE0DAF0E8F828E8312082FAE0DAF0E8F85
:10118000828E83740393FC740493FD121D91050FEA
:1011900080BF7B087A007900121CD17B017A5079DC
:1011A00003121F31EF4402FD7B017A507903121FB5
:1011B0003D7B017A507913121F31EF4402FD7B0110
:1011C0007A507913121F3D9043A0E0FFEF4440FF97
:1011D0009043A0EFF09043C2E0FFEF4410FF904334
:1011E000C2EFF07B087A027900C003C002C0017B25
:1011F000007A51792290005E120826D001D002D0E8
:10120000037F087E00121BCB7B087A027908C0039B
:10121000C002C0017B007A51793290005E1208262C
:10122000D001D002D0037F087E00121BCB7B087A4E
:10123000027910C003C002C0017B007A517942904C
:10124000005E120826D001D002D0037F087E001273
:101250001BCB9044F47401F0904322E0FFEF44086C
:10126000FF904322EFF09046ECE0FFEFC39405506F
:1012700006904689743AF090480074F1F012142FE9
:1012800090480074B1F0121C3B7B007A4379A0C0F7
:1012900003C002C0017B007A4379B090005E12085F
:1012A00026D001D002D0037F0E7E00121BCB9043CC
:1012B000B0E0FFEF54FDFFEFF0227F947E017D0050
:1012C0007C009000611207FA905120E0FFEF5480FB
:1012D000FFEFF0905122E0FFEF54F0FF900060EF3D
:1012E000F0900060E0FFEF440FFF905122EFF0908C
:1012F0005123E0FFEF54F0FF900060EFF0900060AA
:10130000E0FF905123EFF0905124E0FFEF54F0FF05
:10131000900060EFF0900060E0FF905124EFF090BB
:101320005120E0FFEF54DFFFEFF0905120E0FFEF9E
:101330004440FFEFF07F007E00121CA4905120E09B
:10134000FFEF4410FFEFF07F017E00121CA49051CC
:1013500021E0FF900060EFF0905120E0FFEF54EFAC
:10136000FFEFF07F007E00121CA4900060E0FFEF12
:101370005408FF900060EFF0905120E0FFEF441020
:10138000FFEFF07F017E00121CA4905120E0FFEFE0
:1013900054EFFFEFF0900060E0FFEF70077F0A7EF0
:1013A00000121CA49000611207C27BFF7AFF79FF34
:1013B00078FF1206469000611207FA900060E0FF85
:1013C000EF60129000611207C2D3EF9400EE940018
:1013D0004003021335905120E0FFEF54BFFFEFF0C0
:1013E000905120E0FFEF5480FFEFF0905122E0FF9A
:1013F000EF54F0FFEFF0905123E0FFEF54F0FF9037
:101400000060EFF0900060E0FFEF440FFF90512389
:10141000EFF0905124E0FFEF54F0FF900060EFF008
:10142000900060E0FFEF440FFF905124EFF0227B2B
:10143000007A4079807D017C00121EF19040827418
:1014400018F07B007A4079847D177C00121EF190A1
:1014500040867418F09043007402F09040007408C5
:10146000F09042007403F07B0C7A017908121F316E
:101470009046A1EFF07B007A4279227D087C001231
:101480001EF17B007A4279207D517C12121EF19070
:10149000005DE4F07F197E007D007C009000591211
:1014A00007FA9000591207C2D3EF9400EE9400405F
:1014B0004E90005DE0FFEF64036044904225E0FF42
:1014C000EF5401FF7E0090005DE0FEEE25E0FEEEB1
:1014D0004FFFEF5403FF90005DEFF07FE07E017D52
:1014E000007C00121C009000591207C27BFF7AFF9B
:1014F00079FF78FF1206469000591207FA80A390F0
:1015000000591207C2EF4E70057F03121EC07B0008
:101510007A4079047D007C01121EF190400474072A
:10152000F0904006E4F09040087448F0904004E4E5
:10153000F09040017402F09043A2E0FFEF4403FFFB
:101540009043A2EFF02290002D1208267F007E002B
:101550007D007C009000301207FA7F007E007D0045
:101560007C009000341207FA7F057E007D007C002D
:101570009000381207FA9000A8E0FEA3E0FFC3EF46
:101580009405EE6480948050149000A8E0FEA3E0DF
:10159000FFEE3395E0FDFC9000381207FA7F007EE5
:1015A000007D007C009000341207FA90003812078A
:1015B000C29000341207CEC312078B505B900030EC
:1015C0001207C2C004C005C006C0077F047E007DAC
:1015D000007C009000341207CE12065390002D12AA
:1015E0000806E92FF9EA3EFAEB3DFB1207DAD007CD
:1015F000D006D005D0041200219000301207FA90D6
:1016000000341207C27B017A007900780012064686
:101610009000341207FA80939000381207C2E41247
:101620000331A804A905AA06AB079000301207C22F
:1016300012021B2275930078007583467582E8E0DC
:101640004401F0009046ECE0F99046FAE0FAB90364
:10165000225420B40012B8001AEA901FFFF074015F
:10166000901FFEF09046F6F0901FFEE06005901F80
:10167000FFE0FA90480074C0F07581219000007876
:10168000007920E4F0A3D8FCD9FAEA9000D5F00262
:10169000001175101F7511FD1211380216D9021CA8
:1016A00071E493A3F8E493A34003F68001F208DF0A
:1016B000F48029E493A3F85407240CC8C333C4541A
:1016C0000F4420C8834004F456800146F6DFE480CE
:1016D0000B01020408102040809019F3E47E01936E
:1016E00060BCA3FF543F30E509541FFEE493A360A0
:1016F000010ECF54C025E060A840B8E493A3FAE4FB
:1017000093A3F8E493A3C8C582C8CAC583CAF0A34B
:10171000C8C582C8CAC583CADFE9DEE780BE9000BB
:10172000291207FA900039740AF0900039E0FF742A
:101730002E2FF582E43400F583E4F0900039E014B4
:10174000F09000291207C2C3EF940AEE94004057AC
:101750007B0A7A00790078009000291207C21206ED
:10176000DEAC00AD01AE02AF03EF2430FF90002DE0
:10177000EFF090002DE0FF900039E0FE742E2EF582
:1017800082E43400F583EFF09000291207C27B0A4F
:101790007A00790078001206DE9000291207FA908C
:1017A0000039E014F0809A7B0A7A00790078009082
:1017B00000291207C21206DEAC00AD01AE02AF0373
:1017C000EF2430FF90002DEFF090002DE0FF90000F
:1017D00039E0FE742E2EF582E43400F583EFF090AC
:1017E0000039E0FF742E2FF9E43400FA7B01121A5D
:1017F00046227F287E007D007C001218DB7F0312CA
:101800001A947F057E007D007C001218DB7F031296
:101810001A947F0F7E007D007C001218DB7F03127C
:101820001A947F017E007D007C001218DB7F02127B
:101830001A947F057E007D007C001218DB7F061263
:101840001B957F0E121B957F2C121B957F08121B78
:10185000957F01121B957F0C121B957F03121B9520
:101860007F057E007D007C001218DB227F007E0059
:101870007D007C009000291207FA7B017A0079AC88
:101880001215469000291207FA121F49E41203317B
:10189000A804A905AA06AB079000291207C21202E4
:1018A0001B7BFE7AF479B278431201129000291260
:1018B00007FA9000291207CE7F717E3D7DCA7C3FDA
:1018C00012021B7B007A007940784112021B9000C3
:1018D000291207FA9000291207C22290FFFC120871
:1018E000611207FA8510838511821207C2D3EF9423
:1018F00000EE9480402F9000D61207C2121C008583
:101900001083851182C083C0821207C2EF2400FFBA
:10191000EE3480FEED34FFFDEC34FFFCD082D0834A
:101920001207FA80BF9000CC1207C2851083851180
:10193000821207CE120653121C0090000412086196
:1019400022900060EFF0905120E0FFEF4420FFEF85
:10195000F0905120E0FFEF54BFFFEFF07F007E00DA
:10196000121CA4905120E0FFEF54F0FFEFF09051D3
:1019700020C083C082E0FF900060E0FEEE4410FED5
:10198000EF4EFFD082D083EFF07F017E00121CA4C7
:10199000905120E0FFEF54EFFFEFF022900059EF5D
:1019A000F090005AEDF0900059E0FFEF12083B195B
:1019B000BF0019CC0119D90219E603000019F290F1
:1019C000005AE0FFEF2480FF121B952290005AE09E
:1019D000FFEF24C0FF121B952290005AE0FFEF2476
:1019E00094FF121B952290005AE0FFEF24D4FF12BF
:1019F0001B95224400C0000000004200AA000142E2
:101A000000A800004400C4000000004400C800001A
:101A100000004100E0004100DF004100E100410022
:101A2000E2004400D1016E36004400CC00005DC0ED
:101A30004100D0184400D62EE000004300DA000038
:101A4000004100E3000090005912082690005C74E9
:101A500001F09000591208061205A2FF90005DEFF8
:101A6000F090005DE0FFEF602A90005DE0FF121B48
:101A70005F90005912080690005CE0FFE92FF9E43E
:101A80003AFA1205A2FF90005DEFF090005CE004CE
:101A9000F080CE2290005DEFF0905120E0FFEF54F7
:101AA0009FFFEFF0905120E0FFEF54F0FFEFF09038
:101AB0005120C083C082E0FF90005DE0FEEE441044
:101AC000FEEF4EFFD082D083EFF07F017E00121C2C
:101AD000A4905120E0FFEF54EFFFEFF022906473E9
:101AE000E0FFEF54C0FF900059EFF0900059E0FF85
:101AF000EF4409FF906473EFF0906492E0FFEF44CD
:101B000001FFEFF0906493E0FFEF4401FFEFF07FFF
:101B1000107E27121D437F107E27121D5D7F007EE1
:101B200000121D77227FFF7EFF7DFF7CFF121DEFDD
:101B30007FFF7EFF7DFF7CFF121E05121E5A900064
:101B400059EFF0906597E0FFEF4410FFEFF0900041
:101B500059E0FF121DAA121F007F00121ED2229010
:101B6000005EEFF01212BA90005EE0FFEFC4540F77
:101B7000FF90005FEFF090005FE0FF1219419000CE
:101B80005EE0FFEF540FFF90005FEFF090005FE02A
:101B9000FF1219412290005BEFF01212BA90005B25
:101BA000E0FFEFC4540FFF90005CEFF090005CE0AA
:101BB000FF121A9490005BE0FFEF540FFF90005C5F
:101BC000EFF090005CE0FF121A9422758600EF4E51
:101BD0006027EF60010E75930090005EE0F595A31D
:101BE000E0F585A3E0F5848B938A838982E0A305E1
:101BF00086F0A31586DFF6DEF4E4F593F595223240
:101C0000EC4D4E700D78FCEF24E950032840FD2286
:101C100000007BF178DA0000EF28FF78FFEE38FE55
:101C2000ED38FDEC38FC50E7EF2BFFEE38FEED38D9
:101C3000FDEC38FC40F222050203047B0C7A0179AA
:101C4000CF121F31900059EFF0900059E0FFEF5490
:101C500007FF90586EEFF0900059E0FFEFC4540F6B
:101C6000FFEF540FFF90586FEFF09058767444F0E8
:101C700022D2AF9044F474FDF0121E1B7D007F0051
:101C800012199C7BFF7A1E799F121A46121E45126A
:101C90001EAD7E0D7FB4121D25121E30121DC28096
:021CA000FE2222
:101CA400EEFA9000D0E0F88FF0A4FFAEF0E88AF0EE
:101CB400A42EFEE5F03400FDEF24C9FF78FFEE38D2
:101CC400FEED38FDE438FC5003021C0022ACEAAD02
:101CD400A08B938A838982E0F96017A3E0F5EAA3D5
:101CE400E0F5A0A3E060F4FAA3E0F8A3E0F2DAF8E8
:101CF400D9E98DA08CEAE4F59322EFB40A07740DB8
:101D0400121D09740A309811A899B8130CC298309E
:101D140098FDA899C298B811F63099FDC299F59921
:101D240022900059EEF0A3EFF07B027A4479009000
:101D34000059E0FEA3E0FFAD07AC06121EF32290AB
:101D4400005AEEF0A3EFF07B027A64790290005A15
:101D5400E0FCA3E0FD121EF32290005AEEF0A3EF84
:101D6400F07B027A64794290005AE0FCA3E0FD1211
:101D74001EF32290005AEEF0A3EFF07B027A64790E
:101D84002290005AE0FCA3E0FD121EF322EC4D6009
:101D940011ED60010C8B938A838982E4F0A3DDFC4E
:101DA400DCFA75930022EF54016004D2AF8002C2C2
:101DB400AFEF5402FF9044F4E054FD4FF0229043FF
:101DC400A2E0FFEF4402FFEFF09043B2E0FFEF44E4
:101DD40002FFEFF022900059EFF0900059E0FFEF7E
:101DE400C43354E0FF904480EFF02290005A12076D
:101DF400FA7B027A65792490005A1207C2121E8671
:101E04002290005A1207FA7B027A65790490005AEC
:101E14001207C2121E86229000DFE0FFEF70091243
:101E240017F29000DF7401F0121F0D229000E1E020
:101E3400FFEF7009121ADD9000E17401F0121F190E
:101E4400229000E2E0FFEF7009121B259000E2747B
:101E540001F0121F25229044F4E0F84402F0E85403
:101E640002FF10AF012274014FFF228B938A8389F2
:101E740082E0FFA3E0FEA3E0FDA3E0FC7593002253
:101E84008B938A838982EFF0A3EEF0A3EDF0A3ECA9
:101E9400F0759300222566002F2F00454C45333002
:101EA40032204361726C616200121F647E1B7FFFEB
:101EB400121D257F07121DD9121F5D2290005EEFAF
:101EC400F090005EE0FF90005EEFF080FE22900054
:101ED4005AEFF090005AE0FF906587EFF02290658A
:101EE40004E0FF7B027A657944121E71228B938A87
:101EF400838982EDF0A3ECF075930022121F6BEF3F
:101F040030E305121F5380F4227F0C121B959000BE
:101F1400E07401F022906473E0FFEF4480FFEFF07F
:101F240022906574E0FFEF4480FFEFF0228B938AE8
:101F3400838982E0759300FF228B938A838982EDE3
:101F4400F0759300227B027A657924121E71227B3C
:101F5400027A657944121E71229044C07401F02201
:101F64009044C87401F022906567E0FF22004F009E
:101F7400000C005100002000515000200051C0000E
:101F8400100051F0001001000010000114000800BE
:0F1F94000140000A00014C000200015000002033
:00000001FF
