:10000000021676008F828E83E0540100000070F8A3
:100010002278FFE4F6D8FD0216D40203DBE8648000
:10002000F8E933E83360110460F0ED33EC33700924
:10003000E8FCE9FDEAFEEBFF220460DED3EB9FEA79
:100040009EE99DE8C2E78CF0C2F795F0400CE8CC41
:10005000F8E9CDF9EACEFAEBCFFB1203A685D0F092
:100060005804700320D5B3E80470075002B2D502DB
:1000700003E592D5EC0460F7E4CCC0E0C398F860E7
:100080003B94186008400DD0E0FB0203BDE4FBFA8E
:10009000C9FC8028E830E406E4C9FBE4CAFCE83087
:1000A000E305E4C9CACBFCE854076010F8C3E913C0
:1000B000F9EA13FAEB13FBEC13FCD8F130F52FC37C
:1000C000E49CFCEF9BFFEE9AFEED99FDD0E0FBEF88
:1000D0004E4D4C701222DB030203E2EC2CFCEF339A
:1000E000FFEE33FEED33FDED30E7EB0203BDEF2B0A
:1000F000FFEE3AFEED39FDD0E0FB50130BBB0003E1
:100100000203E5ED13FDEE13FEEF13FFEC13FC020B
:1001100003BDEC4D6011E8497017ED33EC3304601A
:100120000DE4FCFFFEFD22E933E8330470F802031E
:10013000DB1203A658046009E4CC24815006285041
:10014000090203E52840030203E2C0E0EB4A7044E1
:10015000B98006D0E0FB0203D1EF4E701CBD8008D1
:10016000EBFFEAFEE9FD80EBE98DF0A4FEE5F0028D
:1001700001FBE9CDF9EAFEEBFFEF89F0A4FCE5F025
:10018000CE89F0A42EFFE435F0CD89F0A42DFEE455
:1001900035F08067EF4E7005BD80D780C3EF8BF0E0
:1001A000A4ACF0EE8BF0A42CFCE435F0F8EF8AF070
:1001B000A42CE5F038FCE433CB8DF0A42CFCE5F066
:1001C0003BF8EE8AF0A42CFCE5F038F8E433CF8954
:1001D000F0A42CFCE5F038CF3400CE89F0A42FFF3A
:1001E000E5F03EFEE433C98DF0A42EFEE5F039CDF6
:1001F0008AF0A42FFFE5F03EFEE43DFD33D0E0FBA6
:1002000050070BBB000F0203E5EC2CFCEF33FFEEB5
:1002100033FEED33FD0203BD0203E5EC5D04600532
:10022000E8590470030203DB1203A6580460F6ECDD
:100230004860F2EC7004FDFEFF22C860DB2481C838
:100240005009C398600250060203E29850CAF58232
:10025000E9294B4A7005AB820203D175F0007C1A84
:100260007880C3EF9BEE9AED99400DC3EF9BFFEEB4
:100270009AFEED99FDE842F0DC23ACF0D0E0FFD02F
:10028000E0FED0E0FDAB8220E7101BEB60BAEC2C67
:10029000FCEF33FFEE33FEED33FD0203BDE803F860
:1002A00030E705C0F075F000EF2FFFEE33FEED33C1
:1002B000FD40B830E7C280AA74F8CC6480CCC86432
:1002C00080C8F58204604FC3EB9FF5F0EA9E42F0D0
:1002D000E99D42F0E89C45F0603C501DE5825FFFDF
:1002E000E582D313CB5BCBF42B5582FB50280ABAA3
:1002F000002409B9002008801DE5825BFBE582D35C
:1003000013CF5FCFF4C3132F5582FF50090EBE00E9
:10031000050DBD00010CC3EB9FF5F0EA9E42F0E92C
:100320009D42F0E89C45F06007CC4820E701B3EC23
:100330002275F020800E75F010800575F0087D00A4
:100340007E007F003392D530D50312077DEC334019
:1003500010EF33FFEE33FEED33FDEC33FCD5F0ED63
:1003600022E5F0247EA2D513CC92E7CDCEFF22ED7C
:10037000D2E7CD33EC3392D524814006E4FFFEFD75
:10038000FC22FCE4CFCECDCC24E0501174FF80EDF4
:10039000C3CC13CCCD13CDCE13CECF13CF0470F07E
:1003A00030D5DE02077DE9D2E7C933E833F892D5CC
:1003B000EDD2E7CD33EC33FC5002B2D522EC30E77E
:1003C000100FBF000C0EBE00080DBD00040BEB604B
:1003D00014A2D5EB13FCED92E7FD2274FFFCFDFEA9
:1003E000FF22E480F8A2D574FF13FC7D80E480EF47
:1003F000F920E73624F950037907E4F42402FBE5F9
:1004000082158270021583DBF6E024FB501BE96045
:1004100014E4F0E582158270021583E004F0B40A5A
:1004200008E4F0D9EE7401F00A22C2D522ED33ECD3
:100430003392D5FA602AB4FF33EDC2E77BFF600642
:100440007A047952E4227A04795B20D5047A04791B
:1004500056224E614E002B494E46002D494E460015
:10046000E47A08F0A3DAFC7B00740722C083C08220
:10047000ECC0E0EDC0E0EEC0E0EFC0E0EA75F010E7
:10048000A4CAABF075F04DA42BFBE435F0FCEA24D4
:1004900010FAEB34C5FBEC34D9FCEDC2E7FF75F084
:1004A00056A4F42411C5F0F434C58FF0A42AE5F065
:1004B0003BE43CF020E714120562D0E0FFD0E0FE00
:1004C000D0E0FDD0E0FC12021B8014F4041205629F
:1004D000D0E0FFD0E0FED0E0FDD0E0FC120112D071
:1004E00082D083E0FAEDD2E7CD33EC332482FBE413
:1004F000C3CF33CFCE33CECD33CD33DBF37B0775D4
:10050000F00A846004F0A31B0AE5F0F0A38FF074F6
:100510000AA4FFACF08EF0740AA42CFEACF05001DB
:100520000C8DF0740AA42CFDE435F0F0A3DBDE742E
:1005300007223F8000004120000042C80000447AAA
:100540000000461C400047C35000497424004B186B
:1005500096804CBEBC205A0E1BCA6753C21C749DA9
:10056000C5AEFB60065407601C2323120590EB54B4
:1005700038600912057C12058B120112ECF8EDF9B6
:10058000EEFAEFCB22EB12058B80F1543803241CDA
:10059000900532FE93FC0EEE93FD0EEE930ECE937D
:1005A000FF22BB010689828A83E0225002E722BB38
:1005B000FE02E32289828A83E49322BB010CE58256
:1005C00029F582E5833AF583E0225006E92582F891
:1005D000E622BBFE06E92582F8E222E58229F582C1
:1005E000E5833AF583E49322BB010689828A83F08E
:1005F000225002F722BBFE01F322C2D5EC30E709FC
:10060000B2D5E4C39DFDE49CFCEE30E715B2D5E421
:10061000C39FFFE49EFE1208B2C3E49DFDE49CFC70
:1006200080031208B230D507C3E49FFFE49EFE2288
:10063000C5F0F8A3E028F0C5F0F8E5821582700255
:100640001583E038F022EF2BFFEE3AFEED39FDEC9A
:1006500038FC22E88FF0A4CC8BF0A42CFCE98EF0BF
:10066000A42CFC8AF0EDA42CFCEA8EF0A4CDA8F01A
:100670008BF0A42DCC3825F0FDE98FF0A42CCD35DE
:10068000F0FCEB8EF0A4FEA9F0EB8FF0A4CFC5F048
:100690002ECD39FEE43CFCEAA42DCE35F0FDE43C41
:1006A000FC2275F008758200EF2FFFEE33FECD338C
:1006B000CDCC33CCC58233C5829BED9AEC99E582D3
:1006C00098400CF582EE9BFEED9AFDEC99FC0FD55F
:1006D000F0D6E4CEFBE4CDFAE4CCF9A88222B8004F
:1006E000C1B90059BA002DEC8BF084CFCECDFCE51A
:1006F000F0CBF97818EF2FFFEE33FEED33FDEC333E
:10070000FCEB33FB10D703994004EB99FB0FD8E5C2
:10071000E4F9FA227818EF2FFFEE33FEED33FDEC0B
:1007200033FCC933C910D7059BE99A4007EC9BFC01
:10073000E99AF90FD8E0E4C9FAE4CCFB2275F0108D
:10074000EF2FFFEE33FEED33FDCC33CCC833C810B2
:10075000D7079BEC9AE899400AED9BFDEC9AFCE8E0
:1007600099F80FD5F0DAE4CDFBE4CCFAE4C8F9222D
:10077000EF4BFFEE4AFEED49FDEC48FC22C3E49F3F
:10078000FFE49EFEE49DFDE49CFC22EB9FF5F0EA75
:100790009E42F0E99D42F0E89C45F022E8600FECB3
:1007A000C313FCED13FDEE13FEEF13FFD8F122E8A7
:1007B000600FEFC333FFEE33FEED33FDEC33FCD8B7
:1007C000F122E0FCA3E0FDA3E0FEA3E0FF22E0F8BD
:1007D000A3E0F9A3E0FAA3E0FB22BB010789828A28
:1007E000830207CE5005E9F8020907BBFE05E9F8C8
:1007F00002091489828A83020921ECF0A3EDF0A397
:10080000EEF0A3EFF022E0FBA3E0FAA3E0F922F878
:10081000E0FBA3A3E0F925F0F0E582158270021554
:1008200083E0FA38F022EBF0A3EAF0A3E9F022E447
:1008300093FB740193FA740293F922D083D082F867
:10084000E4937012740193700DA3A393F874019351
:10085000F5828883E4737402936860EFA3A3A38096
:10086000DFE5112582F582E5103583F583B51004A7
:100870008582112210AF06858211F5102285821122
:10088000F510D2AF22EC8EF0A4CCC5F0CCCDF8EFB1
:10089000A4CEC5F02DFDE43CFCE8A42EC8C5F03D77
:1008A000FDE43CFCEFA4FFE5F028FEE43DFDE43C64
:1008B000FC22BC000BBE0029EF8DF084FFADF022BE
:1008C000E4CCF875F008EF2FFFEE33FEEC33FCEECE
:1008D0009DEC984005FCEE9DFE0FD5F0E9E4CEFDC1
:1008E00022EDF8F5F0EE8420D21CFEADF075F00894
:1008F000EF2FFFED33FD4007985006D5F0F222C3ED
:1009000098FD0FD5F0EA22E6FB08E6F908E6FA08BA
:10091000E6CBF822E2FB08E2F908E2FA08E2CBF8BB
:1009200022E493F8740193F9740293FA740393FB2D
:1009300022E5082444F582E43400F583E00508222A
:10094000900041300703900044E475F00112080F55
:100950000205A22000E97F2ED2008018EF540F2458
:1009600090D43440D4FF30040BEF24BFB41A0050AD
:10097000032461FFE50960021509050CE50C70020E
:10098000050B30070E900041E475F00112080FEFDF
:100990000205E80220197403D2078003E4C207F5B8
:1009A00008900041120826E4F509F50BF50CE5095D
:1009B00060077F2012097480F5750AFFC201C2002A
:1009C000C202C203C205C206C208120940FF700D6E
:1009D0003007057F00120985AF0CAE0B22B4255FEE
:1009E000C2D5C204120940FF24D0B40A00501A75BF
:1009F000F00A780930D50508B6FF0106C6A426F628
:100A000020D5047002D20380D924CFB41A00EF504D
:100A100004C2E5D204020C77D20180C6D20080C0A5
:100A2000D20280BCD2D580BAD20580B47F20120910
:100A3000742002077401B5090040F1120931FF1258
:100A400009740209AED208D2068095120931FB1250
:100A50000931FA120931F94A4B700679757A0D7B22
:100A6000FF20022EE509602A7E008E827583001227
:100A700005BB60060EEE650A70F0C2D5EBC0E0EA79
:100A8000C0E0E9C0E0EE120CD8D0E0F9D0E0FAD036
:100A9000E0FB1205A2FF60AAEBC0E0EAC0E0E9C0FB
:100AA000E0120974D0E02401F9D0E03400FAD0E07B
:100AB000FBE50A0460DCD50AD98087D20280A21245
:100AC0000CBA60F7E50A7001041203F0A90A600D80
:100AD000E50A600914F50A120D62EF60F3EA30E7E7
:100AE00002F404C3995079EAF4250A0430E701E4DA
:100AF00004F50A800D120CBA60C1EA050A250A1233
:100B000003F0EA900070F030E701E4250A04D50A0A
:100B10000420050114120CD8E4C0E0120D6290000C
:100B200070E0601320E70714F012095C802204F0E3
:100B3000D0E014C0E07F0012095CE50A60071209EA
:100B400053150A800B300503120953D0E00209AE99
:100B5000D0E00480C4120CBA609EE50A041203F0CF
:100B6000900070EAF0E50A200502600104240412F6
:100B70000CD874FF04C0E0120D6212095CE50A2073
:100B800005026003120953D0E0B50AE87F45120957
:100B900066900070E07F2B30E7047F2DF404C0E006
:100BA000120974D0E075F00A84C0F012095DD0E03B
:100BB00012095D0209AE791080027908C206C208E6
:100BC0008008D2D5790A8004790AC2D5E50A047072
:100BD00002F50AE4FAFDFEFF120931FC7B08200150
:100BE00013120931FD7B1030000A120931FE12097F
:100BF00031FF7B20EC3382D592D55013C3E4300013
:100C0000069FFFE49EFEE42001039DFDE49CFCE4BE
:100C1000CBF8C201EC700CCFCECDCCE824F8F87044
:100C2000F38017C3EF33FFEE33FEED33FDEC33FCFF
:100C3000EB33FB994002FB0FD8E9EB300105F8D00C
:100C4000E0C448B201C0E00AEC4D4E4F78207B0072
:100C500070C2EAB50A0040BCC0E0120CDAD0F0D095
:100C6000E0200104C4C0E0C4B201C0F012095DD0AC
:100C7000F0D5F0EB0209AE12083B0A4B530BB65805
:100C80000A1C4C0A18420BBA4F0BC2440BC2490A49
:100C900031430BC8550AF5460B55450ABF470D951C
:100CA000500A202D0A242E0A472B0A28230A452001
:100CB0000D7E2A09E04800000A3FE50AB4FF0375EB
:100CC0000A06120931FC120931FD120931FE12091E
:100CD00031FF90006902042D790AA2D52003143057
:100CE0000509B910020404B9080104A2D5200602BE
:100CF0005001042002689202B509005034C0E07F20
:100D0000203003197F30A20272067205500F120DB7
:100D100031C202C206C205C2087F30800F3005030F
:100D2000E9C0E0120974300503D0E0F9D0E0B5095C
:100D3000CC3005177F30B9100C1209747F5830047D
:100D4000077F788003B908031209743002057F2DEC
:100D50000209747F202008F87F2B2006F3229202DC
:100D600080CF7F00B40700500B2469F582E4340083
:100D7000F583E0FF22286E756C6C2900D201120900
:100D8000313001F8C201780930D50108F60209E0D6
:100D90002D504349581209312403B405004001E4A1
:100DA000900D9093120965743A120965D203750982
:100DB00004020BB6C0E0C0F0C083C082C085C0840E
:100DC000C086758600C093759300C0D075D000C0F2
:100DD00000C001C002C003C004C005C006C0077F38
:100DE000007E007D007C009000181207FA7F007ED4
:100DF000007D007C0090001C1207FA7F007E007DC1
:100E0000007C009000201207FA7F007E007D007CAD
:100E1000009000241207FA7F007E007D007C009085
:100E200000281207FA7F007E007D007C0090003BC6
:100E30001207FA90003FE4F0A3E4F09000C3E0FE54
:100E4000A3E0FFEF64014E701812234EE412033149
:100E50009000D91207FA9000C3E4F0A3E4F0021165
:100E60001512234EE41203319000181207FA900075
:100E7000181207C29000D91207CE1202B8502E9055
:100E800000D91207C2C004C005C006C007121EF573
:100E9000E4120331A804A905AA06AB07D007D006BF
:100EA000D005D0041200219000D91207FA90001842
:100EB0001207CE9000D91207C212001D90001C121A
:100EC00007FA121EF5E4120331A804A905AA06AB1D
:100ED0000790001C1207C212021B7BFE7AF479B243
:100EE00078431201129000201207FA90001C12079A
:100EF000C2C004C005C006C0079000C1E0FEA3E068
:100F0000FF7C007D051205FAEDAE047802C333CEF6
:100F100033CED8F9FF74C52FF58274003EF583D027
:100F200007D006D005D0041207FA9000C1E475F08E
:100F3000011206301218AE9000DD1207FA90001868
:100F40001207C29000D91207FA9000DD1207CE7F77
:100F5000337E337D437C4012001D9000241207FA3B
:100F60009000E11207C2C004C005C006C00790008F
:100F7000201207C29000241207CE120112A804A961
:100F800005AA06AB07D007D006D005D00412002171
:100F90009000E11207FA9000C1E0FEA3E0FFEF64C9
:100FA0001C4E700E7F007E007D007C009000E112E0
:100FB00007FA7F007E107DA47C459000241207CEA6
:100FC0001201127B007A0079617844120021C0047A
:100FD000C005C006C0077F007E007DFA7C439000FC
:100FE000241207CE1201129000201207CE12021B0B
:100FF000A804A905AA06AB07D007D006D005D004DF
:1010000012002190003B1207FA7F01121E8B7D0017
:101010007F00121BC87B017A00792CC003C002C07C
:10102000017BFF7A20790590004412082690002465
:101030001207C29000471207FAD001D002D0031263
:1010400009967B017A00792C121C1F7BFF7A20798C
:1010500008121C1F7B017A00792CC003C002C0015A
:101060007BFF7A2079059000441208267F007E00DD
:101070007DFA7C439000241207CE120112900020CA
:101080001207CE12021B9000471207FAD001D002BD
:10109000D0031209967B017A00792C121C1F7F0065
:1010A0007E007D7A7C4590003B1207CE1202B8602C
:1010B00010400E7F007EC07DA87C4490003B12074C
:1010C000FA7F007E007D007C0090003B1207CE126C
:1010D00002B86002500E7F007E007D807C3F900051
:1010E0003B1207FA90003B1207C212036F90003FB9
:1010F000EEF0A3EFF07D007F01121BC890003FE0EF
:10110000FEA3E0FFE4FCFD12176090003FE0FEA3A9
:10111000E0FF1220CED007D006D005D004D003D0F7
:1011200002D001D000D0D0D093D086D084D085D04A
:1011300082D083D0F0D0E0327F947E017D007C00AD
:101140009000791207FA905120E0FFEF5480FFEFF2
:10115000F0905122E0FFEF54F0FF900078EFF09014
:101160000078E0FFEF440FFF905122EFF090512301
:10117000E0FFEF54F0FF900078EFF0900078E0FF90
:10118000905123EFF0905124E0FFEF54F0FF9000D6
:1011900078EFF0900078E0FF905124EFF09051202C
:1011A000E0FFEF54DFFFEFF0905120E0FFEF44400D
:1011B000FFEFF07F007E00121F6C905120E0FFEFE8
:1011C0004410FFEFF07F017E00121F6C905121E070
:1011D000FF900078EFF0905120E0FFEF54EFFFEF29
:1011E000F07F007E00121F6C900078E0FFEF540843
:1011F000FF900078EFF0905120E0FFEF4410FFEFF8
:10120000F07F017E00121F6C905120E0FFEF54EF41
:10121000FFEFF0900078E0FFEF70077F0A7E00128A
:101220001F6C9000791207C27BFF7AFF79FF78FF6D
:101230001206469000791207FA900078E0FFEF60FE
:10124000129000791207C2D3EF9400EE940040038D
:101250000211B3905120E0FFEF54BFFFEFF0905127
:1012600020E0FFEF5480FFEFF0905122E0FFEF54B9
:10127000F0FFEFF0905123E0FFEF54F0FF90007883
:10128000EFF0900078E0FFEF440FFF905123EFF074
:10129000905124E0FFEF54F0FF900078EFF09000C1
:1012A00078E0FFEF440FFF905124EFF0227B007AAB
:1012B0004079807D017C0012235D9040827418F09B
:1012C0007B007A4079847D077C0012235D90408604
:1012D0007418F07B007A4079887D177C0012235DBA
:1012E00090408A7418F07B087A047968C003C002C1
:1012F000C0017B007A41790090007B120826D00162
:10130000D002D0037F047E00121EC19043007402FD
:10131000F09040007408F09042007403F07B0C7A67
:101320000179081223C29046A1EFF07B007A42793E
:10133000227D087C0012235D7B007A4279207D515A
:101340007C1212235D900075E4F07F197E007D0011
:101350007C009000711207FA9000711207C2D3EF5F
:101360009400EE9400404E900075E0FFEF6403603F
:1013700044904225E0FFEF5401FF7E00900075E0AD
:10138000FEEE25E0FEEE4FFFEF5403FF900075EFF9
:10139000F07FE07E017D007C00121F009000711242
:1013A00007C27BFF7AFF79FF78FF12064690007133
:1013B0001207FA80A39000711207C2EF4E70057FEA
:1013C000031222DC7B007A4079047D007C01122329
:1013D0005D9040047407F0904006E4F0904008747B
:1013E00048F0904004E4F09040017402F090400B0B
:1013F0007404F09043A2E0FFEF4407FF9043A2EF94
:10140000F09043A1E0FFEF4401FF9043A1EFF09083
:1014100043A0E0FFEF4480FF9043A0EFF0227B0069
:101420007A4679E81223C2EF4405FD7B007A4679BB
:10143000E81223CE750F00E50FC3940A503AAF0FA0
:10144000EF75F005A42420F582E43424F583AF82FF
:10145000AE838E0D8F0EAE0DAF0E8F828E8312086F
:101460002FAE0DAF0E8F828E83740393FC740493A2
:10147000FD122102050F80BF7B087A007900121F40
:10148000997B007A58794C7D037C0212235D7B01A5
:101490007A5079031223C2EF4402FD7B017A50791E
:1014A000031223CE7B017A5079131223C2EF440238
:1014B000FD7B017A5079131223CE9043A0E0FFEF19
:1014C0004440FF9043A0EFF09043C2E0FFEF441090
:1014D000FF9043C2EFF07B087A047958C003C00242
:1014E000C0017B007A51792290007B120826D0013E
:1014F000D002D0037F087E00121EC17B087A0479D7
:1015000060C003C002C0017B007A51794290007B29
:10151000120826D001D002D0037F087E00121EC11F
:101520009044F47401F0904322E0FFEF4408FF90F0
:101530004322EFF09046ECE0FFEFC3940550069095
:101540004689743AF090480074F1F01212AD904858
:101550000074B1F0121C6D7B007A4379A0C003C007
:1015600002C0017B007A4379B090007B120826D03C
:1015700001D002D0037F0E7E00121EC19043B0E066
:10158000FFEF54FDFFEFF0229000451208267F0088
:101590007E007D007C009000481207FA7F007E00EC
:1015A0007D007C0090004C1207FA7F057E007D00D4
:1015B0007C009000501207FA9000C1E0FEA3E0FF0B
:1015C000C3EF9405EE6480948050149000C1E0FE57
:1015D000A3E0FFEE3395E0FDFC9000501207FA7F88
:1015E000007E007D007C0090004C1207FA900050B5
:1015F0001207C290004C1207CEC312078B505B90AB
:1016000000481207C2C004C005C006C0077F047EA0
:10161000007D007C0090004C1207CE120653900013
:1016200045120806E92FF9EA3EFAEB3DFB1207DA0C
:10163000D007D006D005D004120021900048120730
:10164000FA90004C1207C27B017A007900780012F0
:10165000064690004C1207FA80939000501207C281
:10166000E4120331A804A905AA06AB0790004812AA
:1016700007C212021B22759300780075834675829B
:10168000E8E04401F0009046ECE0F99046FAE0FA18
:10169000B903225420B40012B8001AEA901FFFF0D8
:1016A0007401901FFEF09046F6F0901FFEE060057A
:1016B000901FFFE0FA90480074C0F07581219000FF
:1016C0000078007920E4F0A3D8FCD9FAEA9000F081
:1016D000F002001175101F7511FD12141E02171B68
:1016E000021CBBE493A3F8E493A34003F68001F249
:1016F00008DFF48029E493A3F85407240CC8C3330B
:10170000C4540F4420C8834004F456800146F6DFD9
:10171000E4800B01020408102040809019E9E47E67
:10172000019360BCA3FF543F30E509541FFEE493CE
:10173000A360010ECF54C025E060A840B8E493A395
:10174000FAE493A3F8E493A3C8C582C8CAC583CAC0
:10175000F0A3C8C582C8CAC583CADFE9DEE780BE78
:101760009000411207FA900051740AF0900051E085
:10177000FF74462FF582E43400F583E4F0900051C5
:10178000E014F09000411207C2C3EF940AEE9400F7
:1017900040577B0A7A00790078009000411207C216
:1017A0001206DEAC00AD01AE02AF03EF2430FF90B5
:1017B0000045EFF0900045E0FF900051E0FE7446D8
:1017C0002EF582E43400F583EFF09000411207C259
:1017D0007B0A7A00790078001206DE900041120739
:1017E000FA900051E014F0809A7B0A7A0079007830
:1017F000009000411207C21206DEAC00AD01AE023D
:10180000AF03EF2430FF900045EFF0900045E0FF7C
:10181000900051E0FE74462EF582E43400F583EF2B
:10182000F0900051E0FF74462FF9E43400FA7B0198
:10183000121C1F227F287E007D007C001219837FEE
:1018400003121D067F057E007D007C001219837F38
:1018500003121D067F0F7E007D007C001219837F1E
:1018600003121D067F017E007D007C001219837F1C
:1018700002121D067F057E007D007C001219837F09
:1018800006121E8B7F0E121E8B7F2C121E8B7F0862
:10189000121E8B7F01121E8B7F0C121E8B7F031278
:1018A0001E8B7F057E007D007C00121983227F0045
:1018B0007E007D007C009000411207FA7B017A00D7
:1018C00079C51215889000411207FA121EF5E4122C
:1018D0000331A804A905AA06AB079000411207C26C
:1018E00012021B7BFE7AF479B27843120112900047
:1018F000411207FA9000411207CE7F717E3D7DCAEA
:101900007C3F12021B7B007A007940784112021B57
:101910009000411207FA9000411207C222906471B0
:10192000E0FFEF54F8FF90000CEFF090000CE0FFA8
:10193000906471EFF0906471E0FFEF54FCFF900051
:101940000CEFF090000CE0FF906471EFF01223793F
:101950007FFF12231E7F0012230E7F001222FE1231
:1019600024147F6412232E12226490000DEFF09055
:101970006491E0FFEF4410FFEFF090000DE0FF12E4
:10198000211B2290FFFC1208611207FA8510838543
:1019900011821207C2D3EF9400EE9480402F900082
:1019A000F11207C2121F00851083851182C083C007
:1019B000821207C2EF2400FFEE3480FEED34FFFDFB
:1019C000EC34FFFCD082D0831207FA80BF9000E78E
:1019D0001207C28510838511821207CE1206531298
:1019E0001F00900004120861224400D9000000008A
:1019F0004200C300014200C100004400DD000000BD
:101A0000004400E1000000004200E500004100FB4E
:101A1000004100FA004100FC004100FD004100FED1
:101A2000004100FF00410100004400EC016E36005F
:101A30004400E700005DC04100EB184400F12EE0D7
:101A400000004300F500000041010100009000711A
:101A5000EFF0900071E0FFEF5403FF905842E0FE7A
:101A6000EE54FCFEEE4FFF905842EFF0900071E014
:101A7000FFEFB4011D7B0C7A0179121223C290464C
:101A800034EFF07B0C7A0179161223C2904635EFC1
:101A9000F0227B0C7A0179B11223C2904634EFF028
:101AA0007B0C7A0179B91223C2904635EFF022C03F
:101AB000E0C0F0C083C082C085C084C08675860047
:101AC000C093759300C0D075D000C000C001C002A3
:101AD000C003C004C005C006C0077F01121E8B7B77
:101AE000FF7A1F79F2121C1F1223B6D007D006D03E
:101AF00005D004D003D002D001D000D0D0D093D0F4
:101B000086D084D085D082D083D0F0D0E032C0E0BF
:101B1000C0F0C083C082C085C084C086758600C006
:101B200093759300C0D075D000C000C001C002C042
:101B300003C004C005C006C0077F01121E8B7BFFD7
:101B40007A1F79FB121C1F12223AD007D006D0054B
:101B5000D004D003D002D001D000D0D0D093D08612
:101B6000D084D085D082D083D0F0D0E0329000787D
:101B7000EFF0905120E0FFEF4420FFEFF090512074
:101B8000E0FFEF54BFFFEFF07F007E00121F6C906C
:101B90005120E0FFEF54F0FFEFF0905120C083C0E0
:101BA00082E0FF900078E0FEEE4410FEEF4EFFD0A2
:101BB00082D083EFF07F017E00121F6C905120E0F5
:101BC000FFEF54EFFFEFF022900071EFF090007202
:101BD000EDF0900071E0FFEF12083B1BEB001BF8EB
:101BE000011C05021C120300001C1E900072E0FF85
:101BF000EF2480FF121E8B22900072E0FFEF24C0C2
:101C0000FF121E8B22900072E0FFEF2494FF121E41
:101C10008B22900072E0FFEF24D4FF121E8B2290E3
:101C200000711208269000747401F090007112087F
:101C3000061205A2FF900075EFF0900075E0FFEF2F
:101C4000602A900075E0FF121E5590007112080680
:101C5000900074E0FFE92FF9E43AFA1205A2FF9030
:101C60000075EFF0900074E004F080CE227B0C7AD7
:101C70000179CF1223C2900071EFF0900071E0FF64
:101C8000EF5407FF90586EEFF0900071E0FFEFC443
:101C9000540FFFEF540FFF90586FEFF090514D74B9
:101CA00001F0905A907420F0905AD07410F0905A2D
:101CB000D47420F09058767444F022D2AF9044F45B
:101CC00074FDF01221FB1222A37E0D7FB41220407E
:101CD0001222B67E1B7F0E12205E1222C97E1A7F50
:101CE000AF12207C1222251220E81222101221337A
:101CF0001221E67D007F00121BC87BFF7A20790B42
:101D0000121C1F80FE22900075EFF0905120E0FF22
:101D1000EF549FFFEFF0905120E0FFEF54F0FFEF02
:101D2000F0905120C083C082E0FF900075E0FEEE8D
:101D30004410FEEF4EFFD082D083EFF07F017E0093
:101D4000121F6C905120E0FFEF54EFFFEFF0229054
:101D50006472E0FFEF54C0FF900071EFF0900071EB
:101D6000E0FFEF4409FF906472EFF0906492E0FFAF
:101D7000EF4401FFEFF0906493E0FFEF4401FFEFC9
:101D8000F07F107E2712209A7F107E271220B47FCA
:101D9000007E001220CE22905828E0FFEF540CFF66
:101DA0007E00EF7802CEC313CE13D8F9FFEF2406DE
:101DB000FF900072EFF0900072E0FFE4FCFDFEEF98
:101DC0002428FFEE3401FEED340CFDEC3400FCA9B8
:101DD00007AA06AB051223C290460AEFF0227F0045
:101DE000121A4D905842E0FFEF4420FFEFF0905858
:101DF00042E0FFEF54FBFFEFF0905842E0FFEF446A
:101E000008FFEFF0905AD7E0FFEF54E7FFEFF090B4
:101E10005AD7E0FFEF4408FFEFF0227FFF7EFF7DFF
:101E2000FF7CFF12218E7FFF7EFF7DFF7CFF122152
:101E3000A4122264900071EFF0906597E0FFEF44E8
:101E400010FFEFF0900071E0FF12211B12236C7F56
:101E5000001222EE22900076EFF0121138900076F8
:101E6000E0FFEFC4540FFF900077EFF0900077E0B1
:101E7000FF121B6D900076E0FFEF540FFF9000778C
:101E8000EFF0900077E0FF121B6D22900073EFF0EF
:101E9000121138900073E0FFEFC4540FFF900074EC
:101EA000EFF0900074E0FF121D06900073E0FFEF6A
:101EB000540FFF900074EFF0900074E0FF121D06C5
:101EC00022758600EF4E6027EF60010E759300903B
:101ED000007BE0F595A3E0F585A3E0F5848B938A7C
:101EE000838982E0A30586F0A31586DFF6DEF4E49D
:101EF000F593F595227B027A65792412227B2232B2
:101F0000EC4D4E700D78FCEF24E950032840FD2283
:101F100000007BF178DA0000EF28FF78FFEE38FE52
:101F2000ED38FDEC38FC50E7EF2BFFEE38FEED38D6
:101F3000FDEC38FC40F22205020304900071EFF042
:101F4000905828E0FFEF54F3FFEFF0905828C0833B
:101F5000C082E0FF900071E0FEEE540CFEEF4EFFF9
:101F6000D082D083EFF0121D97223232EEFA900029
:101F7000EBE0F88FF0A4FFAEF0E88AF0A42EFEE5C7
:101F8000F03400FDEF24C9FF78FFEE38FEED38FD98
:101F9000E438FC5003021F0022ACEAADA08B938A08
:101FA000838982E0F96017A3E0F5EAA3E0F5A0A336
:101FB000E060F4FAA3E0F8A3E0F2DAF8D9E98DA042
:101FC0008CEAE4F59322900071EFF0905828E0FF3E
:101FD000EF54FDFFEFF0905828C083C082E0FF90DF
:101FE0000071E0FEEE5402FEEF4EFFD082D083EF90
:101FF000F022726561642031303000737461727454
:10200000206F6E65002566002F2F00454C4533304C
:1020100032204361726C616200EFB40A07740D12E2
:102020002024740A309811A899B8130CC2983098DB
:10203000FDA899C298B811F63099FDC299F5992278
:10204000900071EEF0A3EFF07B027A4479029000E9
:1020500071E0FEA3E0FFAD07AC0612235F22900003
:1020600071EEF0A3EFF07B027A447904900071E006
:10207000FEA3E0FFAD07AC0612235F22900071EED5
:10208000F0A3EFF07B027A447900900071E0FEA3A8
:10209000E0FFAD07AC0612235F22900072EEF0A3C2
:1020A000EFF07B027A647902900072E0FCA3E0FD1D
:1020B00012235F22900072EEF0A3EFF07B027A64AD
:1020C0007942900072E0FCA3E0FD12235F229000B1
:1020D00072EEF0A3EFF07B027A647922900072E056
:1020E000FCA3E0FD12235F22900100E0FFEF7009E6
:1020F00012224F9001007401F01221617F641223BB
:102100003E22EC4D6011ED60010C8B938A83898235
:10211000E4F0A3DDFCDCFA75930022EF54016004C7
:10212000D2AF8002C2AFEF5402FF9044F4E054FDFE
:102130004FF0229043A2E0FFEF4404FFEFF0904302
:10214000B2E0FFEF4404FFEFF0229043A7E0FFEF7F
:102150004404FFEFF09043B7E0FFEF4404FFEFF0DB
:10216000229043A8E0FFEF4404FFEFF09043B8E073
:10217000FFEF4404FFEFF022900071EFF090007148
:10218000E0FFEFC43354E0FF904481EFF022900071
:10219000721207FA7B027A6579249000721207C2E4
:1021A000122290229000721207FA7B027A6579045B
:1021B0009000721207C212229022900071EFF090EC
:1021C0000071E0FFEFC43354E0FF904482EFF0224F
:1021D000900071EFF0900071E0FFEFC43354E0FF26
:1021E000904480EFF0229000FAE0FFEF700912189F
:1021F000349000FA7401F0122386229000FCE0FF74
:10220000EF7009121E1B9000FC7401F01223922241
:102210009000FDE0FFEF7009121D4F9000FD74016A
:10222000F012239E229000FEE0FFEF7009121DDEE7
:102230009000FE7401F012214A229000FFE0FFEFAF
:10224000700912191D9000FF7401F01223AA229048
:102250005828E4F0905829E4F07F00121F3B7F00DB
:10226000121FC6229044F4E0F84402F0E85402FF42
:1022700010AF012274014FFF228B938A838982E081
:10228000FFA3E0FEA3E0FDA3E0FC759300228B9387
:102290008A838982EFF0A3EEF0A3EDF0A3ECF07552
:1022A0009300221223EB7E1E7FFF1220407F071235
:1022B00021781223E4221223F97E1F7F6A12205E06
:1022C0007F071221BA1223F2221224077E1F7F6B8E
:1022D00012207C7F071221D012240022900076EF7A
:1022E000F0900076E0FF900076EFF080FE22900004
:1022F00072EFF0900072E0FF906587EFF02290009F
:102300000EEFF090000EE0FF906481EFF02290005D
:102310000EEFF090000EE0FF906401EFF0229000CD
:102320000EEFF090000EE0FF906421EFF02290009D
:102330000EEFF090000EE0FF906431EFF02290007D
:1023400071EFF0900071E0FF905B82EFF0229065FA
:1023500004E0FF7B027A65794412227B228B938A08
:10236000838982EDF0A3ECF07593002212240EEF26
:1023700030E3051223DA80F422122414EF30E6054C
:1023800012241A80F4227F0C121E8B9000FB740121
:10239000F022906575E0FFEF4480FFEFF02290643B
:1023A00072E0FFEF4480FFEFF022906471E0FFEFF6
:1023B0004480FFEFF022906471E0FFEF547FFFEF65
:1023C000F0228B938A838982E0759300FF228B939E
:1023D0008A838982EDF0759300227B027A657944C5
:1023E00012227B229044C07402F0229044C87402EE
:1023F000F0229044C07404F0229044C87404F02287
:102400009044C07401F0229044C87401F022906599
:1024100067E0FF22906461E0FF22906441E0FF22C8
:1024200000510000200051300010005150002000E9
:1024300051C000100051F000100100001000011404
:102440000008000140000A00014C00020001500099
:0224500000206A
:00000001FF
