:10000000021689008F828E83E0540100000070F890
:100010002278FFE4F6D8FD0216E70203DBE86480ED
:10002000F8E933E83360110460F0ED33EC33700924
:10003000E8FCE9FDEAFEEBFF220460DED3EB9FEA79
:100040009EE99DE8C2E78CF0C2F795F0400CE8CC41
:10005000F8E9CDF9EACEFAEBCFFB1203A685D0F092
:100060005804700320D5B3E80470075002B2D502DB
:1000700003E592D5EC0460F7E4CCC0E0C398F860E7
:100080003B94186008400DD0E0FB0203BDE4FBFA8E
:10009000C9FC8028E830E406E4C9FBE4CAFCE83087
:1000A000E305E4C9CACBFCE854076010F8C3E913C0
:1000B000F9EA13FAEB13FBEC13FCD8F130F52FC37C
:1000C000E49CFCEF9BFFEE9AFEED99FDD0E0FBEF88
:1000D0004E4D4C701222DB030203E2EC2CFCEF339A
:1000E000FFEE33FEED33FDED30E7EB0203BDEF2B0A
:1000F000FFEE3AFEED39FDD0E0FB50130BBB0003E1
:100100000203E5ED13FDEE13FEEF13FFEC13FC020B
:1001100003BDEC4D6011E8497017ED33EC3304601A
:100120000DE4FCFFFEFD22E933E8330470F802031E
:10013000DB1203A658046009E4CC24815006285041
:10014000090203E52840030203E2C0E0EB4A7044E1
:10015000B98006D0E0FB0203D1EF4E701CBD8008D1
:10016000EBFFEAFEE9FD80EBE98DF0A4FEE5F0028D
:1001700001FBE9CDF9EAFEEBFFEF89F0A4FCE5F025
:10018000CE89F0A42EFFE435F0CD89F0A42DFEE455
:1001900035F08067EF4E7005BD80D780C3EF8BF0E0
:1001A000A4ACF0EE8BF0A42CFCE435F0F8EF8AF070
:1001B000A42CE5F038FCE433CB8DF0A42CFCE5F066
:1001C0003BF8EE8AF0A42CFCE5F038F8E433CF8954
:1001D000F0A42CFCE5F038CF3400CE89F0A42FFF3A
:1001E000E5F03EFEE433C98DF0A42EFEE5F039CDF6
:1001F0008AF0A42FFFE5F03EFEE43DFD33D0E0FBA6
:1002000050070BBB000F0203E5EC2CFCEF33FFEEB5
:1002100033FEED33FD0203BD0203E5EC5D04600532
:10022000E8590470030203DB1203A6580460F6ECDD
:100230004860F2EC7004FDFEFF22C860DB2481C838
:100240005009C398600250060203E29850CAF58232
:10025000E9294B4A7005AB820203D175F0007C1A84
:100260007880C3EF9BEE9AED99400DC3EF9BFFEEB4
:100270009AFEED99FDE842F0DC23ACF0D0E0FFD02F
:10028000E0FED0E0FDAB8220E7101BEB60BAEC2C67
:10029000FCEF33FFEE33FEED33FD0203BDE803F860
:1002A00030E705C0F075F000EF2FFFEE33FEED33C1
:1002B000FD40B830E7C280AA74F8CC6480CCC86432
:1002C00080C8F58204604FC3EB9FF5F0EA9E42F0D0
:1002D000E99D42F0E89C45F0603C501DE5825FFFDF
:1002E000E582D313CB5BCBF42B5582FB50280ABAA3
:1002F000002409B9002008801DE5825BFBE582D35C
:1003000013CF5FCFF4C3132F5582FF50090EBE00E9
:10031000050DBD00010CC3EB9FF5F0EA9E42F0E92C
:100320009D42F0E89C45F06007CC4820E701B3EC23
:100330002275F020800E75F010800575F0087D00A4
:100340007E007F003392D530D50312077DEC334019
:1003500010EF33FFEE33FEED33FDEC33FCD5F0ED63
:1003600022E5F0247EA2D513CC92E7CDCEFF22ED7C
:10037000D2E7CD33EC3392D524814006E4FFFEFD75
:10038000FC22FCE4CFCECDCC24E0501174FF80EDF4
:10039000C3CC13CCCD13CDCE13CECF13CF0470F07E
:1003A00030D5DE02077DE9D2E7C933E833F892D5CC
:1003B000EDD2E7CD33EC33FC5002B2D522EC30E77E
:1003C000100FBF000C0EBE00080DBD00040BEB604B
:1003D00014A2D5EB13FCED92E7FD2274FFFCFDFEA9
:1003E000FF22E480F8A2D574FF13FC7D80E480EF47
:1003F000F920E73624F950037907E4F42402FBE5F9
:1004000082158270021583DBF6E024FB501BE96045
:1004100014E4F0E582158270021583E004F0B40A5A
:1004200008E4F0D9EE7401F00A22C2D522ED33ECD3
:100430003392D5FA602AB4FF33EDC2E77BFF600642
:100440007A047952E4227A04795B20D5047A04791B
:1004500056224E614E002B494E46002D494E460015
:10046000E47A08F0A3DAFC7B00740722C083C08220
:10047000ECC0E0EDC0E0EEC0E0EFC0E0EA75F010E7
:10048000A4CAABF075F04DA42BFBE435F0FCEA24D4
:1004900010FAEB34C5FBEC34D9FCEDC2E7FF75F084
:1004A00056A4F42411C5F0F434C58FF0A42AE5F065
:1004B0003BE43CF020E714120562D0E0FFD0E0FE00
:1004C000D0E0FDD0E0FC12021B8014F4041205629F
:1004D000D0E0FFD0E0FED0E0FDD0E0FC120112D071
:1004E00082D083E0FAEDD2E7CD33EC332482FBE413
:1004F000C3CF33CFCE33CECD33CD33DBF37B0775D4
:10050000F00A846004F0A31B0AE5F0F0A38FF074F6
:100510000AA4FFACF08EF0740AA42CFEACF05001DB
:100520000C8DF0740AA42CFDE435F0F0A3DBDE742E
:1005300007223F8000004120000042C80000447AAA
:100540000000461C400047C35000497424004B186B
:1005500096804CBEBC205A0E1BCA6753C21C749DA9
:10056000C5AEFB60065407601C2323120590EB54B4
:1005700038600912057C12058B120112ECF8EDF9B6
:10058000EEFAEFCB22EB12058B80F1543803241CDA
:10059000900532FE93FC0EEE93FD0EEE930ECE937D
:1005A000FF22BB010689828A83E0225002E722BB38
:1005B000FE02E32289828A83E49322BB010CE58256
:1005C00029F582E5833AF583E0225006E92582F891
:1005D000E622BBFE06E92582F8E222E58229F582C1
:1005E000E5833AF583E49322BB010689828A83F08E
:1005F000225002F722BBFE01F322C2D5EC30E709FC
:10060000B2D5E4C39DFDE49CFCEE30E715B2D5E421
:10061000C39FFFE49EFE1208B2C3E49DFDE49CFC70
:1006200080031208B230D507C3E49FFFE49EFE2288
:10063000C5F0F8A3E028F0C5F0F8E5821582700255
:100640001583E038F022EF2BFFEE3AFEED39FDEC9A
:1006500038FC22E88FF0A4CC8BF0A42CFCE98EF0BF
:10066000A42CFC8AF0EDA42CFCEA8EF0A4CDA8F01A
:100670008BF0A42DCC3825F0FDE98FF0A42CCD35DE
:10068000F0FCEB8EF0A4FEA9F0EB8FF0A4CFC5F048
:100690002ECD39FEE43CFCEAA42DCE35F0FDE43C41
:1006A000FC2275F008758200EF2FFFEE33FECD338C
:1006B000CDCC33CCC58233C5829BED9AEC99E582D3
:1006C00098400CF582EE9BFEED9AFDEC99FC0FD55F
:1006D000F0D6E4CEFBE4CDFAE4CCF9A88222B8004F
:1006E000C1B90059BA002DEC8BF084CFCECDFCE51A
:1006F000F0CBF97818EF2FFFEE33FEED33FDEC333E
:10070000FCEB33FB10D703994004EB99FB0FD8E5C2
:10071000E4F9FA227818EF2FFFEE33FEED33FDEC0B
:1007200033FCC933C910D7059BE99A4007EC9BFC01
:10073000E99AF90FD8E0E4C9FAE4CCFB2275F0108D
:10074000EF2FFFEE33FEED33FDCC33CCC833C810B2
:10075000D7079BEC9AE899400AED9BFDEC9AFCE8E0
:1007600099F80FD5F0DAE4CDFBE4CCFAE4C8F9222D
:10077000EF4BFFEE4AFEED49FDEC48FC22C3E49F3F
:10078000FFE49EFEE49DFDE49CFC22EB9FF5F0EA75
:100790009E42F0E99D42F0E89C45F022E8600FECB3
:1007A000C313FCED13FDEE13FEEF13FFD8F122E8A7
:1007B000600FEFC333FFEE33FEED33FDEC33FCD8B7
:1007C000F122E0FCA3E0FDA3E0FEA3E0FF22E0F8BD
:1007D000A3E0F9A3E0FAA3E0FB22BB010789828A28
:1007E000830207CE5005E9F8020907BBFE05E9F8C8
:1007F00002091489828A83020921ECF0A3EDF0A397
:10080000EEF0A3EFF022E0FBA3E0FAA3E0F922F878
:10081000E0FBA3A3E0F925F0F0E582158270021554
:1008200083E0FA38F022EBF0A3EAF0A3E9F022E447
:1008300093FB740193FA740293F922D083D082F867
:10084000E4937012740193700DA3A393F874019351
:10085000F5828883E4737402936860EFA3A3A38096
:10086000DFE5112582F582E5103583F583B51004A7
:100870008582112210AF06858211F5102285821122
:10088000F510D2AF22EC8EF0A4CCC5F0CCCDF8EFB1
:10089000A4CEC5F02DFDE43CFCE8A42EC8C5F03D77
:1008A000FDE43CFCEFA4FFE5F028FEE43DFDE43C64
:1008B000FC22BC000BBE0029EF8DF084FFADF022BE
:1008C000E4CCF875F008EF2FFFEE33FEEC33FCEECE
:1008D0009DEC984005FCEE9DFE0FD5F0E9E4CEFDC1
:1008E00022EDF8F5F0EE8420D21CFEADF075F00894
:1008F000EF2FFFED33FD4007985006D5F0F222C3ED
:1009000098FD0FD5F0EA22E6FB08E6F908E6FA08BA
:10091000E6CBF822E2FB08E2F908E2FA08E2CBF8BB
:1009200022E493F8740193F9740293FA740393FB2D
:1009300022E5082474F582E43400F583E0050822FA
:10094000900071300703900074E475F00112080FF5
:100950000205A22000E97F2ED2008018EF540F2458
:1009600090D43440D4FF30040BEF24BFB41A0050AD
:10097000032461FFE50960021509050CE50C70020E
:10098000050B30070E900071E475F00112080FEFAF
:100990000205E80220667403D2078003E4C207F56B
:1009A00008900071120826E4F509F50BF50CE5092D
:1009B00060077F2012097480F5750AFFC201C2002A
:1009C000C202C203C205C206C208120940FF700D6E
:1009D0003007057F00120985AF0CAE0B22B4255FEE
:1009E000C2D5C204120940FF24D0B40A00501A75BF
:1009F000F00A780930D50508B6FF0106C6A426F628
:100A000020D5047002D20380D924CFB41A00EF504D
:100A100004C2E5D204020C77D20180C6D20080C0A5
:100A2000D20280BCD2D580BAD20580B47F20120910
:100A3000742002077401B5090040F1120931FF1258
:100A400009740209AED208D2068095120931FB1250
:100A50000931FA120931F94A4B700679757A0D7B22
:100A6000FF20022EE509602A7E008E827583001227
:100A700005BB60060EEE650A70F0C2D5EBC0E0EA79
:100A8000C0E0E9C0E0EE120CD8D0E0F9D0E0FAD036
:100A9000E0FB1205A2FF60AAEBC0E0EAC0E0E9C0FB
:100AA000E0120974D0E02401F9D0E03400FAD0E07B
:100AB000FBE50A0460DCD50AD98087D20280A21245
:100AC0000CBA60F7E50A7001041203F0A90A600D80
:100AD000E50A600914F50A120D62EF60F3EA30E7E7
:100AE00002F404C3995079EAF4250A0430E701E4DA
:100AF00004F50A800D120CBA60C1EA050A250A1233
:100B000003F0EA9000A0F030E701E4250A04D50ADA
:100B10000420050114120CD8E4C0E0120D6290000C
:100B2000A0E0601320E70714F012095C802204F0B3
:100B3000D0E014C0E07F0012095CE50A60071209EA
:100B400053150A800B300503120953D0E00209AE99
:100B5000D0E00480C4120CBA609EE50A041203F0CF
:100B60009000A0EAF0E50A200502600104240412C6
:100B70000CD874FF04C0E0120D6212095CE50A2073
:100B800005026003120953D0E0B50AE87F45120957
:100B9000669000A0E07F2B30E7047F2DF404C0E0D6
:100BA000120974D0E075F00A84C0F012095DD0E03B
:100BB00012095D0209AE791080027908C206C208E6
:100BC0008008D2D5790A8004790AC2D5E50A047072
:100BD00002F50AE4FAFDFEFF120931FC7B08200150
:100BE00013120931FD7B1030000A120931FE12097F
:100BF00031FF7B20EC3382D592D55013C3E4300013
:100C0000069FFFE49EFEE42001039DFDE49CFCE4BE
:100C1000CBF8C201EC700CCFCECDCCE824F8F87044
:100C2000F38017C3EF33FFEE33FEED33FDEC33FCFF
:100C3000EB33FB994002FB0FD8E9EB300105F8D00C
:100C4000E0C448B201C0E00AEC4D4E4F78207B0072
:100C500070C2EAB50A0040BCC0E0120CDAD0F0D095
:100C6000E0200104C4C0E0C4B201C0F012095DD0AC
:100C7000F0D5F0EB0209AE12083B0A4B530BB65805
:100C80000A1C4C0A18420BBA4F0BC2440BC2490A49
:100C900031430BC8550AF5460B55450ABF470D951C
:100CA000500A202D0A242E0A472B0A28230A452001
:100CB0000D7E2A09E04800000A3FE50AB4FF0375EB
:100CC0000A06120931FC120931FD120931FE12091E
:100CD00031FF90009902042D790AA2D52003143027
:100CE0000509B910020404B9080104A2D5200602BE
:100CF0005001042002689202B509005034C0E07F20
:100D0000203003197F30A20272067205500F120DB7
:100D100031C202C206C205C2087F30800F3005030F
:100D2000E9C0E0120974300503D0E0F9D0E0B5095C
:100D3000CC3005177F30B9100C1209747F5830047D
:100D4000077F788003B908031209743002057F2DEC
:100D50000209747F202008F87F2B2006F3229202DC
:100D600080CF7F00B40700500B2499F582E4340053
:100D7000F583E0FF22286E756C6C2900D201120900
:100D8000313001F8C201780930D50108F60209E0D6
:100D90002D504349581209312403B405004001E4A1
:100DA000900D9093120965743A120965D203750982
:100DB00004020BB6C0E0C0F0C083C082C085C0840E
:100DC000C086758600C093759300C0D075D000C0F2
:100DD00000C001C002C003C004C005C006C0077F38
:100DE000007E007D007C009000481207FA7F007EA4
:100DF000007D007C0090004C1207FA7F007E007D91
:100E0000007C009000501207FA7F007E007D007C7D
:100E1000009000541207FA7F007E007D007C009055
:100E200000581207FA7F007E007D007C0090006B66
:100E30001207FA90006FE4F0A3E4F09000F3E0FEF4
:100E4000A3E0FFEF64014E70181223B7E4120331E0
:100E50009001091207FA9000F3E4F0A3E4F0021104
:100E6000151223B7E41203319000481207FA9000DC
:100E7000481207C29001091207CE1202B8502E90F4
:100E800001091207C2C004C005C006C00712244DE4
:100E9000E4120331A804A905AA06AB07D007D006BF
:100EA000D005D0041200219001091207FA900048E1
:100EB0001207CE9001091207C212001D90004C12B9
:100EC00007FA12244DE4120331A804A905AA06ABBF
:100ED0000790004C1207C212021B7BFE7AF479B213
:100EE00078431201129000501207FA90004C12073A
:100EF000C2C004C005C006C0079000F1E0FEA3E038
:100F0000FF7C007D051205FAEDAE047802C333CEF6
:100F100033CED8F9FF74F52FF58274003EF583D0F7
:100F200007D006D005D0041207FA9000F1E475F05E
:100F30000112063012197A90010D1207FA9000483A
:100F40001207C29001091207FA90010D1207CE7F15
:100F5000337E337D437C4012001D9000541207FA0B
:100F60009001111207C2C004C005C006C00790005E
:100F7000501207C29000541207CE120112A804A901
:100F800005AA06AB07D007D006D005D00412002171
:100F90009001111207FA9000F1E0FEA3E0FFEF6468
:100FA0001C4E700E7F007E007D007C0090011112AF
:100FB00007FA7F007E107DA47C459000541207CE76
:100FC0001201127B007A0079617844120021C0047A
:100FD000C005C006C0077F007E007DFA7C439000FC
:100FE000541207CE1201129000501207CE12021BAB
:100FF000A804A905AA06AB07D007D006D005D004DF
:1010000012002190006B1207FA7F01121F717D0000
:101010007F00121C967B017A00795CC003C002C07D
:10102000017BFF7A1F79F890007412082690005413
:101030001207C29000771207FAD001D002D0031233
:1010400009967B017A00795C121D3F7BFF7A1F793C
:10105000FB121D3F7B017A00795CC003C002C00116
:101060007BFF7A1F79F89000741208267F007E00BB
:101070007DFA7C439000541207CE1201129000506A
:101080001207CE12021B9000771207FAD001D0028D
:10109000D0031209967B017A00795C121D3F7F0014
:1010A0007E007D7A7C4590006B1207CE1202B860FC
:1010B00010400E7F007EC07DA87C4490006B12071C
:1010C000FA7F007E007D007C0090006B1207CE123C
:1010D00002B86002500E7F007E007D807C3F900051
:1010E0006B1207FA90006B1207C212036F90006F29
:1010F000EEF0A3EFF07D007F01121C9690006FE0F0
:10110000FEA3E0FFE4FCFD12177390006FE0FEA366
:10111000E0FF12211FD007D006D005D004D003D0A5
:1011200002D001D000D0D0D093D086D084D085D04A
:1011300082D083D0F0D0E0327B007A4079807D018C
:101140007C001223C69040827418F07B007A4079AC
:10115000847D077C001223C69040867418F07B00C3
:101160007A4079887D177C001223C690408A7418D3
:10117000F07B007A40798C7D177C001223C690406A
:101180008E7418F07B087A037948C003C002C0014E
:101190007B007A4179009000AB120826D001D00282
:1011A000D0037F047E00121FA79043007402F090CA
:1011B00040007408F09042007403F07B0C7A0179CF
:1011C0000812242B9046A1EFF07B007A4279227D11
:1011D000087C001223C67B007A4279207D517C1264
:1011E0001223C69000A5E4F07F197E007D007C00EC
:1011F0009000A11207FA9000A11207C2D3EF940049
:10120000EE9400404E9000A5E0FFEF640360449030
:101210004225E0FFEF5401FF7E009000A5E0FEEEC6
:1012200025E0FEEE4FFFEF5403FF9000A5EFF07FA7
:10123000E07E017D007C00121F009000A11207C219
:101240007BFF7AFF79FF78FF1206469000A1120714
:10125000FA80A39000A11207C2EF4E70057F03121F
:1012600023557B007A4079047D007C011223C690CF
:1012700040047407F0904006E4F09040087448F091
:10128000904004E4F09040017402F090400B74042C
:10129000F09043A2E0FFEF440FFF9043A2EFF090E5
:1012A00043A1E0FFEF4401FF9043A1EFF09043A082
:1012B000E0FFEF4480FF9043A0EFF0227F947E0197
:1012C0007D007C009000A91207FA905120E0FFEF0A
:1012D0005480FFEFF0905122E0FFEF54F0FF9000B8
:1012E000A8EFF09000A8E0FFEF440FFF905122EF2D
:1012F000F0905123E0FFEF54F0FF9000A8EFF09042
:1013000000A8E0FF905123EFF0905124E0FFEF544C
:10131000F0FF9000A8EFF09000A8E0FF905124EFBC
:10132000F0905120E0FFEF54DFFFEFF0905120E00C
:10133000FFEF4440FFEFF07F007E0012200C905141
:1013400020E0FFEF4410FFEFF07F017E0012200C41
:10135000905121E0FF9000A8EFF0905120E0FFEFC6
:1013600054EFFFEFF07F007E0012200C9000A8E009
:10137000FFEF5408FF9000A8EFF0905120E0FFEF3E
:101380004410FFEFF07F017E0012200C905120E00E
:10139000FFEF54EFFFEFF09000A8E0FFEF70077F42
:1013A0000A7E0012200C9000A91207C27BFF7AFF70
:1013B00079FF78FF1206469000A91207FA9000A85C
:1013C000E0FFEF60129000A91207C2D3EF9400EE85
:1013D00094004003021337905120E0FFEF54BFFF09
:1013E000EFF0905120E0FFEF5480FFEFF09051229A
:1013F000E0FFEF54F0FFEFF0905123E0FFEF54F0E7
:10140000FF9000A8EFF09000A8E0FFEF440FFF90DE
:101410005123EFF0905124E0FFEF54F0FF9000A82B
:10142000EFF09000A8E0FFEF440FFF905124EFF0A1
:10143000227B007A4679E812242BEF4405FD7B00DD
:101440007A4679E8122437750F00E50FC3940A50E5
:101450003AAF0FEF75F005A424B6F582E43424F515
:1014600083AF82AE838E0D8F0EAE0DAF0E8F828E48
:101470008312082FAE0DAF0E8F828E83740393FC00
:10148000740493FD122139050F80BF7B087A00791F
:10149000001220397B007A5879487D037C001223A2
:1014A000C67B017A50790312242BEF4402FD7B01A5
:1014B0007A5079031224377B017A50791312242B46
:1014C000EF4402FD7B017A5079131224379043A038
:1014D000E0FFEF4440FF9043A0EFF09043C2E0FFF5
:1014E000EF4410FF9043C2EFF07B087A037938C0D5
:1014F00003C002C0017B007A5179229000AB120830
:1015000026D001D002D0037F087E00121FA77B08DF
:101510007A037940C003C002C0017B007A5179424E
:101520009000AB120826D001D002D0037F087E00C5
:10153000121FA79044F47401F0904322E0FFEF449F
:1015400008FF904322EFF09046ECE0FFEFC39405D4
:101550005006904689743AF090480074F1F01211E8
:101560003890480074B1F0121D8D7B007A4379A049
:10157000C003C002C0017B007A4379B09000AB1277
:101580000826D001D002D0037F0E7E00121FA79044
:1015900043B0E0FFEF54FDFFEFF02290007512081A
:1015A000267F007E007D007C009000781207FA7F85
:1015B000007E007D007C0090007C1207FA7F057E93
:1015C000007D007C009000801207FA9000F1E0FEA0
:1015D000A3E0FFC3EF9405EE648094805014900064
:1015E000F1E0FEA3E0FFEE3395E0FDFC90008012F9
:1015F00007FA7F007E007D007C0090007C1207FAD5
:101600009000801207C290007C1207CEC312078B95
:10161000505B9000781207C2C004C005C006C00726
:101620007F047E007D007C0090007C1207CE1206B5
:1016300053900075120806E92FF9EA3EFAEB3DFBDC
:101640001207DAD007D006D005D00412002190008E
:10165000781207FA90007C1207C27B017A007900A9
:10166000780012064690007C1207FA809390008062
:101670001207C2E4120331A804A905AA06AB079019
:1016800000781207C212021B22759300780075833E
:10169000467582E8E04401F0009046ECE0F990469F
:1016A000FAE0FAB903225420B40012B8001AEA9002
:1016B0001FFFF07401901FFEF09046F6F0901FFEA1
:1016C000E06005901FFFE0FA90480074C0F075815B
:1016D0002190000078007920E4F0A3D8FCD9FAEA40
:1016E000900120F002001175101F7511FD121431C8
:1016F00002172E021CEDE493A3F8E493A34003F633
:101700008001F208DFF48029E493A3F85407240C45
:10171000C8C333C4540F4420C8834004F456800126
:1017200046F6DFE4800B0102040810204080901B85
:10173000DBE47E019360BCA3FF543F30E509541FF6
:10174000FEE493A360010ECF54C025E060A840B82A
:10175000E493A3FAE493A3F8E493A3C8C582C8CAA8
:10176000C583CAF0A3C8C582C8CAC583CADFE9DE7B
:10177000E780BE9000711207FA900081740AF09021
:101780000081E0FF74762FF582E43400F583E4F005
:10179000900081E014F09000711207C2C3EF940A28
:1017A000EE940040577B0A7A00790078009000712F
:1017B0001207C21206DEAC00AD01AE02AF03EF2489
:1017C00030FF900075EFF0900075E0FF900081E031
:1017D000FE74762EF582E43400F583EFF09000710C
:1017E0001207C27B0A7A00790078001206DE9000A8
:1017F000711207FA900081E014F0809A7B0A7A0057
:10180000790078009000711207C21206DEAC00ADBC
:1018100001AE02AF03EF2430FF900075EFF09000AF
:1018200075E0FF900081E0FE74762EF582E43400CE
:10183000F583EFF0900081E0FF74762FF9E4340037
:10184000FA7B01121D3F22C0E0C0F0C083C082C0FD
:1018500085C084C086758600C093759300C0D0751E
:10186000D000C000C001C002C003C004C005C00653
:10187000C0077F007E007D007C009000271207FAE1
:101880001224439000271207FA7F007E007D007C1F
:10189000009000271207CE1202B8601E401C7F0184
:1018A000121F717BFF7A1F79EE121D3F900115E028
:1018B000FEA3E0FFE4FCFD121773900115E475F040
:1018C000011206307BFF7A21796AAE02AF01EF4E3A
:1018D000700B1221AF900115E4F0A3E4F0D007D013
:1018E00006D005D004D003D002D001D000D0D0D093
:1018F00093D086D084D085D082D083D0F0D0E0320F
:101900007F287E007D007C00121A4F7F03121DDBB2
:101910007F057E007D007C00121A4F7F03121DDBC5
:101920007F0F7E007D007C00121A4F7F03121DDBAB
:101930007F017E007D007C00121A4F7F02121DDBAA
:101940007F057E007D007C00121A4F7F06121F71FA
:101950007F0E121F717F2C121F717F08121F717F63
:1019600001121F717F0C121F717F03121F717F05FF
:101970007E007D007C00121A4F227F007E007D00D9
:101980007C009000711207FA7B017A0079F512153C
:101990009B9000711207FA12244DE4120331A8043F
:1019A000A905AA06AB079000711207C212021B7BA1
:1019B000FE7AF479B278431201129000711207FA9C
:1019C0009000711207CE7F717E3D7DCA7C3F12026E
:1019D0001B7B007A007940784112021B9000711243
:1019E00007FA9000711207C222906471E0FFEF5471
:1019F000F8FF90000CEFF090000CE0FF906471EFA6
:101A0000F0906471E0FFEF54FCFF90000CEFF09059
:101A1000000CE0FF906471EFF01223E27FFF1223CD
:101A2000977F001223877F001223771224A97F64F7
:101A30001223A71222CA90000DEFF0906491E0FFEC
:101A4000EF4410FFEFF090000DE0FF1221522290C2
:101A5000FFFC1208611207FA8510838511821207B4
:101A6000C2D3EF9400EE9480402F9001211207C260
:101A7000121F00851083851182C083C0821207C2A5
:101A8000EF2400FFEE3480FEED34FFFDEC34FFFC6C
:101A9000D082D0831207FA80BF9001171207C28547
:101AA00010838511821207CE120653121F00900078
:101AB0000412086122C0E0C0F0C083C082C085C0AB
:101AC00084C086758600C093759300C0D075D00021
:101AD000C000C001C002C003C004C005C006C007EA
:101AE0007F01121F717BFF7A1F79DB121D3F1224C9
:101AF0001F122198D007D006D005D004D003D00201
:101B0000D001D000D0D0D093D086D084D085D082E0
:101B1000D083D0F0D0E032C0E0C0F0C083C082C03B
:101B200085C084C086758600C093759300C0D0754B
:101B3000D000C000C001C002C003C004C005C00680
:101B4000C0077F01121F717BFF7A1F79E4121D3FCE
:101B50001222A0122198D007D006D005D004D003BD
:101B6000D002D001D000D0D0D093D086D084D08500
:101B7000D082D083D0F0D0E0329000A1EFF090007E
:101B8000A1E0FFEF5403FF905840E0FEEE54FCFE4E
:101B9000EE4FFF905840EFF09000A1E0FFEFB4014E
:101BA0001D7B0C7A01791012242B904630EFF07BCC
:101BB0000C7A01791412242B904631EFF0227B0C21
:101BC0007A0179AD12242B904630EFF07B0C7A012C
:101BD00079B512242B904631EFF022440109000020
:101BE00000004200F300014200F1000044010D003A
:101BF00000000044011100000000420115000041F6
:101C0000012B0041012A0041012C0041012D00411E
:101C1000012E0041012F0044011C016E36004401D9
:101C20001700005DC041011B184401212EE0000097
:101C300043012500000041013000009000A8EFF0B2
:101C4000905120E0FFEF4420FFEFF0905120E0FFA3
:101C5000EF54BFFFEFF07F007E0012200C90512068
:101C6000E0FFEF54F0FFEFF0905120C083C082E01E
:101C7000FF9000A8E0FEEE4410FEEF4EFFD082D0B1
:101C800083EFF07F017E0012200C905120E0FFEFE7
:101C900054EFFFEFF0229000A1EFF09000A2EDF0E2
:101CA0009000A1E0FFEF12083B1CB9001CC6011C0C
:101CB000D3021CE00300001CEC9000A2E0FFEF2424
:101CC00080FF121F71229000A2E0FFEF24C0FF12DC
:101CD0001F71229000A2E0FFEF2494FF121F7122D7
:101CE0009000A2E0FFEF24D4FF121F7122D2AF9028
:101CF00044F474FDF01222761223097E0D7FB41293
:101D0000208D12232F7E1B7F171220C912231C7EC9
:101D10001A7FB51220AB1223427E187F471220E7AC
:101D20001222B512228B1221811222617D007F00C6
:101D3000121C967BFF7A1F79FE121D3F80FE2290B7
:101D400000A11208269000A47401F09000A11208CE
:101D5000061205A2FF9000A5EFF09000A5E0FFEFAE
:101D6000602A9000A5E0FF121F3B9000A112080618
:101D70009000A4E0FFE92FF9E43AFA1205A2FF90DF
:101D800000A5EFF09000A4E004F080CE227B0C7A56
:101D90000179CF12242B9000A1EFF09000A1E0FF79
:101DA000EF5407FF90586EEFF09000A1E0FFEFC4F2
:101DB000540FFFEF540FFF90586FEFF090514D7498
:101DC00001F090586C7402F0905AC07410F0905A60
:101DD000C37440F09058767444F0229000A5EFF060
:101DE000905120E0FFEF549FFFEFF0905120E0FF73
:101DF000EF54F0FFEFF0905120C083C082E0FF90DD
:101E000000A5E0FEEE4410FEEF4EFFD082D083EF3F
:101E1000F07F017E0012200C905120E0FFEF54EF84
:101E2000FFEFF022906473E0FFEF54C0FF9000A139
:101E3000EFF09000A1E0FFEF4409FF906473EFF032
:101E4000906492E0FFEF4401FFEFF0906493E0FFB5
:101E5000EF4401FFEFF07F107E27121EE37F107E1C
:101E6000271221057F007E0012211F227F00121BF6
:101E700079905840E0FFEF4420FFEFF0905840E0A9
:101E8000FFEF54FBFFEFF0905840E0FFEF4408FFF6
:101E9000EFF0905AC7E0FFEF54E7FFEFF0905AC71A
:101EA000E0FFEF4408FFEFF0227FFF7EFF7DFF7C25
:101EB000FF1221F37FFF7EFF7DFF7CFF12220912BC
:101EC00022CA9000A1EFF0906597E0FFEF4410FF69
:101ED000EFF09000A1E0FF1221521223D57F0012F3
:101EE0002367229000A2EEF0A3EFF07B027A6479E0
:101EF000029000A2E0FCA3E0FD1223C8223232329D
:101F0000EC4D4E700D78FCEF24E950032840FD2283
:101F100000007BF178DA0000EF28FF78FFEE38FE52
:101F2000ED38FDEC38FC50E7EF2BFFEE38FEED38D6
:101F3000FDEC38FC40F222050203049000A6EFF00D
:101F40001212BC9000A6E0FFEFC4540FFF9000A750
:101F5000EFF09000A7E0FF121C3B9000A6E0FFEF1F
:101F6000540FFF9000A7EFF09000A7E0FF121C3B7A
:101F7000229000A3EFF01212BC9000A3E0FFEFC488
:101F8000540FFF9000A4EFF09000A4E0FF121DDBBF
:101F90009000A3E0FFEF540FFF9000A4EFF090003B
:101FA000A4E0FF121DDB22758600EF4E6027EF6074
:101FB000010E7593009000ABE0F595A3E0F585A3C5
:101FC000E0F5848B938A838982E0A30586F0A315CC
:101FD00086DFF6DEF4E4F593F59522726561642000
:101FE000313030007374617274206F6E6500484543
:101FF0004C4C4C4F4F4F4F002566002F2F00454C47
:1020000045333032204361726C616200EEFA900118
:102010001BE0F88FF0A4FFAEF0E88AF0A42EFEE5F6
:10202000F03400FDEF24C9FF78FFEE38FEED38FDF7
:10203000E438FC5003021F0022ACEAADA08B938A67
:10204000838982E0F96017A3E0F5EAA3E0F5A0A395
:10205000E060F4FAA3E0F8A3E0F2DAF8D9E98DA0A1
:102060008CEAE4F59322EFB40A07740D1220717420
:102070000A309811A899B8130CC2983098FDA89905
:10208000C298B811F63099FDC299F599229000A135
:10209000EEF0A3EFF07B027A4479049000A1E0FE19
:1020A000A3E0FFAD07AC061223C8229000A1EEF01A
:1020B000A3EFF07B027A4479029000A1E0FEA3E056
:1020C000FFAD07AC061223C8229000A1EEF0A3EFEB
:1020D000F07B027A4479069000A1E0FEA3E0FFAD18
:1020E00007AC061223C8229000A1EEF0A3EFF07B0C
:1020F000027A4479009000A1E0FEA3E0FFAD07ACB6
:10210000061223C8229000A2EEF0A3EFF07B027A21
:102110006479429000A2E0FCA3E0FD1223C8229063
:1021200000A2EEF0A3EFF07B027A6479229000A285
:10213000E0FCA3E0FD1223C822EC4D6011ED60012C
:102140000C8B938A838982E4F0A3DDFCDCFA75931F
:102150000022EF54016004D2AF8002C2AFEF5402FC
:10216000FF9044F4E054FD4FF022905141E0FFEF26
:102170005404FF7E00EF7802CEC313CE13D8F9FFCC
:10218000229043A2E0FFEF4408FFEFF09043B2E05B
:10219000FFEF4408FFEFF0229043A2E0FFEF44047A
:1021A000FFEFF09043B2E0FFEF4404FFEFF0229026
:1021B00043A2E0FFEF54FBFFEFF09043B2E0FFEFEC
:1021C00054FBFFEFF0229043A7E0FFEF4401FFEF45
:1021D000F09043B7E0FFEF4401FFEFF0229000A141
:1021E000EFF09000A1E0FFEFC43354E0FF90448291
:1021F000EFF0229000A21207FA7B027A6579249010
:1022000000A21207C21222F6229000A21207FA7B45
:10221000027A6579049000A21207C21222F6229077
:1022200000A1EFF09000A1E0FFEFC43354E0FF9075
:102230004481EFF0229000A1EFF09000A1E0FFEFC9
:10224000C43354E0FF904483EFF0229000A1EFF0FC
:102250009000A1E0FFEFC43354E0FF904480EFF022
:102260002290012AE0FFEF700912190090012A74F0
:1022700001F01223EF2290012CE0FFEF7009121EF3
:10228000A990012C7401F01223FB2290012DE0FF94
:10229000EF7009121E2490012D7401F01224072200
:1022A00090012EE0FFEF70091219E990012E7401E0
:1022B000F01224132290012FE0FFEF7009121E6C20
:1022C00090012F7401F01221C6229044F4E0F844EA
:1022D00002F0E85402FF10AF012274014FFF228B7D
:1022E000938A838982E0FFA3E0FEA3E0FDA3E0FCE4
:1022F000759300228B938A838982EFF0A3EEF0A37B
:10230000EDF0A3ECF0759300221224727E1E7FFD87
:1023100012208D7F071221DD12246B221224807E71
:102320001E7FFE1220AB7F0712221F122479221279
:10233000248E7E1E7FFF1220C97F071222351224B1
:10234000872212249C7E247FB51220E77F07122269
:102350004B122495229000A6EFF09000A6E0FF908B
:1023600000A6EFF080FE229000A2EFF09000A2E025
:10237000FF906587EFF02290000EEFF090000EE0E6
:10238000FF906481EFF02290000EEFF090000EE0DD
:10239000FF906401EFF02290000EEFF090000EE04D
:1023A000FF906421EFF02290000EEFF090000EE01D
:1023B000FF906431EFF022906504E0FF7B027A65C4
:1023C00079441222E1228B938A838982EDF0A3EC77
:1023D000F0759300221224A3EF30E30512245780F6
:1023E000F4221224A9EF30E6051224AF80F4227FF4
:1023F0000C121F7190012B7401F022906575E0FFA3
:10240000EF4480FFEFF022906473E0FFEF4480FF21
:10241000EFF022906471E0FFEF4480FFEFF0229034
:102420006471E0FFEF547FFFEFF0228B938A838982
:1024300082E0759300FF228B938A838982EDF07589
:10244000930022122461AC07E412033B227B027A40
:102450006579241222E1227B027A6579441222E115
:1024600022905B96E0FFEF5401FF229044C0740479
:10247000F0229044C87404F0229044C07402F02208
:102480009044C87402F0229044C07408F022904432
:10249000C87408F0229044C07401F0229044C874BB
:1024A00001F022906567E0FF22906461E0FF2290D6
:1024B0006441E0FF22320051000020005130001042
:1024C00000515000200051C000100051F0001001D8
:1024D0000000100001140008000140000A00014C37
:0824E000000200015000002081
:00000001FF
