:100000000216A3008F828E83E0540100000070F876
:100010002278FFE4F6D8FD0217010203DBE86480D2
:10002000F8E933E83360110460F0ED33EC33700924
:10003000E8FCE9FDEAFEEBFF220460DED3EB9FEA79
:100040009EE99DE8C2E78CF0C2F795F0400CE8CC41
:10005000F8E9CDF9EACEFAEBCFFB1203A685D0F092
:100060005804700320D5B3E80470075002B2D502DB
:1000700003E592D5EC0460F7E4CCC0E0C398F860E7
:100080003B94186008400DD0E0FB0203BDE4FBFA8E
:10009000C9FC8028E830E406E4C9FBE4CAFCE83087
:1000A000E305E4C9CACBFCE854076010F8C3E913C0
:1000B000F9EA13FAEB13FBEC13FCD8F130F52FC37C
:1000C000E49CFCEF9BFFEE9AFEED99FDD0E0FBEF88
:1000D0004E4D4C701222DB030203E2EC2CFCEF339A
:1000E000FFEE33FEED33FDED30E7EB0203BDEF2B0A
:1000F000FFEE3AFEED39FDD0E0FB50130BBB0003E1
:100100000203E5ED13FDEE13FEEF13FFEC13FC020B
:1001100003BDEC4D6011E8497017ED33EC3304601A
:100120000DE4FCFFFEFD22E933E8330470F802031E
:10013000DB1203A658046009E4CC24815006285041
:10014000090203E52840030203E2C0E0EB4A7044E1
:10015000B98006D0E0FB0203D1EF4E701CBD8008D1
:10016000EBFFEAFEE9FD80EBE98DF0A4FEE5F0028D
:1001700001FBE9CDF9EAFEEBFFEF89F0A4FCE5F025
:10018000CE89F0A42EFFE435F0CD89F0A42DFEE455
:1001900035F08067EF4E7005BD80D780C3EF8BF0E0
:1001A000A4ACF0EE8BF0A42CFCE435F0F8EF8AF070
:1001B000A42CE5F038FCE433CB8DF0A42CFCE5F066
:1001C0003BF8EE8AF0A42CFCE5F038F8E433CF8954
:1001D000F0A42CFCE5F038CF3400CE89F0A42FFF3A
:1001E000E5F03EFEE433C98DF0A42EFEE5F039CDF6
:1001F0008AF0A42FFFE5F03EFEE43DFD33D0E0FBA6
:1002000050070BBB000F0203E5EC2CFCEF33FFEEB5
:1002100033FEED33FD0203BD0203E5EC5D04600532
:10022000E8590470030203DB1203A6580460F6ECDD
:100230004860F2EC7004FDFEFF22C860DB2481C838
:100240005009C398600250060203E29850CAF58232
:10025000E9294B4A7005AB820203D175F0007C1A84
:100260007880C3EF9BEE9AED99400DC3EF9BFFEEB4
:100270009AFEED99FDE842F0DC23ACF0D0E0FFD02F
:10028000E0FED0E0FDAB8220E7101BEB60BAEC2C67
:10029000FCEF33FFEE33FEED33FD0203BDE803F860
:1002A00030E705C0F075F000EF2FFFEE33FEED33C1
:1002B000FD40B830E7C280AA74F8CC6480CCC86432
:1002C00080C8F58204604FC3EB9FF5F0EA9E42F0D0
:1002D000E99D42F0E89C45F0603C501DE5825FFFDF
:1002E000E582D313CB5BCBF42B5582FB50280ABAA3
:1002F000002409B9002008801DE5825BFBE582D35C
:1003000013CF5FCFF4C3132F5582FF50090EBE00E9
:10031000050DBD00010CC3EB9FF5F0EA9E42F0E92C
:100320009D42F0E89C45F06007CC4820E701B3EC23
:100330002275F020800E75F010800575F0087D00A4
:100340007E007F003392D530D50312078BEC33400B
:1003500010EF33FFEE33FEED33FDEC33FCD5F0ED63
:1003600022E5F0247EA2D513CC92E7CDCEFF22ED7C
:10037000D2E7CD33EC3392D524814006E4FFFEFD75
:10038000FC22FCE4CFCECDCC24E0501174FF80EDF4
:10039000C3CC13CCCD13CDCE13CECF13CF0470F07E
:1003A00030D5DE02078BE9D2E7C933E833F892D5BE
:1003B000EDD2E7CD33EC33FC5002B2D522EC30E77E
:1003C000100FBF000C0EBE00080DBD00040BEB604B
:1003D00014A2D5EB13FCED92E7FD2274FFFCFDFEA9
:1003E000FF22E480F8A2D574FF13FC7D80E480EF47
:1003F000F920E73624F950037907E4F42402FBE5F9
:1004000082158270021583DBF6E024FB501BE96045
:1004100014E4F0E582158270021583E004F0B40A5A
:1004200008E4F0D9EE7401F00A22C2D522ED33ECD3
:100430003392D5FA602AB4FF33EDC2E77BFF600642
:100440007A047952E4227A04795B20D5047A04791B
:1004500056224E614E002B494E46002D494E460015
:10046000E47A08F0A3DAFC7B00740722C083C08220
:10047000ECC0E0EDC0E0EEC0E0EFC0E0EA75F010E7
:10048000A4CAABF075F04DA42BFBE435F0FCEA24D4
:1004900010FAEB34C5FBEC34D9FCEDC2E7FF75F084
:1004A00056A4F42411C5F0F434C58FF0A42AE5F065
:1004B0003BE43CF020E714120562D0E0FFD0E0FE00
:1004C000D0E0FDD0E0FC12021B8014F4041205629F
:1004D000D0E0FFD0E0FED0E0FDD0E0FC120112D071
:1004E00082D083E0FAEDD2E7CD33EC332482FBE413
:1004F000C3CF33CFCE33CECD33CD33DBF37B0775D4
:10050000F00A846004F0A31B0AE5F0F0A38FF074F6
:100510000AA4FFACF08EF0740AA42CFEACF05001DB
:100520000C8DF0740AA42CFDE435F0F0A3DBDE742E
:1005300007223F8000004120000042C80000447AAA
:100540000000461C400047C35000497424004B186B
:1005500096804CBEBC205A0E1BCA6753C21C749DA9
:10056000C5AEFB60065407601C2323120590EB54B4
:1005700038600912057C12058B120112ECF8EDF9B6
:10058000EEFAEFCB22EB12058B80F1543803241CDA
:10059000900532FE93FC0EEE93FD0EEE930ECE937D
:1005A000FF22BB010689828A83E0225002E722BB38
:1005B000FE02E32289828A83E49322BB010CE58256
:1005C00029F582E5833AF583E0225006E92582F891
:1005D000E622BBFE06E92582F8E222E58229F582C1
:1005E000E5833AF583E49322BB010689828A83F08E
:1005F000225002F722BBFE01F322C2D5EC30E709FC
:10060000B2D5E4C39DFDE49CFCEE30E715B2D5E421
:10061000C39FFFE49EFE1208C0C3E49DFDE49CFC62
:1006200080031208C030D507C3E49FFFE49EFE227A
:10063000C5F0F8A3E028F0C5F0F8E5821582700255
:100640001583E038F022EF2BFFEE3AFEED39FDEC9A
:1006500038FC22C3EF9BFFEE9AFEED99FDEC98FC6F
:1006600022E88FF0A4CC8BF0A42CFCE98EF0A42C13
:10067000FC8AF0EDA42CFCEA8EF0A4CDA8F08BF05F
:10068000A42DCC3825F0FDE98FF0A42CCD35F0FC5D
:10069000EB8EF0A4FEA9F0EB8FF0A4CFC5F02ECD29
:1006A00039FEE43CFCEAA42DCE35F0FDE43CFC220E
:1006B00075F008758200EF2FFFEE33FECD33CDCC01
:1006C00033CCC58233C5829BED9AEC99E582984084
:1006D0000CF582EE9BFEED9AFDEC99FC0FD5F0D661
:1006E000E4CEFBE4CDFAE4CCF9A88222B800C1B98B
:1006F0000059BA002DEC8BF084CFCECDFCE5F0CBC9
:10070000F97818EF2FFFEE33FEED33FDEC33FCEB01
:1007100033FB10D703994004EB99FB0FD8E5E4F9BC
:10072000FA227818EF2FFFEE33FEED33FDEC33FCA9
:10073000C933C910D7059BE99A4007EC9BFCE99A9D
:10074000F90FD8E0E4C9FAE4CCFB2275F010EF2FE2
:10075000FFEE33FEED33FDCC33CCC833C810D707E2
:100760009BEC9AE899400AED9BFDEC9AFCE899F81D
:100770000FD5F0DAE4CDFBE4CCFAE4C8F922EF4B74
:10078000FFEE4AFEED49FDEC48FC22C3E49FFFE486
:100790009EFEE49DFDE49CFC22EB9FF5F0EA9E4268
:1007A000F0E99D42F0E89C45F022E8600FECC313AD
:1007B000FCED13FDEE13FEEF13FFD8F122E8600FFE
:1007C000EFC333FFEE33FEED33FDEC33FCD8F12203
:1007D000E0FCA3E0FDA3E0FEA3E0FF22E0F8A3E03D
:1007E000F9A3E0FAA3E0FB22BB010789828A830216
:1007F00007DC5005E9F8020915BBFE05E9F8020916
:100800002289828A8302092FECF0A3EDF0A3EEF097
:10081000A3EFF022E0FBA3E0FAA3E0F922F8E0FB6B
:10082000A3A3E0F925F0F0E582158270021583E0BC
:10083000FA38F022EBF0A3EAF0A3E9F022E493FB0C
:10084000740193FA740293F922D083D082F8E4936E
:100850007012740193700DA3A393F8740193F58241
:100860008883E4737402936860EFA3A3A380DFE539
:10087000112582F582E5103583F583B51004858254
:10088000112210AF06858211F51022858211F51014
:10089000D2AF22EC8EF0A4CCC5F0CCCDF8EFA4CE34
:1008A000C5F02DFDE43CFCE8A42EC8C5F03DFDE4F8
:1008B0003CFCEFA4FFE5F028FEE43DFDE43CFC2217
:1008C000BC000BBE0029EF8DF084FFADF022E4CC1C
:1008D000F875F008EF2FFFEE33FEEC33FCEE9DECE5
:1008E000984005FCEE9DFE0FD5F0E9E4CEFD22ED2B
:1008F000F8F5F0EE8420D21CFEADF075F008EF2F75
:10090000FFED33FD4007985006D5F0F222C398FD65
:100910000FD5F0EA22E6FB08E6F908E6FA08E6CB8E
:10092000F822E2FB08E2F908E2FA08E2CBF822E456
:1009300093F8740193F9740293FA740393FB22E51C
:10094000082474F582E43400F583E0050822900061
:1009500071300703900074E475F00112081D020560
:10096000A22000E97F2ED2008018EF540F2490D4EB
:100970003440D4FF30040BEF24BFB41A00500324DA
:1009800061FFE50960021509050CE50C7002050B15
:1009900030070E900071E475F00112081DEF02059A
:1009A000E80220A27403D2078003E4C207F508908E
:1009B0000071120834E4F509F50BF50CE509600740
:1009C0007F2012098280F5750AFFC201C200C202AF
:1009D000C203C205C206C20812094EFF700D3007DD
:1009E000057F00120993AF0CAE0B22B4255FC2D570
:1009F000C20412094EFF24D0B40A00501A75F00A3E
:100A0000780930D50508B6FF0106C6A426F620D51C
:100A1000047002D20380D924CFB41A00EF5004C26C
:100A2000E5D204020C85D20180C6D20080C0D20279
:100A300080BCD2D580BAD20580B47F201209822032
:100A400002077401B5090040F112093FFF12098243
:100A50000209BCD208D206809512093FFB12093F59
:100A6000FA12093FF94A4B700679837A0D7BFF2011
:100A7000022EE509602A7E008E827583001205BB76
:100A800060060EEE650A70F0C2D5EBC0E0EAC0E089
:100A9000E9C0E0EE120CE6D0E0F9D0E0FAD0E0FBDD
:100AA0001205A2FF60AAEBC0E0EAC0E0E9C0E012D4
:100AB0000982D0E02401F9D0E03400FAD0E0FBE56F
:100AC0000A0460DCD50AD98087D20280A2120CC841
:100AD00060F7E50A7001041203F0A90A600DE50A47
:100AE000600914F50A120D70EF60F3EA30E702F4C2
:100AF00004C3995079EAF4250A0430E701E404F5C7
:100B00000A800D120CC860C1EA050A250A1203F01A
:100B1000EA9000A0F030E701E4250A04D50A042099
:100B2000050114120CE6E4C0E0120D709000A0E084
:100B3000601320E70714F012096A802204F0D0E065
:100B400014C0E07F0012096AE50A60071209611506
:100B50000A800B300503120961D0E00209BCD0E025
:100B60000480C4120CC8609EE50A041203F09000D1
:100B7000A0EAF0E50A2005026001042404120CE654
:100B800074FF04C0E0120D7012096AE50A20050224
:100B90006003120961D0E0B50AE87F45120974903C
:100BA00000A0E07F2B30E7047F2DF404C0E01209A1
:100BB00082D0E075F00A84C0F012096BD0E012090F
:100BC0006B0209BC791080027908C206C20880084D
:100BD000D2D5790A8004790AC2D5E50A047002F5F3
:100BE0000AE4FAFDFEFF12093FFC7B082001131204
:100BF000093FFD7B1030000A12093FFE12093FFF3A
:100C00007B20EC3382D592D55013C3E43000069F8D
:100C1000FFE49EFEE42001039DFDE49CFCE4CBF890
:100C2000C201EC700CCFCECDCCE824F8F870F38084
:100C300017C3EF33FFEE33FEED33FDEC33FCEB3344
:100C4000FB994002FB0FD8E9EB300105F8D0E0C476
:100C500048B201C0E00AEC4D4E4F78207B0070C2D4
:100C6000EAB50A0040BCC0E0120CE8D0F0D0E020A9
:100C70000104C4C0E0C4B201C0F012096BD0F0D5C9
:100C8000F0EB0209BC1208490A59530BC4580A2A4E
:100C90004C0A26420BC84F0BD0440BD0490A3F43A5
:100CA0000BD6550B03460B63450ACD470DA3500ADF
:100CB0002E2D0A322E0A552B0A36230A53200D8C6C
:100CC0002A09EE4800000A4DE50AB4FF03750A063A
:100CD00012093FFC12093FFD12093FFE12093FFFB6
:100CE00090009902042D790AA2D520031430050939
:100CF000B910020404B9080104A2D520060250016B
:100D0000042002689202B509005034C0E07F203010
:100D100003197F30A20272067205500F120D3FC2F6
:100D200002C206C205C2087F30800F300503E9C049
:100D3000E0120982300503D0E0F9D0E0B509CC30EB
:100D400005177F30B9100C1209827F583004077FD5
:100D5000788003B908031209823002057F2D020949
:100D6000827F202008F87F2B2006F322920280CF7A
:100D70007F00B40700500B2499F582E43400F5831A
:100D8000E0FF22286E756C6C2900D20112093F30F9
:100D900001F8C201780930D50108F60209EE2D509C
:100DA00043495812093F2403B405004001E4900D63
:100DB0009E93120973743A120973D20375090402DF
:100DC0000BC4C0E0C0F0C083C082C085C084C086B0
:100DD000758600C093759300C0D075D000C000C068
:100DE00001C002C003C004C005C006C0077F007E6A
:100DF000007D007C009000481208087F007E007D86
:100E0000007C0090004C1208087F007E007D007C72
:100E1000009000501208087F007E007D007C00904A
:100E200000541208087F007E007D007C009000586E
:100E30001208087F007E007D007C0090006B120885
:100E40000890006FE4F0A3E4F09000F3E0FEA3E06C
:100E5000FFEF64014E70181223E1E4120331900198
:100E6000091208089000F3E4F0A3E4F00211231241
:100E700023E1E41203319000481208089000481260
:100E800007D09001091207DC1202B8502E90010918
:100E90001207D0C004C005C006C007121EF5E41238
:100EA0000331A804A905AA06AB07D007D006D005D0
:100EB000D00412002190010912080890004812077E
:100EC000DC9001091207D012001D90004C12080896
:100ED000121EF5E4120331A804A905AA06AB079077
:100EE000004C1207D012021B7BFE7AF479B27843D1
:100EF00012011290005012080890004C1207D0C046
:100F000004C005C006C0079000F1E0FEA3E0FF7C2E
:100F1000007D051205FAEDAE047802C333CE33CE60
:100F2000D8F9FF74F52FF58274003EF583D007D011
:100F300006D005D0041208089000F1E475F0011203
:100F40000630121A9090010D1208089000481207FE
:100F5000D090010912080890010D1207DC7F337E42
:100F6000337D437C4012001D90005412080890010C
:100F7000111207D0C004C005C006C007900050126F
:100F800007D09000541207DC120112A804A905AA88
:100F900006AB07D007D006D005D00412002190017F
:100FA000111208089000F1E0FEA3E0FFEF641C4E70
:100FB000700E7F007E007D007C00900111120808F9
:100FC0007F007E107DA47C459000541207DC120146
:100FD000127B007A0079617844120021C004C005B8
:100FE000C006C0077F007E007DFA7C43900054124B
:100FF00007DC1201129000501207DC12021BA80439
:10100000A905AA06AB07D007D006D005D004120068
:101010002190006B1208087F01121FAB7D007F003A
:10102000121CEA7B017A00795CC003C002C0017B1C
:10103000FF7A20793290007412083490005412071D
:10104000D0900077120808D001D002D0031209A472
:101050007B017A00795C121D907BFF7A2079351232
:101060001D907B017A00795CC003C002C0017BFF48
:101070007A2079329000741208347F007E007DFA65
:101080007C439000541207DC1201129000501207AA
:10109000DC12021B900077120808D001D002D003A6
:1010A0001209A47B017A00795C121D907F007E00FA
:1010B0007D7A7C4590006B1207DC1202B86010400C
:1010C0000E7F007EC07DA87C4490006B1208087FD4
:1010D000007E007D007C0090006B1207DC1202B8DD
:1010E0006002500E7F007E007D807C3F90006B127E
:1010F000080890006B1207D012036F90006FEEF09B
:10110000A3EFF07D007F01121CEA90006FE0FEA3C8
:10111000E0FFE4FCFD12178D90006FE0FEA3E0FFFE
:10112000122175D007D006D005D004D003D002D04C
:1011300001D000D0D0D093D086D084D085D082D0BA
:1011400083D0F0D0E0327B007A4079807D007C0053
:101150001223FF9040827450F07B007A4079847DA6
:10116000017C001223FF9040867418F07B007A40C7
:1011700079887D077C001223FF90408A7418F07BE9
:10118000007A40798C7D177C001223FF90408E748A
:1011900018F07B007A4079907D177C001223FF9035
:1011A00040927418F07B087A037990C003C002C0A3
:1011B000017B007A4179009000AB120834D001D055
:1011C00002D0037F047E00121FE19043007402F0FE
:1011D0009040007408F09042007403F07B0C7A0198
:1011E00079081224649046A1EFF07B007A427922BC
:1011F0007D087C001223FF7B007A4279207D517CA0
:10120000121223FF9000A5E4F07F197E007D007C80
:10121000009000A11208089000A11207D0D3EF940B
:1012200000EE9400404E9000A5E0FFEF64036044A0
:10123000904225E0FFEF5401FF7E009000A5E0FE04
:10124000EE25E0FEEE4FFFEF5403FF9000A5EFF018
:101250007FE07E017D007C00121F009000A112073C
:10126000D07BFF7AFF79FF78FF1206469000A1122B
:10127000080880A39000A11207D0EF4E70057F03ED
:1012800012237F7B007A4079047D007C011223FFCA
:101290009040047407F0904006E4F09040087448D1
:1012A000F0904004E4F09040017402F090400B7420
:1012B00004F09043A2E0FFEF441FFF9043A2EFF041
:1012C0009043A1E0FFEF4401FF9043A1EFF0904372
:1012D000A0E0FFEF4480FF9043A0EFF0227F947ED8
:1012E000017D007C009000A9120808905120E0FFC9
:1012F000EF5480FFEFF0905122E0FFEF54F0FF90A9
:1013000000A8EFF09000A8E0FFEF440FFF905122FB
:10131000EFF0905123E0FFEF54F0FF9000A8EFF0C2
:101320009000A8E0FF905123EFF0905124E0FFEFF0
:1013300054F0FF9000A8EFF09000A8E0FF90512437
:10134000EFF0905120E0FFEF54DFFFEFF0905120DD
:10135000E0FFEF4440FFEFF07F007E001220489056
:101360005120E0FFEF4410FFEFF07F017E001220DC
:1013700048905121E0FF9000A8EFF0905120E0FF4D
:10138000EF54EFFFEFF07F007E001220489000A89E
:10139000E0FFEF5408FF9000A8EFF0905120E0FF2D
:1013A000EF4410FFEFF07F017E00122048905120A3
:1013B000E0FFEF54EFFFEFF09000A8E0FFEF7007C1
:1013C0007F0A7E001220489000A91207D07BFF7A86
:1013D000FF79FF78FF1206469000A91208089000D6
:1013E000A8E0FFEF60129000A91207D0D3EF94009D
:1013F000EE94004003021358905120E0FFEF54BFD9
:10140000FFEFF0905120E0FFEF5480FFEFF090519C
:1014100022E0FFEF54F0FFEFF0905123E0FFEF5494
:10142000F0FF9000A8EFF09000A8E0FFEF440FFF5E
:10143000905123EFF0905124E0FFEF54F0FF900023
:10144000A8EFF09000A8E0FFEF440FFF905124EFC9
:10145000F0227B007A4679E8122464EF4405FD7B94
:10146000007A4679E8122470750F00E50FC3940ADC
:10147000503AAF0FEF75F005A424DBF582E4342475
:10148000F583AF82AE838E0D8F0EAE0DAF0E8F82C1
:101490008E8312083DAE0DAF0E8F828E8374039340
:1014A000FC740493FD12218F050F80BF7B087A0026
:1014B0007900122075905883740AF07B017A507974
:1014C00003122464EF4402FD7B017A507903122455
:1014D000707B017A507913122464EF4402FD7B0182
:1014E0007A5079131224709043A0E0FFEF4440FF3C
:1014F0009043A0EFF09043C2E0FFEF4410FF904311
:10150000C2EFF07B087A037980C003C002C0017B80
:10151000007A5179229000AB120834D001D002D069
:10152000037F087E00121FE17B087A037988C003DD
:10153000C002C0017B007A5179429000AB1208349E
:10154000D001D002D0037F087E00121FE19044F446
:101550007401F0904322E0FFEF4408FF904322EF34
:10156000F09046ECE0FFEFC3940550069046897476
:101570003AF090480074F1F012114690480074B1AE
:10158000F0121EB37B007A4379A0C003C002C001F1
:101590007B007A4379B09000AB120834D001D002BE
:1015A000D0037F0E7E00121FE19043B0E0FFEF54A6
:1015B000FDFFEFF0229000751208347F007E007D61
:1015C000007C009000781208087F007E007D007C7F
:1015D0000090007C1208087F057E007D007C009052
:1015E00000801208089000F1E0FEA3E0FFC3EF9432
:1015F00005EE6480948050149000F1E0FEA3E0FFBB
:10160000EE3395E0FDFC9000801208087F007E001C
:101610007D007C0090007C1208089000801207D0AA
:1016200090007C1207DCC3120799505B900078127F
:1016300007D0C004C005C006C0077F047E007D003F
:101640007C0090007C1207DC120661900075120885
:1016500014E92FF9EA3EFAEB3DFB1207E8D007D078
:1016600006D005D0041200219000781208089000DE
:101670007C1207D07B017A00790078001206469030
:10168000007C12080880939000801207D0E41203B7
:1016900031A804A905AA06AB079000781207D0125A
:1016A000021B2275930078007583467582E8E0443A
:1016B00001F0009046ECE0F99046FAE0FAB9032216
:1016C0005420B40012B8001AEA901FFFF074019081
:1016D0001FFEF09046F6F0901FFEE06005901FFFA1
:1016E000E0FA90480074C0F0758121900000780005
:1016F0007920E4F0A3D8FCD9FAEA900139F002008D
:101700001175101F7511FD121452021748021D4168
:10171000E493A3F8E493A34003F68001F208DFF416
:101720008029E493A3F85407240CC8C333C4540F8E
:101730004420C8834004F456800146F6DFE4800B61
:101740000102040810204080901A1CE47E0193607E
:10175000BCA3FF543F30E509541FFEE493A360018E
:101760000ECF54C025E060A840B8E493A3FAE493F8
:10177000A3F8E493A3C8C582C8CAC583CAF0A3C8A6
:10178000C582C8CAC583CADFE9DEE780BE900071A2
:10179000120808900081740AF0900081E0FF7476CE
:1017A0002FF582E43400F583E4F0900081E014F03A
:1017B0009000711207D0C3EF940AEE940040577B5B
:1017C0000A7A00790078009000711207D01206ECB6
:1017D000AC00AD01AE02AF03EF2430FF900075EF17
:1017E000F0900075E0FF900081E0FE74762EF582A7
:1017F000E43400F583EFF09000711207D07B0A7A91
:1018000000790078001206EC900071120808900030
:1018100081E014F0809A7B0A7A00790078009000C9
:10182000711207D01206ECAC00AD01AE02AF03EFAF
:101830002430FF900075EFF0900075E0FF9000817C
:10184000E0FE74762EF582E43400F583EFF090002C
:1018500081E0FF74762FF9E43400FA7B01121D90C9
:1018600022C0E0C0F0C083C082C085C084C086753D
:101870008600C093759300C0D075D000C000C00131
:10188000C002C003C004C005C006C0077F007E00C0
:101890007D007C00900027120808121922AC06ADCA
:1018A00007EC1203369000271208087F007E007DA7
:1018B000007C009000271207DC1202B8601E401C5A
:1018C0007F01121FAB7BFF7A207928121D909001B7
:1018D00015E0FEA3E0FFE4FCFD12178D900115E476
:1018E00075F0011206307BFF7A2179C0AE02AF019C
:1018F000EF4E700B122205900115E4F0A3E4F0D036
:1019000007D006D005D004D003D002D001D000D03B
:10191000D0D093D086D084D085D082D083D0F0D060
:10192000E032904E14E0FFEF5403FF90002DEFF0F3
:1019300090002DE0FFEFD394015032904E11E0FF64
:101940007E0090002BEEF0A3EFF090002BE0FEA3C2
:10195000E0FFEF7F00FE904E10E0FD7C00EE4CFEBD
:10196000EF4DFF90002BEEF0A3EFF0801F7B027A8B
:101970004E79101223F290002BEEF0A3EFF09000BE
:101980002DE0FFEFB40305904E12E0FF90012EE032
:10199000FFEF6005900123E4F090002BE0FEA3E050
:1019A000FF227F287E007D007C00121B657F0312D2
:1019B0001DDE7F057E007D007C00121B657F03120B
:1019C0001DDE7F0F7E007D007C00121B657F0312F1
:1019D0001DDE7F017E007D007C00121B657F0212F0
:1019E0001DDE7F057E007D007C00121B657F0612D8
:1019F0001FAB7F0E121FAB7F2C121FAB7F08121F75
:101A0000AB7F01121FAB7F0C121FAB7F03121FAB0A
:101A10007F057E007D007C00121B652244010900C9
:101A20000000004200F300014200F1000044010DFB
:101A300000000000440111000000004201150000F8
:101A4000410144004101430041014500410146007C
:101A5000410147004101230041012E0041012900BD
:101A600041012F0041012801440135016E36004437
:101A7000013000005DC04101341844013A2EE000FD
:101A800000410148FF43013E0000004101490000C0
:101A90007F007E007D007C009000711208087B01B1
:101AA0007A0079F51215B5900071120808121EF52A
:101AB000E4120331A804A905AA06AB07900071122D
:101AC00007D012021B7BFE7AF479B278431201121E
:101AD0009000711208089000711207DC7F717E3D42
:101AE0007DCA7C3F12021B7B007A0079407841124C
:101AF000021B9000711208089000711207D022900A
:101B00006471E0FFEF54F8FF90000CEFF090000CD0
:101B1000E0FF906471EFF0906471E0FFEF54FCFF20
:101B200090000CEFF090000CE0FF906471EFF01269
:101B3000241B7FFF1223C17F001223B17F001223D9
:101B4000A11224C47F641223D11222F490000DEF5D
:101B5000F0906491E0FFEF4410FFEFF090000DE093
:101B6000FF1221A82290FFFC12086F1208088510AE
:101B7000838511821207D0D3EF9400EE9480402F1A
:101B800090013A1207D0121F00851083851182C080
:101B900083C0821207D0EF2400FFEE3480FEED34C4
:101BA000FFFDEC34FFFCD082D08312080880BF9088
:101BB00001301207D08510838511821207DC1206CE
:101BC00061121F0090000412086F22C0E0C0F0C034
:101BD00083C082C085C084C086758600C09375931B
:101BE00000C0D075D000C000C001C002C003C00456
:101BF000C005C006C0077F01121FAB7BFF7A2079AA
:101C000015121D901224581221EED007D006D005CF
:101C1000D004D003D002D001D000D0D0D093D08651
:101C2000D084D085D082D083D0F0D0E032C0E0C064
:101C3000F0C083C082C085C084C086758600C09312
:101C4000759300C0D075D000C000C001C002C003B1
:101C5000C004C005C006C0077F01121FAB7BFF7A1E
:101C600020791E121D901222DF1221EED007D0061D
:101C7000D005D004D003D002D001D000D0D0D09372
:101C8000D086D084D085D082D083D0F0D0E032907E
:101C900000A8EFF0905120E0FFEF4420FFEFF0901C
:101CA0005120E0FFEF54BFFFEFF07F007E001220D5
:101CB00048905120E0FFEF54F0FFEFF0905120C02A
:101CC00083C082E0FF9000A8E0FEEE4410FEEF4EDD
:101CD000FFD082D083EFF07F017E00122048905128
:101CE00020E0FFEF54EFFFEFF0229000A1EFF09023
:101CF00000A2EDF09000A1E0FFEF1208491D0D00D9
:101D00001D1A011D27021D340300001D409000A272
:101D1000E0FFEF2480FF121FAB229000A2E0FFEF54
:101D200024C0FF121FAB229000A2E0FFEF2494FF1B
:101D3000121FAB229000A2E0FFEF24D4FF121FABD2
:101D400022D2AF9044F474FDF01222B51223337EF8
:101D50000D7FC21220C91223597E1C7F2D1221052E
:101D60001223467E1B7FCB1220E712236C7E187F46
:101D7000611221231222CA1221D71222A07D007FD4
:101D800000121CEA7BFF7A207938121D9080FE2217
:101D90009000A11208349000A47401F09000A112E8
:101DA00008141205A2FF9000A5EFF09000A5E0FF37
:101DB000EF602A9000A5E0FF121F759000A11208A5
:101DC000149000A4E0FFE92FF9E43AFA1205A2FF0B
:101DD0009000A5EFF09000A4E004F080CE229000E7
:101DE000A5EFF0905120E0FFEF549FFFEFF09051EE
:101DF00020E0FFEF54F0FFEFF0905120C083C0824D
:101E0000E0FF9000A5E0FEEE4410FEEF4EFFD08212
:101E1000D083EFF07F017E00122048905120E0FF38
:101E2000EF54EFFFEFF022906472E0FFEF54C0FF39
:101E30009000A1EFF09000A1E0FFEF4409FF906453
:101E400072EFF0906492E0FFEF4401FFEFF09064D6
:101E500093E0FFEF4401FFEFF07F107E2712214156
:101E60007F107E2712215B7F007E0012217522C227
:101E7000D5E830E70FB2D5E4C39BFBE49AFAE499C6
:101E8000F9E498F8EC30E717B2D5121EA51206EC6B
:101E9000E4C39BFBE49AFAE499F9E498F88003120E
:101EA00006EC30D50DE4C39FFFE49EFEE49DFDE407
:101EB0009CFC227B0C7A0179CF1224649000A1EF64
:101EC000F09000A1E0FFEF5407FF90586EEFF09004
:101ED00000A1E0FFEFC4540FFFEF540FFF90586FC5
:101EE000EFF090514D7401F0905B007410F0905839
:101EF000767444F0227B027A65792412230B223215
:101F0000EC4D4E700D78FCEF24E950032840FD2283
:101F100000007BF178DA0000EF28FF78FFEE38FE52
:101F2000ED38FDEC38FC50E7EF2BFFEE38FEED38D6
:101F3000FDEC38FC40F222050203047FFF7EFF7DAA
:101F4000FF7CFF1222327FFF7EFF7DFF7CFF12228B
:101F5000481222F49000A1EFF0906597E0FFEF4463
:101F600010FFEFF09000A1E0FF1221A812240E7FD5
:101F700000122391229000A6EFF01212DD9000A62D
:101F8000E0FFEFC4540FFF9000A7EFF09000A7E030
:101F9000FF121C8F9000A6E0FFEF540FFF9000A7E8
:101FA000EFF09000A7E0FF121C8F229000A3EFF04B
:101FB0001212DD9000A3E0FFEFC4540FFF9000A4C5
:101FC000EFF09000A4E0FF121DDE9000A3E0FFEF11
:101FD000540FFF9000A4EFF09000A4E0FF121DDE6C
:101FE00022758600EF4E6027EF60010E759300901A
:101FF00000ABE0F595A3E0F585A3E0F5848B938A2B
:10200000838982E0A30586F0A31586DFF6DEF4E47B
:10201000F593F59522726561642031303000737458
:10202000617274206F6E650048454C4C4C4F4F4FA9
:102030004F002566002F2F00454C4533303220439A
:1020400061726C6162003232EEFA900134E0F88F16
:10205000F0A4FFAEF0E88AF0A42EFEE5F03400FD17
:10206000EF24C9FF78FFEE38FEED38FDE438FC5070
:1020700003021F0022ACEAADA08B938A838982E021
:10208000F96017A3E0F5EAA3E0F5A0A3E060F4FA95
:10209000A3E0F8A3E0F2DAF8D9E98DA08CEAE4F540
:1020A0009322EFB40A07740D1220AD740A30981110
:1020B000A899B8130CC2983098FDA899C298B81185
:1020C000F63099FDC299F599229000A1EEF0A3EFA8
:1020D000F07B027A4479049000A1E0FEA3E0FFAD1A
:1020E00007AC06122401229000A1EEF0A3EFF07BD2
:1020F000027A4479029000A1E0FEA3E0FFAD07ACB4
:1021000006122401229000A1EEF0A3EFF07B027AE8
:102110004479069000A1E0FEA3E0FFAD07AC0612F3
:102120002401229000A1EEF0A3EFF07B027A447923
:10213000009000A1E0FEA3E0FFAD07AC0612240171
:10214000229000A2EEF0A3EFF07B027A6479029075
:1021500000A2E0FCA3E0FD122401229000A2EEF018
:10216000A3EFF07B027A6479429000A2E0FCA3E046
:10217000FD122401229000A2EEF0A3EFF07B027A80
:102180006479229000A2E0FCA3E0FD12240122EC7D
:102190004D6011ED60010C8B938A838982E4F0A37A
:1021A000DDFCDCFA75930022EF54016004D2AF80AD
:1021B00002C2AFEF5402FF9044F4E054FD4FF0220E
:1021C000905141E0FFEF5404FF7E00EF7802CEC350
:1021D00013CE13D8F9FF229043A2E0FFEF4410FF83
:1021E000EFF09043B2E0FFEF4410FFEFF022904396
:1021F000A2E0FFEF4408FFEFF09043B2E0FFEF44AE
:1022000008FFEFF0229043A2E0FFEF54F7FFEFF05A
:102210009043B2E0FFEF54F7FFEFF0229000A1EF00
:10222000F09000A1E0FFEFC43354E0FF904482EF50
:10223000F0229000A21208087B027A6579249000AF
:10224000A21207D0122320229000A21208087B02BB
:102250007A6579049000A21207D012232022900000
:10226000A1EFF09000A1E0FFEFC43354E0FF9044F1
:1022700081EFF0229000A1EFF09000A1E0FFEFC409
:102280003354E0FF904483EFF0229000A1EFF090F0
:1022900000A1E0FFEFC43354E0FF904480EFF02250
:1022A000900143E0FFEF70091219A29001437401FD
:1022B000F012242822900145E0FFEF7009121F3B25
:1022C0009001457401F012243422900146E0FFEFA2
:1022D0007009121E279001467401F01224402290CA
:1022E0000147E0FFEF7009121AFF9001477401F0F7
:1022F00012244C229044F4E0F84402F0E85402FF27
:1023000010AF012274014FFF228B938A838982E0F0
:10231000FFA3E0FEA3E0FDA3E0FC759300228B93F6
:102320008A838982EFF0A3EEF0A3EDF0A3ECF075C1
:1023300093002212248D7E1E7FFF1220C97F071278
:10234000221C1224862212249B7E207F461220E724
:102350007F0712225E122494221224A97E207F4736
:102360001221057F071222741224A2221224B77EA2
:10237000247FD01221237F0712228A1224B02290B8
:1023800000A6EFF09000A6E0FF9000A6EFF080FE20
:10239000229000A2EFF09000A2E0FF906587EFF09E
:1023A0002290000EEFF090000EE0FF906481EFF0BD
:1023B0002290000EEFF090000EE0FF906401EFF02D
:1023C0002290000EEFF090000EE0FF906421EFF0FD
:1023D0002290000EEFF090000EE0FF906431EFF0DD
:1023E00022906504E0FF7B027A65794412230B2278
:1023F0008B938A838982E0FFA3E0FE759300228B92
:10240000938A838982EDF0A3ECF075930022122465
:10241000BEEF30E30512247C80F4221224C4EF3096
:10242000E6051224CA80F4227F0C121FAB900144EF
:102430007401F022906574E0FFEF4480FFEFF0221A
:10244000906472E0FFEF4480FFEFF022906471E04F
:10245000FFEF4480FFEFF022906471E0FFEF547FC4
:10246000FFEFF0228B938A838982E0759300FF222D
:102470008B938A838982EDF0759300227B027A65C3
:10248000794412230B229044C07404F0229044C873
:102490007404F0229044C07402F0229044C8740284
:1024A000F0229044C07408F0229044C87408F022CE
:1024B0009044C07401F0229044C87401F0229065E9
:1024C00067E0FF22906461E0FF22906441E0FF2218
:1024D00032323232325B034324400000510000208C
:1024E000005130001000515000200051C000100079
:1024F00051F000100100001000011400080001401C
:0D250000000A00014C000200015000002004
:00000001FF
