:40000000021647008F828E83E0540100000070F82278FFE4F6D8FD0216A50203DBE86480F8E933E83360110460F0ED33EC337009E8FCE9FDEAFEEBFF220460DED3EB9FEAFE
:400040009EE99DE8C2E78CF0C2F795F0400CE8CCF8E9CDF9EACEFAEBCFFB1203A685D0F05804700320D5B3E80470075002B2D50203E592D5EC0460F7E4CCC0E0C398F860B5
:400080003B94186008400DD0E0FB0203BDE4FBFAC9FC8028E830E406E4C9FBE4CAFCE830E305E4C9CACBFCE854076010F8C3E913F9EA13FAEB13FBEC13FCD8F130F52FC331
:4000C000E49CFCEF9BFFEE9AFEED99FDD0E0FBEF4E4D4C701222DB030203E2EC2CFCEF33FFEE33FEED33FDED30E7EB0203BDEF2BFFEE3AFEED39FDD0E0FB50130BBB0003AD
:400100000203E5ED13FDEE13FEEF13FFEC13FC0203BDEC4D6011E8497017ED33EC3304600DE4FCFFFEFD22E933E8330470F80203DB1203A658046009E4CC248150062850E7
:40014000090203E52840030203E2C0E0EB4A7044B98006D0E0FB0203D1EF4E701CBD8008EBFFEAFEE9FD80EBE98DF0A4FEE5F00201FBE9CDF9EAFEEBFFEF89F0A4FCE5F087
:40018000CE89F0A42EFFE435F0CD89F0A42DFEE435F08067EF4E7005BD80D780C3EF8BF0A4ACF0EE8BF0A42CFCE435F0F8EF8AF0A42CE5F038FCE433CB8DF0A42CFCE5F0EE
:4001C0003BF8EE8AF0A42CFCE5F038F8E433CF89F0A42CFCE5F038CF3400CE89F0A42FFFE5F03EFEE433C98DF0A42EFEE5F039CD8AF0A42FFFE5F03EFEE43DFD33D0E0FBCD
:4002000050070BBB000F0203E5EC2CFCEF33FFEE33FEED33FD0203BD0203E5EC5D046005E8590470030203DB1203A6580460F6EC4860F2EC7004FDFEFF22C860DB2481C862
:400240005009C398600250060203E29850CAF582E9294B4A7005AB820203D175F0007C1A7880C3EF9BEE9AED99400DC3EF9BFFEE9AFEED99FDE842F0DC23ACF0D0E0FFD0BF
:40028000E0FED0E0FDAB8220E7101BEB60BAEC2CFCEF33FFEE33FEED33FD0203BDE803F830E705C0F075F000EF2FFFEE33FEED33FD40B830E7C280AA74F8CC6480CCC864A0
:4002C00080C8F58204604FC3EB9FF5F0EA9E42F0E99D42F0E89C45F0603C501DE5825FFFE582D313CB5BCBF42B5582FB50280ABA002409B9002008801DE5825BFBE582D354
:4003000013CF5FCFF4C3132F5582FF50090EBE00050DBD00010CC3EB9FF5F0EA9E42F0E99D42F0E89C45F06007CC4820E701B3EC2275F020800E75F010800575F0087D0045
:400340007E007F003392D530D50312077DEC334010EF33FFEE33FEED33FDEC33FCD5F0ED22E5F0247EA2D513CC92E7CDCEFF22EDD2E7CD33EC3392D524814006E4FFFEFD96
:40038000FC22FCE4CFCECDCC24E0501174FF80EDC3CC13CCCD13CDCE13CECF13CF0470F030D5DE02077DE9D2E7C933E833F892D5EDD2E7CD33EC33FC5002B2D522EC30E7A5
:4003C000100FBF000C0EBE00080DBD00040BEB6014A2D5EB13FCED92E7FD2274FFFCFDFEFF22E480F8A2D574FF13FC7D80E480EFF920E73624F950037907E4F42402FBE5DD
:4004000082158270021583DBF6E024FB501BE96014E4F0E582158270021583E004F0B40A08E4F0D9EE7401F00A22C2D522ED33EC3392D5FA602AB4FF33EDC2E77BFF600620
:400440007A047952E4227A04795B20D5047A047956224E614E002B494E46002D494E4600E47A08F0A3DAFC7B00740722C083C082ECC0E0EDC0E0EEC0E0EFC0E0EA75F01063
:40048000A4CAABF075F04DA42BFBE435F0FCEA2410FAEB34C5FBEC34D9FCEDC2E7FF75F056A4F42411C5F0F434C58FF0A42AE5F03BE43CF020E714120562D0E0FFD0E0FEA9
:4004C000D0E0FDD0E0FC12021B8014F404120562D0E0FFD0E0FED0E0FDD0E0FC120112D082D083E0FAEDD2E7CD33EC332482FBE4C3CF33CFCE33CECD33CD33DBF37B0775A3
:40050000F00A846004F0A31B0AE5F0F0A38FF0740AA4FFACF08EF0740AA42CFEACF050010C8DF0740AA42CFDE435F0F0A3DBDE7407223F8000004120000042C80000447A18
:400540000000461C400047C35000497424004B1896804CBEBC205A0E1BCA6753C21C749DC5AEFB60065407601C2323120590EB5438600912057C12058B120112ECF8EDF9AD
:40058000EEFAEFCB22EB12058B80F1543803241C900532FE93FC0EEE93FD0EEE930ECE93FF22BB010689828A83E0225002E722BBFE02E32289828A83E49322BB010CE582D4
:4005C00029F582E5833AF583E0225006E92582F8E622BBFE06E92582F8E222E58229F582E5833AF583E49322BB010689828A83F0225002F722BBFE01F322C2D5EC30E7098B
:40060000B2D5E4C39DFDE49CFCEE30E715B2D5E4C39FFFE49EFE1208B2C3E49DFDE49CFC80031208B230D507C3E49FFFE49EFE22C5F0F8A3E028F0C5F0F8E58215827002E0
:400640001583E038F022EF2BFFEE3AFEED39FDEC38FC22E88FF0A4CC8BF0A42CFCE98EF0A42CFC8AF0EDA42CFCEA8EF0A4CDA8F08BF0A42DCC3825F0FDE98FF0A42CCD3583
:40068000F0FCEB8EF0A4FEA9F0EB8FF0A4CFC5F02ECD39FEE43CFCEAA42DCE35F0FDE43CFC2275F008758200EF2FFFEE33FECD33CDCC33CCC58233C5829BED9AEC99E582DA
:4006C00098400CF582EE9BFEED9AFDEC99FC0FD5F0D6E4CEFBE4CDFAE4CCF9A88222B800C1B90059BA002DEC8BF084CFCECDFCE5F0CBF97818EF2FFFEE33FEED33FDEC33B8
:40070000FCEB33FB10D703994004EB99FB0FD8E5E4F9FA227818EF2FFFEE33FEED33FDEC33FCC933C910D7059BE99A4007EC9BFCE99AF90FD8E0E4C9FAE4CCFB2275F010D0
:40074000EF2FFFEE33FEED33FDCC33CCC833C810D7079BEC9AE899400AED9BFDEC9AFCE899F80FD5F0DAE4CDFBE4CCFAE4C8F922EF4BFFEE4AFEED49FDEC48FC22C3E49F33
:40078000FFE49EFEE49DFDE49CFC22EB9FF5F0EA9E42F0E99D42F0E89C45F022E8600FECC313FCED13FDEE13FEEF13FFD8F122E8600FEFC333FFEE33FEED33FDEC33FCD87B
:4007C000F122E0FCA3E0FDA3E0FEA3E0FF22E0F8A3E0F9A3E0FAA3E0FB22BB010789828A830207CE5005E9F8020907BBFE05E9F802091489828A83020921ECF0A3EDF0A3F9
:40080000EEF0A3EFF022E0FBA3E0FAA3E0F922F8E0FBA3A3E0F925F0F0E582158270021583E0FA38F022EBF0A3EAF0A3E9F022E493FB740193FA740293F922D083D082F8F2
:40084000E4937012740193700DA3A393F8740193F5828883E4737402936860EFA3A3A380DFE5112582F582E5103583F583B510048582112210AF06858211F51022858211E8
:40088000F510D2AF22EC8EF0A4CCC5F0CCCDF8EFA4CEC5F02DFDE43CFCE8A42EC8C5F03DFDE43CFCEFA4FFE5F028FEE43DFDE43CFC22BC000BBE0029EF8DF084FFADF02242
:4008C000E4CCF875F008EF2FFFEE33FEEC33FCEE9DEC984005FCEE9DFE0FD5F0E9E4CEFD22EDF8F5F0EE8420D21CFEADF075F008EF2FFFED33FD4007985006D5F0F222C3C8
:4009000098FD0FD5F0EA22E6FB08E6F908E6FA08E6CBF822E2FB08E2F908E2FA08E2CBF822E493F8740193F9740293FA740393FB22E508242CF582E43400F583E00508225F
:4009400090002930070390002CE475F00112080F0205A22000E97F2ED2008018EF540F2490D43440D4FF30040BEF24BFB41A0050032461FFE50960021509050CE50C7002D3
:40098000050B30070E900029E475F00112080FEF0205E8021D6E7403D2078003E4C207F508900029120826E4F509F50BF50CE50960077F2012097480F5750AFFC201C200F7
:4009C000C202C203C205C206C208120940FF700D3007057F00120985AF0CAE0B22B4255FC2D5C204120940FF24D0B40A00501A75F00A780930D50508B6FF0106C6A426F6FE
:400A000020D5047002D20380D924CFB41A00EF5004C2E5D204020C77D20180C6D20080C0D20280BCD2D580BAD20580B47F201209742002077401B5090040F1120931FF12D8
:400A400009740209AED208D2068095120931FB120931FA120931F94A4B700679757A0D7BFF20022EE509602A7E008E827583001205BB60060EEE650A70F0C2D5EBC0E0EA50
:400A8000C0E0E9C0E0EE120CD8D0E0F9D0E0FAD0E0FB1205A2FF60AAEBC0E0EAC0E0E9C0E0120974D0E02401F9D0E03400FAD0E0FBE50A0460DCD50AD98087D20280A212EF
:400AC0000CBA60F7E50A7001041203F0A90A600DE50A600914F50A120D62EF60F3EA30E702F404C3995079EAF4250A0430E701E404F50A800D120CBA60C1EA050A250A1232
:400B000003F0EA900058F030E701E4250A04D50A0420050114120CD8E4C0E0120D62900058E0601320E70714F012095C802204F0D0E014C0E07F0012095CE50A6007120994
:400B400053150A800B300503120953D0E00209AED0E00480C4120CBA609EE50A041203F0900058EAF0E50A2005026001042404120CD874FF04C0E0120D6212095CE50A202A
:400B800005026003120953D0E0B50AE87F45120966900058E07F2B30E7047F2DF404C0E0120974D0E075F00A84C0F012095DD0E012095D0209AE791080027908C206C20897
:400BC0008008D2D5790A8004790AC2D5E50A047002F50AE4FAFDFEFF120931FC7B08200113120931FD7B1030000A120931FE120931FF7B20EC3382D592D55013C3E4300015
:400C0000069FFFE49EFEE42001039DFDE49CFCE4CBF8C201EC700CCFCECDCCE824F8F870F38017C3EF33FFEE33FEED33FDEC33FCEB33FB994002FB0FD8E9EB300105F8D091
:400C4000E0C448B201C0E00AEC4D4E4F78207B0070C2EAB50A0040BCC0E0120CDAD0F0D0E0200104C4C0E0C4B201C0F012095DD0F0D5F0EB0209AE12083B0A4B530BB658FC
:400C80000A1C4C0A18420BBA4F0BC2440BC2490A31430BC8550AF5460B55450ABF470D95500A202D0A242E0A472B0A28230A45200D7E2A09E04800000A3FE50AB4FF037555
:400CC0000A06120931FC120931FD120931FE120931FF90005102042D790AA2D5200314300509B910020404B9080104A2D52006025001042002689202B509005034C0E07F2F
:400D0000203003197F30A20272067205500F120D31C202C206C205C2087F30800F300503E9C0E0120974300503D0E0F9D0E0B509CC3005177F30B9100C1209747F58300426
:400D4000077F788003B908031209743002057F2D0209747F202008F87F2B2006F322920280CF7F00B40700500B2451F582E43400F583E0FF22286E756C6C2900D2011209AA
:400D8000313001F8C201780930D50108F60209E02D504349581209312403B405004001E4900D9093120965743A120965D203750904020BB6C0E0C0F0C083C082C085C0840E
:400DC000C086758600C093759300C0D075D000C000C001C002C003C004C005C006C0077F007E007D007C009000001207FA7F007E007D007C009000041207FA7F007E007DB6
:400E0000007C009000081207FA7F007E007D007C0090000C1207FA7F007E007D007C009000101207FA7F007E007D007C009000231207FA900027E4F0A3E4F09000AAE0FE67
:400E4000A3E0FFEF64014E7018121FCCE41203319000C01207FA9000AAE4F0A3E4F0021115121FCCE41203319000001207FA9000001207C29000C01207CE1202B8502E9049
:400E800000C01207C2C004C005C006C00712203FE4120331A804A905AA06AB07D007D006D005D0041200219000C01207FA9000001207CE9000C01207C212001D90000412C7
:400EC00007FA12203FE4120331A804A905AA06AB079000041207C212021B7BFE7AF479B278431201129000081207FA9000041207C2C004C005C006C0079000A8E0FEA3E041
:400F0000FF7C007D051205FAEDAE047802C333CE33CED8F9FF74AC2FF58274003EF583D007D006D005D0041207FA9000A8E475F00112063012187F9000C41207FA90000032
:400F40001207C29000C01207FA9000C41207CE7F337E337D437C4012001D90000C1207FA9000C81207C2C004C005C006C0079000081207C290000C1207CE120112A804A982
:400F800005AA06AB07D007D006D005D0041200219000C81207FA9000A8E0FEA3E0FFEF641C4E700E7F007E007D007C009000C81207FA7F007E107DA47C4590000C1207CE30
:400FC0001201127B007A0079617844120021C004C005C006C0077F007E007DFA7C4390000C1207CE1201129000081207CE12021BA804A905AA06AB07D007D006D005D0045D
:401000001200219000231207FA7F01121C717D007F00121A067B017A007914C003C002C0017BFF7A1F798390002C12082690000C1207C290002F1207FAD001D002D00312C5
:4010400009967B017A007914121A5D7BFF7A1F7986121A5D7B017A007914C003C002C0017BFF7A1F798390002C1208267F007E007DFA7C4390000C1207CE120112900008E3
:401080001207CE12021B90002F1207FAD001D002D0031209967B017A007914121A5D7F007E007D7A7C459000231207CE1202B86010400E7F007EC07DA87C449000231207CE
:4010C000FA7F007E007D007C009000231207CE1202B86002500E7F007E007D807C3F9000231207FA9000231207C212036F900027EEF0A3EFF07D007F01121A06900027E070
:40110000FEA3E0FFE4FCFD121731900027E0FEA3E0FF121DE7D007D006D005D004D003D002D001D000D0D0D093D086D084D085D082D083D0F0D0E0327B007A4679E8122018
:4011400027EF4405FD7B007A4679E8122033750F00E50FC39409503AAF0FEF75F005A42467F582E43420F583AF82AE838E0D8F0EAE0DAF0E8F828E8312082FAE0DAF0E8FBF
:40118000828E83740393FC740493FD121E4F050F80BF7B087A007900121D417B017A507903122027EF4402FD7B017A5079031220337B017A507913122027EF4402FD7B0189
:4011C0007A5079131220339043A0E0FFEF4440FF9043A0EFF09043C2E0FFEF4410FF9043C2EFF07B087A037940C003C002C0017B007A51792290005E120826D001D002D073
:40120000037F087E00121CDD7B087A037948C003C002C0017B007A51793290005E120826D001D002D0037F087E00121CDD7B087A037950C003C002C0017B007A517942904F
:40124000005E120826D001D002D0037F087E00121CDD9044F47401F0904322E0FFEF4408FF904322EFF09046ECE0FFEFC394055006904689743AF090480074F1F012142F7A
:4012800090480074B1F0121CA77B007A4379A0C003C002C0017B007A4379B090005E120826D001D002D0037F0E7E00121CDD9043B0E0FFEF54FDFFEFF0227F947E017D0009
:4012C0007C009000611207FA905120E0FFEF5480FFEFF0905122E0FFEF54F0FF900060EFF0900060E0FFEF440FFF905122EFF0905123E0FFEF54F0FF900060EFF090006044
:40130000E0FF905123EFF0905124E0FFEF54F0FF900060EFF0900060E0FF905124EFF0905120E0FFEF54DFFFEFF0905120E0FFEF4440FFEFF07F007E00121D14905120E021
:40134000FFEF4410FFEFF07F017E00121D14905121E0FF900060EFF0905120E0FFEF54EFFFEFF07F007E00121D14900060E0FFEF5408FF900060EFF0905120E0FFEF441021
:40138000FFEFF07F017E00121D14905120E0FFEF54EFFFEFF0900060E0FFEF70077F0A7E00121D149000611207C27BFF7AFF79FF78FF1206469000611207FA900060E0FFC0
:4013C000EF60129000611207C2D3EF9400EE94004003021335905120E0FFEF54BFFFEFF0905120E0FFEF5480FFEFF0905122E0FFEF54F0FFEFF0905123E0FFEF54F0FF9082
:401400000060EFF0900060E0FFEF440FFF905123EFF0905124E0FFEF54F0FF900060EFF0900060E0FFEF440FFF905124EFF0227B007A4079807D017C00121FDB9040827485
:4014400018F07B007A4079847D077C00121FDB9040867418F07B007A4079887D177C00121FDB90408A7418F09043007402F09040007408F09042007403F07B0C7A017908FB
:401480001220279046A1EFF07B007A4279227D087C00121FDB7B007A4279207D517C12121FDB90005DE4F07F197E007D007C009000591207FA9000591207C2D3EF9400EE92
:4014C0009400404E90005DE0FFEF64036044904225E0FFEF5401FF7E0090005DE0FEEE25E0FEEE4FFFEF5403FF90005DEFF07FE07E017D007C00121C009000591207C27B20
:40150000FF7AFF79FF78FF1206469000591207FA80A39000591207C2EF4E70057F03121FAA7B007A4079047D007C01121FDB9040047407F0904006E4F09040087448F0903F
:401540004004E4F09040017402F09043A2E0FFEF4407FF9043A2EFF02290002D1208267F007E007D007C009000301207FA7F007E007D007C009000341207FA7F057E007D07
:40158000007C009000381207FA9000A8E0FEA3E0FFC3EF9405EE6480948050149000A8E0FEA3E0FFEE3395E0FDFC9000381207FA7F007E007D007C009000341207FA900048
:4015C000381207C29000341207CEC312078B505B9000301207C2C004C005C006C0077F047E007D007C009000341207CE12065390002D120806E92FF9EA3EFAEB3DFB12070E
:40160000DAD007D006D005D0041200219000301207FA9000341207C27B017A00790078001206469000341207FA80939000381207C2E4120331A804A905AA06AB079000305D
:401640001207C212021B2275930078007583467582E8E04401F0009046ECE0F99046FAE0FAB903225420B40012B8001AEA901FFFF07401901FFEF09046F6F0901FFEE0601A
:4016800005901FFFE0FA90480074C0F075812190000078007920E4F0A3D8FCD9FAEA9000D5F002001175101F7511FD1211380216EC021B84E493A3F8E493A34003F680016C
:4016C000F208DFF48029E493A3F85407240CC8C333C4540F4420C8834004F456800146F6DFE4800B01020408102040809019AFE47E019360BCA3FF543F30E509541FFEE499
:4017000093A360010ECF54C025E060A840B8E493A3FAE493A3F8E493A3C8C582C8CAC583CAF0A3C8C582C8CAC583CADFE9DEE780BE9000291207FA900039740AF09000394C
:40174000E0FF742E2FF582E43400F583E4F0900039E014F09000291207C2C3EF940AEE940040577B0A7A00790078009000291207C21206DEAC00AD01AE02AF03EF2430FFBC
:4017800090002DEFF090002DE0FF900039E0FE742E2EF582E43400F583EFF09000291207C27B0A7A00790078001206DE9000291207FA900039E014F0809A7B0A7A0079000F
:4017C00078009000291207C21206DEAC00AD01AE02AF03EF2430FF90002DEFF090002DE0FF900039E0FE742E2EF582E43400F583EFF0900039E0FF742E2FF9E43400FA7B55
:4018000001121A5D227F287E007D007C001218EE7F03121AAB7F057E007D007C001218EE7F03121AAB7F0F7E007D007C001218EE7F03121AAB7F017E007D007C001218EE7C
:401840007F02121AAB7F057E007D007C001218EE7F06121C717F0E121C717F2C121C717F08121C717F01121C717F0C121C717F03121C717F057E007D007C001218EE227F1F
:40188000007E007D007C009000291207FA7B017A0079AC1215599000291207FA12203FE4120331A804A905AA06AB079000291207C212021B7BFE7AF479B2784312011290E2
:4018C00000291207FA9000291207CE7F717E3D7DCA7C3F12021B7B007A007940784112021B9000291207FA9000291207C22290FFFC1208611207FA8510838511821207C2F4
:40190000D3EF9400EE9480402F9000D61207C2121C00851083851182C083C0821207C2EF2400FFEE3480FEED34FFFDEC34FFFCD082D0831207FA80BF9000CC1207C2851034
:40194000838511821207CE120653121C0090000412086122900060EFF0905120E0FFEF4420FFEFF0905120E0FFEF54BFFFEFF07F007E00121D14905120E0FFEF54F0FFEF3A
:40198000F0905120C083C082E0FF900060E0FEEE4410FEEF4EFFD082D083EFF07F017E00121D14905120E0FFEF54EFFFEFF0224400C0000000004200AA00014200A80000D6
:4019C0004400C4000000004400C8000000004100E0004100DF004100E1004100E2004100E3004400D1016E36004400CC00005DC04100D0184400D62EE000004300DA0000D4
:401A0000004100E40000900059EFF090005AEDF0900059E0FFEF12083B1A29001A36011A43021A500300001A5C90005AE0FFEF2480FF121C712290005AE0FFEF24C0FF1247
:401A40001C712290005AE0FFEF2494FF121C712290005AE0FFEF24D4FF121C712290005912082690005C7401F09000591208061205A2FF90005DEFF090005DE0FFEF602ACB
:401A800090005DE0FF121C3B90005912080690005CE0FFE92FF9E43AFA1205A2FF90005DEFF090005CE004F080CE2290005DEFF0905120E0FFEF549FFFEFF0905120E0FFF4
:401AC000EF54F0FFEFF0905120C083C082E0FF90005DE0FEEE4410FEEF4EFFD082D083EFF07F017E00121D14905120E0FFEF54EFFFEFF022906472E0FFEF54C0FF90005922
:401B0000EFF0900059E0FFEF4409FF906472EFF0906492E0FFEF4401FFEFF0906493E0FFEF4401FFEFF07F107E27121DB37F107E27121DCD7F007E00121DE722906475E0CB
:401B4000FFEF54C0FF900059EFF0900059E0FFEF4409FF906475EFF0906494E0FFEF4401FFEFF0906495E0FFEF4401FFEFF07F607EEA121E017F607EEA121E1B7F007E0057
:401B8000121E3522D2AF9044F474FDF0121F05121F977E0D7FB4121D95121F1A121E80121F2F121E977F107E0E121E35121EF07D007F00121A067BFF7A1F7989121A5D8066
:401BC000FE227FFF7EFF7DFF7CFF121EC47FFF7EFF7DFF7CFF121EDA121F44900059EFF0906597E0FFEF4410FFEFF0900059E0FF121E68121FEA7F00121FBC2232000000DF
:401C0000EC4D4E700D78FCEF24E950032840FD2200007BF178DA0000EF28FF78FFEE38FEED38FDEC38FC50E7EF2BFFEE38FEED38FDEC38FC40F2220502030490005EEFF0C0
:401C40001212BA90005EE0FFEFC4540FFF90005FEFF090005FE0FF12195490005EE0FFEF540FFF90005FEFF090005FE0FF1219542290005BEFF01212BA90005BE0FFEFC409
:401C8000540FFF90005CEFF090005CE0FF121AAB90005BE0FFEF540FFF90005CEFF090005CE0FF121AAB227B0C7A0179CF122027900059EFF0900059E0FFEF5407FF905847
:401CC0006EEFF0900059E0FFEFC4540FFFEF540FFF90586FEFF09058767444F022758600EF4E6027EF60010E75930090005EE0F595A3E0F585A3E0F5848B938A838982E07F
:401D0000A30586F0A31586DFF6DEF4E4F593F59522000000EEFA9000D0E0F88FF0A4FFAEF0E88AF0A42EFEE5F03400FDEF24C9FF78FFEE38FEED38FDE438FC5003021C004F
:401D400022ACEAADA08B938A838982E0F96017A3E0F5EAA3E0F5A0A3E060F4FAA3E0F8A3E0F2DAF8D9E98DA08CEAE4F59322EFB40A07740D121D79740A309811A899B81398
:401D80000CC2983098FDA899C298B811F63099FDC299F59922900059EEF0A3EFF07B027A447904900059E0FEA3E0FFAD07AC06121FDD2290005AEEF0A3EFF07B027A6479CF
:401DC0000290005AE0FCA3E0FD121FDD2290005AEEF0A3EFF07B027A64794290005AE0FCA3E0FD121FDD2290005AEEF0A3EFF07B027A64792290005AE0FCA3E0FD121FDD01
:401E00002290005AEEF0A3EFF07B027A64790490005AE0FCA3E0FD121FDD2290005AEEF0A3EFF07B027A64794490005AE0FCA3E0FD121FDD2290005AEEF0A3EFF07B027ACF
:401E400064792490005AE0FCA3E0FD121FDD22EC4D6011ED60010C8B938A838982E4F0A3DDFCDCFA75930022EF54016004D2AF8002C2AFEF5402FF9044F4E054FD4FF022A7
:401E80009043A2E0FFEF4404FFEFF09043B2E0FFEF4404FFEFF0229043A2E0FFEF4402FFEFF09043B2E0FFEF4402FFEFF022900059EFF0900059E0FFEFC43354E0FF9044A1
:401EC00082EFF02290005A1207FA7B027A65792490005A1207C2121F702290005A1207FA7B027A65790490005A1207C2121F70229000DFE0FFEF70091218059000DF7401BA
:401F0000F0121FF7229000E1E0FFEF7009121BC29000E17401F0122003229000E2E0FFEF7009121AF49000E27401F012200F229000E3E0FFEF7009121B3C9000E37401F085
:401F400012201B229044F4E0F84402F0E85402FF10AF012274014FFF228B938A838982E0FFA3E0FEA3E0FDA3E0FC759300228B938A838982EFF0A3EEF0A3EDF0A3ECF0754F
:401F80009300222566002F2F00454C45333032204361726C61620012205A7E1B7FFC121D957F07121EAE1220532290005EEFF090005EE0FF90005EEFF080FE2290005AEF64
:401FC000F090005AE0FF906587EFF022906504E0FF7B027A657944121F5B228B938A838982EDF0A3ECF075930022122061EF30E30512204980F4227F0C121C719000E07497
:4020000001F022906574E0FFEF4480FFEFF022906472E0FFEF4480FFEFF022906475E0FFEF4480FFEFF0228B938A838982E0759300FF228B938A838982EDF0759300227BA8
:40204000027A657924121F5B227B027A657944121F5B229044C07404F0229044C87404F022906567E0FF22005100002000515000200051C000100051F00010010000100017
:4020800001140008000140000A00014C00020001500000200000000000000000000000000000000000000000000000000000000000000000000000000000000000000000F8
:4020C00000000000000000000000000000000000000000000000000000000000000000000000000000000000000000000000000000000000000000000000000000000000E0
:40210000000000000000000000000000000000000000000000000000000000000000000000000000000000000000000000000000000000000000000000000000000000009F
:40214000000000000000000000000000000000000000000000000000000000000000000000000000000000000000000000000000000000000000000000000000000000005F
:40218000000000000000000000000000000000000000000000000000000000000000000000000000000000000000000000000000000000000000000000000000000000001F
:0200000480007A
:40000000150052041C8020C02180241C0064018167006501870D01003388048F039203940199019E0CAD04AE01B004B202B302B408B501B601B704BE41BF50C014C106C522
:400040005CC620C70EC81FC9FFCAFFCBFFCDA0CF01D018D280D407D604D804D904DA04DB04DC99DD99DF01E040E280E440E540E680E840EA50EBA8EC40ED20EE50EFA80185
:40008000012305100E200F8217401D901E60272A2E8037203D80458046404C084F065540564857105E405F18633065026608670477408102C040C2B0C480CA10CC20CE10A9
:4000C000D090D220D670D8E00102341E022E03320134024030410549FF4AFF4BFF4DA04F045018528058045A045B045C025D225F01604062C06440654066C068C06AC06C6F
:40010000C06EC0C030C105C601C720C824C9FFCAFFCBFFCDAFCE0FCF04D018DA04DD02DF01E040E2C0E440E540E6C0E8C0EAC0ECC0EEC00103160D4017801D081F2041086D
:40014000450848024E0250025140520277808404AA80AB40AC08AF02C280C480D042D218EA020104344030410249FF4AFF4BFF4DA04F0450185A045D015F01604062C06449
:4001800040654066C068C06AC06CC06EC09A02AE03B201B402C030C102C501C620C809C9FFCAFFCBFFCDAFCE0FCF04D018D280D804DA04DB04DC01DD11DF01E040E2C0E4F7
:4001C00040E540E6C0E8C0EAC0ECC0EEC001050F0F0817801C181D084010412045284F0855207780A404AF20C240C480D066010D01AD08010E04B808BE04D804DF01010F33
:40020000011D08011426404649FF4AFF4BFF4F01501852805A045B045F016040624064406540668068806A806C806E80C046C9FFCAFFCBFFCD83CE03CF01D018DA04DF0140
:40024000E040E240E440E540E680E880EA80EC80EE800115094102450248084C087102A008A502D081D224011630404649FF4AFF4BFF4D834E034F0150185A045F016040AC
:40028000624064406540668068806A806C806E809201AA01B601BE40C046C5ECC702C813C9FFCAFFCBFFCD83CE03CF01D018D401D804DA04DB04DF01E040E240E440E54066
:4002C000E680E880EA80EC80EE8001170F09021008194041024502480849054C0850085945C208C402D081D224D60B014010030207040B203388354049404B205C026708A2
:400300008380C0C0C210CC70D680D880E620014108840297089C02AB06AF08E640E8A0EE40014202AF04EE1001500700060101080409010A0210011A01015101003F0000F1
:40034000007F7F000000000080000000000000009CC04000C000000000000000000000000000000000000000000000000000000000000000000000000000000000000000A3
:40038000000000000000000000000000000000000000000000000000000000000000000000000000000000000000000000000000000000000000000000000000000000003D
:4003C00000000000000000000000000000000000000000000000000000000000000000000000000000000000000000000000000000000000000000000000000000000000FD
:4004000000000000000000000000000000000000000000000000000000000000000000000000000000000000000000000000000000000000000000000000000000000000BC
:40044000000000000000000000000000000000000000000000000000000000000000000000000000000000000000000000000000000000000000000000000000000000007C
:0200000490006A
:0400000000004005B7
:0200000490105A
:04000000BC90ACAF55
:0200000490303A
:02000000944228
:0200000490501A
:0C00000000011E02806903011E1314ABF6
:0200000490402A
:4000000000000000000000000000000000000000000000000000000000000000000000000000000000000000000000000000000000000000000000000000000000000000C0
:00000001FF
