:1000000002146F008F828E83E0540100000070F8AC
:100010002278FFE4F6D8FD0214CD020362E8648082
:10002000F8E933E83360110460F0ED33EC33700924
:10003000E8FCE9FDEAFEEBFF220460DED3EB9FEA79
:100040009EE99DE8C2E78CF0C2F795F0400CE8CC41
:10005000F8E9CDF9EACEFAEBCFFB12032D85D0F00B
:100060005804700320D5B3E80470075002B2D502DB
:10007000036C92D5EC0460F7E4CCC0E0C398F86060
:100080003B94186008400DD0E0FB020344E4FBFA07
:10009000C9FC8028E830E406E4C9FBE4CAFCE83087
:1000A000E305E4C9CACBFCE854076010F8C3E913C0
:1000B000F9EA13FAEB13FBEC13FCD8F130F52FC37C
:1000C000E49CFCEF9BFFEE9AFEED99FDD0E0FBEF88
:1000D0004E4D4C701222DB03020369EC2CFCEF3313
:1000E000FFEE33FEED33FDED30E7EB020344EF2B83
:1000F000FFEE3AFEED39FDD0E0FB50130BBB0003E1
:1001000002036CED13FDEE13FEEF13FFEC13FC0284
:100110000344EC4D6011E8497017ED33EC33046093
:100120000DE4FCFFFEFD22E933E8330470F802031E
:100130006212032D58046009E4CC24815006285033
:100140000902036C284003020369C0E0EB4A7044D3
:10015000B98006D0E0FB020358EF4E701CBD80084A
:10016000EBFFEAFEE9FD80EBE98DF0A4FEE5F0028D
:1001700001FBE9CDF9EAFEEBFFEF89F0A4FCE5F025
:10018000CE89F0A42EFFE435F0CD89F0A42DFEE455
:1001900035F08067EF4E7005BD80D780C3EF8BF0E0
:1001A000A4ACF0EE8BF0A42CFCE435F0F8EF8AF070
:1001B000A42CE5F038FCE433CB8DF0A42CFCE5F066
:1001C0003BF8EE8AF0A42CFCE5F038F8E433CF8954
:1001D000F0A42CFCE5F038CF3400CE89F0A42FFF3A
:1001E000E5F03EFEE433C98DF0A42EFEE5F039CDF6
:1001F0008AF0A42FFFE5F03EFEE43DFD33D0E0FBA6
:1002000050070BBB000F02036CEC2CFCEF33FFEE2E
:1002100033FEED33FD02034402036CEC5D04600524
:10022000E85904700302036212032D580460F6ECCF
:100230004860F2EC7004FDFEFF22C860DB2481C838
:100240005009C398600250060203699850CAF582AB
:10025000E9294B4A7005AB8202035875F0007C1AFD
:100260007880C3EF9BEE9AED99400DC3EF9BFFEEB4
:100270009AFEED99FDE842F0DC23ACF0D0E0FFD02F
:10028000E0FED0E0FDAB8220E7101BEB60BAEC2C67
:10029000FCEF33FFEE33FEED33FD020344E803F8D9
:1002A00030E705C0F075F000EF2FFFEE33FEED33C1
:1002B000FD40B830E7C280AA75F020800E75F010BE
:1002C000800575F0087D007E007F003392D530D523
:1002D00003120724EC334010EF33FFEE33FEED330F
:1002E000FDEC33FCD5F0ED22E5F0247EA2D513CC55
:1002F00092E7CDCEFF22EDD2E7CD33EC3392D52479
:10030000814006E4FFFEFDFC22FCE4CFCECDCC24F0
:10031000E0501174FF80EDC3CC13CCCD13CDCE13C0
:10032000CECF13CF0470F030D5DE020724E9D2E738
:10033000C933E833F892D5EDD2E7CD33EC33FC5036
:1003400002B2D522EC30E7100FBF000C0EBE000841
:100350000DBD00040BEB6014A2D5EB13FCED92E78E
:10036000FD2274FFFCFDFEFF22E480F8A2D574FF9D
:1003700013FC7D80E480EFF920E73624F9500379FF
:1003800007E4F42402FBE582158270021583DBF694
:10039000E024FB501BE96014E4F0E5821582700252
:1003A0001583E004F0B40A08E4F0D9EE7401F00A11
:1003B00022C2D522ED33EC3392D5FA602AB4FF3352
:1003C000EDC2E77BFF60067A0379D9E4227A0379EC
:1003D000E220D5047A0379DD224E614E002B494E8E
:1003E00046002D494E4600E47A08F0A3DAFC7B0073
:1003F000740722C083C082ECC0E0EDC0E0EEC0E034
:10040000EFC0E0EA75F010A4CAABF075F04DA42B74
:10041000FBE435F0FCEA2410FAEB34C5FBEC34D9EC
:10042000FCEDC2E7FF75F056A4F42411C5F0F434D6
:10043000C58FF0A42AE5F03BE43CF020E714120459
:10044000E9D0E0FFD0E0FED0E0FDD0E0FC12021BDE
:100450008014F4041204E9D0E0FFD0E0FED0E0FD07
:10046000D0E0FC120112D082D083E0FAEDD2E7CDC9
:1004700033EC332482FBE4C3CF33CFCE33CECD3342
:10048000CD33DBF37B0775F00A846004F0A31B0A0D
:10049000E5F0F0A38FF0740AA4FFACF08EF0740ABC
:1004A000A42CFEACF050010C8DF0740AA42CFDE4D9
:1004B00035F0F0A3DBDE7407223F8000004120000E
:1004C0000042C80000447A0000461C400047C35068
:1004D00000497424004B1896804CBEBC205A0E1B59
:1004E000CA6753C21C749DC5AEFB60065407601CEE
:1004F0002323120517EB5438600912050312051265
:10050000120112ECF8EDF9EEFAEFCB22EB12051224
:1005100080F1543803241C9004B9FE93FC0EEE9332
:10052000FD0EEE930ECE93FF22BB010689828A83D5
:10053000E0225002E722BBFE02E32289828A83E4A2
:100540009322BB010CE58229F582E5833AF583E02D
:10055000225006E92582F8E622BBFE06E92582F84C
:10056000E222E58229F582E5833AF583E49322BB12
:10057000010689828A83F0225002F722BBFE01F332
:1005800022EF8DF0A4A8F0CF8CF0A428CE8DF0A49B
:100590002EFE22C2D5EC30E709B2D5E4C39DFDE4BE
:1005A0009CFCEE30E715B2D5E4C39FFFE49EFE123B
:1005B0000859C3E49DFDE49CFC800312085930D522
:1005C00007C3E49FFFE49EFE22C5F0F8A3E028F0F5
:1005D000C5F0F8E582158270021583E038F022EF4D
:1005E0002BFFEE3AFEED39FDEC38FC22C3EF9BFF0A
:1005F000EE9AFEED99FDEC98FC22E88FF0A4CC8BEE
:10060000F0A42CFCE98EF0A42CFC8AF0EDA42CFCC8
:10061000EA8EF0A4CDA8F08BF0A42DCC3825F0FD07
:10062000E98FF0A42CCD35F0FCEB8EF0A4FEA9F000
:10063000EB8FF0A4CFC5F02ECD39FEE43CFCEAA44C
:100640002DCE35F0FDE43CFC2275F008758200EFFC
:100650002FFFEE33FECD33CDCC33CCC58233C582F4
:100660009BED9AEC99E58298400CF582EE9BFEEDAD
:100670009AFDEC99FC0FD5F0D6E4CEFBE4CDFAE47C
:10068000CCF9A88222B800C1B90059BA002DEC8B70
:10069000F084CFCECDFCE5F0CBF97818EF2FFFEE4C
:1006A00033FEED33FDEC33FCEB33FB10D703994005
:1006B00004EB99FB0FD8E5E4F9FA227818EF2FFF45
:1006C000EE33FEED33FDEC33FCC933C910D7059B87
:1006D000E99A4007EC9BFCE99AF90FD8E0E4C9FAE3
:1006E000E4CCFB2275F010EF2FFFEE33FEED33FD6F
:1006F000CC33CCC833C810D7079BEC9AE899400A92
:10070000ED9BFDEC9AFCE899F80FD5F0DAE4CDFB0F
:10071000E4CCFAE4C8F922EF4BFFEE4AFEED49FDC6
:10072000EC48FC22C3E49FFFE49EFEE49DFDE49CB4
:10073000FC22EB9FF5F0EA9E42F0E99D42F0E89C36
:1007400045F022E8600FECC313FCED13FDEE13FE41
:10075000EF13FFD8F122E8600FEFC333FFEE33FE53
:10076000ED33FDEC33FCD8F122BB010789828A838B
:100770000207895005E9F80208AEBBFE05E9F80258
:1007800008BA89828A830208C6E0FCA3E0FDA3E0E0
:10079000FEA3E0FF22E0F8A3E0F9A3E0FAA3E0FB68
:1007A00022ECF0A3EDF0A3EEF0A3EFF022E0FBA328
:1007B000E0FAA3E0F922F8E0FBA3A3E0F925F0F0CA
:1007C000E582158270021583E0FA38F022EBF0A37F
:1007D000EAF0A3E9F022E493FB740193FA74029324
:1007E000F922D083D082F8E4937012740193700DD3
:1007F000A3A393F8740193F5828883E4737402933E
:100800006860EFA3A3A380DFE5112582F582E510E0
:100810003583F583B510048582112210AF068582D9
:1008200011F51022858211F510D2AF22EC8EF0A4C2
:10083000CCC5F0CCCDF8EFA4CEC5F02DFDE43CFC4A
:10084000E8A42EC8C5F03DFDE43CFCEFA4FFE5F0B4
:1008500028FEE43DFDE43CFC22BC000BBE0029EF79
:100860008DF084FFADF022E4CCF875F008EF2FFF97
:10087000EE33FEEC33FCEE9DEC984005FCEE9DFE65
:100880000FD5F0E9E4CEFD22EDF8F5F0EE8420D2AC
:100890001CFEADF075F008EF2FFFED33FD4007981B
:1008A0005006D5F0F222C398FD0FD5F0EA22E6FCFF
:1008B00008E6FD08E6FE08E6FF22E2FC08E2FD0885
:1008C000E2FE08E2FF22E493FC740193FD740293BC
:1008D000FE740393FF22E5082424F582E43400F536
:1008E00083E0050822900021300703900024E4757E
:1008F000F0011207B60205292000E97F2ED2008000
:1009000018EF540F2490D43440D4FF30040BEF245C
:10091000BFB41A0050032461FFE509600215090500
:100920000CE50C7002050B30070E900021E475F009
:10093000011207B6EF02056F021A667403D2078030
:1009400003E4C207F5089000211207CDE4F509F58C
:100950000BF50CE50960077F2012091980F5750A6F
:10096000FFC201C200C202C203C205C206C208120F
:1009700008E5FF700D3007057F0012092AAF0CAEA5
:100980000B22B4255FC2D5C2041208E5FF24D0B4FF
:100990000A00501A75F00A780930D50508B6FF012B
:1009A00006C6A426F620D5047002D20380D924CF2F
:1009B000B41A00EF5004C2E5D204020C1CD201802C
:1009C000C6D20080C0D20280BCD2D580BAD2058007
:1009D000B47F201209192002077401B5090040F103
:1009E0001208D6FF120919020953D208D2068095BF
:1009F0001208D6FB1208D6FA1208D6F94A4B70062E
:100A0000791A7A0D7BFF20022EE509602A7E008E7E
:100A10008275830012054260060EEE650A70F0C210
:100A2000D5EBC0E0EAC0E0E9C0E0EE120C7DD0E01A
:100A3000F9D0E0FAD0E0FB120529FF60AAEBC0E094
:100A4000EAC0E0E9C0E0120919D0E02401F9D0E0E1
:100A50003400FAD0E0FBE50A0460DCD50AD98087CF
:100A6000D20280A2120C5F60F7E50A700104120343
:100A700077A90A600DE50A600914F50A120D07EF5F
:100A800060F3EA30E702F404C3995079EAF4250AE6
:100A90000430E701E404F50A800D120C5F60C1EA3E
:100AA000050A250A120377EA900050F030E701E4C6
:100AB000250A04D50A0420050114120C7DE4C0E0C7
:100AC000120D07900050E0601320E70714F01209A0
:100AD00001802204F0D0E014C0E07F00120901E59B
:100AE0000A60071208F8150A800B3005031208F88F
:100AF000D0E0020953D0E00480C4120C5F609EE590
:100B00000A04120377900050EAF0E50A200502601B
:100B100001042404120C7D74FF04C0E0120D0712BE
:100B20000901E50A20050260031208F8D0E0B50AC1
:100B3000E87F4512090B900050E07F2B30E7047FDF
:100B40002DF404C0E0120919D0E075F00A84C0F059
:100B5000120902D0E01209020209537910800279C9
:100B600008C206C2088008D2D5790A8004790AC270
:100B7000D5E50A047002F50AE4FAFDFEFF1208D674
:100B8000FC7B082001131208D6FD7B1030000A12EE
:100B900008D6FE1208D6FF7B20EC3382D592D550C2
:100BA00013C3E43000069FFFE49EFEE42001039D92
:100BB000FDE49CFCE4CBF8C201EC700CCFCECDCCB4
:100BC000E824F8F870F38017C3EF33FFEE33FEED3F
:100BD00033FDEC33FCEB33FB994002FB0FD8E9EB20
:100BE000300105F8D0E0C448B201C0E00AEC4D4E37
:100BF0004F78207B0070C2EAB50A0040BCC0E0120A
:100C00000C7FD0F0D0E0200104C4C0E0C4B201C029
:100C1000F0120902D0F0D5F0EB0209531207E209F5
:100C2000F0530B5B5809C14C09BD420B5F4F0B677A
:100C3000440B674909D6430B6D550A9A460AFA4593
:100C40000A64470D3A5009C52D09C92E09EC2B0934
:100C5000CD2309EA200D232A098548000009E4E58F
:100C60000AB4FF03750A061208D6FC1208D6FD1254
:100C700008D6FE1208D6FF9000490203B4790AA2F2
:100C8000D5200314300509B910020404B908010481
:100C9000A2D52006025001042002689202B5090084
:100CA0005034C0E07F203003197F30A202720672F8
:100CB00005500F120CD6C202C206C205C2087F3010
:100CC000800F300503E9C0E0120919300503D0E0B8
:100CD000F9D0E0B509CC3005177F30B9100C1209F6
:100CE000197F583004077F788003B9080312091967
:100CF0003002057F2D0209197F202008F87F2B2064
:100D000006F322920280CF7F00B40700500B2449E3
:100D1000F582E43400F583E0FF22286E756C6C29BF
:100D200000D2011208D63001F8C201780930D5018D
:100D300008F60209852D504349581208D62403B4F9
:100D400005004001E4900D359312090A743A120926
:100D50000AD203750904020B5BC0E0C0F0C083C077
:100D600082C085C084C086758600C093759300C01C
:100D7000D075D000C000C001C002C003C004C005CF
:100D8000C006C0077F007E007D007C00900000123E
:100D900007A17F007E007D007C009000041207A167
:100DA0007F007E007D007C009000081207A17F007C
:100DB0007E007D007C0090000C1207A190001FE4D3
:100DC000F0A3E4F09000A2E0FEA3E0FFEF64014E88
:100DD0007014121C479000B81207A19000A2E4F012
:100DE000A3E4F0020F69121C479000001207A190C3
:100DF00000001207899000B8120795C312073250FD
:100E00002A9000B8120789C004C005C006C00712A6
:100E10001CBDA804A905AA06AB07D007D006D005BB
:100E2000D0041205DF9000B81207A190000012074D
:100E3000959000B81207891205EC9000041207A1E2
:100E4000900004120789C004C005C006C0079000C6
:100E5000A0E0FEA3E0FF7C007D05120593EDAE044B
:100E60007802C333CE33CED8F9FF74A42FF5827441
:100E7000003EF583D007D006D005D0041207A1901C
:100E800000A0E475F0011205C91215D39000BC1240
:100E900007A19000001207899000B81207A19000E6
:100EA000BC1207957F007E007D407C4012001D90A3
:100EB00000081207A17F007E007DC87C43900008D7
:100EC0001207951201127B007A00794878441200CB
:100ED000211202F690001FEEF0A3EFF090001FE049
:100EE000FEA3E0FF121ADF7F0112193B7D007F0095
:100EF0001217037B017A007910C003C002C0017B86
:100F0000FF7A1C79269000241207CD9000BC1207AE
:100F1000899000271207A1D001D002D00312093B0B
:100F20007B017A00791012175A1218F590001FE011
:100F3000FCA3E0FD120581900027EEF0A3EFF07B0B
:100F4000017A007910C003C002C0017BFF7A1C79CE
:100F5000269000241207CDD001D002D00312093B05
:100F60007B017A00791012175AD007D006D005D02D
:100F700004D003D002D001D000D0D0D093D086D0FE
:100F800084D085D082D083D0F0D0E0327F947E01AF
:100F90007D007C009000591207A1905120E0FFEFE6
:100FA0005480FFEFF0905122E0FFEF54F0FF9000EB
:100FB00058EFF0900058E0FFEF440FFF905122EF00
:100FC000F0905123E0FFEF54F0FF900058EFF090C5
:100FD0000058E0FF905123EFF0905124E0FFEF54D0
:100FE000F0FF900058EFF0900058E0FF905124EF90
:100FF000F0905120E0FFEF54DFFFEFF0905120E040
:10100000FFEF4440FFEFF07F007E00121A0C90517A
:1010100020E0FFEF4410FFEFF07F017E00121A0C7A
:10102000905121E0FF900058EFF0905120E0FFEF49
:1010300054EFFFEFF07F007E00121A0C900058E092
:10104000FFEF5408FF900058EFF0905120E0FFEFC1
:101050004410FFEFF07F017E00121A0C905120E047
:10106000FFEF54EFFFEFF0900058E0FFEF70077FC5
:101070000A7E00121A0C9000591207897BFF7AFF32
:1010800079FF78FF1205DF9000591207A1900058F0
:10109000E0FFEF6012900059120789D3EF9400EE41
:1010A00094004003021007905120E0FFEF54BFFF6F
:1010B000EFF0905120E0FFEF5480FFEFF0905122CD
:1010C000E0FFEF54F0FFEFF0905123E0FFEF54F01A
:1010D000FF900058EFF0900058E0FFEF440FFF90B2
:1010E0005123EFF0905124E0FFEF54F0FF900058AF
:1010F000EFF0900058E0FFEF440FFF905124EFF025
:10110000227B007A4679E8121CA5EF4405FD7B009E
:101110007A4679E8121CB1750F00E50FC3940A50A6
:101120003AAF0FEF75F005A424E5F582E4341CF521
:1011300083AF82AE838E0D8F0EAE0DAF0E8F828E7B
:10114000831207D6AE0DAF0E8F828E83740393FC8D
:10115000740493FD121AF9050F80BF7B087A007999
:1011600000121A397B017A507903121CA5EF440250
:10117000FD7B017A507903121CB17B017A507913FF
:10118000121CA5EF4402FD7B017A507913121CB1A9
:101190009043A0E0FFEF4440FF9043A0EFF0904366
:1011A000C2E0FFEF4410FF9043C2EFF07B087A01EA
:1011B00079CCC003C002C0017B007A517922900033
:1011C000561207CDD001D002D0037F087E0012193D
:1011D000A77B087A0179D4C003C002C0017B007AE2
:1011E0005179429000561207CDD001D002D0037F32
:1011F000087E001219A79044F47401F0904322E095
:10120000FFEF4408FF904322EFF09046ECE0FFEF41
:10121000C394055006904689743AF090480074F1E2
:10122000F012125E90480074B1F01219717B007ACE
:101230004379A0C003C002C0017B007A4379B0901B
:1012400000561207CDD001D002D0037F0E7E0012CF
:1012500019A79043B0E0FFEF54FDFFEFF0227B00B1
:101260007A4079807D017C00121C65904082741860
:10127000F07B007A4079847D177C00121C659040D9
:10128000867418F09043007402F09040007408F0E7
:101290009042007403F07B0C7A017908121CA5902F
:1012A00046A1EFF07B007A4279227D087C00121C77
:1012B000657B007A4279207D517C12121C6590007A
:1012C00055E4F07F197E007D007C009000511207EC
:1012D000A1900051120789D3EF9400EE9400404E84
:1012E000900055E0FFEF64036044904225E0FFEF7B
:1012F0005401FF7E00900055E0FEEE25E0FEEE4F2B
:10130000FFEF5403FF900055EFF07FE07E017D007A
:101310007C001219009000511207897BFF7AFF7937
:10132000FF78FF1205DF9000511207A180A3900003
:1013300051120789EF4E70057F03121C147B007A4F
:101340004079047D007C01121C659040047407F014
:10135000904006E4F09040087448F0904004E4F0B7
:101360009040017402F09043A2E0FFEF4403FF902D
:1013700043A2EFF0229000251207CD7F007E007D72
:10138000007C009000281207A17F007E007D007C79
:101390000090002C1207A17F057E007D007C00904C
:1013A00000301207A19000A0E0FEA3E0FFC3EF947D
:1013B00005EE6480948050149000A0E0FEA3E0FF4E
:1013C000EE3395E0FDFC9000301207A17F007E0017
:1013D0007D007C0090002C1207A19000301207893C
:1013E00090002C120795C312073250679000281204
:1013F0000789C004C005C006C0077F047E007D00C9
:101400007C0090002C1207951205FA900025120717
:10141000ADE92FF9EA3EFAEB3DFB120769E412024F
:10142000B8A804A905AA06AB07D007D006D005D0F6
:10143000041200219000281207A190002C120789A5
:101440007B017A00790078001205DF90002C1207EA
:10145000A18087900030120789E41202B8A804A97D
:1014600005AA06AB0790002812078912021B2275F5
:10147000930078007583467582E8E04401F000909F
:1014800046ECE0F99046FAE0FAB903225420B400A1
:1014900012B8001AEA901FFFF07401901FFEF0903E
:1014A00046F6F0901FFEE06005901FFFE0FA9048BE
:1014B0000074C0F075812190000078007920E4F07C
:1014C000A3D8FCD9FAEA9000C9F002001175101FE8
:1014D0007511FD1211010215140219DBE493A3F832
:1014E000E493A34003F68001F208DFF48029E4933B
:1014F000A3F85407240CC8C333C4540F4420C88332
:101500004004F456800146F6DFE4800B0102040833
:10151000102040809017A8E47E019360BCA3FF5484
:101520003F30E509541FFEE493A360010ECF54C081
:1015300025E060A840B8E493A3FAE493A3F8E49309
:10154000A3C8C582C8CAC583CAF0A3C8C582C8CA11
:10155000C583CADFE9DEE780BE7F287E007D007C90
:10156000001216427F031217F47F057E007D007C77
:10157000001216427F031217F47F0F7E007D007C5D
:10158000001216427F031217F47F017E007D007C5B
:10159000001216427F021217F47F057E007D007C48
:1015A000001216427F0612193B7F0E12193B7F2C48
:1015B00012193B7F0812193B7F0112193B7F0C1255
:1015C000193B7F0312193B7F057E007D007C0012D2
:1015D0001642227F007E007D007C009000211207D1
:1015E000A17B017A0079A41213759000211207A142
:1015F000121CBDE41202B8A804A905AA06AB079004
:10160000002112078912021B7BFE7AF479B278431B
:101610001201129000211207A19000211207957F5C
:10162000797EE97DC67C3F12021B7B007A007940FF
:10163000784112021B9000211207A190002112078D
:10164000892290FFFC1208081207A18510838511DA
:1016500082120789D3EF9400EE9480402F9000CA45
:10166000120789121900851083851182C083C082F8
:10167000120789EF2400FFEE3480FEED34FFFDEC0D
:1016800034FFFCD082D0831207A180BF9000C0122B
:1016900007898510838511821207951205FA1219A0
:1016A0000090000412080822900058EFF09051209A
:1016B000E0FFEF4420FFEFF0905120E0FFEF54BF38
:1016C000FFEFF07F007E00121A0C905120E0FFEF38
:1016D00054F0FFEFF0905120C083C082E0FF9000F3
:1016E00058E0FEEE4410FEEF4EFFD082D083EFF0C4
:1016F0007F017E00121A0C905120E0FFEF54EFFFA3
:10170000EFF022900051EFF0900052EDF090005178
:10171000E0FFEF1207E21726001733011740021708
:101720004D0300001759900052E0FFEF2480FF1294
:10173000193B22900052E0FFEF24C0FF12193B2218
:10174000900052E0FFEF2494FF12193B22900052C8
:10175000E0FFEF24D4FF12193B229000511207CD75
:101760009000547401F09000511207AD120529FF4A
:10177000900055EFF0900055E0FFEF602A90005583
:10178000E0FF1218BF9000511207AD900054E0FF27
:10179000E92FF9E43AFA120529FF900055EFF0908D
:1017A0000054E004F080CE224400B8000000004263
:1017B00000A200014200A000004400BC00000000A4
:1017C0004100D4004100D3004100D5004100D600C3
:1017D0004400C5016E36004400C000005DC04100F9
:1017E000C4184400CA2EE000004300CE00000041AF
:1017F00000D70000900055EFF0905120E0FFEF542B
:101800009FFFEFF0905120E0FFEF54F0FFEFF090DA
:101810005120C083C082E0FF900055E0FEEE4410EE
:10182000FEEF4EFFD082D083EFF07F017E00121AD0
:101830000C905120E0FFEF54EFFFEFF02290647224
:10184000E0FFEF54C0FF900051EFF0900051E0FF37
:10185000EF4409FF906472EFF0906492E0FFEF4470
:1018600001FFEFF0906493E0FFEF4401FFEFF07FA2
:10187000107E27121AAB7F107E27121AC57F007EBA
:1018800000121ADF227FFF7EFF7DFF7CFF121B57B5
:101890007FFF7EFF7DFF7CFF121B6D121BC290003D
:1018A00051EFF0906597E0FFEF4410FFEFF09000EC
:1018B00051E0FF121B12121C747F00121C37229081
:1018C0000056EFF0120F8C900056E0FFEFC4540F5B
:1018D000FF900057EFF0900057E0FF1216A890001D
:1018E00056E0FFEF540FFF900057EFF0900057E0E5
:1018F000FF1216A8227B027A647942121C58223207
:10190000EC4D4E700D78FCEF24E950032840FD2289
:1019100000007BF178DA0000EF28FF78FFEE38FE58
:10192000ED38FDEC38FC50E7EF2BFFEE38FEED38DC
:10193000FDEC38FC40F22205020304900053EFF066
:10194000120F8C900053E0FFEFC4540FFF9000542F
:10195000EFF0900054E0FF1217F4900053E0FFEF17
:10196000540FFF900054EFF0900054E0FF1217F472
:10197000227B0C7A0179CF121CA5900051EFF090D8
:101980000051E0FFEF5407FF90586EEFF0900051C8
:10199000E0FFEFC4540FFFEF540FFF90586FEFF0CC
:1019A0009058767444F022758600EF4E6027EF6001
:1019B000010E759300900056E0F595A3E0F585A320
:1019C000E0F5848B938A838982E0A30586F0A315D2
:1019D00086DFF6DEF4E4F593F59522D2AF9044F479
:1019E00074FDF0121B837D007F001217037BFF7ACA
:1019F0001C792912175A121BAD121C017E0D7F593A
:101A0000121A8D121B98121B2A80FE22EEFA9000E9
:101A1000C4E0F88FF0A4FFAEF0E88AF0A42EFEE553
:101A2000F03400FDEF24C9FF78FFEE38FEED38FDFD
:101A3000E438FC500302190022ACEAADA08B938A73
:101A4000838982E0F96017A3E0F5EAA3E0F5A0A39B
:101A5000E060F4FAA3E0F8A3E0F2DAF8D9E98DA0A7
:101A60008CEAE4F59322EFB40A07740D121A71742C
:101A70000A309811A899B8130CC2983098FDA8990B
:101A8000C298B811F63099FDC299F599229000518B
:101A9000EEF0A3EFF07B027A447900900051E0FE73
:101AA000A3E0FFAD07AC06121C6722900052EEF0D7
:101AB000A3EFF07B027A647902900052E0FCA3E08D
:101AC000FD121C6722900052EEF0A3EFF07B027A29
:101AD000647942900052E0FCA3E0FD121C67229062
:101AE0000052EEF0A3EFF07B027A6479229000526C
:101AF000E0FCA3E0FD121C6722EC4D6011ED6001DB
:101B00000C8B938A838982E4F0A3DDFCDCFA759365
:101B10000022EF54016004D2AF8002C2AFEF540242
:101B2000FF9044F4E054FD4FF0229043A2E0FFEF19
:101B30004402FFEFF09043B2E0FFEF4402FFEFF00A
:101B400022900051EFF0900051E0FFEFC43354E0D9
:101B5000FF904480EFF0229000521207A17B027A9E
:101B6000657924900052120789121BEE22900052D0
:101B70001207A17B027A657904900052120789123C
:101B80001BEE229000D3E0FFEF7009121559900070
:101B9000D37401F0121C81229000D5E0FFEF700990
:101BA00012183D9000D57401F0121C8D229000D6C1
:101BB000E0FFEF70091218859000D67401F0121C36
:101BC00099229044F4E0F84402F0E85402FF10AF88
:101BD000012274014FFF228B938A838982E0FFA345
:101BE000E0FEA3E0FDA3E0FC759300228B938A83C3
:101BF0008982EFF0A3EEF0A3EDF0A3ECF075930073
:101C000022121CD87E187FFF121A8D7F07121B41EB
:101C1000121CD122900056EFF0900056E0FF900089
:101C200056EFF080FE22256600454C4533303220C9
:101C30004361726C616200900052EFF0900052E0DC
:101C4000FF906587EFF022906504E0FF7B027A65E4
:101C50007944121BD9228B938A838982E0FFA3E007
:101C6000FE759300228B938A838982EDF0A3ECF0BA
:101C700075930022121CDFEF30E305121CC780F4BD
:101C8000227F0C12193B9000D47401F022906472F0
:101C9000E0FFEF4480FFEFF022906574E0FFEF4437
:101CA00080FFEFF0228B938A838982E0759300FF97
:101CB000228B938A838982EDF0759300227B027ACE
:101CC000657924121BD9227B027A657944121BD9CB
:101CD000229044C07401F0229044C87401F0229014
:101CE0006567E0FF22005100002000513000100025
:101CF000515000200051C000100051F000100100B0
:101D000000100001140008000140000A00014C000E
:071D10000200015000002059
:00000001FF
