:100000000215CC008F828E83E0540100000070F84E
:100010002278FFE4F6D8FD02162A0203DBE86480AA
:10002000F8E933E83360110460F0ED33EC33700924
:10003000E8FCE9FDEAFEEBFF220460DED3EB9FEA79
:100040009EE99DE8C2E78CF0C2F795F0400CE8CC41
:10005000F8E9CDF9EACEFAEBCFFB1203A685D0F092
:100060005804700320D5B3E80470075002B2D502DB
:1000700003E592D5EC0460F7E4CCC0E0C398F860E7
:100080003B94186008400DD0E0FB0203BDE4FBFA8E
:10009000C9FC8028E830E406E4C9FBE4CAFCE83087
:1000A000E305E4C9CACBFCE854076010F8C3E913C0
:1000B000F9EA13FAEB13FBEC13FCD8F130F52FC37C
:1000C000E49CFCEF9BFFEE9AFEED99FDD0E0FBEF88
:1000D0004E4D4C701222DB030203E2EC2CFCEF339A
:1000E000FFEE33FEED33FDED30E7EB0203BDEF2B0A
:1000F000FFEE3AFEED39FDD0E0FB50130BBB0003E1
:100100000203E5ED13FDEE13FEEF13FFEC13FC020B
:1001100003BDEC4D6011E8497017ED33EC3304601A
:100120000DE4FCFFFEFD22E933E8330470F802031E
:10013000DB1203A658046009E4CC24815006285041
:10014000090203E52840030203E2C0E0EB4A7044E1
:10015000B98006D0E0FB0203D1EF4E701CBD8008D1
:10016000EBFFEAFEE9FD80EBE98DF0A4FEE5F0028D
:1001700001FBE9CDF9EAFEEBFFEF89F0A4FCE5F025
:10018000CE89F0A42EFFE435F0CD89F0A42DFEE455
:1001900035F08067EF4E7005BD80D780C3EF8BF0E0
:1001A000A4ACF0EE8BF0A42CFCE435F0F8EF8AF070
:1001B000A42CE5F038FCE433CB8DF0A42CFCE5F066
:1001C0003BF8EE8AF0A42CFCE5F038F8E433CF8954
:1001D000F0A42CFCE5F038CF3400CE89F0A42FFF3A
:1001E000E5F03EFEE433C98DF0A42EFEE5F039CDF6
:1001F0008AF0A42FFFE5F03EFEE43DFD33D0E0FBA6
:1002000050070BBB000F0203E5EC2CFCEF33FFEEB5
:1002100033FEED33FD0203BD0203E5EC5D04600532
:10022000E8590470030203DB1203A6580460F6ECDD
:100230004860F2EC7004FDFEFF22C860DB2481C838
:100240005009C398600250060203E29850CAF58232
:10025000E9294B4A7005AB820203D175F0007C1A84
:100260007880C3EF9BEE9AED99400DC3EF9BFFEEB4
:100270009AFEED99FDE842F0DC23ACF0D0E0FFD02F
:10028000E0FED0E0FDAB8220E7101BEB60BAEC2C67
:10029000FCEF33FFEE33FEED33FD0203BDE803F860
:1002A00030E705C0F075F000EF2FFFEE33FEED33C1
:1002B000FD40B830E7C280AA74F8CC6480CCC86432
:1002C00080C8F58204604FC3EB9FF5F0EA9E42F0D0
:1002D000E99D42F0E89C45F0603C501DE5825FFFDF
:1002E000E582D313CB5BCBF42B5582FB50280ABAA3
:1002F000002409B9002008801DE5825BFBE582D35C
:1003000013CF5FCFF4C3132F5582FF50090EBE00E9
:10031000050DBD00010CC3EB9FF5F0EA9E42F0E92C
:100320009D42F0E89C45F06007CC4820E701B3EC23
:100330002275F020800E75F010800575F0087D00A4
:100340007E007F003392D530D50312078BEC33400B
:1003500010EF33FFEE33FEED33FDEC33FCD5F0ED63
:1003600022E5F0247EA2D513CC92E7CDCEFF22ED7C
:10037000D2E7CD33EC3392D524814006E4FFFEFD75
:10038000FC22FCE4CFCECDCC24E0501174FF80EDF4
:10039000C3CC13CCCD13CDCE13CECF13CF0470F07E
:1003A00030D5DE02078BE9D2E7C933E833F892D5BE
:1003B000EDD2E7CD33EC33FC5002B2D522EC30E77E
:1003C000100FBF000C0EBE00080DBD00040BEB604B
:1003D00014A2D5EB13FCED92E7FD2274FFFCFDFEA9
:1003E000FF22E480F8A2D574FF13FC7D80E480EF47
:1003F000F920E73624F950037907E4F42402FBE5F9
:1004000082158270021583DBF6E024FB501BE96045
:1004100014E4F0E582158270021583E004F0B40A5A
:1004200008E4F0D9EE7401F00A22C2D522ED33ECD3
:100430003392D5FA602AB4FF33EDC2E77BFF600642
:100440007A047952E4227A04795B20D5047A04791B
:1004500056224E614E002B494E46002D494E460015
:10046000E47A08F0A3DAFC7B00740722C083C08220
:10047000ECC0E0EDC0E0EEC0E0EFC0E0EA75F010E7
:10048000A4CAABF075F04DA42BFBE435F0FCEA24D4
:1004900010FAEB34C5FBEC34D9FCEDC2E7FF75F084
:1004A00056A4F42411C5F0F434C58FF0A42AE5F065
:1004B0003BE43CF020E714120562D0E0FFD0E0FE00
:1004C000D0E0FDD0E0FC12021B8014F4041205629F
:1004D000D0E0FFD0E0FED0E0FDD0E0FC120112D071
:1004E00082D083E0FAEDD2E7CD33EC332482FBE413
:1004F000C3CF33CFCE33CECD33CD33DBF37B0775D4
:10050000F00A846004F0A31B0AE5F0F0A38FF074F6
:100510000AA4FFACF08EF0740AA42CFEACF05001DB
:100520000C8DF0740AA42CFDE435F0F0A3DBDE742E
:1005300007223F8000004120000042C80000447AAA
:100540000000461C400047C35000497424004B186B
:1005500096804CBEBC205A0E1BCA6753C21C749DA9
:10056000C5AEFB60065407601C2323120590EB54B4
:1005700038600912057C12058B120112ECF8EDF9B6
:10058000EEFAEFCB22EB12058B80F1543803241CDA
:10059000900532FE93FC0EEE93FD0EEE930ECE937D
:1005A000FF22BB010689828A83E0225002E722BB38
:1005B000FE02E32289828A83E49322BB010CE58256
:1005C00029F582E5833AF583E0225006E92582F891
:1005D000E622BBFE06E92582F8E222E58229F582C1
:1005E000E5833AF583E49322BB010689828A83F08E
:1005F000225002F722BBFE01F322C2D5EC30E709FC
:10060000B2D5E4C39DFDE49CFCEE30E715B2D5E421
:10061000C39FFFE49EFE1208C0C3E49DFDE49CFC62
:1006200080031208C030D507C3E49FFFE49EFE227A
:10063000C5F0F8A3E028F0C5F0F8E5821582700255
:100640001583E038F022EF2BFFEE3AFEED39FDEC9A
:1006500038FC22C3EF9BFFEE9AFEED99FDEC98FC6F
:1006600022E88FF0A4CC8BF0A42CFCE98EF0A42C13
:10067000FC8AF0EDA42CFCEA8EF0A4CDA8F08BF05F
:10068000A42DCC3825F0FDE98FF0A42CCD35F0FC5D
:10069000EB8EF0A4FEA9F0EB8FF0A4CFC5F02ECD29
:1006A00039FEE43CFCEAA42DCE35F0FDE43CFC220E
:1006B00075F008758200EF2FFFEE33FECD33CDCC01
:1006C00033CCC58233C5829BED9AEC99E582984084
:1006D0000CF582EE9BFEED9AFDEC99FC0FD5F0D661
:1006E000E4CEFBE4CDFAE4CCF9A88222B800C1B98B
:1006F0000059BA002DEC8BF084CFCECDFCE5F0CBC9
:10070000F97818EF2FFFEE33FEED33FDEC33FCEB01
:1007100033FB10D703994004EB99FB0FD8E5E4F9BC
:10072000FA227818EF2FFFEE33FEED33FDEC33FCA9
:10073000C933C910D7059BE99A4007EC9BFCE99A9D
:10074000F90FD8E0E4C9FAE4CCFB2275F010EF2FE2
:10075000FFEE33FEED33FDCC33CCC833C810D707E2
:100760009BEC9AE899400AED9BFDEC9AFCE899F81D
:100770000FD5F0DAE4CDFBE4CCFAE4C8F922EF4B74
:10078000FFEE4AFEED49FDEC48FC22C3E49FFFE486
:100790009EFEE49DFDE49CFC22EB9FF5F0EA9E4268
:1007A000F0E99D42F0E89C45F022E8600FECC313AD
:1007B000FCED13FDEE13FEEF13FFD8F122E8600FFE
:1007C000EFC333FFEE33FEED33FDEC33FCD8F12203
:1007D000E0FCA3E0FDA3E0FEA3E0FF22E0F8A3E03D
:1007E000F9A3E0FAA3E0FB22BB010789828A830216
:1007F00007DC5005E9F8020915BBFE05E9F8020916
:100800002289828A8302092FECF0A3EDF0A3EEF097
:10081000A3EFF022E0FBA3E0FAA3E0F922F8E0FB6B
:10082000A3A3E0F925F0F0E582158270021583E0BC
:10083000FA38F022EBF0A3EAF0A3E9F022E493FB0C
:10084000740193FA740293F922D083D082F8E4936E
:100850007012740193700DA3A393F8740193F58241
:100860008883E4737402936860EFA3A3A380DFE539
:10087000162582F582E5153583F583B51504858245
:10088000162210AF06858216F51522858216F515FB
:10089000D2AF22EC8EF0A4CCC5F0CCCDF8EFA4CE34
:1008A000C5F02DFDE43CFCE8A42EC8C5F03DFDE4F8
:1008B0003CFCEFA4FFE5F028FEE43DFDE43CFC2217
:1008C000BC000BBE0029EF8DF084FFADF022E4CC1C
:1008D000F875F008EF2FFFEE33FEEC33FCEE9DECE5
:1008E000984005FCEE9DFE0FD5F0E9E4CEFD22ED2B
:1008F000F8F5F0EE8420D21CFEADF075F008EF2F75
:10090000FFED33FD4007985006D5F0F222C398FD65
:100910000FD5F0EA22E6FB08E6F908E6FA08E6CB8E
:10092000F822E2FB08E2F908E2FA08E2CBF822E456
:1009300093F8740193F9740293FA740393FB22E51C
:100940000D2495F582E43400F583E0050D22900036
:1009500092301003900095E475F00112081D020515
:10096000A22009E97F2ED2098018EF540F2490D4D9
:100970003440D4FF300D0BEF24BFB41A00500324D1
:1009800061FFE50E6002150E0511E51170020510FC
:1009900030100E900092E475F00112081DEF020570
:1009A000E8021F9D7403D2108003E4C210F50D907D
:1009B0000092120834E4F50EF510F511E50E60070B
:1009C0007F2012098280F5750FFFC20AC209C20B8F
:1009D000C20CC20EC20FC21112094EFF700D3010B0
:1009E000057F00120993AF11AE1022B4255FC2D566
:1009F000C20D12094EFF24D0B40A00501A75F00A35
:100A0000780E30D50508B6FF0106C6A426F620D517
:100A1000047002D20C80D924CFB41A00EF5004C263
:100A2000E5D20D020C85D20A80C6D20980C0D20B55
:100A300080BCD2D580BAD20E80B47F201209822029
:100A40000B077401B50E0040F112093FFF12098235
:100A50000209BCD211D20F809512093FFB12093F47
:100A6000FA12093FF94A4B700679837A0D7BFF2011
:100A70000B2EE50E602A7E008E827583001205BB68
:100A800060060EEE650F70F0C2D5EBC0E0EAC0E084
:100A9000E9C0E0EE120CE6D0E0F9D0E0FAD0E0FBDD
:100AA0001205A2FF60AAEBC0E0EAC0E0E9C0E012D4
:100AB0000982D0E02401F9D0E03400FAD0E0FBE56F
:100AC0000F0460DCD50FD98087D20B80A2120CC82E
:100AD00060F7E50F7001041203F0A90F600DE50F38
:100AE000600914F50F120D70EF60F3EA30E702F4BD
:100AF00004C3995079EAF4250F0430E701E404F5C2
:100B00000F800D120CC860C1EA050F250F1203F00B
:100B1000EA9000C1F030E701E4250F04D50F04206E
:100B20000E0114120CE6E4C0E0120D709000C1E05A
:100B3000601320E70714F012096A802204F0D0E065
:100B400014C0E07F0012096AE50F60071209611501
:100B50000F800B300E03120961D0E00209BCD0E017
:100B60000480C4120CC8609EE50F041203F09000CC
:100B7000C1EAF0E50F200E026001042404120CE625
:100B800074FF04C0E0120D7012096AE50F200E0216
:100B90006003120961D0E0B50FE87F451209749037
:100BA00000C1E07F2B30E7047F2DF404C0E0120980
:100BB00082D0E075F00A84C0F012096BD0E012090F
:100BC0006B0209BC791080027908C20FC21180083B
:100BD000D2D5790A8004790AC2D5E50F047002F5EE
:100BE0000FE4FAFDFEFF12093FFC7B08200A1312F6
:100BF000093FFD7B1030090A12093FFE12093FFF31
:100C00007B20EC3382D592D55013C3E43009069F84
:100C1000FFE49EFEE4200A039DFDE49CFCE4CBF887
:100C2000C20AEC700CCFCECDCCE824F8F870F3807B
:100C300017C3EF33FFEE33FEED33FDEC33FCEB3344
:100C4000FB994002FB0FD8E9EB300A05F8D0E0C46D
:100C500048B20AC0E00AEC4D4E4F78207B0070C2CB
:100C6000EAB50F0040BCC0E0120CE8D0F0D0E020A4
:100C70000A04C4C0E0C4B20AC0F012096BD0F0D5B7
:100C8000F0EB0209BC1208490A59530BC4580A2A4E
:100C90004C0A26420BC84F0BD0440BD0490A3F43A5
:100CA0000BD6550B03460B63450ACD470DA3500ADF
:100CB0002E2D0A322E0A552B0A36230A53200D8C6C
:100CC0002A09EE4800000A4DE50FB4FF03750F0630
:100CD00012093FFC12093FFD12093FFE12093FFFB6
:100CE0009000BA02042D790AA2D5200C14300E0906
:100CF000B910020404B9080104A2D5200F02500162
:100D000004200B68920BB50E005034C0E07F2030F9
:100D10000C197F30A20B720F720E500F120D3FC2D2
:100D20000BC20FC20EC2117F30800F300E03E9C01C
:100D3000E0120982300E03D0E0F9D0E0B50ECC30DD
:100D40000E177F30B9100C1209827F58300D077FC3
:100D5000788003B90803120982300B057F2D020940
:100D6000827F202011F87F2B200FF322920B80CF5F
:100D70007F00B40700500B24BAF582E43400F583F9
:100D8000E0FF22286E756C6C2900D20A12093F30F0
:100D90000AF8C20A780E30D50108F60209EE2D5085
:100DA00043495812093F2403B405004001E4900D63
:100DB0009E93120973743A120973D20C750E0402D1
:100DC0000BC4C0E0C0F0C083C082C085C084C086B0
:100DD000758600C093759300C0D075D000C000C068
:100DE00001C002C003C004C005C006C007E4FFFE86
:100DF000FDFC900020120808E4FFFEFDFC9000249A
:100E0000120808E4FFFEFDFC900028120808E4FF29
:100E1000FEFDFC90002C120808E4FFFEFDFC900093
:100E200030120808E4FFFEFDFC9000431208089011
:100E30000047E4F0A3F0900113E07004A3E0640124
:100E400070171221CCE412033190012B1208089084
:100E50000113E4F0A3F00210CC1221CCE412033110
:100E60009000201208089000201207D090012B1249
:100E700007DC1202B8502690012B1207DCC000C01C
:100E800001C002C00312234FE4120331D003D00289
:100E9000D001D00012002190012B120808900020F0
:100EA0001207DC90012B1207D012001D90002412B3
:100EB000080812234FE4120331A804A905AA06ABBF
:100EC000079000241207D012021B7BFE7AF479B23D
:100ED000784312011290002812080890002412078B
:100EE000D0C004C005C006C007900111E0FEA3E019
:100EF000FF7C007D051205FAEDAE047802C333CE07
:100F000033CED8F92417F58274013EF583D007D08B
:100F100006D005D004120808900111E475F0011202
:100F20000630121A9B900133120808900020120715
:100F3000D090012B1208089001331207DC7F337E1A
:100F4000337D437C4012001D90002C120808900154
:100F50003D1207DCC000C001C002C003900028128F
:100F600007D090002C1207DC120112D003D002D05F
:100F700001D00012002190013D120808900111E0FB
:100F80007004A3E0641C700AFFFEFDFC90013D129A
:100F900008087F007E107DA47C4590002C1207DCA1
:100FA000120112E4FBFA79617844120021C004C0F6
:100FB00005C006C007E4FFFE7DFA7C4390002C12BA
:100FC00007DC1201129000281207DC12021BD0036A
:100FD000D002D001D0001200219000431208087FF7
:100FE00001121FC4E4FDFF121CC47BFF7A1E798628
:100FF00090009512083490002C1207D0900098129F
:1010000008087B017A0079341209A47B017A0079FF
:1010100034121D037BFF7A1E7989121D037BFF7A30
:101020001E7986900095120834E4FFFE7DFA7C4319
:1010300090002C1207DC1201129000281207DC121B
:10104000021B9000981208087B017A00793412097B
:10105000A47B017A007934121D03E4FFFE7D7A7CC3
:10106000459000431207DC1202B86010400E7F006A
:101070007EC07DA87C44900043120808E4FFFEFD7A
:10108000FC9000431207DC1202B86002500DE4FF2E
:10109000FE7D807C3F9000431208089000431207B9
:1010A000D012036F900047EEF0A3EFF0E4FD7F0154
:1010B000121CC4900047E0FEA3E0FFE4FCFD121800
:1010C00059900047E0FEA3E0FF12226ED007D00641
:1010D000D005D004D003D002D001D000D0D0D0931E
:1010E000D086D084D085D082D083D0F0D0E032C0FA
:1010F000E0C0F0C083C082C085C084C08675860011
:10110000C093759300C0D075D000C000C001C0026C
:10111000C003C004C005C006C0079001391207D043
:101120009000791208089001431207DCC000C0014A
:10113000C002C0037FA47E8C7D387C37900079127A
:1011400007DC120112D003D002D001D0001200211E
:10115000900143120808E4FFFE7DC87C42900079AC
:101160001207DC1201127B007A80798E784512001A
:1011700021C004C005C006C007E4FFFE7D487C42D4
:101180009001431207DC120112D003D002D001D02B
:101190000012002190007D1208087F01121FC4E494
:1011A000FDFF121CC47BFF7A1E7986900095120801
:1011B000349000791207D09000981208087B017AC9
:1011C0000079831209A47B017A007983121D037BC5
:1011D000FF7A1E7989121D03E4FFFE7DAF7C4590E6
:1011E000007D1207DC1202B8600F400DE4FFFE7DA7
:1011F000AF7C4590007D120808E4FFFE7D617C45D0
:1012000090007D1207DC1202B86002500DE4FFFE70
:101210007D617C4590007D12080890007D1207D00A
:1012200012036F900081EEF0A3EFF0E4FD7F011256
:101230001CC4900081E0FEA3E0FFE4FCFD121859FD
:10124000900081E0FEA3E0FF122298122469D007EB
:10125000D006D005D004D003D002D001D000D0D029
:10126000D093D086D084D085D082D083D0F0D0E007
:10127000327B007A4679E812232DEF4405FD7B008E
:101280007A4679E8122339E4F514E514C3940A5038
:101290002CE51475F005A42475F582E43424AF829E
:1012A000F5128F13F58312083D8F82851283740324
:1012B00093FC740493FD12202A051480CD7B087AD8
:1012C000007900121EC97B007A58794C7D037C029C
:1012D0001222357B017A50790312232DEF4402FD4F
:1012E0007B017A5079031223397B017A50791312EA
:1012F000232DEF4402FD7B017A507913122339909C
:1013000043A0E04440F09043C2E04410F07B087AF0
:101310000479B8C003C002C0017B007A51792290E1
:1013200000C7120834D001D002D0037F087E00121B
:101330001DA97B087A0479C0C003C002C0017B00EC
:101340007A5179329000C7120834D001D002D0030C
:101350007F087E00121DA97B087A0479C8C003C0EB
:1013600002C0017B007A5179429000C7120834D044
:1013700001D002D0037F087E00121DA99044F474AE
:1013800001F0904322E04408F09046ECE0C394055D
:101390005006904689743AF090480074F1F01213A8
:1013A000CB90480074B1F0121D747B007A4379A091
:1013B000C00179B09000C7120834D0017F0E7E00C2
:1013C000121DA99043B0E054FDF0227B007A4079D1
:1013D000807D017C001222359040827418F07B00E1
:1013E0007A4079847D077C001222359040867418FB
:1013F000F07B007A4079887D177C0012223590407E
:101400008A7418F09043007402F09040007408F061
:101410009042007403F07B0C7A01790812232D901E
:1014200046A1EFF07B007A4279227D087C001222EF
:10143000357B007A4279207D517C12122235E4906E
:1014400000C6F07F19FEFDFC9000C2120808900053
:10145000C21207D0D3EF9400EE9400403B9000C638
:10146000E0FF64036032904225E05401FEEF25E086
:101470004E54039000C6F0E47FE07E01FDFC121E96
:10148000009000C21207D074FFFBFAF9F81206466A
:101490009000C212080880B69000C21207D0EF4E2A
:1014A00070057F0312246F7B007A4079047D007CF5
:1014B000011222359040047407F0904006E4F09049
:1014C00040087448F0904004E4F09040017402F049
:1014D0009043A2E04407F022E47F947E01FDFC905B
:1014E00000CA120808905120E05480F0905122E088
:1014F00054F09000C9F0E0440F905122F0A3E05462
:10150000F09000C9F0E0905123F0A3E054F0900077
:10151000C9F0E0905124F0905120E054DFF0E04415
:1015200040F0E4FFFE121E9C905120E04410F07F3A
:10153000017E00121E9C905121E09000C9F0905154
:1015400020E054EFF0E4FFFE121E9C9000C9E0542E
:1015500008F0905120E04410F07F017E00121E9CA4
:10156000905120E054EFF09000C9E070067F0AFE31
:10157000121E9C9000CA1207D074FFFBFAF9F812F1
:1015800006469000CA1208089000C9E0600DA31238
:1015900007D0D3EF9400EE94005087905120E05490
:1015A000BFF0E05480F0905122E054F0F0A3E054FA
:1015B000F09000C9F0E0440F905123F0A3E054F004
:1015C0009000C9F0E0440F905124F0227593007808
:1015D000007583467582E8E04401F0009046ECE037
:1015E000F99046FAE0FAB903225420B40012B80088
:1015F0001AEA901FFFF07401901FFEF09046F6F07B
:10160000901FFEE06005901FFFE0FA90480074C054
:10161000F075812290000078007920E4F0A3D8FCD6
:10162000D9FAEA900154F002001175151F7516FDE4
:10163000121271021671021BD6E493A3F8E493A36D
:101640004003F68001F208DFF48029E493A3F85404
:1016500007240CC8C333C4540F4420C8834004F487
:1016600056800146F6DFE4800B010204081020409A
:1016700080901997E47E019360BCA3FF543F30E54E
:1016800009541FFEE493A360010ECF54C025E0600F
:10169000A840B8E493A3FAE493A3F8E493A3C8C5DD
:1016A00082C8CAC583CAF0A3C8C582C8CAC583CACE
:1016B000DFE9DEE780BE90004D120834E4FFFEFD56
:1016C000FC900050120808E4FFFEFDFC900054124C
:1016D0000808E47F05FEFDFC900058120808900100
:1016E00011E0FEA3E0FFC39405EE64809480500CEB
:1016F000EE3395E0FDFC900058120808E4FFFEFD73
:10170000FC9000541208089000581207D090005422
:101710001207DCC312079950579000501207D0C02F
:1017200004C005C006C007E47F04FEFDFC90005421
:101730001207DC12066190004D120814E92FF9EA35
:101740003EFAEB3DFB1207E8D007D006D005D004E7
:101750001200219000501208089000541207D0E4A3
:101760007B01FAF9F8120646900054120808809797
:101770009000581207D0E4120331A804A905AA0664
:10178000AB079000501207D012021B22C0E0C0F03D
:10179000C083C082C085C084C086758600C0937532
:1017A0009300C0D075D000C000C001C002C003C00B
:1017B00004C005C006C00712238BE4FCFD9000188E
:1017C00012080812238BE4FCFD90001C120808127A
:1017D00023D9900137E07002A3E07022900137F026
:1017E000A304F09000181207DC90001C1207D0121E
:1017F0000653E412033190012F120808803590013E
:1018000037E4F0A3F09000181207DC90001C1207D8
:10181000D0120653E41203319001471208089001D8
:10182000471207DC90012F1207D012001D900139DA
:10183000120808122463D007D006D005D004D003C4
:10184000D002D001D000D0D0D093D086D084D08523
:10185000D082D083D0F0D0E032900092120808906D
:1018600000A2740AF0E02497F582E43400F583E4E2
:10187000F09000A2E014F09000921207D0C3EF9411
:101880000AEE94004043E47B0AFAF9F890009212C1
:1018900007D01206ECEB2430FF900096F09000A2E7
:1018A000E02497F582E43400F583EFF09000921283
:1018B00007D0E47B0AFAF9F81206EC9000921208BD
:1018C000089000A2E014F080AEE47B0AFAF9F890E8
:1018D00000921207D01206ECEB2430FF900096F035
:1018E0009000A2E0FE2497F582E43400F583EFF047
:1018F00074972EF9E43400FA7B01121D0322C0E034
:10190000C0F0C083C082C085C084C086758600C018
:1019100093759300C0D075D000C000C001C002C054
:1019200003C004C005C006C0077F01121FC47BFFAF
:101930007A1E7979121D03C3900116E0940290017A
:1019400015E06480948050031221711223C9C39062
:101950000116E09402900115E06480948050081212
:1019600021257F50122451900115E475F0011206D3
:1019700030122439D007D006D005D004D003D002CD
:10198000D001D000D0D0D093D086D084D085D08262
:10199000D083D0F0D0E03244012B0000000042019F
:1019A0001300014201110000440133000000004413
:1019B000013D0000000044014300000000420141DD
:1019C0000000420137000044012F000000004401E4
:1019D00047000000004401390000000042011500EA
:1019E0000041015F0041015E004101600041016171
:1019F0000041016200410163004101640041016551
:101A0000004101660041016700440150016E36004B
:101A100044014B00005DC041014F184401552EE0C8
:101A200000004301590000004101680000E47F28E4
:101A3000FEFDFC121B717F03121FE7E47F05FEFD14
:101A4000FC121B717F03121FE7E47F0FFEFDFC12E7
:101A50001B717F03121FE7E47F01FEFDFC121B7167
:101A60007F02121FE7E47F05FEFDFC121B717F065B
:101A7000121FC47F0E121FC47F2C121FC47F0812B6
:101A80001FC47F01121FC47F0C121FC47F03121FCB
:101A9000C4E47F05FEFDFC121B7122E4FFFEFDFC89
:101AA0009000491208087B017A0179171216B69046
:101AB000004912080812234FE4120331A804A905B3
:101AC000AA06AB079000491207D012021B7BFE7AD0
:101AD000F479B2784312011290004912080890007C
:101AE000491207DC7F717E3D7DCA7C3F12021BE4F8
:101AF000FBFA7940784112021B90004912080890C5
:101B000000491207D022C0E0C0F0C083C082C08567
:101B1000C084C086758600C093759300C0D075D010
:101B200000C000C001C002C003C004C005C006C0A0
:101B3000077F01121FC47BFF7A1E796D121D0312ED
:101B400021257F14122451900115E4F0A3F0D00751
:101B5000D006D005D004D003D002D001D000D0D020
:101B6000D093D086D084D085D082D083D0F0D0E0FE
:101B70003290FFFC12086F120808851583851682C3
:101B80001207D0D3EF9400EE9480402E90015512AE
:101B900007D0121E00851583851682C083C082126D
:101BA00007D0E42FFFEE3480FEED34FFFDEC34FF70
:101BB000FCD082D08312080880C090014B1207D05D
:101BC0008515838516821207DC120661121E0090AD
:101BD000000412086F22D2AF9044F474FDF012207A
:101BE000EC1220C67E0D7FC212224412215E7E1BA3
:101BF0007F061222B412214B7E187FFE1222A612FB
:101C000021977E177F8C1222EC1221847E107FEFA9
:101C10001222DE1220431221381220FF1221DB1281
:101C200021121221EA1220D9E4FDFF121CC47BFF0D
:101C30007A1E798C121D0380FE22EF5403FE905809
:101C400042E054FC4EF0EFB4011D7B0C7A01791296
:101C500012232D904634EFF07B0C7A017916122373
:101C60002D904635EFF0227B0C7A0179B112232DAD
:101C7000904634EFF07B0C7A0179B912232D90460F
:101C800035EFF0229000C9EFF0905120E04420F0B1
:101C9000E054BFF0E4FFFE121E9C905120E054F08F
:101CA000F0C083C082E0FF9000C9E04410FEEF4E18
:101CB000D082D083F07F017E00121E9C905120E0E4
:101CC00054EFF0229000C2EDF0EF14601514601D87
:101CD0001460252403702B9000C2E02480FF121FA3
:101CE000C4229000C2E024C0FF121FC4229000C290
:101CF000E02494FF121FC4229000C2E024D4FF12FB
:101D00001FC4229000C21208349000C57401F01262
:101D100005A29000C6F09000C6E0FF6021121DDD14
:101D20009000C21208149000C5E029F9E43AFA12B2
:101D300005A29000C6F09000C5E004F080D8229083
:101D40006471E054F8FFF0E054FCFFF01223077FC9
:101D5000FF12244BE4FF12243FE4FF122433122429
:101D6000397F50122451122073906491E04410F096
:101D700012205B227B0C7A0179CF12232DEF5407BE
:101D800090586EF0EFC4540FA3F090514D7401F0D1
:101D9000905A907420F0905AD07410F0905AD474E5
:101DA00020F09058767444F022758600EF4E60273C
:101DB000EF60010E7593009000C7E0F595A3E0F584
:101DC00085A3E0F5848B938A838982E0A30586F05E
:101DD000A31586DFF6DEF4E4F593F595229000C7AF
:101DE000EFF01214D89000C7E0FFC4540FFFA3F027
:101DF000121C849000C7E0540FFFA3F0121C842231
:101E0000EC4D4E700D78FCEF24E950032840FD2284
:101E100000007BF178DA0000EF28FF78FFEE38FE53
:101E2000ED38FDEC38FC50E7EF2BFFEE38FEED38D7
:101E3000FDEC38FC40F22205020304905828E054DF
:101E40000C7E007802CEC313CE13D8F92406FFE42B
:101E5000EF2428FFE43401FEE4340CFDE433A90749
:101E6000AA06AB0512232D90460AEFF022467261B6
:101E70006D652073746172740052656164696E6788
:101E8000206C696E65002566002F2F00454C453398
:101E90003032204361726C6162003232EEFA90019E
:101EA0004FE0F88FF0A4FFAEF0E88AF0A42EFEE534
:101EB000F03400FDEF24C9FF78FFEE38FEED38FD69
:101EC000E438FC5003021E0022ACEAADA08B938ADA
:101ED000838982E0F96017A3E0F5EAA3E0F5A0A307
:101EE000E060F4FAA3E0F8A3E0F2DAF8D9E98DA013
:101EF0008CEAE4F59322906473E054C0FF4409F047
:101F0000906492E04401F0A3E04401F07F107E274A
:101F10001222527F107E27122260E4FFFE12226EF0
:101F200022906475E054C0FF4409F0906494E0444A
:101F300001F0A3E04401F07F607EEA12227C7F6022
:101F40007EEA12228AE4FFFE1222982274FFFFFE2C
:101F50001222C274FFFFFE1222D0122073906497E7
:101F6000E04410F012205B7F011222171223147F2D
:101F70000212245D2274FFFFFEFDFC12235974FF40
:101F8000FFFEFDFC12236D122073906597E0441054
:101F9000F012205B1222FAE4FF12242722EFB40A87
:101FA00007740D121FA8740A309811A899B8130C61
:101FB000C2983098FDA899C298B811F63099FDC220
:101FC00099F599229000C3EFF01214D89000C3E065
:101FD000FFC4540FFFA3F0121FE79000C3E0540F9B
:101FE000FFA3F0121FE722905120E0549FF0E0542D
:101FF000F0F0E0FEEF4410FFEE4FF07F017E0012A4
:102000001E9C905120E054EFF022E4FF121C3A9005
:102010005842E04420F0E054FBF0E04408F0905ACD
:10202000D7E054E7F0E04408F022EC4D6011ED6099
:10203000010C8B938A838982E4F0A3DDFCDCFA75C2
:10204000930022900165E070091221AA9001657445
:1020500001F01222087F6412245722EF5401600419
:10206000D2AF8002C2AFEF5402FF9044F4E054FDBF
:102070004FF0229044F4E0F84402F0E85402FF10DC
:10208000AF012274014FFF228B938A838982E0FF84
:10209000A3E0FEA3E0FDA3E0FC759300228B938AEE
:1020A000838982EFF0A3EEF0A3EDF0A3ECF075933B
:1020B0000022905828E054F3F0E0FEEF540CFFEEBD
:1020C0004FF0121E3B221223E87E1E7F9A122244FA
:1020D0007F071223451223E12290015EE07009126E
:1020E0001A2D90015E7401F012232122900160E00C
:1020F0007009121F759001607401F01223A92290DB
:102100000161E07009121EF69001617401F0122362
:10211000B122900162E07009121F219001627401E6
:10212000F01223B922900163E07009121D3F900163
:10213000637401F01223C122900164E0700912203F
:102140000A9001647401F01221F9221223F67E1E16
:102150007F9B1222A67F071223771223EF221224DD
:10216000047E247F721222B47F071223811223FD82
:1021700022900166E07009121F4C9001667401F014
:102180001223D1221224127E247F731222DE7F07B3
:1021900012239512240B221224207E247F741222F3
:1021A000EC7F0712239F12241922905828E4F0A3F1
:1021B000F0FF1220B2E4FF1221BB22905828E05415
:1021C000FDF0E0FEEF5402FFEE4FF022906504E0D8
:1021D000FF7B027A65794412208A229043A2E04470
:1021E00004F09043B2E04404F0229043A2E04402A1
:1021F000F09043B2E04402F0229043A7E04404F0A0
:102200009043B7E04404F0229043A8E04404F090E7
:1022100043B8E04404F022EF5403FF906477E054A5
:10222000FCF0E04FF0228B938A838982E0FFA3E0E9
:10223000FE759300228B938A838982EDF0A3ECF0E4
:10224000759300227B027A447904AD07AC06122212
:1022500037227B027A647902AD07AC06122237225C
:102260007B027A647942AD07AC06122237227B02E8
:102270007A647922AD07AC06122237227B027A6497
:102280007904AD07AC06122237227B027A647944C6
:10229000AD07AC06122237227B027A647924AD079F
:1022A000AC06122237227B027A447900AD07AC06D5
:1022B000122237227B027A447902AD07AC06122241
:1022C00037227B027A647926AD07AC0612223722C8
:1022D0007B027A647906AD07AC06122237227B02B4
:1022E0007A447922AD07AC06122237227B027A4467
:1022F0007906AD07AC061222372212242DEF30E307
:102300000512236380F422122439EF30E6051224EB
:102310004580F422122463EF30E30512238B80F40E
:10232000227F0C121FC490015F7401F0228B938AEC
:10233000838982E0759300FF228B938A838982EDE3
:10234000F075930022EFC43354E0904482F0227B76
:10235000027A65792412208A227B027A6579241216
:10236000209F227B027A65794412208A227B027A9E
:1023700065790412209F22EFC43354E0904480F02A
:1023800022EFC43354E0904481F0227B027A6479D6
:102390004612222822EFC43354E0904491F022EFF9
:1023A000C43354E0904483F022906574E04480F09C
:1023B00022906473E04480F022906475E04480F0E1
:1023C00022906471E04480F022906471E0547FF0C8
:1023D00022906477E04480F022906477E0547FF0AC
:1023E000229044C07404F0229044C87404F02290F7
:1023F00044C07401F0229044C87401F0229044C09B
:102400007402F0229044C87402F0229044C2740214
:10241000F0229044CA7402F0229044C07408F02262
:102420009044C87408F022906587EFF022906567A9
:10243000E0FF22906481EFF022906461E0FF22903F
:102440006401EFF022906441E0FF22906421EFF0FC
:1024500022906431EFF022905B82EFF0229064874B
:10246000EFF022906467E0FF22904F03E0FF2280AC
:10247000FE22323232004F00000C005100002000DA
:10248000515000200051C000100051F00010010018
:1024900000100001140008000140000A00014C0077
:0724A00002000150000020C2
:00000001FF
