:10000000020655008F828E83E0540100000070F8D4
:100010002278FFE4F6D8FD0206B3BB010689828A86
:1000200083E0225002E722BBFE02E32289828A8318
:10003000E49322BB010689828A83F0225002F722D0
:10004000BBFE01F322C5F0F8A3E028F0C5F0F8E507
:1000500082158270021583E038F022EF2BFFEE3A12
:10006000FEED39FDEC38FC22E88FF0A4CC8BF0A437
:100070002CFCE98EF0A42CFC8AF0EDA42CFCEA8E7A
:10008000F0A4CDA8F08BF0A42DCC3825F0FDE98F9D
:10009000F0A42CCD35F0FCEB8EF0A4FEA9F0EB8F94
:1000A000F0A4CFC5F02ECD39FEE43CFCEAA42DCE61
:1000B00035F0FDE43CFC2275F008758200EF2FFF5F
:1000C000EE33FECD33CDCC33CCC58233C5829BED30
:1000D0009AEC99E58298400CF582EE9BFEED9AFD34
:1000E000EC99FC0FD5F0D6E4CEFBE4CDFAE4CCF9E4
:1000F000A88222B800C1B90059BA002DEC8BF08457
:10010000CFCECDFCE5F0CBF97818EF2FFFEE33FE24
:10011000ED33FDEC33FCEB33FB10D703994004EBDC
:1001200099FB0FD8E5E4F9FA227818EF2FFFEE33A8
:10013000FEED33FDEC33FCC933C910D7059BE99ABA
:100140004007EC9BFCE99AF90FD8E0E4C9FAE4CC4B
:10015000FB2275F010EF2FFFEE33FEED33FDCC33B5
:10016000CCC833C810D7079BEC9AE899400AED9B9E
:10017000FDEC9AFCE899F80FD5F0DAE4CDFBE4CC7D
:10018000FAE4C8F922EF4BFFEE4AFEED49FDEC48D8
:10019000FC22EB9FF5F0EA9E42F0E99D42F0E89CDC
:1001A00045F022E8600FECC313FCED13FDEE13FEE7
:1001B000EF13FFD8F122E8600FEFC333FFEE33FEF9
:1001C000ED33FDEC33FCD8F122E0FCA3E0FDA3E02D
:1001D000FEA3E0FF22E0F8A3E0F9A3E0FAA3E0FB2E
:1001E00022ECF0A3EDF0A3EEF0A3EFF022E0FBA3EE
:1001F000E0FAA3E0F922EBF0A3EAF0A3E9F022E4AD
:1002000093FB740193FA740293F922D083D082F89D
:10021000E4937012740193700DA3A393F874019387
:10022000F5828883E4737402936860EFA3A3A380CC
:10023000DFE50C2582F582E50B3583F583B50B04EC
:1002400085820C2210AF0685820CF50B2285820C6C
:10025000F50BD2AF22EC8EF0A4CCC5F0CCCDF8EFEC
:10026000A4CEC5F02DFDE43CFCE8A42EC8C5F03DAD
:10027000FDE43CFCEFA4FFE5F028FEE43DFDE43C9A
:10028000FC227B007A4679E8120D2BEF4405FD7BBA
:10029000007A4679E8120D37E4F50AE50AC39407B7
:1002A000502CE50A75F005A42484F582E4340DAFE2
:1002B00082F5088F09F5831201FF8F828508837408
:1002C0000393FC740493FD120C47050A80CD7B0850
:1002D0007A007900120B697B017A507903120D2B99
:1002E000EF4402FD7B017A507903120D377B017ACE
:1002F000507913120D2BEF4402FD7B017A507913D4
:10030000120D379043A0E04440F09043C2E0441007
:10031000F07B087A0679F0C003C002C0017B007A46
:100320005179029000BB1201F6D001D002D0037FB8
:10033000087E00120AB77B087A0679F8C003C0026B
:10034000C0017B007A5179C29000BB1201F6D00146
:10035000D002D0037F087E00120AB77B087A0779A3
:1003600000C003C002C0017B007A5179129000BB2B
:100370001201F6D001D002D0037F087E00120AB726
:100380007B087A077908C003C002C0017B007A515C
:1003900079229000BB1201F6D001D002D0037F0871
:1003A0007E00120AB77B087A077910C003C002C02A
:1003B000017B007A5179329000BB1201F6D001D056
:1003C00002D0037F087E00120AB77B087A077918EB
:1003D000C003C002C0017B007A5179409000BB127B
:1003E00001F6D001D002D0037F0A7E00120AB77B4B
:1003F000017A0279DB7DC4120D377B017A04795BC7
:100400007DC4120D379044F47401F0904322E0440F
:1004100008F09046ECE0C394055006904689743A83
:10042000F090480074F1F012045490480074B1F058
:10043000120C2A7B007A4379A0C00179B09000BBEE
:100440001201F6D0017F0E7E00120AB79043B0E091
:1004500054FDF0227B007A4079807D017C00120CF3
:10046000CA9040827418F07B007A4079847D077CC2
:1004700000120CCA9040867418F07B007A4079888C
:100480007D177C00120CCA90408A7418F0904300CB
:100490007402F09040007408F09042007403F07B06
:1004A0000C7A017908120D2B9046A1EFF07B007AAF
:1004B0004279227D087C00120CCA7B007A427920A6
:1004C0007D517C12120CCAE49000BAF07F19FEFD37
:1004D000FC9000B61201E19000B61201C9D3EF946E
:1004E00000EE9400403B9000BAE0FF64036032905D
:1004F0004225E05401FEEF25E04E54039000BAF08F
:10050000E47FE07E01FDFC120B009000B61201C9F1
:1005100074FFFBFAF9F812005B9000B61201E1805B
:10052000B69000B61201C9EF4E70057F03120D811F
:100530007B007A4079047D007C01120CCA90400453
:100540007407F0904006E4F09040087448F0904042
:1005500004E4F09040017402F09043A2E04407F0FC
:1005600022E47F947E01FDFC9000BE1201E19051D7
:1005700020E05480F0905122E054F09000BDF0E073
:10058000440F905122F0A3E054F09000BDF0E090B1
:100590005123F0A3E054F09000BDF0E0905124F01E
:1005A000905120E054DFF0E04440F0E4FFFE120BF5
:1005B0003C905120E04410F07F017E00120B3C90F3
:1005C0005121E09000BDF0905120E054EFF0E4FFA5
:1005D000FE120B3C9000BDE05408F0905120E04426
:1005E00010F07F017E00120B3C905120E054EFF0A0
:1005F0009000BDE070067F0AFE120B3C9000BE1218
:1006000001C974FFFBFAF9F812005B9000BE1201F9
:10061000E19000BDE0600DA31201C9D3EF9400EE9C
:1006200094005087905120E054BFF0E05480F09047
:100630005122E054F0F0A3E054F09000BDF0E0440B
:100640000F905123F0A3E054F09000BDF0E0440F70
:10065000905124F02275930078007583467582E8E6
:10066000E04401F0009046ECE0F99046FAE0FAB977
:1006700003225420B40012B8001AEA901FFFF0744D
:1006800001901FFEF09046F6F0901FFEE06005908E
:100690001FFFE0FA90480074C0F075810C900000D4
:1006A00078007920E4F0A3D8FCD9FAEA9000B1F000
:1006B000020011750B1F750CFD1202820206FA0270
:1006C0000A3FE493A3F8E493A34003F68001F20801
:1006D000DFF48029E493A3F85407240CC8C333C47F
:1006E000540F4420C8834004F456800146F6DFE4EA
:1006F000800B010204081020408090073FE47E0137
:100700009360BCA3FF543F30E509541FFEE493A35C
:1007100060010ECF54C025E060A840B8E493A3FA6E
:10072000E493A3F8E493A3C8C582C8CAC583CAF0FA
:10073000A3C8C582C8CAC583CADFE9DEE780BE4454
:1007400000064060000044002E000000004400202D
:1007500000000000420002000142000000004400CE
:1007600028000000004400510000000044005D002B
:100770000000004200570000440041000000004219
:10078000003200004400240000000044006100002A
:10079000000044003A000000004200040000420053
:1007A0000A00004400590000000044003600000028
:1007B0000044004D000000004400490000000044D7
:1007C00000450000000042002C0000420034000000
:1007D00041004000420055000042003E0000410040
:1007E000C8004100C7004100C9004400AD016E3699
:1007F000004400A800005DC04100AC184400B22EC7
:10080000E000004300C20000004100CA0000C0E058
:10081000C0F0C083C082C085C084C086758600C019
:1008200093759300C0D075D000C000C001C002C055
:1008300003C004C005C006C007900055E07002A3C5
:10084000E070117FE87E03120CF5900055E4F0A3F0
:1008500004F08018900055E07004A3E06401700C6F
:10086000FFFE120CF5900055E4F0A3F0D007D0067F
:10087000D005D004D003D002D001D000D0D0D09386
:10088000D086D084D085D082D083D0F0D0E032E43E
:100890007F28FEFDFC1208FD7F03120C07E47F0594
:1008A000FEFDFC1208FD7F03120C07E47F0FFEFD26
:1008B000FC1208FD7F03120C07E47F01FEFDFC1211
:1008C00008FD7F02120C07E47F05FEFDFC1208FD07
:1008D0007F06120BE47F0E120BE47F2C120BE47FD9
:1008E00008120BE47F01120BE47F0C120BE47F0370
:1008F000120BE4E47F05FEFDFC1208FD2290FFFCD4
:100900001202311201E1850B83850C821201C9D3D9
:10091000EF9400EE9480402E9000B21201C9120BA9
:1009200000850B83850C82C083C0821201C9E42F2D
:10093000FFEE3480FEED34FFFDEC34FFFCD082D0BE
:10094000831201E180C09000A81201C9850B838544
:100950000C821201D5120068120B009000041202E2
:100960003122C0E0C0F0C083C082C085C084C08690
:10097000758600C093759300C0D075D000C000C0CC
:1009800001C002C003C004C005C006C007120C9914
:100990007E0090003EEEF0A3EFF0120D7BD007D06A
:1009A00006D005D004D003D002D001D000D0D0D0E2
:1009B00093D086D084D085D082D083D0F0D0E0325E
:1009C0009000BDEFF0905120E04420F0E054BFF0E3
:1009D000E4FFFE120B3C905120E054F0F0C083C0C5
:1009E00082E0FF9000BDE04410FEEF4ED082D08345
:1009F000F07F017E00120B3C905120E054EFF0227A
:100A00009000B6EDF0EF14601514601D14602524FD
:100A100003702B9000B6E02480FF120BE4229000BC
:100A2000B6E024C0FF120BE4229000B6E02494FF4D
:100A3000120BE4229000B6E024D4FF120BE422D281
:100A4000AF9044F474FDF0120C737E097F62120DB6
:100A500003120C867E087F0E120D11120C60120C10
:100A6000BBE4FF120D7B120AEBE4FDFF120A007BD0
:100A7000FF7A0C79AC120A7B80FE229000B612013C
:100A8000F69000B97401F012001A9000BAF09000CC
:100A9000BAE0FF6021120BC19000B61201ED900088
:100AA000B9E029F9E43AFA12001A9000BAF090007D
:100AB000B9E004F080D822758600EF4E6027EF6021
:100AC000010E7593009000BBE0F595A3E0F585A3BA
:100AD000E0F5848B938A838982E0A30586F0A315D1
:100AE00086DFF6DEF4E4F593F595229000C7E0701A
:100AF0000912088F9000C77401F0120D1F223232C4
:100B0000EC4D4E700D78FCEF24E950032840FD2297
:100B100000007BF178DA0000EF28FF78FFEE38FE66
:100B2000ED38FDEC38FC50E7EF2BFFEE38FEED38EA
:0B0B3000FDEC38FC40F222050203043B
:100B3C00EEFA9000ACE0F88FF0A4FFAEF0E88AF08B
:100B4C00A42EFEE5F03400FDEF24C9FF78FFEE384B
:100B5C00FEED38FDE438FC5003020B0022ACEAAD8C
:100B6C00A08B938A838982E0F96017A3E0F5EAA34E
:100B7C00E0F5A0A3E060F4FAA3E0F8A3E0F2DAF861
:100B8C00D9E98DA08CEAE4F5932290657BE054C002
:100B9C00FF4409F090659AE04401F0A3E04401F0B1
:100BAC007F107E27120CD97F107E27120CE7E4FFF2
:100BBC00FE120CF5229000BBEFF01205619000BB09
:100BCC00E0FFC4540FFFA3F01209C09000BBE05427
:100BDC000FFFA3F01209C0229000B7EFF0120561CD
:100BEC009000B7E0FFC4540FFFA3F0120C07900065
:100BFC00B7E0540FFFA3F0120C0722905120E054E1
:100C0C009FF0E054F0F0E0FEEF4410FFEE4FF07F69
:100C1C00017E00120B3C905120E054EFF0227B0C33
:100C2C007A0179CF120D2BEF540790586EF0EFC468
:100C3C00540FA3F09058767444F022EC4D6011EDF3
:100C4C0060010C8B938A838982E4F0A3DDFCDCFACF
:100C5C00759300229000C9E07009120B969000C9A0
:100C6C007401F0120D5722120D667E0A7FFE120DD2
:100C7C00037F07120D43120D5F22120D747E0A7F43
:100C8C00FF120D117F07120D4D120D6D2290511197
:100C9C00E054047E007802CEC313CE13D8F9FF22A1
:100CAC00454C45333032204361726C6162200090B8
:100CBC0043A2E04404F09043B2E04404F0228B934E
:100CCC008A838982EDF0A3ECF0759300227B027A83
:100CDC0065790AAD07AC06120CCC227B027A6579D9
:100CEC004AAD07AC06120CCC227B027A65792AAD90
:100CFC0007AC06120CCC227B027A44790AAD07AC05
:100D0C0006120CCC227B027A447908AD07AC061291
:100D1C000CCC227F0C120BE49000C87401F0228BD7
:100D2C00938A838982E0759300FF228B938A83894F
:100D3C0082EDF075930022EFC43354E0904485F0BB
:100D4C0022EFC43354E0904484F02290657BE0445D
:100D5C0080F0229044C07420F0229044C87420F09B
:100D6C00229044C07410F0229044C87410F0229069
:100D7C006575EFF02280FE2200515000200051F0EA
:100D8C000010010000100001140008000140000ACE
:0B0D9C0000014C00020001500000208C
:00000001FF
