:10000000021469008F828E83E0540100000070F8B2
:100010002278FFE4F6D8FD0214C70203DBE864800F
:10002000F8E933E83360110460F0ED33EC33700924
:10003000E8FCE9FDEAFEEBFF220460DED3EB9FEA79
:100040009EE99DE8C2E78CF0C2F795F0400CE8CC41
:10005000F8E9CDF9EACEFAEBCFFB1203A685D0F092
:100060005804700320D5B3E80470075002B2D502DB
:1000700003E592D5EC0460F7E4CCC0E0C398F860E7
:100080003B94186008400DD0E0FB0203BDE4FBFA8E
:10009000C9FC8028E830E406E4C9FBE4CAFCE83087
:1000A000E305E4C9CACBFCE854076010F8C3E913C0
:1000B000F9EA13FAEB13FBEC13FCD8F130F52FC37C
:1000C000E49CFCEF9BFFEE9AFEED99FDD0E0FBEF88
:1000D0004E4D4C701222DB030203E2EC2CFCEF339A
:1000E000FFEE33FEED33FDED30E7EB0203BDEF2B0A
:1000F000FFEE3AFEED39FDD0E0FB50130BBB0003E1
:100100000203E5ED13FDEE13FEEF13FFEC13FC020B
:1001100003BDEC4D6011E8497017ED33EC3304601A
:100120000DE4FCFFFEFD22E933E8330470F802031E
:10013000DB1203A658046009E4CC24815006285041
:10014000090203E52840030203E2C0E0EB4A7044E1
:10015000B98006D0E0FB0203D1EF4E701CBD8008D1
:10016000EBFFEAFEE9FD80EBE98DF0A4FEE5F0028D
:1001700001FBE9CDF9EAFEEBFFEF89F0A4FCE5F025
:10018000CE89F0A42EFFE435F0CD89F0A42DFEE455
:1001900035F08067EF4E7005BD80D780C3EF8BF0E0
:1001A000A4ACF0EE8BF0A42CFCE435F0F8EF8AF070
:1001B000A42CE5F038FCE433CB8DF0A42CFCE5F066
:1001C0003BF8EE8AF0A42CFCE5F038F8E433CF8954
:1001D000F0A42CFCE5F038CF3400CE89F0A42FFF3A
:1001E000E5F03EFEE433C98DF0A42EFEE5F039CDF6
:1001F0008AF0A42FFFE5F03EFEE43DFD33D0E0FBA6
:1002000050070BBB000F0203E5EC2CFCEF33FFEEB5
:1002100033FEED33FD0203BD0203E5EC5D04600532
:10022000E8590470030203DB1203A6580460F6ECDD
:100230004860F2EC7004FDFEFF22C860DB2481C838
:100240005009C398600250060203E29850CAF58232
:10025000E9294B4A7005AB820203D175F0007C1A84
:100260007880C3EF9BEE9AED99400DC3EF9BFFEEB4
:100270009AFEED99FDE842F0DC23ACF0D0E0FFD02F
:10028000E0FED0E0FDAB8220E7101BEB60BAEC2C67
:10029000FCEF33FFEE33FEED33FD0203BDE803F860
:1002A00030E705C0F075F000EF2FFFEE33FEED33C1
:1002B000FD40B830E7C280AA74F8CC6480CCC86432
:1002C00080C8F58204604FC3EB9FF5F0EA9E42F0D0
:1002D000E99D42F0E89C45F0603C501DE5825FFFDF
:1002E000E582D313CB5BCBF42B5582FB50280ABAA3
:1002F000002409B9002008801DE5825BFBE582D35C
:1003000013CF5FCFF4C3132F5582FF50090EBE00E9
:10031000050DBD00010CC3EB9FF5F0EA9E42F0E92C
:100320009D42F0E89C45F06007CC4820E701B3EC23
:100330002275F020800E75F010800575F0087D00A4
:100340007E007F003392D530D50312078BEC33400B
:1003500010EF33FFEE33FEED33FDEC33FCD5F0ED63
:1003600022E5F0247EA2D513CC92E7CDCEFF22ED7C
:10037000D2E7CD33EC3392D524814006E4FFFEFD75
:10038000FC22FCE4CFCECDCC24E0501174FF80EDF4
:10039000C3CC13CCCD13CDCE13CECF13CF0470F07E
:1003A00030D5DE02078BE9D2E7C933E833F892D5BE
:1003B000EDD2E7CD33EC33FC5002B2D522EC30E77E
:1003C000100FBF000C0EBE00080DBD00040BEB604B
:1003D00014A2D5EB13FCED92E7FD2274FFFCFDFEA9
:1003E000FF22E480F8A2D574FF13FC7D80E480EF47
:1003F000F920E73624F950037907E4F42402FBE5F9
:1004000082158270021583DBF6E024FB501BE96045
:1004100014E4F0E582158270021583E004F0B40A5A
:1004200008E4F0D9EE7401F00A22C2D522ED33ECD3
:100430003392D5FA602AB4FF33EDC2E77BFF600642
:100440007A047952E4227A04795B20D5047A04791B
:1004500056224E614E002B494E46002D494E460015
:10046000E47A08F0A3DAFC7B00740722C083C08220
:10047000ECC0E0EDC0E0EEC0E0EFC0E0EA75F010E7
:10048000A4CAABF075F04DA42BFBE435F0FCEA24D4
:1004900010FAEB34C5FBEC34D9FCEDC2E7FF75F084
:1004A00056A4F42411C5F0F434C58FF0A42AE5F065
:1004B0003BE43CF020E714120562D0E0FFD0E0FE00
:1004C000D0E0FDD0E0FC12021B8014F4041205629F
:1004D000D0E0FFD0E0FED0E0FDD0E0FC120112D071
:1004E00082D083E0FAEDD2E7CD33EC332482FBE413
:1004F000C3CF33CFCE33CECD33CD33DBF37B0775D4
:10050000F00A846004F0A31B0AE5F0F0A38FF074F6
:100510000AA4FFACF08EF0740AA42CFEACF05001DB
:100520000C8DF0740AA42CFDE435F0F0A3DBDE742E
:1005300007223F8000004120000042C80000447AAA
:100540000000461C400047C35000497424004B186B
:1005500096804CBEBC205A0E1BCA6753C21C749DA9
:10056000C5AEFB60065407601C2323120590EB54B4
:1005700038600912057C12058B120112ECF8EDF9B6
:10058000EEFAEFCB22EB12058B80F1543803241CDA
:10059000900532FE93FC0EEE93FD0EEE930ECE937D
:1005A000FF22BB010689828A83E0225002E722BB38
:1005B000FE02E32289828A83E49322BB010CE58256
:1005C00029F582E5833AF583E0225006E92582F891
:1005D000E622BBFE06E92582F8E222E58229F582C1
:1005E000E5833AF583E49322BB010689828A83F08E
:1005F000225002F722BBFE01F322C2D5EC30E709FC
:10060000B2D5E4C39DFDE49CFCEE30E715B2D5E421
:10061000C39FFFE49EFE1208C0C3E49DFDE49CFC62
:1006200080031208C030D507C3E49FFFE49EFE227A
:10063000C5F0F8A3E028F0C5F0F8E5821582700255
:100640001583E038F022EF2BFFEE3AFEED39FDEC9A
:1006500038FC22C3EF9BFFEE9AFEED99FDEC98FC6F
:1006600022E88FF0A4CC8BF0A42CFCE98EF0A42C13
:10067000FC8AF0EDA42CFCEA8EF0A4CDA8F08BF05F
:10068000A42DCC3825F0FDE98FF0A42CCD35F0FC5D
:10069000EB8EF0A4FEA9F0EB8FF0A4CFC5F02ECD29
:1006A00039FEE43CFCEAA42DCE35F0FDE43CFC220E
:1006B00075F008758200EF2FFFEE33FECD33CDCC01
:1006C00033CCC58233C5829BED9AEC99E582984084
:1006D0000CF582EE9BFEED9AFDEC99FC0FD5F0D661
:1006E000E4CEFBE4CDFAE4CCF9A88222B800C1B98B
:1006F0000059BA002DEC8BF084CFCECDFCE5F0CBC9
:10070000F97818EF2FFFEE33FEED33FDEC33FCEB01
:1007100033FB10D703994004EB99FB0FD8E5E4F9BC
:10072000FA227818EF2FFFEE33FEED33FDEC33FCA9
:10073000C933C910D7059BE99A4007EC9BFCE99A9D
:10074000F90FD8E0E4C9FAE4CCFB2275F010EF2FE2
:10075000FFEE33FEED33FDCC33CCC833C810D707E2
:100760009BEC9AE899400AED9BFDEC9AFCE899F81D
:100770000FD5F0DAE4CDFBE4CCFAE4C8F922EF4B74
:10078000FFEE4AFEED49FDEC48FC22C3E49FFFE486
:100790009EFEE49DFDE49CFC22EB9FF5F0EA9E4268
:1007A000F0E99D42F0E89C45F022E8600FECC313AD
:1007B000FCED13FDEE13FEEF13FFD8F122E8600FFE
:1007C000EFC333FFEE33FEED33FDEC33FCD8F12203
:1007D000E0FCA3E0FDA3E0FEA3E0FF22E0F8A3E03D
:1007E000F9A3E0FAA3E0FB22BB010789828A830216
:1007F00007DC5005E9F8020915BBFE05E9F8020916
:100800002289828A8302092FECF0A3EDF0A3EEF097
:10081000A3EFF022E0FBA3E0FAA3E0F922F8E0FB6B
:10082000A3A3E0F925F0F0E582158270021583E0BC
:10083000FA38F022EBF0A3EAF0A3E9F022E493FB0C
:10084000740193FA740293F922D083D082F8E4936E
:100850007012740193700DA3A393F8740193F58241
:100860008883E4737402936860EFA3A3A380DFE539
:10087000112582F582E5103583F583B51004858254
:10088000112210AF06858211F51022858211F51014
:10089000D2AF22EC8EF0A4CCC5F0CCCDF8EFA4CE34
:1008A000C5F02DFDE43CFCE8A42EC8C5F03DFDE4F8
:1008B0003CFCEFA4FFE5F028FEE43DFDE43CFC2217
:1008C000BC000BBE0029EF8DF084FFADF022E4CC1C
:1008D000F875F008EF2FFFEE33FEEC33FCEE9DECE5
:1008E000984005FCEE9DFE0FD5F0E9E4CEFD22ED2B
:1008F000F8F5F0EE8420D21CFEADF075F008EF2F75
:10090000FFED33FD4007985006D5F0F222C398FD65
:100910000FD5F0EA22E6FB08E6F908E6FA08E6CB8E
:10092000F822E2FB08E2F908E2FA08E2CBF822E456
:1009300093F8740193F9740293FA740393FB22E51C
:1009400008244FF582E43400F583E0050822900086
:100950004C30070390004FE475F00112081D0205AA
:10096000A22000E97F2ED2008018EF540F2490D4EB
:100970003440D4FF30040BEF24BFB41A00500324DA
:1009800061FFE50960021509050CE50C7002050B15
:1009900030070E90004CE475F00112081DEF0205BF
:1009A000E8021C707403D2078003E4C207F50890C4
:1009B000004C120834E4F509F50BF50CE509600765
:1009C0007F2012098280F5750AFFC201C200C202AF
:1009D000C203C205C206C20812094EFF700D3007DD
:1009E000057F00120993AF0CAE0B22B4255FC2D570
:1009F000C20412094EFF24D0B40A00501A75F00A3E
:100A0000780930D50508B6FF0106C6A426F620D51C
:100A1000047002D20380D924CFB41A00EF5004C26C
:100A2000E5D204020C85D20180C6D20080C0D20279
:100A300080BCD2D580BAD20580B47F201209822032
:100A400002077401B5090040F112093FFF12098243
:100A50000209BCD208D206809512093FFB12093F59
:100A6000FA12093FF94A4B700679837A0D7BFF2011
:100A7000022EE509602A7E008E827583001205BB76
:100A800060060EEE650A70F0C2D5EBC0E0EAC0E089
:100A9000E9C0E0EE120CE6D0E0F9D0E0FAD0E0FBDD
:100AA0001205A2FF60AAEBC0E0EAC0E0E9C0E012D4
:100AB0000982D0E02401F9D0E03400FAD0E0FBE56F
:100AC0000A0460DCD50AD98087D20280A2120CC841
:100AD00060F7E50A7001041203F0A90A600DE50A47
:100AE000600914F50A120D70EF60F3EA30E702F4C2
:100AF00004C3995079EAF4250A0430E701E404F5C7
:100B00000A800D120CC860C1EA050A250A1203F01A
:100B1000EA90007BF030E701E4250A04D50A0420BE
:100B2000050114120CE6E4C0E0120D7090007BE0A9
:100B3000601320E70714F012096A802204F0D0E065
:100B400014C0E07F0012096AE50A60071209611506
:100B50000A800B300503120961D0E00209BCD0E025
:100B60000480C4120CC8609EE50A041203F09000D1
:100B70007BEAF0E50A2005026001042404120CE679
:100B800074FF04C0E0120D7012096AE50A20050224
:100B90006003120961D0E0B50AE87F45120974903C
:100BA000007BE07F2B30E7047F2DF404C0E01209C6
:100BB00082D0E075F00A84C0F012096BD0E012090F
:100BC0006B0209BC791080027908C206C20880084D
:100BD000D2D5790A8004790AC2D5E50A047002F5F3
:100BE0000AE4FAFDFEFF12093FFC7B082001131204
:100BF000093FFD7B1030000A12093FFE12093FFF3A
:100C00007B20EC3382D592D55013C3E43000069F8D
:100C1000FFE49EFEE42001039DFDE49CFCE4CBF890
:100C2000C201EC700CCFCECDCCE824F8F870F38084
:100C300017C3EF33FFEE33FEED33FDEC33FCEB3344
:100C4000FB994002FB0FD8E9EB300105F8D0E0C476
:100C500048B201C0E00AEC4D4E4F78207B0070C2D4
:100C6000EAB50A0040BCC0E0120CE8D0F0D0E020A9
:100C70000104C4C0E0C4B201C0F012096BD0F0D5C9
:100C8000F0EB0209BC1208490A59530BC4580A2A4E
:100C90004C0A26420BC84F0BD0440BD0490A3F43A5
:100CA0000BD6550B03460B63450ACD470DA3500ADF
:100CB0002E2D0A322E0A552B0A36230A53200D8C6C
:100CC0002A09EE4800000A4DE50AB4FF03750A063A
:100CD00012093FFC12093FFD12093FFE12093FFFB6
:100CE00090007402042D790AA2D52003143005095E
:100CF000B910020404B9080104A2D520060250016B
:100D0000042002689202B509005034C0E07F203010
:100D100003197F30A20272067205500F120D3FC2F6
:100D200002C206C205C2087F30800F300503E9C049
:100D3000E0120982300503D0E0F9D0E0B509CC30EB
:100D400005177F30B9100C1209827F583004077FD5
:100D5000788003B908031209823002057F2D020949
:100D6000827F202008F87F2B2006F322920280CF7A
:100D70007F00B40700500B2474F582E43400F5833F
:100D8000E0FF22286E756C6C2900D20112093F30F9
:100D900001F8C201780930D50108F60209EE2D509C
:100DA00043495812093F2403B405004001E4900D63
:100DB0009E93120973743A120973D20375090402DF
:100DC0000BC4C0E0C0F0C083C082C085C084C086B0
:100DD000758600C093759300C0D075D000C000C068
:100DE00001C002C003C004C005C006C007E4FFFE86
:100DF000FDFC900023120808E4FFFEFDFC90002794
:100E0000120808E4FFFEFDFC90002B120808E4FF26
:100E1000FEFDFC90002F120808E4FFFEFDFC900090
:100E200033120808E4FFFEFDFC900046120808900B
:100E3000004AE4F0A3F090008AE07004A3E06401AB
:100E40007017121AEFE41203319000A812080890EC
:100E5000008AE4F0A3F0021098121AEFE4120331B2
:100E60009000231208089000231207D09000A812C7
:100E700007DC1202B850269000A81207DCC000C0A0
:100E800001C002C003121F4CE4120331D003D00290
:100E9000D001D0001200219000A812080890002371
:100EA0001207DC9000A81207D012001D9000271234
:100EB0000808121F4CE4120331A804A905AA06ABC6
:100EC000079000271207D012021B7BFE7AF479B23A
:100ED000784312011290002B120808900027120785
:100EE000D0C004C005C006C007900088E0FEA3E0A3
:100EF000FF7C007D051205FAEDAE047802C333CE07
:100F000033CED8F92494F58274003EF583D007D00F
:100F100006D005D004120808900088E475F001128C
:100F200006301218839000B01208089000231207B0
:100F3000D09000A81208089000B01207DC90008E34
:100F40001207D012001D90002F1208089000D21234
:100F500007DCC000C001C002C00390002B1207D004
:100F600090002F1207DC120112D003D002D001D062
:100F7000001200219000D2120808900088E070044E
:100F8000A3E0641C700AFFFEFDFC9000D21208086A
:100F90007F007E407D9C7C4490002F1207DC120174
:100FA00012E4FBFA79617844120021C004C005C044
:100FB00006C007E4FFFE7DF07C429000D21207DC01
:100FC000120112D003D002D001D0001200219000F3
:100FD000461208087F01121CBAE4FDFF121A747B46
:100FE000FF7A1D798D90004F1208349000C21207CD
:100FF000D09000521208087B017A0079371209A4B8
:10100000E4FD7F01121A747B017A007937121AB35A
:101010007BFF7A1D7990121AB37BFF7A1D798D9030
:10102000004F1208349000BE1207D09000521208F0
:10103000087B017A0079371209A47B017A0079379D
:10104000121AB3E4FFFE7D7A7C459000461207DC5D
:101050001202B86010400E7F007EC07DA87C4490D4
:101060000046120808E4FFFEFDFC9000461207DC73
:101070001202B86002500DE4FFFE7D807C3F9000BC
:10108000461208089000461207D012036F90004ADB
:10109000EEF0A3EFF0121EA3D007D006D005D004C7
:1010A000D003D002D001D000D0D0D093D086D0844D
:1010B000D085D082D083D0F0D0E0327B007A4679E0
:1010C000E8121F2AEF4405FD7B007A4679E8121FDB
:1010D00036E4F50FE50FC39408502CE50F75F005C5
:1010E000A42440F582E43420AF82F50D8F0EF58301
:1010F00012083D8F82850D83740393FC740493FD65
:10110000121D1D050F80CD7B087A007900121B9DF2
:101110007B017A507903121F2AEF4402FD7B017A8A
:10112000507903121F367B017A507913121F2AEF70
:101130004402FD7B017A507913121F369043A0E0E0
:101140004440F09043C2E04410F07B087A067914E2
:10115000C003C002C0017B007A5179029000811265
:101160000834D001D002D0037F087E00121B3B7BE5
:10117000087A06791CC003C002C0017B007A51794D
:10118000C2900081120834D001D002D0037F087EC3
:1011900000121B3B7B087A067924C003C002C00101
:1011A0007B007A517922900081120834D001D0025C
:1011B000D0037F087E00121B3B7B087A06792CC087
:1011C00003C002C0017B007A51793290008112087D
:1011D00034D001D002D0037F087E00121B3B7B0875
:1011E0007A067934C003C002C0017B007A5179408D
:1011F000900081120834D001D002D0037F0A7E0013
:10120000121B3B7B017A0279DB7D44121F367B0186
:101210007A04795B7D44121F369044F47401F09097
:101220004322E04408F09046ECE0C3940550069059
:101230004689743AF090480074F1F01212689048B0
:101240000074B1F0121D007B007A4379A0C00179CF
:10125000B0900081120834D0017F0E7E00121B3B3B
:101260009043B0E054FDF0227B007A4079807D010C
:101270007C00121E6A9040827418F07B007A4079DC
:10128000847D077C00121E6A9040867418F07B00F3
:101290007A4079887D177C00121E6A90408A741803
:1012A000F09043007402F09040007408F090420007
:1012B0007403F07B0C7A017908121F2A9046A1EF83
:1012C000F07B007A4279227D087C00121E6A7B0046
:1012D0007A4279207D517C12121E6AE4900080F0DF
:1012E0007F19FEFDFC90007C12080890007C12071C
:1012F000D0D3EF9400EE9400403B900080E0FF6478
:10130000036032904225E05401FEEF25E04E540385
:10131000900080F0E47FE07E01FDFC121B00900055
:101320007C1207D074FFFBFAF9F812064690007C95
:1013300012080880B690007C1207D0EF4E70057F2F
:101340000312203C7B007A4079047D007C01121E50
:101350006A9040047407F0904006E4F090400874EE
:1013600048F0904004E4F09040017402F09043A2F1
:10137000E04407F022E47F947E01FDFC900084129B
:101380000808905120E05480F0905122E054F090F1
:101390000083F0E0440F905122F0A3E054F090005D
:1013A00083F0E0905123F0A3E054F0900083F0E04C
:1013B000905124F0905120E054DFF0E04440F0E4FC
:1013C000FFFE121B70905120E04410F07F017E0060
:1013D000121B70905121E0900083F0905120E05456
:1013E000EFF0E4FFFE121B70900083E05408F090D1
:1013F0005120E04410F07F017E00121B70905120BC
:10140000E054EFF0900083E070067F0AFE121B703C
:101410009000841207D074FFFBFAF9F81206469088
:101420000084120808900083E0600DA31207D0D357
:10143000EF9400EE94005087905120E054BFF0E00C
:101440005480F0905122E054F0F0A3E054F090006A
:1014500083F0E0440F905123F0A3E054F090008318
:10146000F0E0440F905124F02275930078007583CA
:10147000467582E8E04401F0009046ECE0F99046C1
:10148000FAE0FAB903225420B40012B8001AEA9024
:101490001FFFF07401901FFEF09046F6F0901FFEC3
:1014A000E06005901FFFE0FA90480074C0F075817D
:1014B0002190000078007920E4F0A3D8FCD9FAEA62
:1014C000900130F002001175101F7511FD1210BB54
:1014D00002150E0219A4E493A3F8E493A34003F6C3
:1014E0008001F208DFF48029E493A3F85407240C68
:1014F000C8C333C4540F4420C8834004F456800149
:1015000046F6DFE4800B01020408102040809016AC
:1015100029E47E019360BCA3FF543F30E509541FCA
:10152000FEE493A360010ECF54C025E060A840B84C
:10153000E493A3FAE493A3F8E493A3C8C582C8CACA
:10154000C583CAF0A3C8C582C8CAC583CADFE9DE9D
:10155000E780BE900050120834E4FFFEFDFC9000CE
:1015600053120808E4FFFEFDFC900057120808E43F
:101570007F05FEFDFC90005B120808900088E0FEED
:10158000A3E0FFC39405EE64809480500CEE339585
:10159000E0FDFC90005B120808E4FFFEFDFC9000FB
:1015A0005712080890005B1207D09000571207DC12
:1015B000C312079950579000531207D0C004C005BA
:1015C000C006C007E47F04FEFDFC9000571207DC54
:1015D000120661900050120814E92FF9EA3EFAEB66
:1015E0003DFB1207E8D007D006D005D00412002139
:1015F0009000531208089000571207D0E47B01FABC
:10160000F9F8120646900057120808809790005B80
:101610001207D0E4120331A804A905AA06AB07906B
:1016200000531207D012021B2244008E40600000BB
:101630004400A80000000042008A00014200880027
:10164000004400B0000000004400D200000000444C
:1016500000DC000000004200D600004400C2000090
:1016600000004200B600004400AC0000000044004E
:10167000E0000000004400BE0000000042008C00BA
:101680000042009200004400D8000000004400BA6C
:10169000000000004400CE000000004400CA00002A
:1016A00000004400C6000000004200B400004200F8
:1016B000B8000041013B0041013A0041013C0041BA
:1016C000013D0041013E0041013F00410140004415
:1016D000012C016E360044012700005DC041012B42
:1016E000184401312EE000004301350000004101A3
:1016F000410000E4FFFE7D437CC49000BE1207DC85
:10170000120021900000120808E4FFFE7D207C40BA
:101710009000001207DC120112A804A905AA06AB6A
:10172000077F007E807D8E7C4512001D9000C212D6
:1017300008089000001207D012036F9000B8EEF076
:10174000A3EFF07F007E907DB07C459000C2120731
:10175000DC1202B86010400E7F007E907DB07C45A8
:101760009000C21208087F007E407D677C45900093
:10177000C21207DC1202B86002500E7F007E407D6C
:10178000677C459000C21208089000C21207D01270
:10179000036F121ECD22C0E0C0F0C083C082C0859E
:1017A000C084C086758600C093759300C0D075D084
:1017B00000C000C001C002C003C004C005C006C014
:1017C00007121FA69000D8120808121FA69000BA90
:1017D000120808121F119000D81207DC9000BA12EC
:1017E00007D0120653E41203319000BE120808120B
:1017F0002036D007D006D005D004D003D002D001C7
:10180000D000D0D0D093D086D084D085D082D08361
:10181000D0F0D0E032E47F28FEFDFC1218EE7F030A
:10182000121CDDE47F05FEFDFC1218EE7F03121C86
:10183000DDE47F0FFEFDFC1218EE7F03121CDDE4D9
:101840007F01FEFDFC1218EE7F02121CDDE47F0515
:10185000FEFDFC1218EE7F06121CBA7F0E121CBA97
:101860007F2C121CBA7F08121CBA7F01121CBA7F8F
:101870000C121CBA7F03121CBAE47F05FEFDFC1299
:1018800018EE22E4FFFEFDFC90004C1208087B01DC
:101890007A00799412155390004C120808121F4CCC
:1018A000E4120331A804A905AA06AB0790004C1264
:1018B00007D012021B7BFE7AF479B2784312011230
:1018C00090004C12080890004C1207DC7F717E3D9E
:1018D0007DCA7C3F12021BE4FBFA79407841120278
:1018E0001B90004C12080890004C1207D02290FF69
:1018F000FC12086F1208088510838511821207D028
:10190000D3EF9400EE9480402E9001311207D01254
:101910001B00851083851182C083C0821207D0E42A
:101920002FFFEE3480FEED34FFFDEC34FFFCD0825F
:10193000D08312080880C09001271207D085108339
:101940008511821207DC120661121B00900004123E
:10195000086F22C0E0C0F0C083C082C085C084C0D0
:1019600086758600C093759300C0D075D000C00006
:10197000C001C002C003C004C005C006C0071216E3
:10198000F3D007D006D005D004D003D002D001D0C8
:1019900000D0D0D093D086D084D085D082D083D0D0
:1019A000F0D0E032D2AF9044F474FDF0121DC712B3
:1019B0001DA17E0D7FC2121E79121DDA121E4C125D
:1019C0001E00121E267E177F96121EDB121E131299
:1019D0001E397E197F53121EE9121DED121E5B1275
:1019E0001DB4E4FDFF121A747BFF7A1D7993121A5D
:1019F000B380FE22900083EFF0905120E04420F06D
:101A0000E054BFF0E4FFFE121B70905120E054F050
:101A1000F0C083C082E0FF900083E04410FEEF4EF0
:101A2000D082D083F07F017E00121B70905120E0A5
:101A300054EFF022906471E054F8FFF0E054FCFFA2
:101A4000F0121F0474FFFFFEFDFC121F88E4FFFE6E
:101A5000FDFC121F74E4FF12202412202AE47F32BE
:101A6000FEFDFC121F92121D4E906493E04410F094
:101A7000121D362290007CEDF0EF14601514601DED
:101A80001460252403702B90007CE02480FF121C3E
:101A9000BA2290007CE024C0FF121CBA2290007C85
:101AA000E02494FF121CBA2290007CE024D4FF12A0
:101AB0001CBA2290007C12083490007F7401F0124E
:101AC00005A2900080F0900080E0FF6021121C973A
:101AD00090007C12081490007FE029F9E43AFA1291
:101AE00005A2900080F090007FE004F080D8229062
:101AF0006504E0FF7B027A657944121D652232227B
:101B0000EC4D4E700D78FCEF24E950032840FD2287
:101B100000007BF178DA0000EF28FF78FFEE38FE56
:101B2000ED38FDEC38FC50E7EF2BFFEE38FEED38DA
:101B3000FDEC38FC40F22205020304758600EF4EEE
:101B40006027EF60010E759300900081E0F595A38A
:101B5000E0F585A3E0F5848B938A838982E0A30571
:101B600086F0A31586DFF6DEF4E4F593F5952232D0
:101B7000EEFA90012BE0F88FF0A4FFAEF0E88AF0C7
:101B8000A42EFEE5F03400FDEF24C9FF78FFEE3807
:101B9000FEED38FDE438FC5003021B0022ACEAAD38
:101BA000A08B938A838982E0F96017A3E0F5EAA30A
:101BB000E0F5A0A3E060F4FAA3E0F8A3E0F2DAF81D
:101BC000D9E98DA08CEAE4F5932290647FE054C0BB
:101BD000FF4409F090649EE04401F0A3E04401F06A
:101BE0007F107E27121E877F107E27121E95E4FF2E
:101BF000FE121EA32290647CE054C0FF4409F090C2
:101C0000649CE04401F0A3E04401F07F607EEA12AE
:101C10001EB17F607EEA121EBFE4FFFE121ECD22BF
:101C200074FFFFFEFDFC121F5674FFFFFEFDFC1249
:101C30001F6A121D4E906597E04410F0121D361277
:101C40001EF7E4FF1220182274FFFFFEFDFC121F96
:101C50009C74FFFFFEFDFC121FB0121D4E90649499
:101C6000E04410F0121D36121F117F0212203022A4
:101C7000EFB40A07740D121C7B740A309811A899EE
:101C8000B8130CC2983098FDA899C298B811F630D4
:101C900099FDC299F59922900081EFF01213759089
:101CA0000081E0FFC4540FFFA3F01219F4900081EB
:101CB000E0540FFFA3F01219F42290007DEFF01210
:101CC000137590007DE0FFC4540FFFA3F0121CDDDC
:101CD00090007DE0540FFFA3F0121CDD22905120F4
:101CE000E0549FF0E054F0F0E0FEEF4410FFEE4FC0
:101CF000F07F017E00121B70905120E054EFF02223
:101D00007B0C7A0179CF121F2AEF540790586EF09E
:101D1000EFC4540FA3F09058767444F022EC4D6059
:101D200011ED60010C8B938A838982E4F0A3DDFCC2
:101D3000DCFA75930022EF54016004D2AF8002C236
:101D4000AFEF5402FF9044F4E054FD4FF022904472
:101D5000F4E0F84402F0E85402FF10AF01227401ED
:101D60004FFF228B938A838982E0FFA3E0FEA3E0EA
:101D7000FDA3E0FC759300228B938A838982EFF0A8
:101D8000A3EEF0A3EDF0A3ECF0759300222566001E
:101D90002F2F00454C45333032204361726C616215
:101DA00000121FF57E1A7FFE121E797F07121F4256
:101DB000121FEE2290013AE0700912181590013AB4
:101DC0007401F0121F1E2290013CE07009121C20C9
:101DD00090013C7401F0121FCE2290013DE0700989
:101DE000121BCA90013D7401F0121FD62290013ED1
:101DF000E07009121BF590013E7401F0121FDE2203
:101E000090013FE07009121A3490013F7401F01202
:101E10001FE622900140E07009121C4890014074B6
:101E200001F0121AFF221220037E1B7F6F121EDBAD
:101E30007F07121FBA121FFC221220117E207F3F43
:101E4000121EE97F07121FC412200A229043A2E04B
:101E50004404F09043B2E04404F0229043A2E044F2
:101E600002F09043B2E04402F0228B938A8389828D
:101E7000EDF0A3ECF0759300227B027A447900AD7B
:101E800007AC06121E6C227B027A64790EAD07AC99
:101E900006121E6C227B027A64794EAD07AC0612E4
:101EA0001E6C227B027A64792EAD07AC06121E6C82
:101EB000227B027A64790CAD07AC06121E6C227B81
:101EC000027A64794CAD07AC06121E6C227B027A52
:101ED00064792CAD07AC06121E6C227B027A447921
:101EE00002AD07AC06121E6C227B027A447904AD67
:101EF00007AC06121E6C2212201EEF30E305121FE3
:101F00006080F42212202AEF30E605121F7E80F452
:101F100022122036EF30E305121FA680F4227F0C38
:101F2000121CBA90013B7401F0228B938A83898240
:101F3000E0759300FF228B938A838982EDF075937D
:101F40000022EFC43354E0904480F0227B027A6593
:101F50007924121D65227B027A657924121D7A226A
:101F60007B027A657944121D65227B027A657904C9
:101F7000121D7A227B027A647900121D7A227B027A
:101F80007A647940121D65227B027A647920121DE1
:101F90007A227B027A647930121D7A227B027A647B
:101FA0007924121D7A227B027A647944121D6522FB
:101FB0007B027A647904121D7A22EFC43354E090D4
:101FC0004481F022EFC43354E0904482F0229065C3
:101FD00074E04480F02290647FE04480F0229064BA
:101FE0007CE04480F022906471E04480F0229044D0
:101FF000C07401F0229044C87401F0229044C0746F
:1020000002F0229044C87402F0229044C07404F09C
:10201000229044C87404F022906587EFF022906506
:1020200067E0FF22906483EFF022906463E0FF2278
:10203000906484EFF022906464E0FF2280FE2232FC
:10204000005110001000515000200051F00010010C
:102050000000100001140008000140000A00014CBB
:08206000000200015000002005
:00000001FF
