:400000000215BF008F828E83E0540100000070F82278FFE4F6D8FD02161D0203DBE86480F8E933E83360110460F0ED33EC337009E8FCE9FDEAFEEBFF220460DED3EB9FEA0F
:400040009EE99DE8C2E78CF0C2F795F0400CE8CCF8E9CDF9EACEFAEBCFFB1203A685D0F05804700320D5B3E80470075002B2D50203E592D5EC0460F7E4CCC0E0C398F860B5
:400080003B94186008400DD0E0FB0203BDE4FBFAC9FC8028E830E406E4C9FBE4CAFCE830E305E4C9CACBFCE854076010F8C3E913F9EA13FAEB13FBEC13FCD8F130F52FC331
:4000C000E49CFCEF9BFFEE9AFEED99FDD0E0FBEF4E4D4C701222DB030203E2EC2CFCEF33FFEE33FEED33FDED30E7EB0203BDEF2BFFEE3AFEED39FDD0E0FB50130BBB0003AD
:400100000203E5ED13FDEE13FEEF13FFEC13FC0203BDEC4D6011E8497017ED33EC3304600DE4FCFFFEFD22E933E8330470F80203DB1203A658046009E4CC248150062850E7
:40014000090203E52840030203E2C0E0EB4A7044B98006D0E0FB0203D1EF4E701CBD8008EBFFEAFEE9FD80EBE98DF0A4FEE5F00201FBE9CDF9EAFEEBFFEF89F0A4FCE5F087
:40018000CE89F0A42EFFE435F0CD89F0A42DFEE435F08067EF4E7005BD80D780C3EF8BF0A4ACF0EE8BF0A42CFCE435F0F8EF8AF0A42CE5F038FCE433CB8DF0A42CFCE5F0EE
:4001C0003BF8EE8AF0A42CFCE5F038F8E433CF89F0A42CFCE5F038CF3400CE89F0A42FFFE5F03EFEE433C98DF0A42EFEE5F039CD8AF0A42FFFE5F03EFEE43DFD33D0E0FBCD
:4002000050070BBB000F0203E5EC2CFCEF33FFEE33FEED33FD0203BD0203E5EC5D046005E8590470030203DB1203A6580460F6EC4860F2EC7004FDFEFF22C860DB2481C862
:400240005009C398600250060203E29850CAF582E9294B4A7005AB820203D175F0007C1A7880C3EF9BEE9AED99400DC3EF9BFFEE9AFEED99FDE842F0DC23ACF0D0E0FFD0BF
:40028000E0FED0E0FDAB8220E7101BEB60BAEC2CFCEF33FFEE33FEED33FD0203BDE803F830E705C0F075F000EF2FFFEE33FEED33FD40B830E7C280AA74F8CC6480CCC864A0
:4002C00080C8F58204604FC3EB9FF5F0EA9E42F0E99D42F0E89C45F0603C501DE5825FFFE582D313CB5BCBF42B5582FB50280ABA002409B9002008801DE5825BFBE582D354
:4003000013CF5FCFF4C3132F5582FF50090EBE00050DBD00010CC3EB9FF5F0EA9E42F0E99D42F0E89C45F06007CC4820E701B3EC2275F020800E75F010800575F0087D0045
:400340007E007F003392D530D50312078BEC334010EF33FFEE33FEED33FDEC33FCD5F0ED22E5F0247EA2D513CC92E7CDCEFF22EDD2E7CD33EC3392D524814006E4FFFEFD88
:40038000FC22FCE4CFCECDCC24E0501174FF80EDC3CC13CCCD13CDCE13CECF13CF0470F030D5DE02078BE9D2E7C933E833F892D5EDD2E7CD33EC33FC5002B2D522EC30E797
:4003C000100FBF000C0EBE00080DBD00040BEB6014A2D5EB13FCED92E7FD2274FFFCFDFEFF22E480F8A2D574FF13FC7D80E480EFF920E73624F950037907E4F42402FBE5DD
:4004000082158270021583DBF6E024FB501BE96014E4F0E582158270021583E004F0B40A08E4F0D9EE7401F00A22C2D522ED33EC3392D5FA602AB4FF33EDC2E77BFF600620
:400440007A047952E4227A04795B20D5047A047956224E614E002B494E46002D494E4600E47A08F0A3DAFC7B00740722C083C082ECC0E0EDC0E0EEC0E0EFC0E0EA75F01063
:40048000A4CAABF075F04DA42BFBE435F0FCEA2410FAEB34C5FBEC34D9FCEDC2E7FF75F056A4F42411C5F0F434C58FF0A42AE5F03BE43CF020E714120562D0E0FFD0E0FEA9
:4004C000D0E0FDD0E0FC12021B8014F404120562D0E0FFD0E0FED0E0FDD0E0FC120112D082D083E0FAEDD2E7CD33EC332482FBE4C3CF33CFCE33CECD33CD33DBF37B0775A3
:40050000F00A846004F0A31B0AE5F0F0A38FF0740AA4FFACF08EF0740AA42CFEACF050010C8DF0740AA42CFDE435F0F0A3DBDE7407223F8000004120000042C80000447A18
:400540000000461C400047C35000497424004B1896804CBEBC205A0E1BCA6753C21C749DC5AEFB60065407601C2323120590EB5438600912057C12058B120112ECF8EDF9AD
:40058000EEFAEFCB22EB12058B80F1543803241C900532FE93FC0EEE93FD0EEE930ECE93FF22BB010689828A83E0225002E722BBFE02E32289828A83E49322BB010CE582D4
:4005C00029F582E5833AF583E0225006E92582F8E622BBFE06E92582F8E222E58229F582E5833AF583E49322BB010689828A83F0225002F722BBFE01F322C2D5EC30E7098B
:40060000B2D5E4C39DFDE49CFCEE30E715B2D5E4C39FFFE49EFE1208C0C3E49DFDE49CFC80031208C030D507C3E49FFFE49EFE22C5F0F8A3E028F0C5F0F8E58215827002C4
:400640001583E038F022EF2BFFEE3AFEED39FDEC38FC22C3EF9BFFEE9AFEED99FDEC98FC22E88FF0A4CC8BF0A42CFCE98EF0A42CFC8AF0EDA42CFCEA8EF0A4CDA8F08BF0AD
:40068000A42DCC3825F0FDE98FF0A42CCD35F0FCEB8EF0A4FEA9F0EB8FF0A4CFC5F02ECD39FEE43CFCEAA42DCE35F0FDE43CFC2275F008758200EF2FFFEE33FECD33CDCC87
:4006C00033CCC58233C5829BED9AEC99E58298400CF582EE9BFEED9AFDEC99FC0FD5F0D6E4CEFBE4CDFAE4CCF9A88222B800C1B90059BA002DEC8BF084CFCECDFCE5F0CBEB
:40070000F97818EF2FFFEE33FEED33FDEC33FCEB33FB10D703994004EB99FB0FD8E5E4F9FA227818EF2FFFEE33FEED33FDEC33FCC933C910D7059BE99A4007EC9BFCE99A78
:40074000F90FD8E0E4C9FAE4CCFB2275F010EF2FFFEE33FEED33FDCC33CCC833C810D7079BEC9AE899400AED9BFDEC9AFCE899F80FD5F0DAE4CDFBE4CCFAE4C8F922EF4B8A
:40078000FFEE4AFEED49FDEC48FC22C3E49FFFE49EFEE49DFDE49CFC22EB9FF5F0EA9E42F0E99D42F0E89C45F022E8600FECC313FCED13FDEE13FEEF13FFD8F122E8600F8E
:4007C000EFC333FFEE33FEED33FDEC33FCD8F122E0FCA3E0FDA3E0FEA3E0FF22E0F8A3E0F9A3E0FAA3E0FB22BB010789828A830207DC5005E9F8020915BBFE05E9F8020921
:400800002289828A8302092FECF0A3EDF0A3EEF0A3EFF022E0FBA3E0FAA3E0F922F8E0FBA3A3E0F925F0F0E582158270021583E0FA38F022EBF0A3EAF0A3E9F022E493FB42
:40084000740193FA740293F922D083D082F8E4937012740193700DA3A393F8740193F5828883E4737402936860EFA3A3A380DFE5162582F582E5153583F583B51504858265
:40088000162210AF06858216F51522858216F515D2AF22EC8EF0A4CCC5F0CCCDF8EFA4CEC5F02DFDE43CFCE8A42EC8C5F03DFDE43CFCEFA4FFE5F028FEE43DFDE43CFC2236
:4008C000BC000BBE0029EF8DF084FFADF022E4CCF875F008EF2FFFEE33FEEC33FCEE9DEC984005FCEE9DFE0FD5F0E9E4CEFD22EDF8F5F0EE8420D21CFEADF075F008EF2F59
:40090000FFED33FD4007985006D5F0F222C398FD0FD5F0EA22E6FB08E6F908E6FA08E6CBF822E2FB08E2F908E2FA08E2CBF822E493F8740193F9740293FA740393FB22E5E0
:400940000D249AF582E43400F583E0050D2290009730100390009AE475F00112081D0205A22009E97F2ED2098018EF540F2490D43440D4FF300D0BEF24BFB41A0050032421
:4009800061FFE50E6002150E0511E5117002051030100E900097E475F00112081DEF0205E8021EA57403D2108003E4C210F50D900097120834E4F50EF510F511E50E6007DE
:4009C0007F2012098280F5750FFFC20AC209C20BC20CC20EC20FC21112094EFF700D3010057F00120993AF11AE1022B4255FC2D5C20D12094EFF24D0B40A00501A75F00A95
:400A0000780E30D50508B6FF0106C6A426F620D5047002D20C80D924CFB41A00EF5004C2E5D20D020C85D20A80C6D20980C0D20B80BCD2D580BAD20E80B47F201209822076
:400A40000B077401B50E0040F112093FFF1209820209BCD211D20F809512093FFB12093FFA12093FF94A4B700679837A0D7BFF200B2EE50E602A7E008E827583001205BB33
:400A800060060EEE650F70F0C2D5EBC0E0EAC0E0E9C0E0EE120CE6D0E0F9D0E0FAD0E0FB1205A2FF60AAEBC0E0EAC0E0E9C0E0120982D0E02401F9D0E03400FAD0E0FBE5A2
:400AC0000F0460DCD50FD98087D20B80A2120CC860F7E50F7001041203F0A90F600DE50F600914F50F120D70EF60F3EA30E702F404C3995079EAF4250F0430E701E404F5A3
:400B00000F800D120CC860C1EA050F250F1203F0EA9000C6F030E701E4250F04D50F04200E0114120CE6E4C0E0120D709000C6E0601320E70714F012096A802204F0D0E0AF
:400B400014C0E07F0012096AE50F6007120961150F800B300E03120961D0E00209BCD0E00480C4120CC8609EE50F041203F09000C6EAF0E50F200E026001042404120CE645
:400B800074FF04C0E0120D7012096AE50F200E026003120961D0E0B50FE87F451209749000C6E07F2B30E7047F2DF404C0E0120982D0E075F00A84C0F012096BD0E01209D8
:400BC0006B0209BC791080027908C20FC2118008D2D5790A8004790AC2D5E50F047002F50FE4FAFDFEFF12093FFC7B08200A1312093FFD7B1030090A12093FFE12093FFF11
:400C00007B20EC3382D592D55013C3E43009069FFFE49EFEE4200A039DFDE49CFCE4CBF8C20AEC700CCFCECDCCE824F8F870F38017C3EF33FFEE33FEED33FDEC33FCEB334E
:400C4000FB994002FB0FD8E9EB300A05F8D0E0C448B20AC0E00AEC4D4E4F78207B0070C2EAB50F0040BCC0E0120CE8D0F0D0E0200A04C4C0E0C4B20AC0F012096BD0F0D5D7
:400C8000F0EB0209BC1208490A59530BC4580A2A4C0A26420BC84F0BD0440BD0490A3F430BD6550B03460B63450ACD470DA3500A2E2D0A322E0A552B0A36230A53200D8C42
:400CC0002A09EE4800000A4DE50FB4FF03750F0612093FFC12093FFD12093FFE12093FFF9000BF02042D790AA2D5200C14300E09B910020404B9080104A2D5200F0250010D
:400D000004200B68920BB50E005034C0E07F20300C197F30A20B720F720E500F120D3FC20BC20FC20EC2117F30800F300E03E9C0E0120982300E03D0E0F9D0E0B50ECC304B
:400D40000E177F30B9100C1209827F58300D077F788003B90803120982300B057F2D0209827F202011F87F2B200FF322920B80CF7F00B40700500B24BFF582E43400F5839D
:400D8000E0FF22286E756C6C2900D20A12093F300AF8C20A780E30D50108F60209EE2D5043495812093F2403B405004001E4900D9E93120973743A120973D20C750E0402B0
:400DC0000BC4C0E0C0F0C083C082C085C084C086758600C093759300C0D075D000C000C001C002C003C004C005C006C007E4FFFEFDFC900025120808E4FFFEFDFC900029F5
:400E0000120808E4FFFEFDFC90002D120808E4FFFEFDFC900031120808E4FFFEFDFC900035120808E4FFFEFDFC90004812080890004CE4F0A3F090011AE07004A3E064015B
:400E40007017122094E412033190013412080890011AE4F0A3F00210CC122094E41203319000251208089000251207D09001341207DC1202B850269001341207DCC000C089
:400E800001C002C0031221EBE4120331D003D002D001D0001200219001341208089000251207DC9001341207D012001D9000291208081221EBE4120331A804A905AA06ABA5
:400EC000079000291207D012021B7BFE7AF479B2784312011290002D1208089000291207D0C004C005C006C007900118E0FEA3E0FF7C007D051205FAEDAE047802C333CE9C
:400F000033CED8F92420F58274013EF583D007D006D005D004120808900118E475F001120630121B1590013C1208089000251207D090013412080890013C1207DC7F337E9E
:400F4000337D437C4012001D9000311208089001461207DCC000C001C002C00390002D1207D09000311207DC120112D003D002D001D000120021900146120808900118E062
:400F80007004A3E0641C700AFFFEFDFC9001461208087F007E107DA47C459000311207DC120112E4FBFA79617844120021C004C005C006C007E4FFFE7DFA7C4390003112E5
:400FC00007DC12011290002D1207DC12021BD003D002D001D0001200219000481208087F01121EEFE4FDFF121C827BFF7A1F79C290009A1208349000311207D090009D12B7
:4010000008087B017A0079391209A47B017A007939121CC17BFF7A1F79C5121CC17BFF7A1F79C290009A120834E4FFFE7DFA7C439000311207DC12011290002D1207DC12E6
:40104000021B90009D1208087B017A0079391209A47B017A007939121CC1E4FFFE7D7A7C459000481207DC1202B86010400E7F007EC07DA87C44900048120808E4FFFEFD9C
:40108000FC9000481207DC1202B86002500DE4FFFE7D807C3F9000481208089000481207D012036F90004CEEF0A3EFF0E4FD7F01121C8290004CE0FEA3E0FFE4FCFD121874
:4010C0006090004CE0FEA3E0FF122118D007D006D005D004D003D002D001D000D0D0D093D086D084D085D082D083D0F0D0E032C0E0C0F0C083C082C085C084C08675860085
:40110000C093759300C0D075D000C000C001C002C003C004C005C006C0071222E79001421207D090007E12080890014C1207DCC000C001C002C0037FA47E8C7D387C37905F
:40114000007E1207DC120112D003D002D001D00012002190014C120808E4FFFE7DC87C4290007E1207DC1201127B007A80798E7845120021C004C005C006C007E4FFFE7D73
:40118000487C4290014C1207DC120112D003D002D001D0001200219000821208087F01121EEFE4FDFF121C827BFF7A1F79C290009A12083490007E1207D090009D1208084A
:4011C0007B017A0079881209A47B017A007988121CC17BFF7A1F79C5121CC1E4FFFE7DAF7C459000821207DC1202B8600F400DE4FFFE7DAF7C45900082120808E4FFFE7D56
:40120000617C459000821207DC1202B86002500DE4FFFE7D617C459000821208089000821207D012036F900086EEF0A3EFF0E4FD7F01121C82900086E0FEA3E0FFE4FCFDED
:40124000121860900086E0FEA3E0FF122142D007D006D005D004D003D002D001D000D0D0D093D086D084D085D082D083D0F0D0E0327B007A4679E81221C9EF4405FD7B00CC
:401280007A4679E81221D5E4F514E514C3940A502CE51475F005A424F1F582E43422AF82F5128F13F58312083D8F82851283740393FC740493FD121F52051480CD7B087AAD
:4012C000007900121DD17B017A5079031221C9EF4402FD7B017A5079031221D57B017A5079131221C9EF4402FD7B017A5079131221D59043A0E04440F09043C2E04410F061
:401300007B087A047954C003C002C0017B007A5179C29000CC120834D001D002D0037F087E00121D707B087A04795CC003C002C0017B007A5179229000CC120834D001D00C
:4013400002D0037F087E00121D707B087A047964C003C002C0017B007A5179429000CC120834D001D002D0037F087E00121D709044F47401F0904322E04408F09046ECE02B
:40138000C394055006904689743AF090480074F1F01213BE90480074B1F0121F357B007A4379A0C00179B09000CC120834D0017F0E7E00121D709043B0E054FDF0227B007A
:4013C0007A4079807D017C001220DF9040827418F07B007A4079847D077C001220DF9040867418F07B007A4079887D177C001220DF90408A7418F09043007402F090400016
:401400007408F09042007403F07B0C7A0179081221C99046A1EFF07B007A4279227D087C001220DF7B007A4279207D517C121220DFE49000CBF07F19FEFDFC9000C71208E2
:40144000089000C71207D0D3EF9400EE9400403B9000CBE0FF64036032904225E05401FEEF25E04E54039000CBF0E47FE07E01FDFC121D009000C71207D074FFFBFAF9F80D
:401480001206469000C712080880B69000C71207D0EF4E70057F03121CFD7B007A4079047D007C011220DF9040047407F0904006E4F09040087448F0904004E4F0904001DD
:4014C0007402F09043A2E04407F022E47F947E01FDFC9000D1120808905120E05480F0905122E054F09000D0F0E0440F905122F0A3E054F09000D0F0E0905123F0A3E054DE
:40150000F09000D0F0E0905124F0905120E054DFF0E04440F0E4FFFE121DA4905120E04410F07F017E00121DA4905121E09000D0F0905120E054EFF0E4FFFE121DA490000A
:40154000D0E05408F0905120E04410F07F017E00121DA4905120E054EFF09000D0E070067F0AFE121DA49000D11207D074FFFBFAF9F81206469000D11208089000D0E06031
:401580000DA31207D0D3EF9400EE94005087905120E054BFF0E05480F0905122E054F0F0A3E054F09000D0F0E0440F905123F0A3E054F09000D0F0E0440F905124F0227530
:4015C000930078007583467582E8E04401F0009046ECE0F99046FAE0FAB903225420B40012B8001AEA901FFFF07401901FFEF09046F6F0901FFEE06005901FFFE0FA9048D7
:401600000074C0F075812290000078007920E4F0A3D8FCD9FAEA90015DF002001175151F7516FD121271021664021A23E493A3F8E493A34003F68001F208DFF48029E49380
:40164000A3F85407240CC8C333C4540F4420C8834004F456800146F6DFE4800B0102040810204080901905E47E019360BCA3FF543F30E509541FFEE493A360010ECF54C028
:4016800025E060A840B8E493A3FAE493A3F8E493A3C8C582C8CAC583CAF0A3C8C582C8CAC583CADFE9DEE780BEC0E0C0F0C083C082C085C084C086758600C093759300C067
:4016C000D075D000C000C001C002C003C004C005C006C0071222E1122227E4FCFD900000120808122227E4FCFD90000412080812226B900140E07002A3E07022900140F034
:40170000A304F09000001207DC9000041207D0120653E41203319001381208088035900140E4F0A3F09000001207DC9000041207D0120653E4120331900150120808900178
:40174000501207DC9001381207D012001D9001421208087F01121EEF9001421207D012036FE4FCFD121860D007D006D005D004D003D002D001D000D0D0D093D086D084D0EF
:4017800085D082D083D0F0D0E032900052120834E4FFFEFDFC900055120808E4FFFEFDFC900059120808E47F05FEFDFC90005D120808900118E0FEA3E0FFC39405EE6480C2
:4017C0009480500CEE3395E0FDFC90005D120808E4FFFEFDFC90005912080890005D1207D09000591207DCC312079950579000551207D0C004C005C006C007E47F04FEFDE0
:40180000FC9000591207DC120661900052120814E92FF9EA3EFAEB3DFB1207E8D007D006D005D0041200219000551208089000591207D0E47B01FAF9F812064690005912E8
:401840000808809790005D1207D0E4120331A804A905AA06AB079000551207D012021B229000971208089000A7740AF0E0249CF582E43400F583E4F09000A7E014F0900052
:40188000971207D0C3EF940AEE94004043E47B0AFAF9F89000971207D01206ECEB2430FF90009BF09000A7E0249CF582E43400F583EFF09000971207D0E47B0AFAF9F8125F
:4018C00006EC9000971208089000A7E014F080AEE47B0AFAF9F89000971207D01206ECEB2430FF90009BF09000A7E0FE249CF582E43400F583EFF0749C2EF9E43400FA7B24
:4019000001121CC1224401340000000042011A0001420118000044013C000000004401460000000044014C0000000042014A000042014000004401380000000044015000A4
:401940000000004401420000000042011C000042011E0000440159016E360044015400005DC04101581844015E2EE0000041016800410167004101690041016A0041016B6D
:401980000041016C0041016D0041016E0043016200000041016F0000C0E0C0F0C083C082C085C084C086758600C093759300C0D075D000C000C001C002C003C004C005C0A5
:4019C00006C0071222BDC390011DE0940290011CE064809480500312206E12225BC390011DE0940290011CE06480948050081220357F501222D590011CE475F001120630F9
:401A0000D007D006D005D004D003D002D001D000D0D0D093D086D084D085D082D083D0F0D0E032E49000C7F0A3F0D2AF9044F474FDF0121FFC121FD67E0D7FC21220EE1227
:401A4000205B7E1B7FE512215E1220487E197F981221501220817E167FA912218812200F1220A37FE87E031221181220221220B27F107E0E122142E47FE87E03FDFC121B85
:401A8000807FD07E11122142E47FE87E03FDFC121B80121FE9E4FDFF121C827BFF7A1F79C8121CC180FE22E47F28FEFDFC121B807F03121F12E47F05FEFDFC121B807F03D2
:401AC000121F12E47F0FFEFDFC121B807F03121F12E47F01FEFDFC121B807F02121F12E47F05FEFDFC121B807F06121EEF7F0E121EEF7F2C121EEF7F08121EEF7F01121E80
:401B0000EF7F0C121EEF7F03121EEFE47F05FEFDFC121B8022E4FFFEFDFC90004E1208087B017A01792012178A90004E1208081221EBE4120331A804A905AA06AB0790008C
:401B40004E1207D012021B7BFE7AF479B2784312011290004E12080890004E1207DC7F717E3D7DCA7C3F12021BE4FBFA7940784112021B90004E12080890004E1207D022FB
:401B800090FFFC12086F1208088515838516821207D0D3EF9400EE9480402E90015E1207D0121D00851583851682C083C0821207D0E42FFFEE3480FEED34FFFDEC34FFFC6D
:401BC000D082D08312080880C09001541207D08515838516821207DC120661121D0090000412086F22C0E0C0F0C083C082C085C084C086758600C093759300C0D075D0002B
:401C0000C000C001C002C003C004C005C006C0071220357F141222D590011CE4F0A3F0D007D006D005D004D003D002D001D000D0D0D093D086D084D085D082D083D0F0D09E
:401C4000E0329000D0EFF0905120E04420F0E054BFF0E4FFFE121DA4905120E054F0F0C083C082E0FF9000D0E04410FEEF4ED082D083F07F017E00121DA4905120E054EF75
:401C8000F0229000C9EDF0EF14601514601D1460252403702B9000C9E02480FF121EEF229000C9E024C0FF121EEF229000C9E02494FF121EEF229000C9E024D4FF121EEF7E
:401CC000229000C91208349000CC7401F01205A29000CDF09000CDE0FF6021121ECC9000C91208149000CCE029F9E43AFA1205A29000CDF09000CCE004F080D82280FE224E
:401D0000EC4D4E700D78FCEF24E950032840FD2200007BF178DA0000EF28FF78FFEE38FEED38FDEC38FC50E7EF2BFFEE38FEED38FDEC38FC40F22205020304906471E054F3
:401D4000F8FFF0E054FCFFF01221A37FFF1222CFE4FF1222C3E4FF1222B71222BD7F501222D5121F83906491E04410F0121F6B22758600EF4E6027EF60010E7593009000C5
:401D8000CCE0F595A3E0F585A3E0F5848B938A838982E0A30586F0A31586DFF6DEF4E4F593F59522EEFA900158E0F88FF0A4FFAEF0E88AF0A42EFEE5F03400FDEF24C9FF47
:401DC00078FFEE38FEED38FDE438FC5003021D0022ACEAADA08B938A838982E0F96017A3E0F5EAA3E0F5A0A3E060F4FAA3E0F8A3E0F2DAF8D9E98DA08CEAE4F5932290641D
:401E000073E054C0FF4409F0906492E04401F0A3E04401F07F107E271220FC7F107E2712210AE4FFFE12211822906475E054C0FF4409F0906494E04401F0A3E04401F07F1E
:401E4000607EEA1221267F607EEA122134E4FFFE1221422274FFFFFE12216C74FFFFFE12217A121F83906497E04410F0121F6B7F011220C11221B07F021222DB2274FFFF76
:401E8000FEFDFC1221F574FFFFFEFDFC122209121F83906597E04410F0121F6B122196E4FF1222AB22EFB40A07740D121EB0740A309811A899B8130CC2983098FDA899C20A
:401EC00098B811F63099FDC299F599229000CEEFF01214CB9000CEE0FFC4540FFFA3F0121C429000CEE0540FFFA3F0121C42229000CAEFF01214CB9000CAE0FFC4540FFFD8
:401F0000A3F0121F129000CAE0540FFFA3F0121F1222905120E0549FF0E054F0F0E0FEEF4410FFEE4FF07F017E00121DA4905120E054EFF0227B0C7A0179CF1221C9EF5482
:401F40000790586EF0EFC4540FA3F09058767444F022EC4D6011ED60010C8B938A838982E4F0A3DDFCDCFA75930022EF54016004D2AF8002C2AFEF5402FF9044F4E054FD60
:401F80004FF0229044F4E0F84402F0E85402FF10AF012274014FFF228B938A838982E0FFA3E0FEA3E0FDA3E0FC759300228B938A838982EFF0A3EEF0A3EDF0A3ECF075938A
:401FC00000222566002F2F00454C45333032204361726C61620012227A7E227FED1220EE7F071221E112227322900167E07009121AA79001677401F01221BD22900169E05C
:402000007009121E7D9001697401F012223B2290016AE07009121DFE90016A7401F01222432290016BE07009121E2990016B7401F012224B2290016CE07009121D3B90010F
:402040006C7401F0122253221222887E227FEE1221507F07122213122281221222967E227FEF12215E7F0712221D12228F2290016DE07009121E5490016D7401F0122263FC
:40208000221222A47E227FF01221887F0712223112229D22906504E0FF7B027A657944121F9A229043A2E04404F09043B2E04404F0229043A2E04402F09043B2E04402F02E
:4020C00022EF5403FF906477E054FCF0E04FF0228B938A838982E0FFA3E0FE759300228B938A838982EDF0A3ECF0759300227B027A447904AD07AC061220E1227B027A6483
:402100007902AD07AC061220E1227B027A647942AD07AC061220E1227B027A647922AD07AC061220E1227B027A647904AD07AC061220E1227B027A647944AD07AC06122024
:40214000E1227B027A647924AD07AC061220E1227B027A447900AD07AC061220E1227B027A447902AD07AC061220E1227B027A647926AD07AC061220E1227B027A647906BA
:40218000AD07AC061220E1227B027A447906AD07AC061220E1221222B1EF30E3051221FF80F4221222BDEF30E6051222C980F4221222E1EF30E30512222780F4227F0C1243
:4021C0001EEF9001687401F0228B938A838982E0759300FF228B938A838982EDF075930022EFC43354E0904482F0227B027A657924121F9A227B027A657924121FAF227BF8
:40220000027A657944121F9A227B027A657904121FAF22EFC43354E0904480F022EFC43354E0904481F0227B027A6479461220D222EFC43354E0904483F022906574E044E7
:4022400080F022906473E04480F022906475E04480F022906471E04480F022906471E0547FF022906477E04480F022906477E0547FF0229044C07404F0229044C87404F0D8
:40228000229044C07401F0229044C87401F0229044C07402F0229044C87402F0229044C07408F0229044C87408F022906587EFF022906567E0FF22906481EFF0229064618D
:4022C000E0FF22906401EFF022906441E0FF22906421EFF022906431EFF022906487EFF022906467E0FF22904F03E0FF2232323232004F00000C0051000020005130001095
:4023000000515000200051F00010010000100001140008000140000A00014C0002000150000020000000000000000000000000000000000000000000000000000000000052
:40234000000000000000000000000000000000000000000000000000000000000000000000000000000000000000000000000000000000000000000000000000000000005D
:40238000000000000000000000000000000000000000000000000000000000000000000000000000000000000000000000000000000000000000000000000000000000001D
:4023C00000000000000000000000000000000000000000000000000000000000000000000000000000000000000000000000000000000000000000000000000000000000DD
:40240000000000000000000000000000000000000000000000000000000000000000000000000000000000000000000000000000000000000000000000000000000000009C
:0200000480007A
:4000000016004F0201800A4B0052032080241C64040064028167870F006501870D01003383038E0C9203940198049901A904AE01B004B202B302B408B501B601B704B9023C
:40004000BE41BF51C010C104C50CC620C74EC83BC9FFCAFFCBFFCDA0CF01D018D280D407D804D904DA04DB04DC99DD99DF01E040E280E440E540E680E840EA50EBA8EC40CD
:40008000ED20EE50EFA801012106020E280F8017401D801E682502271A2F0837103F0245824F06560A57105E405F18633066086704774082048D02C080C270C480CA20CC31
:4000C00020CE80D090D670D860E6100102344060410249FF4AFF4BFF4DA04F0450185A045D025F01604062C06440654066C068C06AC06CC06EC09203A602B202B401C020A1
:40010000C106C501C702C811C9FFCAFFCBFFCDAFCE0FCF04D018D280D804DA04DB04DC02DD22DF01E040E2C0E440E540E6C0E8C0EAC0ECC0EEC00103150902102018041993
:40014000081B104004460448284F205008520471028508AB40AF02B308C208C404D024D224E8200104344030410249FF4AFF4BFF4DA04F0450185A045D015F01604062C009
:400180006440654066C068C06AC06CC06EC09A02AE03B002B201C030C102C501C620C809C9FFCAFFCBFFCDAFCE0FCF04D018D280D804DA04DB04DC01DD11DF01E040E2C07B
:4001C000E440E540E6C0E8C0EAC0ECC0EEC001050F0F0817801C901D084010412045284F08552077808840C240C480D066E6200106514041420649FF4AFF4BFF4F015018F1
:400200005A045D095F016040624064406540668068806A806C806E8080048202853087C9883089308BC38D558E018FA0920794109550962097AE9840A030A402A60CA8103C
:40024000AA20ABFFB001B270B30FB406B5F0B608BA0CBB08BE11C054C202C5ECC720C823C9FFCAFFCBFFCD83CE03CF01D018D283D403D604D804D904DA04DB04DC99DD990A
:40028000DF01E040E240E440E540E680E880EA80EC80EE8001072E00010201030809080A040B401008130A180119201A441B08210C221029203308395841014204468149FE
:4002C000054B404D205101520159055A606380680869506B027280734083409B08AF08C00BC20EC40ECA04CC02CE0ED095D228D60FD801011426404649FF4AFF4BFF4F011B
:40030000501852805A045B045F016040624064406540668068806A806C806E80C046C9FFCAFFCBFFCD83CE03CF01D018DA04DF01E040E240E440E540E680E880EA80EC8022
:40034000EE800115094102450248084C087102A008A502D081D224011630404649FF4AFF4BFF4D834E034F0150185A045F016040624064406540668068806A806C806E805D
:400380009201AA01B601BE40C046C5ECC702C813C9FFCAFFCBFFCD83CE03CF01D018D401D804DA04DB04DF01E040E240E440E540E680E880EA80EC80EE8001170F0902108E
:4003C00008194041024502480849054C0850085945C208C402D081D224D60B014011030205200B2033883540360849404B2058015D0283808C01C0C0C210CCF0D6C0E62077
:4004000001410B850290019C019D02A608AB02AF08B120E610E820EE4001420802406001880190019C01A608C010D6400143058208A608AE40E220E8100150080006010109
:40044000080409010A020B0110011A0101510100FF0000000400000000000000007F7F00000000009CC04000C0000000000000000000000000000000000000000000000072
:40048000000000000000000000000000000000000000000000000000000000000000000000000000000000000000000000000000000000000000000000000000000000003C
:4004C00000000000000000000000000000000000000000000000000000000000000000000000000000000000000000000000000000000000000000000000000000000000FC
:4005000000000000000000000000000000000000000000000000000000000000000000000000000000000000000000000000000000000000000000000000000000000000BB
:40054000000000000000000000000000000000000000000000000000000000000000000000000000000000000000000000000000000000000000000000000000000000007B
:0200000490006A
:0400000000004005B7
:0200000490105A
:04000000BC90ACAF55
:0200000490303A
:02000000E954C1
:0200000490501A
:0C00000000011E02806903011E1469BD8E
:0200000490402A
:4000000000000000000000000000000000000000000000000000000000000000000000000000000000000000000000000000000000000000000000000000000000000000C0
:00000001FF
