:10000000021236008F828E83E0540100000070F8E7
:100010002278FFE4F6D8FD0212940203DBE8648044
:10002000F8E933E83360110460F0ED33EC33700924
:10003000E8FCE9FDEAFEEBFF220460DED3EB9FEA79
:100040009EE99DE8C2E78CF0C2F795F0400CE8CC41
:10005000F8E9CDF9EACEFAEBCFFB1203A685D0F092
:100060005804700320D5B3E80470075002B2D502DB
:1000700003E592D5EC0460F7E4CCC0E0C398F860E7
:100080003B94186008400DD0E0FB0203BDE4FBFA8E
:10009000C9FC8028E830E406E4C9FBE4CAFCE83087
:1000A000E305E4C9CACBFCE854076010F8C3E913C0
:1000B000F9EA13FAEB13FBEC13FCD8F130F52FC37C
:1000C000E49CFCEF9BFFEE9AFEED99FDD0E0FBEF88
:1000D0004E4D4C701222DB030203E2EC2CFCEF339A
:1000E000FFEE33FEED33FDED30E7EB0203BDEF2B0A
:1000F000FFEE3AFEED39FDD0E0FB50130BBB0003E1
:100100000203E5ED13FDEE13FEEF13FFEC13FC020B
:1001100003BDEC4D6011E8497017ED33EC3304601A
:100120000DE4FCFFFEFD22E933E8330470F802031E
:10013000DB1203A658046009E4CC24815006285041
:10014000090203E52840030203E2C0E0EB4A7044E1
:10015000B98006D0E0FB0203D1EF4E701CBD8008D1
:10016000EBFFEAFEE9FD80EBE98DF0A4FEE5F0028D
:1001700001FBE9CDF9EAFEEBFFEF89F0A4FCE5F025
:10018000CE89F0A42EFFE435F0CD89F0A42DFEE455
:1001900035F08067EF4E7005BD80D780C3EF8BF0E0
:1001A000A4ACF0EE8BF0A42CFCE435F0F8EF8AF070
:1001B000A42CE5F038FCE433CB8DF0A42CFCE5F066
:1001C0003BF8EE8AF0A42CFCE5F038F8E433CF8954
:1001D000F0A42CFCE5F038CF3400CE89F0A42FFF3A
:1001E000E5F03EFEE433C98DF0A42EFEE5F039CDF6
:1001F0008AF0A42FFFE5F03EFEE43DFD33D0E0FBA6
:1002000050070BBB000F0203E5EC2CFCEF33FFEEB5
:1002100033FEED33FD0203BD0203E5EC5D04600532
:10022000E8590470030203DB1203A6580460F6ECDD
:100230004860F2EC7004FDFEFF22C860DB2481C838
:100240005009C398600250060203E29850CAF58232
:10025000E9294B4A7005AB820203D175F0007C1A84
:100260007880C3EF9BEE9AED99400DC3EF9BFFEEB4
:100270009AFEED99FDE842F0DC23ACF0D0E0FFD02F
:10028000E0FED0E0FDAB8220E7101BEB60BAEC2C67
:10029000FCEF33FFEE33FEED33FD0203BDE803F860
:1002A00030E705C0F075F000EF2FFFEE33FEED33C1
:1002B000FD40B830E7C280AA74F8CC6480CCC86432
:1002C00080C8F58204604FC3EB9FF5F0EA9E42F0D0
:1002D000E99D42F0E89C45F0603C501DE5825FFFDF
:1002E000E582D313CB5BCBF42B5582FB50280ABAA3
:1002F000002409B9002008801DE5825BFBE582D35C
:1003000013CF5FCFF4C3132F5582FF50090EBE00E9
:10031000050DBD00010CC3EB9FF5F0EA9E42F0E92C
:100320009D42F0E89C45F06007CC4820E701B3EC23
:100330002275F020800E75F010800575F0087D00A4
:100340007E007F003392D530D503120755EC334041
:1003500010EF33FFEE33FEED33FDEC33FCD5F0ED63
:1003600022E5F0247EA2D513CC92E7CDCEFF22ED7C
:10037000D2E7CD33EC3392D524814006E4FFFEFD75
:10038000FC22FCE4CFCECDCC24E0501174FF80EDF4
:10039000C3CC13CCCD13CDCE13CECF13CF0470F07E
:1003A00030D5DE020755E9D2E7C933E833F892D5F4
:1003B000EDD2E7CD33EC33FC5002B2D522EC30E77E
:1003C000100FBF000C0EBE00080DBD00040BEB604B
:1003D00014A2D5EB13FCED92E7FD2274FFFCFDFEA9
:1003E000FF22E480F8A2D574FF13FC7D80E480EF47
:1003F000F920E73624F950037907E4F42402FBE5F9
:1004000082158270021583DBF6E024FB501BE96045
:1004100014E4F0E582158270021583E004F0B40A5A
:1004200008E4F0D9EE7401F00A22C2D522ED33ECD3
:100430003392D5FA602AB4FF33EDC2E77BFF600642
:100440007A047952E4227A04795B20D5047A04791B
:1004500056224E614E002B494E46002D494E460015
:10046000E47A08F0A3DAFC7B00740722C083C08220
:10047000ECC0E0EDC0E0EEC0E0EFC0E0EA75F010E7
:10048000A4CAABF075F04DA42BFBE435F0FCEA24D4
:1004900010FAEB34C5FBEC34D9FCEDC2E7FF75F084
:1004A00056A4F42411C5F0F434C58FF0A42AE5F065
:1004B0003BE43CF020E714120562D0E0FFD0E0FE00
:1004C000D0E0FDD0E0FC12021B8014F4041205629F
:1004D000D0E0FFD0E0FED0E0FDD0E0FC120112D071
:1004E00082D083E0FAEDD2E7CD33EC332482FBE413
:1004F000C3CF33CFCE33CECD33CD33DBF37B0775D4
:10050000F00A846004F0A31B0AE5F0F0A38FF074F6
:100510000AA4FFACF08EF0740AA42CFEACF05001DB
:100520000C8DF0740AA42CFDE435F0F0A3DBDE742E
:1005300007223F8000004120000042C80000447AAA
:100540000000461C400047C35000497424004B186B
:1005500096804CBEBC205A0E1BCA6753C21C749DA9
:10056000C5AEFB60065407601C2323120590EB54B4
:1005700038600912057C12058B120112ECF8EDF9B6
:10058000EEFAEFCB22EB12058B80F1543803241CDA
:10059000900532FE93FC0EEE93FD0EEE930ECE937D
:1005A000FF22BB010689828A83E0225002E722BB38
:1005B000FE02E32289828A83E49322BB010CE58256
:1005C00029F582E5833AF583E0225006E92582F891
:1005D000E622BBFE06E92582F8E222E58229F582C1
:1005E000E5833AF583E49322BB010689828A83F08E
:1005F000225002F722BBFE01F322C5F0F8A3E02847
:10060000F0C5F0F8E582158270021583E038F0221B
:10061000EF2BFFEE3AFEED39FDEC38FC22C3EF9BE9
:10062000FFEE9AFEED99FDEC98FC22E88FF0A4CC49
:100630008BF0A42CFCE98EF0A42CFC8AF0EDA42C09
:10064000FCEA8EF0A4CDA8F08BF0A42DCC3825F0D8
:10065000FDE98FF0A42CCD35F0FCEB8EF0A4FEA9C3
:10066000F0EB8FF0A4CFC5F02ECD39FEE43CFCEAD0
:10067000A42DCE35F0FDE43CFC2275F00875820017
:10068000EF2FFFEE33FECD33CDCC33CCC58233C557
:10069000829BED9AEC99E58298400CF582EE9BFEE8
:1006A000ED9AFDEC99FC0FD5F0D6E4CEFBE4CDFA43
:1006B000E4CCF9A88222B800C1B90059BA002DECE7
:1006C0008BF084CFCECDFCE5F0CBF97818EF2FFF7F
:1006D000EE33FEED33FDEC33FCEB33FB10D7039927
:1006E0004004EB99FB0FD8E5E4F9FA227818EF2FD4
:1006F000FFEE33FEED33FDEC33FCC933C910D705F3
:100700009BE99A4007EC9BFCE99AF90FD8E0E4C911
:10071000FAE4CCFB2275F010EF2FFFEE33FEED3341
:10072000FDCC33CCC833C810D7079BEC9AE899406E
:100730000AED9BFDEC9AFCE899F80FD5F0DAE4CDD0
:10074000FBE4CCFAE4C8F922EF4BFFEE4AFEED4998
:10075000FDEC48FC22C3E49FFFE49EFEE49DFDE423
:100760009CFC22EB9FF5F0EA9E42F0E99D42F0E806
:100770009C45F022E8600FECC313FCED13FDEE1373
:10078000FEEF13FFD8F122E8600FEFC333FFEE3323
:10079000FEED33FDEC33FCD8F122E0FCA3E0FDA339
:1007A000E0FEA3E0FF22E0F8A3E0F9A3E0FAA3E073
:1007B000FB22BB010789828A830207A65005E9F85C
:1007C00002088ABBFE05E9F802089789828A83023B
:1007D00008A4ECF0A3EDF0A3EEF0A3EFF022E0FB11
:1007E000A3E0FAA3E0F922F8E0FBA3A3E0F925F0E7
:1007F000F0E582158270021583E0FA38F022EBF002
:10080000A3EAF0A3E9F022E493FB740193FA7402E3
:1008100093F922D083D082F8E4937012740193701C
:100820000DA3A393F8740193F5828883E473740293
:10083000936860EFA3A3A380DFE5112582F582E52D
:10084000103583F583B510048582112210AF06851B
:100850008211F51022858211F510D2AF22EC8EF0B4
:10086000A4CCC5F0CCCDF8EFA4CEC5F02DFDE43C72
:10087000FCE8A42EC8C5F03DFDE43CFCEFA4FFE578
:10088000F028FEE43DFDE43CFC22E6FB08E6F90826
:10089000E6FA08E6CBF822E2FB08E2F908E2FA08F9
:1008A000E2CBF822E493F8740193F9740293FA749A
:1008B0000393FB22E5082426F582E43400F583E067
:1008C000050822900023300703900026E475F0010C
:1008D0001207E70205A22000E97F2ED2008018EF60
:1008E000540F2490D43440D4FF30040BEF24BFB411
:1008F0001A0050032461FFE50960021509050CE5A3
:100900000C7002050B30070E900023E475F0011205
:1009100007E7EF0205E80217B67403D2078003E485
:10092000C207F5089000231207FEE4F509F50BF560
:100930000CE50960077F201208F780F5750AFFC2F1
:1009400001C200C202C203C205C206C2081208C325
:10095000FF700D3007057F00120908AF0CAE0B22A7
:10096000B4255FC2D5C2041208C3FF24D0B40A0064
:10097000501A75F00A780930D50508B6FF0106C689
:10098000A426F620D5047002D20380D924CFB41A4D
:1009900000EF5004C2E5D204020BFAD20180C6D2A5
:1009A0000080C0D20280BCD2D580BAD20580B47F8C
:1009B000201208F72002077401B5090040F112085F
:1009C000B4FF1208F7020931D208D2068095120846
:1009D000B4FB1208B4FA1208B4F94A4B700679F85D
:1009E0007A0C7BFF20022EE509602A7E008E82753C
:1009F00083001205BB60060EEE650A70F0C2D5EBEF
:100A0000C0E0EAC0E0E9C0E0EE120C5BD0E0F9D053
:100A1000E0FAD0E0FB1205A2FF60AAEBC0E0EAC05A
:100A2000E0E9C0E01208F7D0E02401F9D0E034009A
:100A3000FAD0E0FBE50A0460DCD50AD98087D2024F
:100A400080A2120C3D60F7E50A7001041203F0A9C0
:100A50000A600DE50A600914F50A120CE5EF60F36F
:100A6000EA30E702F404C3995079EAF4250A043025
:100A7000E701E404F50A800D120C3D60C1EA050AA5
:100A8000250A1203F0EA900052F030E701E4250A4B
:100A900004D50A0420050114120C5BE4C0E0120C1A
:100AA000E5900052E0601320E70714F01208DF80A1
:100AB0002204F0D0E014C0E07F001208DFE50A60F5
:100AC000071208D6150A800B3005031208D6D0E0AD
:100AD000020931D0E00480C4120C3D609EE50A0496
:100AE0001203F0900052EAF0E50A200502600104CA
:100AF0002404120C5B74FF04C0E0120CE51208DF42
:100B0000E50A20050260031208D6D0E0B50AE87FA6
:100B1000451208E9900052E07F2B30E7047F2DF466
:100B200004C0E01208F7D0E075F00A84C0F01208A3
:100B3000E0D0E01208E0020931791080027908C2A1
:100B400006C2088008D2D5790A8004790AC2D5E5A0
:100B50000A047002F50AE4FAFDFEFF1208B4FC7BF9
:100B6000082001131208B4FD7B1030000A1208B4EB
:100B7000FE1208B4FF7B20EC3382D592D55013C30C
:100B8000E43000069FFFE49EFEE42001039DFDE4A7
:100B90009CFCE4CBF8C201EC700CCFCECDCCE824A9
:100BA000F8F870F38017C3EF33FFEE33FEED33FD3B
:100BB000EC33FCEB33FB994002FB0FD8E9EB30013F
:100BC00005F8D0E0C448B201C0E00AEC4D4E4F78C1
:100BD000207B0070C2EAB50A0040BCC0E0120C5D88
:100BE000D0F0D0E0200104C4C0E0C4B201C0F012D3
:100BF00008E0D0F0D5F0EB02093112081309CE530A
:100C00000B3958099F4C099B420B3D4F0B45440B38
:100C1000454909B4430B4B550A78460AD8450A4260
:100C2000470D185009A32D09A72E09CA2B09AB237C
:100C300009C8200D012A096348000009C2E50AB469
:100C4000FF03750A061208B4FC1208B4FD1208B4BA
:100C5000FE1208B4FF90004B02042D790AA2D520A1
:100C60000314300509B910020404B9080104A2D51F
:100C70002006025001042002689202B50900503497
:100C8000C0E07F203003197F30A202720672055047
:100C90000F120CB4C202C206C205C2087F30800F18
:100CA000300503E9C0E01208F7300503D0E0F9D0C1
:100CB000E0B509CC3005177F30B9100C1208F77F6A
:100CC000583004077F788003B908031208F7300210
:100CD000057F2D0208F77F202008F87F2B2006F3E0
:100CE00022920280CF7F00B40700500B244BF58284
:100CF000E43400F583E0FF22286E756C6C2900D285
:100D0000011208B43001F8C201780930D50108F6A3
:100D10000209632D504349581208B42403B4050056
:100D20004001E4900D13931208E8743A1208E8D2D7
:100D300003750904020B39C0E0C0F0C083C082C053
:100D400085C084C086758600C093759300C0D07539
:100D5000D000C000C001C002C003C004C005C0066E
:100D6000C007E4FFFE7D437CC490008D1207A612ED
:100D7000002190000F1207D290009B1207A6C0001E
:100D8000C001C002C0037FA47E8C7D387C379000F8
:100D90000F1207A6120112D003D002D001D0001208
:100DA000002190009B1207D2E4FFFE7DC87C429098
:100DB000000F1207A6120112A804A905AA06AB0784
:100DC0007F007E807D8E7C4512001D9000131207EF
:100DD000D2E4FFFE7DAF7C459000131207A61202FD
:100DE000B8600F400DE4FFFE7DAF7C45900013120C
:100DF00007D2E4FFFE7D617C459000131207A61226
:100E000002B86002500DE4FFFE7D617C4590001346
:100E10001207D290001312079A12036F900017EE78
:100E2000F0A3EFF07F01121800E4FDFF1215C77B5D
:100E3000FF7A19796B9000261207FE90009712072F
:100E40009A9000291207D27B017A007919120919A8
:100E50007B017A007919121606E4FD7F011215C78D
:100E60007BFF7A19796B9000261207FE9000891299
:100E7000079A9000291207D27B017A00791912098A
:100E8000197B017A007919121606900017E0FEA36B
:100E9000E0FF1219FED007D006D005D004D003D051
:100EA00002D001D000D0D0D093D086D084D085D0CD
:100EB00082D083D0F0D0E0327B007A4679E8121AF3
:100EC0004DEF4405FD7B007A4679E8121A59E4F5A6
:100ED0000FE50FC39408502CE50F75F005A4243ED0
:100EE000F582E4341BAF82F50D8F0EF583120807EF
:100EF0008F82850D83740393FC740493FD12186331
:100F0000050F80CD7B087A0079001216A57B017A47
:100F1000507903121A4DEF4402FD7B017A50790398
:100F2000121A597B017A507913121A4DEF4402FDBF
:100F30007B017A507913121A599043A0E04440F093
:100F40009043C2E04410F07B087A0579DCC003C00E
:100F500002C0017B007A5179C29000581207FED07E
:100F600001D002D0037F087E001216427B087A056A
:100F700079E4C003C002C0017B007A51792290005D
:100F8000581207FED001D002D0037F087E0012164F
:100F9000427B087A0579ECC003C002C0017B007A6D
:100FA0005179329000581207FED001D002D0037F51
:100FB000087E001216427B087A0579F4C003C0024D
:100FC000C0017B007A5179409000581207FED00191
:100FD000D002D0037F0A7E001216427B017A067986
:100FE000DB7D84121A599044F47401F0904322E09E
:100FF0004408F09046ECE0C394055006904689748E
:101000003AF090480074F1F012103590480074B135
:10101000F01218467B007A4379A0C00179B09000A5
:10102000581207FED0017F0E7E001216429043B088
:10103000E054FDF0227B007A4079807D017C001233
:10104000199B9040827418F07B007A4079847D0768
:101050007C0012199B9040867418F07B007A4079CE
:10106000887D177C0012199B90408A7418F0904379
:10107000007402F09040007408F09042007403F095
:101080007B0C7A017908121A4D9046A1EFF07B0093
:101090007A4279227D087C0012199B7B007A427982
:1010A000207D517C1212199BE4900057F07F19FEAD
:1010B000FDFC9000531207D290005312079AD3EF11
:1010C0009400EE9400403B900057E0FF64036032D0
:1010D000904225E05401FEEF25E04E540390005766
:1010E000F0E47FE07E01FDFC121700900053120730
:1010F0009A74FFFBFAF9F81206109000531207D207
:1011000080B690005312079AEF4E70057F031216B7
:10111000FD7B007A4079047D007C0112199B904090
:10112000047407F0904006E4F09040087448F09092
:101130004004E4F09040017402F09043A2E04407C0
:10114000F022E47F947E01FDFC90005B1207D290B8
:101150005120E05480F0905122E054F090005AF079
:10116000E0440F905122F0A3E054F090005AF0E0D8
:10117000905123F0A3E054F090005AF0E0905124F5
:10118000F0905120E054DFF0E04440F0E4FFFE1224
:101190001678905120E04410F07F017E00121678FE
:1011A000905121E090005AF0905120E054EFF0E48B
:1011B000FFFE12167890005AE05408F0905120E09B
:1011C0004410F07F017E00121678905120E054EF19
:1011D000F090005AE070067F0AFE12167890005BCD
:1011E00012079A74FFFBFAF9F812061090005B12CE
:1011F00007D290005AE0600DA312079AD3EF940033
:10120000EE94005087905120E054BFF0E05480F0FD
:10121000905122E054F0F0A3E054F090005AF0E036
:10122000440F905123F0A3E054F090005AF0E044B2
:101230000F905124F02275930078007583467582D3
:10124000E8E04401F0009046ECE0F99046FAE0FA5C
:10125000B903225420B40012B8001AEA901FFFF01C
:101260007401901FFEF09046F6F0901FFEE06005BE
:10127000901FFFE0FA90480074C0F0758121900043
:101280000078007920E4F0A3D8FCD9FAEA9000EFC6
:10129000F002001175101F7511FD120EB80212DB5D
:1012A000021501E493A3F8E493A34003F68001F24E
:1012B00008DFF48029E493A3F85407240CC8C3334F
:1012C000C4540F4420C8834004F456800146F6DF1E
:1012D000E4800B0102040810204080901320E47E7B
:1012E000019360BCA3FF543F30E509541FFEE49313
:1012F000A360010ECF54C025E060A840B8E493A3DA
:10130000FAE493A3F8E493A3C8C582C8CAC583CA04
:10131000F0A3C8C582C8CAC583CADFE9DEE780BEBC
:1013200044007B00000000420061000142005F00B9
:1013300000440083000000004400910000000044CD
:10134000009B000000004200950000420087000062
:1013500044007F0000000044009F000000004400A3
:101360008D00000000420063000042006500004163
:1013700000FA004100F9004100FB004100FC00417F
:1013800000FD004100FE004100FF004400EB016E43
:1013900036004400E600005DC04100EA184400F059
:1013A0002EE000004300F40000004101000000C0F6
:1013B000E0C0F0C083C082C085C084C0867586004E
:1013C000C093759300C0D075D000C000C001C002AA
:1013D000C003C004C005C006C007121ABF90009722
:1013E0001207D2121ABF9000891207D2121A349033
:1013F00000891207A690009712079A12061DE412A0
:10140000033190008D1207D2121B37D007D006D0BF
:1014100005D004D003D002D001D000D0D0D093D0DA
:1014200086D084D085D082D083D0F0D0E032E47FE3
:1014300028FEFDFC12149C7F03121823E47F05FE96
:10144000FDFC12149C7F03121823E47F0FFEFDFCA9
:1014500012149C7F03121823E47F01FEFDFC12147A
:101460009C7F02121823E47F05FEFDFC12149C7F72
:10147000061218007F0E1218007F2C1218007F0829
:101480001218007F011218007F0C1218007F03123F
:101490001800E47F05FEFDFC12149C2290FFFC1254
:1014A00008391207D285108385118212079AD3EF6B
:1014B0009400EE9480402E9000F012079A121700CC
:1014C000851083851182C083C08212079AE42FFFA2
:1014D000EE3480FEED34FFFDEC34FFFCD082D0838F
:1014E0001207D280C09000E612079A8510838511FA
:1014F000821207A612062B12170090000412083958
:1015000022D2AF9044F474FDF01218F91218D37E71
:101510000D7F371219AA12190C12197D12193212E5
:1015200019451219587E137FAF121A0C12191F1287
:10153000198C1218E6E4FDFF1215C77BFF7A1979A2
:101540006F12160680FE2290005AEFF0905120E0B4
:101550004420F0E054BFF0E4FFFE121678905120D2
:10156000E054F0F0C083C082E0FF90005AE04410E5
:10157000FEEF4ED082D083F07F017E00121678906D
:101580005120E054EFF022906472E054F8FFF0E054
:1015900054FCFFF0121A2774FFFFFEFDFC121AA183
:1015A000E4FFFEFDFC121A8DE4FF121B25121B2B1B
:1015B000E47F14FEFDFC121AAB121894906497E0BD
:1015C0004410F012187C22900053EDF0EF146015D7
:1015D00014601D1460252403702B900053E02480B8
:1015E000FF12180022900053E024C0FF12180022BE
:1015F000900053E02494FF12180022900053E0243E
:10160000D4FF121800229000531207FE9000567467
:1016100001F01205A2900057F0900057E0FF602102
:101620001217DD9000531207DE900056E029F9E40E
:101630003AFA1205A2900057F0900056E004F080AC
:10164000D822758600EF4E6027EF60010E7593007B
:10165000900058E0F595A3E0F585A3E0F5848B9321
:101660008A838982E0A30586F0A31586DFF6DEF47F
:10167000E4F593F595223222EEFA9000EAE0F88F35
:10168000F0A4FFAEF0E88AF0A42EFEE5F03400FDF1
:10169000EF24C9FF78FFEE38FEED38FDE438FC504A
:1016A0000302170022ACEAADA08B938A838982E003
:1016B000F96017A3E0F5EAA3E0F5A0A3E060F4FA6F
:1016C000A3E0F8A3E0F2DAF8D9E98DA08CEAE4F51A
:1016D0009322906473E054C0FF4409F0906492E058
:1016E0004401F0A3E04401F07F107E271219B87F77
:1016F000107E271219C6E4FFFE1219D42280FE22A2
:10170000EC4D4E700D78FCEF24E950032840FD228B
:1017100000007BF178DA0000EF28FF78FFEE38FE5A
:10172000ED38FDEC38FC50E7EF2BFFEE38FEED38DE
:10173000FDEC38FC40F2220502030490647CE05486
:10174000C0FF4409F090649CE04401F0A3E0440130
:10175000F07F607EEA1219E27F607EEA1219F0E4FF
:10176000FFFE1219FE2274FFFFFEFDFC121A6F74B9
:10177000FFFFFEFDFC121A8312189490659BE04453
:1017800010F012187C121A1AE4FF121B192274FFAF
:10179000FFFEFDFC121AB574FFFFFEFDFC121AC914
:1017A000121894906597E04410F012187C121A34C5
:1017B0007F02121B3122EFB40A07740D1217C17495
:1017C0000A309811A899B8130CC2983098FDA899BE
:1017D000C298B811F63099FDC299F5992290005837
:1017E000EFF0121142900058E0FFC4540FFFA3F035
:1017F000121547900058E0540FFFA3F0121547222E
:10180000900054EFF0121142900054E0FFC4540FC6
:10181000FFA3F0121823900054E0540FFFA3F0121E
:10182000182322905120E0549FF0E054F0F0E0FEA5
:10183000EF4410FFEE4FF07F017E001216789051BA
:1018400020E054EFF0227B0C7A0179CF121A4DEF91
:10185000540790586EF0EFC4540FA3F0905876746C
:1018600044F022EC4D6011ED60010C8B938A83896A
:1018700082E4F0A3DDFCDCFA75930022EF540160F2
:1018800004D2AF8002C2AFEF5402FF9044F4E054A0
:10189000FD4FF0229044F4E0F84402F0E85402FFD7
:1018A00010AF012274014FFF228B938A838982E05B
:1018B000FFA3E0FEA3E0FDA3E0FC759300228B9361
:1018C0008A838982EFF0A3EEF0A3EDF0A3ECF0752C
:1018D000930022121B047E167F761219AA7F07122C
:1018E0001A65121AFD229000F9E0700912142E9068
:1018F00000F97401F0121A41229000FBE070091205
:1019000017669000FB7401F0121ADD229000FCE0D3
:1019100070091216D29000FC7401F0121AE52290A0
:1019200000FDE0700912173B9000FD7401F0121ADF
:10193000ED229000FEE070091215879000FE740100
:10194000F0121AF5229000FFE0700912178E900035
:10195000FF7401F012167722121B127E1B7F3D12BC
:101960001A0C7F07121AD3121B0B22256C75004527
:101970004C45333032204361726C6162009043A267
:10198000E04404F09043B2E04404F0229043A2E02B
:101990004402F09043B2E04402F0228B938A8389A0
:1019A00082EDF0A3ECF0759300227B027A4479007B
:1019B000AD07AC0612199D227B027A647902AD074D
:1019C000AC0612199D227B027A647942AD07AC06FF
:1019D00012199D227B027A647922AD07AC06121996
:1019E0009D227B027A64790CAD07AC0612199D2208
:1019F0007B027A64794CAD07AC0612199D227B02FA
:101A00007A64792CAD07AC0612199D227B027A44C8
:101A10007902AD07AC0612199D22121B1FEF30E3AD
:101A200005121A7980F422121B2BEF30E605121AE8
:101A30009780F422121B37EF30E305121ABF80F4AF
:101A4000227F0C1218009000FA7401F0228B938A06
:101A5000838982E0759300FF228B938A838982EDCC
:101A6000F075930022EFC43354E0904480F0227B61
:101A7000027A6579281218C0227B027A65794812A9
:101A800018AB227B027A6579081218C0227B027A91
:101A90006479041218C0227B027A6479441218AB6C
:101AA000227B027A6479241218C0227B027A64793C
:101AB000341218C0227B027A6579241218C0227B66
:101AC000027A6579441218AB227B027A6579041296
:101AD00018C022EFC43354E0904481F0229065781E
:101AE000E04480F022906473E04480F02290647CB3
:101AF000E04480F022906472E04480F0229044C080
:101B00007401F0229044C87401F0229044C0740221
:101B1000F0229044C87402F02290658BEFF022907E
:101B2000656BE0FF22906487EFF022906467E0FF2E
:101B300022906587EFF022906567E0FF2232005126
:101B400000002000515000200051F0001001000062
:101B5000100001140008000140000A00014C0002BE
:061B60000001500000200E
:00000001FF
