:1000000002151B008F828E83E0540100000070F8FF
:100010002278FFE4F6D8FD0215790203DBE864805C
:10002000F8E933E83360110460F0ED33EC33700924
:10003000E8FCE9FDEAFEEBFF220460DED3EB9FEA79
:100040009EE99DE8C2E78CF0C2F795F0400CE8CC41
:10005000F8E9CDF9EACEFAEBCFFB1203A685D0F092
:100060005804700320D5B3E80470075002B2D502DB
:1000700003E592D5EC0460F7E4CCC0E0C398F860E7
:100080003B94186008400DD0E0FB0203BDE4FBFA8E
:10009000C9FC8028E830E406E4C9FBE4CAFCE83087
:1000A000E305E4C9CACBFCE854076010F8C3E913C0
:1000B000F9EA13FAEB13FBEC13FCD8F130F52FC37C
:1000C000E49CFCEF9BFFEE9AFEED99FDD0E0FBEF88
:1000D0004E4D4C701222DB030203E2EC2CFCEF339A
:1000E000FFEE33FEED33FDED30E7EB0203BDEF2B0A
:1000F000FFEE3AFEED39FDD0E0FB50130BBB0003E1
:100100000203E5ED13FDEE13FEEF13FFEC13FC020B
:1001100003BDEC4D6011E8497017ED33EC3304601A
:100120000DE4FCFFFEFD22E933E8330470F802031E
:10013000DB1203A658046009E4CC24815006285041
:10014000090203E52840030203E2C0E0EB4A7044E1
:10015000B98006D0E0FB0203D1EF4E701CBD8008D1
:10016000EBFFEAFEE9FD80EBE98DF0A4FEE5F0028D
:1001700001FBE9CDF9EAFEEBFFEF89F0A4FCE5F025
:10018000CE89F0A42EFFE435F0CD89F0A42DFEE455
:1001900035F08067EF4E7005BD80D780C3EF8BF0E0
:1001A000A4ACF0EE8BF0A42CFCE435F0F8EF8AF070
:1001B000A42CE5F038FCE433CB8DF0A42CFCE5F066
:1001C0003BF8EE8AF0A42CFCE5F038F8E433CF8954
:1001D000F0A42CFCE5F038CF3400CE89F0A42FFF3A
:1001E000E5F03EFEE433C98DF0A42EFEE5F039CDF6
:1001F0008AF0A42FFFE5F03EFEE43DFD33D0E0FBA6
:1002000050070BBB000F0203E5EC2CFCEF33FFEEB5
:1002100033FEED33FD0203BD0203E5EC5D04600532
:10022000E8590470030203DB1203A6580460F6ECDD
:100230004860F2EC7004FDFEFF22C860DB2481C838
:100240005009C398600250060203E29850CAF58232
:10025000E9294B4A7005AB820203D175F0007C1A84
:100260007880C3EF9BEE9AED99400DC3EF9BFFEEB4
:100270009AFEED99FDE842F0DC23ACF0D0E0FFD02F
:10028000E0FED0E0FDAB8220E7101BEB60BAEC2C67
:10029000FCEF33FFEE33FEED33FD0203BDE803F860
:1002A00030E705C0F075F000EF2FFFEE33FEED33C1
:1002B000FD40B830E7C280AA74F8CC6480CCC86432
:1002C00080C8F58204604FC3EB9FF5F0EA9E42F0D0
:1002D000E99D42F0E89C45F0603C501DE5825FFFDF
:1002E000E582D313CB5BCBF42B5582FB50280ABAA3
:1002F000002409B9002008801DE5825BFBE582D35C
:1003000013CF5FCFF4C3132F5582FF50090EBE00E9
:10031000050DBD00010CC3EB9FF5F0EA9E42F0E92C
:100320009D42F0E89C45F06007CC4820E701B3EC23
:100330002275F020800E75F010800575F0087D00A4
:100340007E007F003392D530D50312078BEC33400B
:1003500010EF33FFEE33FEED33FDEC33FCD5F0ED63
:1003600022E5F0247EA2D513CC92E7CDCEFF22ED7C
:10037000D2E7CD33EC3392D524814006E4FFFEFD75
:10038000FC22FCE4CFCECDCC24E0501174FF80EDF4
:10039000C3CC13CCCD13CDCE13CECF13CF0470F07E
:1003A00030D5DE02078BE9D2E7C933E833F892D5BE
:1003B000EDD2E7CD33EC33FC5002B2D522EC30E77E
:1003C000100FBF000C0EBE00080DBD00040BEB604B
:1003D00014A2D5EB13FCED92E7FD2274FFFCFDFEA9
:1003E000FF22E480F8A2D574FF13FC7D80E480EF47
:1003F000F920E73624F950037907E4F42402FBE5F9
:1004000082158270021583DBF6E024FB501BE96045
:1004100014E4F0E582158270021583E004F0B40A5A
:1004200008E4F0D9EE7401F00A22C2D522ED33ECD3
:100430003392D5FA602AB4FF33EDC2E77BFF600642
:100440007A047952E4227A04795B20D5047A04791B
:1004500056224E614E002B494E46002D494E460015
:10046000E47A08F0A3DAFC7B00740722C083C08220
:10047000ECC0E0EDC0E0EEC0E0EFC0E0EA75F010E7
:10048000A4CAABF075F04DA42BFBE435F0FCEA24D4
:1004900010FAEB34C5FBEC34D9FCEDC2E7FF75F084
:1004A00056A4F42411C5F0F434C58FF0A42AE5F065
:1004B0003BE43CF020E714120562D0E0FFD0E0FE00
:1004C000D0E0FDD0E0FC12021B8014F4041205629F
:1004D000D0E0FFD0E0FED0E0FDD0E0FC120112D071
:1004E00082D083E0FAEDD2E7CD33EC332482FBE413
:1004F000C3CF33CFCE33CECD33CD33DBF37B0775D4
:10050000F00A846004F0A31B0AE5F0F0A38FF074F6
:100510000AA4FFACF08EF0740AA42CFEACF05001DB
:100520000C8DF0740AA42CFDE435F0F0A3DBDE742E
:1005300007223F8000004120000042C80000447AAA
:100540000000461C400047C35000497424004B186B
:1005500096804CBEBC205A0E1BCA6753C21C749DA9
:10056000C5AEFB60065407601C2323120590EB54B4
:1005700038600912057C12058B120112ECF8EDF9B6
:10058000EEFAEFCB22EB12058B80F1543803241CDA
:10059000900532FE93FC0EEE93FD0EEE930ECE937D
:1005A000FF22BB010689828A83E0225002E722BB38
:1005B000FE02E32289828A83E49322BB010CE58256
:1005C00029F582E5833AF583E0225006E92582F891
:1005D000E622BBFE06E92582F8E222E58229F582C1
:1005E000E5833AF583E49322BB010689828A83F08E
:1005F000225002F722BBFE01F322C2D5EC30E709FC
:10060000B2D5E4C39DFDE49CFCEE30E715B2D5E421
:10061000C39FFFE49EFE1208C0C3E49DFDE49CFC62
:1006200080031208C030D507C3E49FFFE49EFE227A
:10063000C5F0F8A3E028F0C5F0F8E5821582700255
:100640001583E038F022EF2BFFEE3AFEED39FDEC9A
:1006500038FC22C3EF9BFFEE9AFEED99FDEC98FC6F
:1006600022E88FF0A4CC8BF0A42CFCE98EF0A42C13
:10067000FC8AF0EDA42CFCEA8EF0A4CDA8F08BF05F
:10068000A42DCC3825F0FDE98FF0A42CCD35F0FC5D
:10069000EB8EF0A4FEA9F0EB8FF0A4CFC5F02ECD29
:1006A00039FEE43CFCEAA42DCE35F0FDE43CFC220E
:1006B00075F008758200EF2FFFEE33FECD33CDCC01
:1006C00033CCC58233C5829BED9AEC99E582984084
:1006D0000CF582EE9BFEED9AFDEC99FC0FD5F0D661
:1006E000E4CEFBE4CDFAE4CCF9A88222B800C1B98B
:1006F0000059BA002DEC8BF084CFCECDFCE5F0CBC9
:10070000F97818EF2FFFEE33FEED33FDEC33FCEB01
:1007100033FB10D703994004EB99FB0FD8E5E4F9BC
:10072000FA227818EF2FFFEE33FEED33FDEC33FCA9
:10073000C933C910D7059BE99A4007EC9BFCE99A9D
:10074000F90FD8E0E4C9FAE4CCFB2275F010EF2FE2
:10075000FFEE33FEED33FDCC33CCC833C810D707E2
:100760009BEC9AE899400AED9BFDEC9AFCE899F81D
:100770000FD5F0DAE4CDFBE4CCFAE4C8F922EF4B74
:10078000FFEE4AFEED49FDEC48FC22C3E49FFFE486
:100790009EFEE49DFDE49CFC22EB9FF5F0EA9E4268
:1007A000F0E99D42F0E89C45F022E8600FECC313AD
:1007B000FCED13FDEE13FEEF13FFD8F122E8600FFE
:1007C000EFC333FFEE33FEED33FDEC33FCD8F12203
:1007D000E0FCA3E0FDA3E0FEA3E0FF22E0F8A3E03D
:1007E000F9A3E0FAA3E0FB22BB010789828A830216
:1007F00007DC5005E9F8020915BBFE05E9F8020916
:100800002289828A8302092FECF0A3EDF0A3EEF097
:10081000A3EFF022E0FBA3E0FAA3E0F922F8E0FB6B
:10082000A3A3E0F925F0F0E582158270021583E0BC
:10083000FA38F022EBF0A3EAF0A3E9F022E493FB0C
:10084000740193FA740293F922D083D082F8E4936E
:100850007012740193700DA3A393F8740193F58241
:100860008883E4737402936860EFA3A3A380DFE539
:10087000112582F582E5103583F583B51004858254
:10088000112210AF06858211F51022858211F51014
:10089000D2AF22EC8EF0A4CCC5F0CCCDF8EFA4CE34
:1008A000C5F02DFDE43CFCE8A42EC8C5F03DFDE4F8
:1008B0003CFCEFA4FFE5F028FEE43DFDE43CFC2217
:1008C000BC000BBE0029EF8DF084FFADF022E4CC1C
:1008D000F875F008EF2FFFEE33FEEC33FCEE9DECE5
:1008E000984005FCEE9DFE0FD5F0E9E4CEFD22ED2B
:1008F000F8F5F0EE8420D21CFEADF075F008EF2F75
:10090000FFED33FD4007985006D5F0F222C398FD65
:100910000FD5F0EA22E6FB08E6F908E6FA08E6CB8E
:10092000F822E2FB08E2F908E2FA08E2CBF822E456
:1009300093F8740193F9740293FA740393FB22E51C
:10094000082440F582E43400F583E0050822900095
:100950003D300703900040E475F00112081D0205C8
:10096000A22000E97F2ED2008018EF540F2490D4EB
:100970003440D4FF30040BEF24BFB41A00500324DA
:1009800061FFE50960021509050CE50C7002050B15
:1009900030070E90003DE475F00112081DEF0205CE
:1009A000E8021E3D7403D2078003E4C207F50890F5
:1009B000003D120834E4F509F50BF50CE509600774
:1009C0007F2012098280F5750AFFC201C200C202AF
:1009D000C203C205C206C20812094EFF700D3007DD
:1009E000057F00120993AF0CAE0B22B4255FC2D570
:1009F000C20412094EFF24D0B40A00501A75F00A3E
:100A0000780930D50508B6FF0106C6A426F620D51C
:100A1000047002D20380D924CFB41A00EF5004C26C
:100A2000E5D204020C85D20180C6D20080C0D20279
:100A300080BCD2D580BAD20580B47F201209822032
:100A400002077401B5090040F112093FFF12098243
:100A50000209BCD208D206809512093FFB12093F59
:100A6000FA12093FF94A4B700679837A0D7BFF2011
:100A7000022EE509602A7E008E827583001205BB76
:100A800060060EEE650A70F0C2D5EBC0E0EAC0E089
:100A9000E9C0E0EE120CE6D0E0F9D0E0FAD0E0FBDD
:100AA0001205A2FF60AAEBC0E0EAC0E0E9C0E012D4
:100AB0000982D0E02401F9D0E03400FAD0E0FBE56F
:100AC0000A0460DCD50AD98087D20280A2120CC841
:100AD00060F7E50A7001041203F0A90A600DE50A47
:100AE000600914F50A120D70EF60F3EA30E702F4C2
:100AF00004C3995079EAF4250A0430E701E404F5C7
:100B00000A800D120CC860C1EA050A250A1203F01A
:100B1000EA90006CF030E701E4250A04D50A0420CD
:100B2000050114120CE6E4C0E0120D7090006CE0B8
:100B3000601320E70714F012096A802204F0D0E065
:100B400014C0E07F0012096AE50A60071209611506
:100B50000A800B300503120961D0E00209BCD0E025
:100B60000480C4120CC8609EE50A041203F09000D1
:100B70006CEAF0E50A2005026001042404120CE688
:100B800074FF04C0E0120D7012096AE50A20050224
:100B90006003120961D0E0B50AE87F45120974903C
:100BA000006CE07F2B30E7047F2DF404C0E01209D5
:100BB00082D0E075F00A84C0F012096BD0E012090F
:100BC0006B0209BC791080027908C206C20880084D
:100BD000D2D5790A8004790AC2D5E50A047002F5F3
:100BE0000AE4FAFDFEFF12093FFC7B082001131204
:100BF000093FFD7B1030000A12093FFE12093FFF3A
:100C00007B20EC3382D592D55013C3E43000069F8D
:100C1000FFE49EFEE42001039DFDE49CFCE4CBF890
:100C2000C201EC700CCFCECDCCE824F8F870F38084
:100C300017C3EF33FFEE33FEED33FDEC33FCEB3344
:100C4000FB994002FB0FD8E9EB300105F8D0E0C476
:100C500048B201C0E00AEC4D4E4F78207B0070C2D4
:100C6000EAB50A0040BCC0E0120CE8D0F0D0E020A9
:100C70000104C4C0E0C4B201C0F012096BD0F0D5C9
:100C8000F0EB0209BC1208490A59530BC4580A2A4E
:100C90004C0A26420BC84F0BD0440BD0490A3F43A5
:100CA0000BD6550B03460B63450ACD470DA3500ADF
:100CB0002E2D0A322E0A552B0A36230A53200D8C6C
:100CC0002A09EE4800000A4DE50AB4FF03750A063A
:100CD00012093FFC12093FFD12093FFE12093FFFB6
:100CE00090006502042D790AA2D52003143005096D
:100CF000B910020404B9080104A2D520060250016B
:100D0000042002689202B509005034C0E07F203010
:100D100003197F30A20272067205500F120D3FC2F6
:100D200002C206C205C2087F30800F300503E9C049
:100D3000E0120982300503D0E0F9D0E0B509CC30EB
:100D400005177F30B9100C1209827F583004077FD5
:100D5000788003B908031209823002057F2D020949
:100D6000827F202008F87F2B2006F322920280CF7A
:100D70007F00B40700500B2465F582E43400F5834E
:100D8000E0FF22286E756C6C2900D20112093F30F9
:100D900001F8C201780930D50108F60209EE2D509C
:100DA00043495812093F2403B405004001E4900D63
:100DB0009E93120973743A120973D20375090402DF
:100DC0000BC4C0E0C0F0C083C082C085C084C086B0
:100DD000758600C093759300C0D075D000C000C068
:100DE00001C002C003C004C005C006C007E4FFFE86
:100DF000FDFC900014120808E4FFFEFDFC900018B2
:100E0000120808E4FFFEFDFC90001C120808E4FF35
:100E1000FEFDFC900020120808E4FFFEFDFC90009F
:100E200024120808E4FFFEFDFC9000371208089029
:100E3000003BE4F0A3F09000D2E07004A3E0640172
:100E40007017122061E41203319000EC1208089030
:100E500000D2E4F0A3F00210AE122061E4120331DC
:100E60009000141208089000141207D09000EC12A1
:100E700007DC1202B850269000EC1207DCC000C05C
:100E800001C002C0031221D4E4120331D003D00206
:100E9000D001D0001200219000EC1208089000143C
:100EA0001207DC9000EC1207D012001D90001812FF
:100EB00008081221D4E4120331A804A905AA06AB3C
:100EC000079000181207D012021B7BFE7AF479B249
:100ED000784312011290001C1208089000181207A3
:100EE000D0C004C005C006C0079000D0E0FEA3E05B
:100EF000FF7C007D051205FAEDAE047802C333CE07
:100F000033CED8F924D8F58274003EF583D007D0CB
:100F100006D005D0041208089000D0E475F0011244
:100F20000630121A489000F41208089000141207B4
:100F3000D09000EC1208089000F41207DCE4FFFEE9
:100F40007D607C4012001D9000201208089000FE79
:100F50001207DCC000C001C002C00390001C1207D1
:100F6000D09000201207DC120112D003D002D00171
:100F7000D0001200219000FE1208089000D0E0700E
:100F800004A3E0641C700AFFFEFDFC9000FE120842
:100F9000087F007E107DA47C459000201207DC12A3
:100FA0000112E4FBFA79617844120021C004C00503
:100FB000C006C007E4FFFE7DC87C439000FE120718
:100FC000DC120112D003D002D001D0001200219017
:100FD00000371208087F01121E64E4FDFF121BBED9
:100FE0007BFF7A1E79B690004012083490002012E0
:100FF00007D09000431208087B017A007928120973
:10100000A47B017A007928121BFD7BFF7A1E79B937
:10101000121BFD7BFF7A1E79B6900040120834E463
:10102000FFFEFDFC9000431208087B017A0079283E
:101030001209A47B017A007928121BFDE4FFFE7DD2
:101040007A7C459000371207DC1202B86010400E1F
:101050007F007EC07DA87C44900037120808E4FF22
:10106000FEFDFC9000371207DC1202B86002500D42
:10107000E4FFFE7D807C3F90003712080890003727
:101080001207D012036F90003BEEF0A3EFF0E4FDE7
:101090007F01121BBE90003BE0FEA3E0FFE4FCFDDD
:1010A0001217A890003BE0FEA3E0FF1220E5D00756
:1010B000D006D005D004D003D002D001D000D0D0CB
:1010C000D093D086D084D085D082D083D0F0D0E0A9
:1010D000327B007A4679E81221B2EF4405FD7B00AD
:1010E0007A4679E81221BEE4F50FE50FC3940A5061
:1010F0002CE50F75F005A424F8F582E43422AF82C4
:10110000F50D8F0EF58312083D8F82850D837403D4
:1011100093FC740493FD121EE7050F80CD7B087AC3
:10112000007900121D697B017A5079031221B2EF18
:101130004402FD7B017A5079031221BE7B017A5073
:1011400079131221B2EF4402FD7B017A5079131218
:1011500021BE9043A0E04440F09043C2E04410F030
:101160007B087A047954C003C002C0017B007A5125
:1011700079C2900084120834D001D002D0037F08D5
:101180007E00121CA67B087A04795CC003C002C0F2
:10119000017B007A517922900084120834D001D06A
:1011A00002D0037F087E00121CA67B087A047964B3
:1011B000C003C002C0017B007A51794290008412C2
:1011C0000834D001D002D0037F087E00121CA69004
:1011D00044F47401F0904322E04408F09046ECE0BF
:1011E000C394055006904689743AF090480074F113
:1011F000F012121E90480074B1F0121ECA7B007AE1
:101200004379A0C00179B0900084120834D0017FE6
:101210000E7E00121CA69043B0E054FDF0227B002D
:101220007A4079807D017C001220AC904082741855
:10123000F07B007A4079847D077C001220AC9040DE
:10124000867418F07B007A4079887D177C00122024
:10125000AC90408A7418F09043007402F090400003
:101260007408F09042007403F07B0C7A0179081244
:1012700021B29046A1EFF07B007A4279227D087C72
:10128000001220AC7B007A4279207D517C12122022
:10129000ACE4900083F07F19FEFDFC90007F120803
:1012A0000890007F1207D0D3EF9400EE9400403BEB
:1012B000900083E0FF64036032904225E05401FE19
:1012C000EF25E04E5403900083F0E47FE07E01FDC3
:1012D000FC121D0090007F1207D074FFFBFAF9F892
:1012E00012064690007F12080880B690007F120711
:1012F000D0EF4E70057F03121CFD7B007A4079040D
:101300007D007C011220AC9040047407F0904006F0
:10131000E4F09040087448F0904004E4F0904001FC
:101320007402F09043A2E04407F022C0E0C0F0C095
:1013300083C082C085C084C086758600C0937593C3
:1013400000C0D075D000C000C001C002C003C004FE
:10135000C005C006C0071222EE9000FA1207D09016
:10136000006D1208089001041207DCC000C001C023
:1013700002C0037FA47E8C7D387C3790006D1207FD
:10138000DC120112D003D002D001D0001200219053
:101390000104120808E4FFFE7DC87C4290006D1233
:1013A00007DC1201127B007A80798E7845120021C9
:1013B000900071120808E4FFFE7DAF7C459000713B
:1013C0001207DC1202B8600F400DE4FFFE7DAF7C17
:1013D00045900071120808E4FFFE7D617C45900095
:1013E000711207DC1202B86002500DE4FFFE7D614D
:1013F0007C459000711208089000711207D012030A
:101400006F12210FD007D006D005D004D003D00230
:10141000D001D000D0D0D093D086D084D085D082D7
:10142000D083D0F0D0E032E47F947E01FDFC9000C8
:1014300089120808905120E05480F0905122E05425
:10144000F0900088F0E0440F905122F0A3E054F0B7
:10145000900088F0E0905123F0A3E054F0900088D1
:10146000F0E0905124F0905120E054DFF0E044404F
:10147000F0E4FFFE121D3C905120E04410F07F018B
:101480007E00121D3C905121E0900088F090512088
:10149000E054EFF0E4FFFE121D3C900088E0540899
:1014A000F0905120E04410F07F017E00121D3C902E
:1014B0005120E054EFF0900088E070067F0AFE12A1
:1014C0001D3C9000891207D074FFFBFAF9F8120650
:1014D00046900089120808900088E0600DA312076A
:1014E000D0D3EF9400EE94005087905120E054BF89
:1014F000F0E05480F0905122E054F0F0A3E054F07A
:10150000900088F0E0440F905123F0A3E054F09055
:101510000088F0E0440F905124F022759300780089
:101520007583467582E8E04401F0009046ECE0F9EE
:101530009046FAE0FAB903225420B40012B8001A17
:10154000EA901FFFF07401901FFEF09046F6F090B5
:101550001FFEE06005901FFFE0FA90480074C0F0A5
:1015600075812190000078007920E4F0A3D8FCD99F
:10157000FAEA900115F002001175101F7511FD12A5
:1015800010D10215C002196BE493A3F8E493A340B1
:1015900003F68001F208DFF48029E493A3F85407EE
:1015A000240CC8C333C4540F4420C8834004F456E9
:1015B000800146F6DFE4800B010204081020408021
:1015C00090184DE47E019360BCA3FF543F30E509C1
:1015D000541FFEE493A360010ECF54C025E060A821
:1015E00040B8E493A3FAE493A3F8E493A3C8C582B4
:1015F000C8CAC583CAF0A3C8C582C8CAC583CADF22
:10160000E9DEE780BE900041120834E4FFFEFDFCF5
:10161000900044120808E4FFFEFDFC900048120808
:1016200008E47F05FEFDFC90004C1208089000D0F5
:10163000E0FEA3E0FFC39405EE64809480500CEEBE
:101640003395E0FDFC90004C120808E4FFFEFDFC21
:1016500090004812080890004C1207D090004812E1
:1016600007DCC312079950579000441207D0C004FA
:10167000C005C006C007E47F04FEFDFC90004812D0
:1016800007DC120661900041120814E92FF9EA3EC6
:10169000FAEB3DFB1207E8D007D006D005D00412C4
:1016A00000219000441208089000481207D0E47B03
:1016B00001FAF9F81206469000481208088097903F
:1016C000004C1207D0E4120331A804A905AA06AB06
:1016D000079000441207D012021B22C0E0C0F0C0E5
:1016E00083C082C085C084C086758600C093759310
:1016F00000C0D075D000C000C001C002C003C0044B
:10170000C005C006C0071222E2122210E4FCFD90C0
:10171000000C120808122210E4FCFD9000101208C0
:101720000812225E9000F8E07002A3E070229000A0
:10173000F8F0A304F09000101207DC90000C1207E0
:10174000D0120653E41203319000F01208088035DD
:101750009000F8E4F0A3F090000C1207DC90001069
:101760001207D0120653E412033190010812080840
:101770009001081207DC9000F01207D012001D90B3
:1017800000FA120808D007D006D005D004D003D044
:1017900002D001D000D0D0D093D086D084D085D0D4
:1017A00082D083D0F0D0E03290003D120808900043
:1017B0004D740AF0E02442F582E43400F583E4F04D
:1017C00090004DE014F090003D1207D0C3EF940A52
:1017D000EE94004043E47B0AFAF9F890003D1207CA
:1017E000D01206ECEB2430FF900041F090004DE069
:1017F0002442F582E43400F583EFF090003D1207B7
:10180000D0E47B0AFAF9F81206EC90003D120808C1
:1018100090004DE014F080AEE47B0AFAF9F89000F5
:101820003D1207D01206ECEB2430FF900041F090FF
:10183000004DE0FE2442F582E43400F583EFF074BD
:10184000422EF9E43400FA7B01121BFD224400EC25
:10185000000000004200D200014200D0000044001D
:10186000F4000000004400FE0000000044010400F9
:1018700000000042010200004200F800004400F0B5
:1018800000000000440108000000004400FA0000CD
:1018900000004200D400004200D6000041012000B8
:1018A00041011F00410121004101220041012300AB
:1018B000410124004101250041012600440111019C
:1018C0006E360044010C00005DC041011018440157
:1018D000162EE0000043011A00000041012700001D
:1018E000C0E0C0F0C083C082C085C084C086758659
:1018F00000C093759300C0D075D000C000C001C077
:1019000002C003C004C005C006C0071222BEC390B7
:1019100000D5E094029000D4E064809480500312DB
:10192000200512224EC39000D5E094029000D4E02E
:10193000648094805008121FCC7F501222D69000F1
:10194000D4E475F001120630D007D006D005D004DB
:10195000D003D002D001D000D0D0D093D086D08494
:10196000D085D082D083D0F0D0E032E490007FF0F8
:10197000A3F0D2AF9044F474FDF0121F93121F6DC8
:101980007E0D7FC21220BB121FF27E1A7FB312217E
:101990002B121FDF7E187FE012211D12203E7E16C3
:1019A0007FDB12217112201812202B7E137F2B1245
:1019B0002163121FA61220707FE87E031220E51219
:1019C0001FB912207F121F80E4FDFF121BBE7BFF98
:1019D0007A1E79BC121BFD80FE22E47F28FEFDFCEE
:1019E000121B197F03121E87E47F05FEFDFC121BEC
:1019F000197F03121E87E47F0FFEFDFC121B197F67
:101A000003121E87E47F01FEFDFC121B197F0212E8
:101A10001E87E47F05FEFDFC121B197F06121E6463
:101A20007F0E121E647F2C121E647F08121E647FBC
:101A300001121E647F0C121E647F03121E64E47F79
:101A400005FEFDFC121B1922E4FFFEFDFC90003D8B
:101A50001208087B017A0079D812160590003D1211
:101A600008081221D4E4120331A804A905AA06AB80
:101A70000790003D1207D012021B7BFE7AF479B268
:101A8000784312011290003D12080890003D1207A1
:101A9000DC7F717E3D7DCA7C3F12021BE4FBFA793C
:101AA00040784112021B90003D12080890003D1240
:101AB00007D022C0E0C0F0C083C082C085C084C00F
:101AC00086758600C093759300C0D075D000C000A5
:101AD000C001C002C003C004C005C006C0077BFF30
:101AE0007A1E79AA121BFD121FCC7F141222D690E7
:101AF00000D4E4F0A3F0D007D006D005D004D00382
:101B0000D002D001D000D0D0D093D086D084D08560
:101B1000D082D083D0F0D0E03290FFFC12086F1258
:101B200008088510838511821207D0D3EF9400EE48
:101B30009480402E9001161207D0121D008510834C
:101B4000851182C083C0821207D0E42FFFEE34805B
:101B5000FEED34FFFDEC34FFFCD082D08312080888
:101B600080C090010C1207D0851083851182120766
:101B7000DC120661121D0090000412086F22900012
:101B800088EFF0905120E04420F0E054BFF0E4FFF3
:101B9000FE121D3C905120E054F0F0C083C082E062
:101BA000FF900088E04410FEEF4ED082D083F07F9B
:101BB000017E00121D3C905120E054EFF022900075
:101BC00081EDF0EF14601514601D1460252403707E
:101BD0002B900081E02480FF121E6422900081E09F
:101BE00024C0FF121E6422900081E02494FF121E84
:101BF0006422900081E024D4FF121E6422900081B0
:101C00001208349000847401F01205A2900085F04F
:101C1000900085E0FF6021121CDA90008112081408
:101C2000900084E029F9E43AFA1205A2900085F0C8
:101C3000900084E004F080D822904F00E05401F03E
:101C4000904F02E054FCF0904F0BE054CFF0E04492
:101C500030F0E054F0F0E0440FF0904F01E0440128
:101C6000F07FFF1220517FFF1221557F081222E8DA
:101C700022906471E054F8FFF0E054FCFFF0122170
:101C80008C7FFF1222D0E4FF1222C4E4FF1222B89C
:101C90001222BE7F501222D6121F2E906491E04471
:101CA00010F0121F0022758600EF4E6027EF6001D2
:101CB0000E759300900084E0F595A3E0F585A3E010
:101CC000F5848B938A838982E0A30586F0A3158629
:101CD000DFF6DEF4E4F593F59522900086EFF0123E
:101CE0001427900086E0FFC4540FFFA3F0121B7E60
:101CF000900086E0540FFFA3F0121B7E2280FE228C
:101D0000EC4D4E700D78FCEF24E950032840FD2285
:101D100000007BF178DA0000EF28FF78FFEE38FE54
:101D2000ED38FDEC38FC50E7EF2BFFEE38FEED38D8
:101D3000FDEC38FC40F2220502030432EEFA900179
:101D400010E0F88FF0A4FFAEF0E88AF0A42EFEE5D4
:101D5000F03400FDEF24C9FF78FFEE38FEED38FDCA
:101D6000E438FC5003021D0022ACEAADA08B938A3C
:101D7000838982E0F96017A3E0F5EAA3E0F5A0A368
:101D8000E060F4FAA3E0F8A3E0F2DAF8D9E98DA074
:101D90008CEAE4F59322906473E054C0FF4409F0A8
:101DA000906492E04401F0A3E04401F07F107E27AC
:101DB0001220C97F107E271220D7E4FFFE1220E5F3
:101DC00022906475E054C0FF4409F0906494E044AC
:101DD00001F0A3E04401F07F607EEA1220F37F600F
:101DE0007EEA122101E4FFFE12210F2274FFFFFEA2
:101DF00012213974FFFFFE122147121F2E906497A3
:101E0000E04410F0121F007F0112208E1221997FF2
:101E1000021222DC2274FFFFFEFDFC1221DE74FFA1
:101E2000FFFEFDFC1221F2121F2E906597E0441078
:101E3000F0121F0012217FE4FF1222AC22EFB40A3D
:101E400007740D121E48740A309811A899B8130C23
:101E5000C2983098FDA899C298B811F63099FDC281
:101E600099F59922900082EFF0121427900082E0F9
:101E7000FFC4540FFFA3F0121E87900082E0540F9E
:101E8000FFA3F0121E8722905120E0549FF0E054EF
:101E9000F0F0E0FEEF4410FFEE4FF07F017E001205
:101EA0001D3C905120E054EFF0224672616D652098
:101EB0007374617274002566002F2F00454C453302
:101EC0003032204361726C6162007B0C7A0179CF01
:101ED0001221B2EF540790586EF0EFC4540FA3F0E4
:101EE0009058767444F022EC4D6011ED60010C8B3B
:101EF000938A838982E4F0A3DDFCDCFA75930022E7
:101F0000EF54016004D2AF8002C2AFEF5402FF90E1
:101F100044F4E054FD4FF0229043A3E04401F090DC
:101F200043B3E04401F0904F00E04401F0229044BC
:101F3000F4E0F84402F0E85402FF10AF012274010B
:101F40004FFF228B938A838982E0FFA3E0FEA3E008
:101F5000FDA3E0FC759300228B938A838982EFF0C6
:101F6000A3EEF0A3EDF0A3ECF07593002212226D26
:101F70007E1D7F3B1220BB7F071221CA12226622E0
:101F800090011FE070091219DA90011F7401F0121C
:101F900021A622900121E07009121E1590012174E2
:101FA00001F012222E22900122E07009121D96905B
:101FB00001227401F012223622900123E0700912EE
:101FC0001DC19001237401F012223E22900124E0F1
:101FD0007009121C719001247401F0122246221221
:101FE000227B7E227FF412211D7F071221FC122208
:101FF00074221222897E227FF512212B7F07122262
:102000000612228222900125E07009121DEC900137
:10201000257401F012225622900126E07009121C4C
:10202000399001267401F0121F18221222977E2285
:102030007FF61221637F0712221A122290221222A7
:10204000A57E227FF71221717F0712222412229E81
:10205000227E007B027A4F7904AD077C001220AE0D
:1020600022906504E0FF7B027A657944121F4522C5
:102070009043A2E04404F09043B2E04404F0229084
:1020800043A2E04402F09043B2E04402F022EF5455
:1020900003FF906477E054FCF0E04FF0228B938ACA
:1020A000838982E0FFA3E0FE759300228B938A83ED
:1020B0008982EDF0A3ECF0759300227B027A4479DB
:1020C00004AD07AC061220AE227B027A647902AD21
:1020D00007AC061220AE227B027A647942AD07ACCF
:1020E000061220AE227B027A647922AD07AC06127A
:1020F00020AE227B027A647904AD07AC061220AED2
:10210000227B027A647944AD07AC061220AE227BB2
:10211000027A647924AD07AC061220AE227B027AE3
:10212000447900AD07AC061220AE227B027A4479D6
:1021300002AD07AC061220AE227B027A647926AD8E
:1021400007AC061220AE227B027A647906AD07AC9A
:10215000061220AE227B027A4F7906EFFD7C001238
:1021600020AE227B027A447922AD07AC061220AE63
:10217000227B027A447906AD07AC061220AE221209
:1021800022B2EF30E3051221E880F4221222BEEFE2
:1021900030E6051222CA80F4221222E2EF30E30573
:1021A00012221080F4227F0C121E64900120740110
:1021B000F0228B938A838982E0759300FF228B93B0
:1021C0008A838982EDF075930022EFC43354E09046
:1021D0004482F0227B027A657924121F45227B0219
:1021E0007A657924121F5A227B027A657944121F7C
:1021F00045227B027A657904121F5A22EFC43354B8
:10220000E0904480F022EFC43354E0904481F02207
:102210007B027A64794612209F22EFC43354E09007
:102220004491F022EFC43354E0904483F02290654F
:1022300074E04480F022906473E04480F022906463
:1022400075E04480F022906471E04480F022906454
:1022500071E0547FF022906477E04480F022906433
:1022600077E0547FF0229044C07404F0229044C878
:102270007404F0229044C07401F0229044C87401A8
:10228000F0229044C07402F0229044C87402F022FC
:102290009044C27402F0229044CA7402F022904426
:1022A000C07408F0229044C87408F022906587EF4B
:1022B000F022906567E0FF22906481EFF022906445
:1022C00061E0FF22906401EFF022906441E0FF2280
:1022D000906421EFF022906431EFF022906487EF58
:1022E000F022906467E0FF22904F03EFF022904FBE
:1022F00003E0FF2232323232004F00000C00510066
:102300000020005130001000515000200051F0001A
:1023100010010000100001140008000140000A0034
:0A232000014C0002000150000020F3
:00000001FF
