:40000000021217008F828E83E0540100000070F82278FFE4F6D8FD0212750203DBE86480F8E933E83360110460F0ED33EC337009E8FCE9FDEAFEEBFF220460DED3EB9FEA66
:400040009EE99DE8C2E78CF0C2F795F0400CE8CCF8E9CDF9EACEFAEBCFFB1203A685D0F05804700320D5B3E80470075002B2D50203E592D5EC0460F7E4CCC0E0C398F860B5
:400080003B94186008400DD0E0FB0203BDE4FBFAC9FC8028E830E406E4C9FBE4CAFCE830E305E4C9CACBFCE854076010F8C3E913F9EA13FAEB13FBEC13FCD8F130F52FC331
:4000C000E49CFCEF9BFFEE9AFEED99FDD0E0FBEF4E4D4C701222DB030203E2EC2CFCEF33FFEE33FEED33FDED30E7EB0203BDEF2BFFEE3AFEED39FDD0E0FB50130BBB0003AD
:400100000203E5ED13FDEE13FEEF13FFEC13FC0203BDEC4D6011E8497017ED33EC3304600DE4FCFFFEFD22E933E8330470F80203DB1203A658046009E4CC248150062850E7
:40014000090203E52840030203E2C0E0EB4A7044B98006D0E0FB0203D1EF4E701CBD8008EBFFEAFEE9FD80EBE98DF0A4FEE5F00201FBE9CDF9EAFEEBFFEF89F0A4FCE5F087
:40018000CE89F0A42EFFE435F0CD89F0A42DFEE435F08067EF4E7005BD80D780C3EF8BF0A4ACF0EE8BF0A42CFCE435F0F8EF8AF0A42CE5F038FCE433CB8DF0A42CFCE5F0EE
:4001C0003BF8EE8AF0A42CFCE5F038F8E433CF89F0A42CFCE5F038CF3400CE89F0A42FFFE5F03EFEE433C98DF0A42EFEE5F039CD8AF0A42FFFE5F03EFEE43DFD33D0E0FBCD
:4002000050070BBB000F0203E5EC2CFCEF33FFEE33FEED33FD0203BD0203E5EC5D046005E8590470030203DB1203A6580460F6EC4860F2EC7004FDFEFF22C860DB2481C862
:400240005009C398600250060203E29850CAF582E9294B4A7005AB820203D175F0007C1A7880C3EF9BEE9AED99400DC3EF9BFFEE9AFEED99FDE842F0DC23ACF0D0E0FFD0BF
:40028000E0FED0E0FDAB8220E7101BEB60BAEC2CFCEF33FFEE33FEED33FD0203BDE803F830E705C0F075F000EF2FFFEE33FEED33FD40B830E7C280AA74F8CC6480CCC864A0
:4002C00080C8F58204604FC3EB9FF5F0EA9E42F0E99D42F0E89C45F0603C501DE5825FFFE582D313CB5BCBF42B5582FB50280ABA002409B9002008801DE5825BFBE582D354
:4003000013CF5FCFF4C3132F5582FF50090EBE00050DBD00010CC3EB9FF5F0EA9E42F0E99D42F0E89C45F06007CC4820E701B3EC2275F020800E75F010800575F0087D0045
:400340007E007F003392D530D503120755EC334010EF33FFEE33FEED33FDEC33FCD5F0ED22E5F0247EA2D513CC92E7CDCEFF22EDD2E7CD33EC3392D524814006E4FFFEFDBE
:40038000FC22FCE4CFCECDCC24E0501174FF80EDC3CC13CCCD13CDCE13CECF13CF0470F030D5DE020755E9D2E7C933E833F892D5EDD2E7CD33EC33FC5002B2D522EC30E7CD
:4003C000100FBF000C0EBE00080DBD00040BEB6014A2D5EB13FCED92E7FD2274FFFCFDFEFF22E480F8A2D574FF13FC7D80E480EFF920E73624F950037907E4F42402FBE5DD
:4004000082158270021583DBF6E024FB501BE96014E4F0E582158270021583E004F0B40A08E4F0D9EE7401F00A22C2D522ED33EC3392D5FA602AB4FF33EDC2E77BFF600620
:400440007A047952E4227A04795B20D5047A047956224E614E002B494E46002D494E4600E47A08F0A3DAFC7B00740722C083C082ECC0E0EDC0E0EEC0E0EFC0E0EA75F01063
:40048000A4CAABF075F04DA42BFBE435F0FCEA2410FAEB34C5FBEC34D9FCEDC2E7FF75F056A4F42411C5F0F434C58FF0A42AE5F03BE43CF020E714120562D0E0FFD0E0FEA9
:4004C000D0E0FDD0E0FC12021B8014F404120562D0E0FFD0E0FED0E0FDD0E0FC120112D082D083E0FAEDD2E7CD33EC332482FBE4C3CF33CFCE33CECD33CD33DBF37B0775A3
:40050000F00A846004F0A31B0AE5F0F0A38FF0740AA4FFACF08EF0740AA42CFEACF050010C8DF0740AA42CFDE435F0F0A3DBDE7407223F8000004120000042C80000447A18
:400540000000461C400047C35000497424004B1896804CBEBC205A0E1BCA6753C21C749DC5AEFB60065407601C2323120590EB5438600912057C12058B120112ECF8EDF9AD
:40058000EEFAEFCB22EB12058B80F1543803241C900532FE93FC0EEE93FD0EEE930ECE93FF22BB010689828A83E0225002E722BBFE02E32289828A83E49322BB010CE582D4
:4005C00029F582E5833AF583E0225006E92582F8E622BBFE06E92582F8E222E58229F582E5833AF583E49322BB010689828A83F0225002F722BBFE01F322C5F0F8A3E028D6
:40060000F0C5F0F8E582158270021583E038F022EF2BFFEE3AFEED39FDEC38FC22C3EF9BFFEE9AFEED99FDEC98FC22E88FF0A4CC8BF0A42CFCE98EF0A42CFC8AF0EDA42CC8
:40064000FCEA8EF0A4CDA8F08BF0A42DCC3825F0FDE98FF0A42CCD35F0FCEB8EF0A4FEA9F0EB8FF0A4CFC5F02ECD39FEE43CFCEAA42DCE35F0FDE43CFC2275F008758200B4
:40068000EF2FFFEE33FECD33CDCC33CCC58233C5829BED9AEC99E58298400CF582EE9BFEED9AFDEC99FC0FD5F0D6E4CEFBE4CDFAE4CCF9A88222B800C1B90059BA002DEC5B
:4006C0008BF084CFCECDFCE5F0CBF97818EF2FFFEE33FEED33FDEC33FCEB33FB10D703994004EB99FB0FD8E5E4F9FA227818EF2FFFEE33FEED33FDEC33FCC933C910D7051F
:400700009BE99A4007EC9BFCE99AF90FD8E0E4C9FAE4CCFB2275F010EF2FFFEE33FEED33FDCC33CCC833C810D7079BEC9AE899400AED9BFDEC9AFCE899F80FD5F0DAE4CD05
:40074000FBE4CCFAE4C8F922EF4BFFEE4AFEED49FDEC48FC22C3E49FFFE49EFEE49DFDE49CFC22EB9FF5F0EA9E42F0E99D42F0E89C45F022E8600FECC313FCED13FDEE1369
:40078000FEEF13FFD8F122E8600FEFC333FFEE33FEED33FDEC33FCD8F122E0FCA3E0FDA3E0FEA3E0FF22E0F8A3E0F9A3E0FAA3E0FB22BB010789828A830207A65005E9F820
:4007C00002088ABBFE05E9F802089789828A830208A4ECF0A3EDF0A3EEF0A3EFF022E0FBA3E0FAA3E0F922F8E0FBA3A3E0F925F0F0E582158270021583E0FA38F022EBF0EA
:40080000A3EAF0A3E9F022E493FB740193FA740293F922D083D082F8E4937012740193700DA3A393F8740193F5828883E4737402936860EFA3A3A380DFE5112582F582E537
:40084000103583F583B510048582112210AF06858211F51022858211F510D2AF22EC8EF0A4CCC5F0CCCDF8EFA4CEC5F02DFDE43CFCE8A42EC8C5F03DFDE43CFCEFA4FFE5F1
:40088000F028FEE43DFDE43CFC22E6FB08E6F908E6FA08E6CBF822E2FB08E2F908E2FA08E2CBF822E493F8740193F9740293FA740393FB22E508241BF582E43400F583E023
:4008C00005082290001830070390001BE475F0011207E70205A22000E97F2ED2008018EF540F2490D43440D4FF30040BEF24BFB41A0050032461FFE50960021509050CE5EE
:400900000C7002050B30070E900018E475F0011207E7EF0205E80217E17403D2078003E4C207F5089000181207FEE4F509F50BF50CE50960077F201208F780F5750AFFC241
:4009400001C200C202C203C205C206C2081208C3FF700D3007057F00120908AF0CAE0B22B4255FC2D5C2041208C3FF24D0B40A00501A75F00A780930D50508B6FF0106C6F4
:40098000A426F620D5047002D20380D924CFB41A00EF5004C2E5D204020BFAD20180C6D20080C0D20280BCD2D580BAD20580B47F201208F72002077401B5090040F11208D8
:4009C000B4FF1208F7020931D208D20680951208B4FB1208B4FA1208B4F94A4B700679F87A0C7BFF20022EE509602A7E008E827583001205BB60060EEE650A70F0C2D5EB89
:400A0000C0E0EAC0E0E9C0E0EE120C5BD0E0F9D0E0FAD0E0FB1205A2FF60AAEBC0E0EAC0E0E9C0E01208F7D0E02401F9D0E03400FAD0E0FBE50A0460DCD50AD98087D20214
:400A400080A2120C3D60F7E50A7001041203F0A90A600DE50A600914F50A120CE5EF60F3EA30E702F404C3995079EAF4250A0430E701E404F50A800D120C3D60C1EA050A37
:400A8000250A1203F0EA900047F030E701E4250A04D50A0420050114120C5BE4C0E0120CE5900047E0601320E70714F01208DF802204F0D0E014C0E07F001208DFE50A600F
:400AC000071208D6150A800B3005031208D6D0E0020931D0E00480C4120C3D609EE50A041203F0900047EAF0E50A2005026001042404120C5B74FF04C0E0120CE51208DF18
:400B0000E50A20050260031208D6D0E0B50AE87F451208E9900047E07F2B30E7047F2DF404C0E01208F7D0E075F00A84C0F01208E0D0E01208E0020931791080027908C2DC
:400B400006C2088008D2D5790A8004790AC2D5E50A047002F50AE4FAFDFEFF1208B4FC7B082001131208B4FD7B1030000A1208B4FE1208B4FF7B20EC3382D592D55013C3D1
:400B8000E43000069FFFE49EFEE42001039DFDE49CFCE4CBF8C201EC700CCFCECDCCE824F8F870F38017C3EF33FFEE33FEED33FDEC33FCEB33FB994002FB0FD8E9EB3001CB
:400BC00005F8D0E0C448B201C0E00AEC4D4E4F78207B0070C2EAB50A0040BCC0E0120C5DD0F0D0E0200104C4C0E0C4B201C0F01208E0D0F0D5F0EB02093112081309CE53E7
:400C00000B3958099F4C099B420B3D4F0B45440B454909B4430B4B550A78460AD8450A42470D185009A32D09A72E09CA2B09AB2309C8200D012A096348000009C2E50AB401
:400C4000FF03750A061208B4FC1208B4FD1208B4FE1208B4FF90004002042D790AA2D5200314300509B910020404B9080104A2D52006025001042002689202B50900503460
:400C8000C0E07F203003197F30A20272067205500F120CB4C202C206C205C2087F30800F300503E9C0E01208F7300503D0E0F9D0E0B509CC3005177F30B9100C1208F77F8E
:400CC000583004077F788003B908031208F73002057F2D0208F77F202008F87F2B2006F322920280CF7F00B40700500B2440F582E43400F583E0FF22286E756C6C2900D2C8
:400D0000011208B43001F8C201780930D50108F60209632D504349581208B42403B405004001E4900D13931208E8743A1208E8D203750904020B397B007A4679E8121A98DF
:400D4000EF4405FD7B007A4679E8121AA4E4F50FE50FC39408502CE50F75F005A424A3F582E4341BAF82F50D8F0EF5831208078F82850D83740393FC740493FD12188E054E
:400D80000F80CD7B087A0079001216CD7B017A507903121A98EF4402FD7B017A507903121AA47B017A507913121A98EF4402FD7B017A507913121AA49043A0E04440F09061
:400DC00043C2E04410F07B087A0479F0C003C002C0017B007A5179C290004D1207FED001D002D0037F087E0012166C7B087A0479F8C003C002C0017B007A51792290004D20
:400E00001207FED001D002D0037F087E0012166C7B087A057900C003C002C0017B007A51793290004D1207FED001D002D0037F087E0012166C7B087A057908C003C002C00F
:400E4000017B007A51794290004D1207FED001D002D0037F087E0012166C9044F47401F0904322E04408F09046ECE0C394055006904689743AF090480074F1F012101690E9
:400E8000480074B1F01218717B007A4379A0C00179B090004D1207FED0017F0E7E0012166C9043B0E054FDF022C0E0C0F0C083C082C085C084C086758600C093759300C01B
:400EC000D075D000C000C001C002C003C004C005C006C007121AE2E4120331A804A905AA06AB079000C112079A12021B7B2C7AB5792A784D120112E4FBFA790278C2120097
:400F0000219000041207D29000CB1207A6C000C001C002C0037FA47E8C7D387C379000041207A6120112D003D002D001D0001200219000CB1207D2E4FFFE7DC87C429000B1
:400F4000041207A6120112A804A905AA06AB077F007E807D8E7C4512001D9000081207D2E4FFFE7DAF7C459000081207A61202B8600F400DE4FFFE7DAF7C459000081207A6
:400F8000D2E4FFFE7D617C459000081207A61202B86002500DE4FFFE7D617C459000081207D290000812079A12036F90000CEEF0A3EFF07F0112182BE4FDFF1215BC7BFF1D
:400FC0007A1979A990001B1207FE90000412079A90001E1207D27B017A00790E1209197B017A00790E1215FB90000CE0FEA3E0FF121A3BD007D006D005D004D003D002D01C
:4010000001D000D0D0D093D086D084D085D082D083D0F0D0E0327B007A4079807D017C001219D89040827418F07B007A4079847D077C001219D89040867418F07B007A4061
:4010400079887D177C001219D890408A7418F09043007402F09040007408F09042007403F07B0C7A017908121A989046A1EFF07B007A4279227D087C001219D87B007A422E
:4010800079207D517C121219D8E490004CF07F19FEFDFC9000481207D290004812079AD3EF9400EE9400403B90004CE0FF64036032904225E05401FEEF25E04E5403900051
:4010C0004CF0E47FE07E01FDFC12170090004812079A74FFFBFAF9F81206109000481207D280B690004812079AEF4E70057F03121B9C7B007A4079047D007C011219D89004
:4011000040047407F0904006E4F09040087448F0904004E4F09040017402F09043A2E04407F022E47F947E01FDFC9000501207D2905120E05480F0905122E054F090004F5C
:40114000F0E0440F905122F0A3E054F090004FF0E0905123F0A3E054F090004FF0E0905124F0905120E054DFF0E04440F0E4FFFE1216A0905120E04410F07F017E00121638
:40118000A0905121E090004FF0905120E054EFF0E4FFFE1216A090004FE05408F0905120E04410F07F017E001216A0905120E054EFF090004FE070067F0AFE1216A0900003
:4011C0005012079A74FFFBFAF9F81206109000501207D290004FE0600DA312079AD3EF9400EE94005087905120E054BFF0E05480F0905122E054F0F0A3E054F090004FF03A
:40120000E0440F905123F0A3E054F090004FF0E0440F905124F02275930078007583467582E8E04401F0009046ECE0F99046FAE0FAB903225420B40012B8001AEA901FFF2E
:40124000F07401901FFEF09046F6F0901FFEE06005901FFFE0FA90480074C0F075812190000078007920E4F0A3D8FCD9FAEA9000DCF002001175101F7511FD120D3702127A
:40128000BC02152FE493A3F8E493A34003F68001F208DFF48029E493A3F85407240CC8C333C4540F4420C8834004F456800146F6DFE4800B0102040810204080901301E47F
:4012C0007E019360BCA3FF543F30E509541FFEE493A360010ECF54C025E060A840B8E493A3FAE493A3F8E493A3C8C582C8CAC583CAF0A3C8C582C8CAC583CADFE9DEE78045
:40130000BE4400B300000000420099000142009700004400BB000000004400C5000000004400CB000000004200C900004200BF00004400B7000000004400CF0000000044CE
:4013400000C10000000042009B000042009D00004100E7004100E6004100E8004100E9004100EA004100EB004100EC004400D8016E36004400D300005DC04100D718440061
:40138000DD2EE000004300E10000004100ED0000C0E0C0F0C083C082C085C084C086758600C093759300C0D075D000C000C001C002C003C004C005C006C007121B96121B15
:4013C00034121AF69000001207D2121AF6AB07AA06A905A80490000012079A12061DE41203319000C11207D2D007D006D005D004D003D002D001D000D0D0D093D086D08417
:40140000D085D082D083D0F0D0E032E47F28FEFDFC1214797F0312184EE47F05FEFDFC1214797F0312184EE47F0FFEFDFC1214797F0312184EE47F01FEFDFC1214797F0280
:4014400012184EE47F05FEFDFC1214797F0612182B7F0E12182B7F2C12182B7F0812182B7F0112182B7F0C12182B7F0312182BE47F05FEFDFC1214792290FFFC12083912C2
:4014800007D285108385118212079AD3EF9400EE9480402E9000DD12079A121700851083851182C083C08212079AE42FFFEE3480FEED34FFFDEC34FFFCD082D0831207D27F
:4014C00080C09000D312079A8510838511821207A612062B12170090000412083922C0E0C0F0C083C082C085C084C086758600C093759300C0D075D000C000C001C002C060
:4015000003C004C005C006C00712195DD007D006D005D004D003D002D001D000D0D0D093D086D084D085D082D083D0F0D0E032D2AF9044F474FDF01219241218FE7E0E7FF9
:40154000A91219E71219371219BA1219707E147FDE121A491219831219967E137F90121A5712194A1219C9121911E4FDFF1215BC7BFF7A1979AC1215FB80FE2290004FEFAE
:40158000F0905120E04420F0E054BFF0E4FFFE1216A0905120E054F0F0C083C082E0FF90004FE04410FEEF4ED082D083F07F017E001216A0905120E054EFF022900048ED5D
:4015C000F0EF14601514601D1460252403702B900048E02480FF12182B22900048E024C0FF12182B22900048E02494FF12182B22900048E024D4FF12182B229000481207B6
:40160000FE90004B7401F01205A290004CF090004CE0FF60211218089000481207DE90004BE029F9E43AFA1205A290004CF090004BE004F080D822906472E054F8FFF0E0A6
:4016400054FCFFF0121A727FFF121B84E4FF121B78E4FF121B6C121B727F14121B8A1218BF906492E04410F01218A722758600EF4E6027EF60010E75930090004DE0F5957F
:40168000A3E0F585A3E0F5848B938A838982E0A30586F0A31586DFF6DEF4E4F593F59522EEFA9000D7E0F88FF0A4FFAEF0E88AF0A42EFEE5F03400FDEF24C9FF78FFEE3869
:4016C000FEED38FDE438FC500302170022ACEAADA08B938A838982E0F96017A3E0F5EAA3E0F5A0A3E060F4FAA3E0F8A3E0F2DAF8D9E98DA08CEAE4F5932290658BEFF0223A
:40170000EC4D4E700D78FCEF24E950032840FD2200007BF178DA0000EF28FF78FFEE38FEED38FDEC38FC50E7EF2BFFEE38FEED38FDEC38FC40F22205020304906475E054F5
:40174000C0FF4409F0906494E04401F0A3E04401F07F107E271219F57F107E27121A03E4FFFE121A1122906471E054C0FF4409F0906490E04401F0A3E04401F07F607EEAF4
:40178000121A1F7F607EEA121A2DE4FFFE121A3B2274FFFFFEFDFC121ABA74FFFFFEFDFC121ACE1218BF90659BE04410F01218A7121A65E4FF1216FA2274FFFFFEFDFC1281
:4017C0001AEC74FFFFFEFDFC121B001218BF906597E04410F01218A7121A7F7F02121B9022EFB40A07740D1217EC740A309811A899B8130CC2983098FDA899C298B811F6A6
:401800003099FDC299F5992290004DEFF012112390004DE0FFC4540FFFA3F012157C90004DE0540FFFA3F012157C22900049EFF0121123900049E0FFC4540FFFA3F01218AD
:401840004E900049E0540FFFA3F012184E22905120E0549FF0E054F0F0E0FEEF4410FFEE4FF07F017E001216A0905120E054EFF0227B0C7A0179CF121A98EF540790586E03
:40188000F0EFC4540FA3F09058767444F022EC4D6011ED60010C8B938A838982E4F0A3DDFCDCFA75930022EF54016004D2AF8002C2AFEF5402FF9044F4E054FD4FF0229093
:4018C00044F4E0F84402F0E85402FF10AF012274014FFF228B938A838982E0FFA3E0FEA3E0FDA3E0FC759300228B938A838982EFF0A3EEF0A3EDF0A3ECF075930022121BF3
:40190000437E1B7F9F1219E77F07121AB0121B3C229000E6E0700912140B9000E67401F0121A8C229000E8E070091217919000E87401F0121B14229000E9E0700912173BF8
:401940009000E97401F0121B1C229000EAE070091217669000EA7401F0121B24229000EBE070091216379000EB7401F0121B2C22121B517E1B7FA0121A497F07121AD81295
:401980001B4A229000ECE070091217B99000EC7401F0121BA122121B5F7E1B7FA2121A577F07121B0A121B5822256600454C45333032204361726C6162009043A2E04404F3
:4019C000F09043B2E04404F0229043A2E04402F09043B2E04402F0228B938A838982EDF0A3ECF0759300227B027A447902AD07AC061219DA227B027A647904AD07AC0612A1
:401A000019DA227B027A647944AD07AC061219DA227B027A647924AD07AC061219DA227B027A647900AD07AC061219DA227B027A647940AD07AC061219DA227B027A647991
:401A400020AD07AC061219DA227B027A447900AD07AC061219DA227B027A447904AD07AC061219DA22121B66EF30E305121AC480F422121B72EF30E605121B7E80F4221217
:401A80001B96EF30E305121AF680F4227F0C12182B9000E77401F0228B938A838982E0759300FF228B938A838982EDF075930022EFC43354E0904481F0227B027A657928DE
:401AC0001218EB227B027A6579481218D6227B027A6579081218EB22EFC43354E0904480F0227B027A6579241218D6227B027A6579241218EB227B027A6579441218D62256
:401B00007B027A6579041218EB22EFC43354E0904482F022906579E04480F022906475E04480F022906471E04480F022906472E04480F022906472E0547FF0229044C07466
:401B400002F0229044C87402F0229044C07401F0229044C87401F0229044C07404F0229044C87404F02290656BE0FF22906482EFF022906462E0FF22906402EFF022906491
:401B800042E0FF22906422EFF022906432EFF022906587EFF022906567E0FF2280FE2232322232005100002000515000200051F00010010000100001140008000140000A76
:401BC00000014C0002000150000020000000000000000000000000000000000000000000000000000000000000000000000000000000000000000000000000000000000025
:401C000000000000000000000000000000000000000000000000000000000000000000000000000000000000000000000000000000000000000000000000000000000000A4
:401C40000000000000000000000000000000000000000000000000000000000000000000000000000000000000000000000000000000000000000000000000000000000064
:401C80000000000000000000000000000000000000000000000000000000000000000000000000000000000000000000000000000000000000000000000000000000000024
:401CC00000000000000000000000000000000000000000000000000000000000000000000000000000000000000000000000000000000000000000000000000000000000E4
:0200000480007A
:400000001A0052061840192020802140241C64040064018267006502870F8B0D0100394050410149FF4AFF4BFF4DA04F0450185A045D015F01604062C06440654066C068ED
:40004000C06AC06CC06EC0820183019A01A902B101B201B702BF40C010C105C501C602C805C9FFCAFFCBFFCDAFCE0FCF04D018D280D804D904DA04DB04DC11DD11DF01E00F
:4000800040E2C0E440E540E6C0E8C0EAC0ECC0EEC001011806400F081C10264127402F083C02418047404A014F88558057407401764080108A40C010C240CA20CE80D01890
:4000C000D218E22001022F00040E0C0F0119011C0126032E01300831013201340436023E143F0140304105450C4624470E483D49FF4AFF4BFF4DA04F015018528054075836
:400100000459045A045B045C095D995F016040628064406540668068406A506BA86C406D206E506FA8010323050106020E0217481D091E0A244037103F8045084E014F0467
:400140005540560A57505C405E085F1063306608670477409B08AF08B308C090C280C4A0CC20CE10D040D210D670D860E82001044E0002011002040304060709020B1C1D33
:40018000141F0A230128042A022E013108320633013510360137063B023E444050410149FF4AFF4BFF4DA04F045018580459045A045C905D025F01604062C06440654066B2
:4001C000C068C06AC06CC06EC087019F01AE01B601B701C050C104C501C720C821C9FFCAFFCBFFCDAFCE0FCF04D018D280D804D904DA04DB04DC22DD22DF01E040E2C0E428
:4002000040E540E6C0E8C0EAC0ECC0EEC00105230390100212081740181019401E022101225824012B8032403740381039023F04420245014A014B404F44550156027740B4
:40024000800196029F10A140C00CC483CA01CC18CE45D088D21801070890109220960299409F10A140A402AF8001142F39023F014025420349FF4AFF4BFF4F01501859042D
:400280005A045D095F016040624064406540668068806A806C806E808F01B301C025C203C9FFCAFFCBFFCD83CE03CF01D018D904DA04DC90DD09DF01E040E240E440E54063
:4002C000E680E880EA80EC80EE80011513220127103D8040104314471448024C0281028F10901096029F10A002A142CE10D066D218E6400116304025420349FF4AFF4BFF94
:400300004D834E034F0150185A045D095F016040624064406540668068806A806C806E80C025C203C5ECC720C823C9FFCAFFCBFFCD83CE03CF01D018D403D604DA04DB04D4
:40034000DD99DF01E040E240E440E540E680E880EA80EC80EE80011715401043144714480249054C02500259455A20610290109220960299409F10A140A402D066D218D6B9
:400380000FD801011826405349FF4AFF4BFF4F0150185A045F016040624064406540668068806A806C806E80C053C9FFCAFFCBFFCD83CE03CF01D018D280DA04DB04DF01DF
:4003C000E040E240E440E540E680E880EA80EC80EE80011907422046204B404F407340D042D218011A30405349FF4AFF4BFF4D834E034F0150185A045F0160406240644078
:400400006540668068806A806C806E809201A601B001BE01C053C5ECC620C80BC9FFCAFFCBFFCD83CE03CF01D018D401D804DA04DB04DF01E040E240E440E540E680E88083
:40044000EA80EC80EE80011B130F4016201E80422046204B404D044F4156205D045E805F0193409E20C210C420D042D218D6D0014010030205200A803108324036205F014E
:40048000632083108A20C0C0C210CC70D680D840E6800141059701A508AF02B120E810014206032083019701A508C010E280014303A508AF20EC10014801A5080149095C48
:4004C000016201800181088E01A508D680D840E28001500A00060101080209010A040B01100111011B011C01015101003F0000000400000000000000007F7F000000000001
:4005000020404000600000009CC04000C00000000000000000000000000000000000000000000000000000000000000000000000000000000000000000000000000000005F
:40054000000000000000000000000000000000000000000000000000000000000000000000000000000000000000000000000000000000000000000000000000000000007B
:40058000000000000000000000000000000000000000000000000000000000000000000000000000000000000000000000000000000000000000000000000000000000003B
:4005C00000000000000000000000000000000000000000000000000000000000000000000000000000000000000000000000000000000000000000000000000000000000FB
:4006000000000000000000000000000000000000000000000000000000000000000000000000000000000000000000000000000000000000000000000000000000000000BA
:0200000490006A
:0400000000004005B7
:0200000490105A
:04000000BC90ACAF55
:0200000490303A
:02000000DFFD22
:0200000490501A
:0C00000000011E02806903011E116066F1
:0200000490402A
:4000000000000000000000000000000000000000000000000000000000000000000000000000000000000000000000000000000000000000000000000000000000000000C0
:00000001FF
