:40000000020655008F828E83E0540100000070F82278FFE4F6D8FD0206B3BB010689828A83E0225002E722BBFE02E32289828A83E49322BB010689828A83F0225002F722A2
:40004000BBFE01F322C5F0F8A3E028F0C5F0F8E582158270021583E038F022EF2BFFEE3AFEED39FDEC38FC22E88FF0A4CC8BF0A42CFCE98EF0A42CFC8AF0EDA42CFCEA8EEA
:40008000F0A4CDA8F08BF0A42DCC3825F0FDE98FF0A42CCD35F0FCEB8EF0A4FEA9F0EB8FF0A4CFC5F02ECD39FEE43CFCEAA42DCE35F0FDE43CFC2275F008758200EF2FFFD1
:4000C000EE33FECD33CDCC33CCC58233C5829BED9AEC99E58298400CF582EE9BFEED9AFDEC99FC0FD5F0D6E4CEFBE4CDFAE4CCF9A88222B800C1B90059BA002DEC8BF0843F
:40010000CFCECDFCE5F0CBF97818EF2FFFEE33FEED33FDEC33FCEB33FB10D703994004EB99FB0FD8E5E4F9FA227818EF2FFFEE33FEED33FDEC33FCC933C910D7059BE99AC5
:400140004007EC9BFCE99AF90FD8E0E4C9FAE4CCFB2275F010EF2FFFEE33FEED33FDCC33CCC833C810D7079BEC9AE899400AED9BFDEC9AFCE899F80FD5F0DAE4CDFBE4CC3E
:40018000FAE4C8F922EF4BFFEE4AFEED49FDEC48FC22EB9FF5F0EA9E42F0E99D42F0E89C45F022E8600FECC313FCED13FDEE13FEEF13FFD8F122E8600FEFC333FFEE33FE77
:4001C000ED33FDEC33FCD8F122E0FCA3E0FDA3E0FEA3E0FF22E0F8A3E0F9A3E0FAA3E0FB22ECF0A3EDF0A3EEF0A3EFF022E0FBA3E0FAA3E0F922EBF0A3EAF0A3E9F022E499
:4002000093FB740193FA740293F922D083D082F8E4937012740193700DA3A393F8740193F5828883E4737402936860EFA3A3A380DFE50C2582F582E50B3583F583B50B0442
:4002400085820C2210AF0685820CF50B2285820CF50BD2AF22EC8EF0A4CCC5F0CCCDF8EFA4CEC5F02DFDE43CFCE8A42EC8C5F03DFDE43CFCEFA4FFE5F028FEE43DFDE43CC5
:40028000FC227B007A4679E8120DA4EF4405FD7B007A4679E8120DB0E4F50AE50AC39408502CE50A75F005A424FDF582E4340DAF82F5088F09F5831201FF8F8285088374D5
:4002C0000393FC740493FD120CCF050A80CD7B087A007900120BB57B017A507903120DA4EF4402FD7B017A507903120DB07B017A507913120DA4EF4402FD7B017A507913F2
:40030000120DB09043A0E04440F09043C2E04410F07B087A07790CC003C002C0017B007A5179029000C51201F6D001D002D0037F087E00120B537B087A077914C003C0027F
:40034000C0017B007A5179C29000C51201F6D001D002D0037F087E00120B537B087A07791CC003C002C0017B007A5179229000C51201F6D001D002D0037F087E00120B53E9
:400380007B087A077924C003C002C0017B007A5179329000C51201F6D001D002D0037F087E00120B537B087A07792CC003C002C0017B007A5179409000C51201F6D001D02F
:4003C00002D0037F0A7E00120B537B087A077938C003C002C0017B007A5179529000C51201F6D001D002D0037F087E00120B537B017A0279DB7DC4120DB07B017A0679DBB0
:400400007DC4120DB09044F47401F0904322E04408F09046ECE0C394055006904689743AF090480074F1F012045490480074B1F0120BE27B007A4379A0C00179B09000C50A
:400440001201F6D0017F0E7E00120B539043B0E054FDF0227B007A4079807D017C00120D439040827418F07B007A4079847D077C00120D439040867418F07B007A4079886D
:400480007D177C00120D4390408A7418F09043007402F09040007408F09042007403F07B0C7A017908120DA49046A1EFF07B007A4279227D087C00120D437B007A427920A5
:4004C0007D517C12120D43E49000C4F07F19FEFDFC9000C01201E19000C01201C9D3EF9400EE9400403B9000C4E0FF64036032904225E05401FEEF25E04E54039000C4F091
:40050000E47FE07E01FDFC120C009000C01201C974FFFBFAF9F812005B9000C01201E180B69000C01201C9EF4E70057F03120DFA7B007A4079047D007C01120D439040041B
:400540007407F0904006E4F09040087448F0904004E4F09040017402F09043A2E04407F022E47F947E01FDFC9000C81201E1905120E05480F0905122E054F09000C7F0E0A3
:40058000440F905122F0A3E054F09000C7F0E0905123F0A3E054F09000C7F0E0905124F0905120E054DFF0E04440F0E4FFFE120B88905120E04410F07F017E00120B8890FA
:4005C0005121E09000C7F0905120E054EFF0E4FFFE120B889000C7E05408F0905120E04410F07F017E00120B88905120E054EFF09000C7E070067F0AFE120B889000C81226
:4006000001C974FFFBFAF9F812005B9000C81201E19000C7E0600DA31201C9D3EF9400EE94005087905120E054BFF0E05480F0905122E054F0F0A3E054F09000C7F0E0443B
:400640000F905123F0A3E054F09000C7F0E0440F905124F02275930078007583467582E8E04401F0009046ECE0F99046FAE0FAB903225420B40012B8001AEA901FFFF07442
:4006800001901FFEF09046F6F0901FFEE06005901FFFE0FA90480074C0F075810C90000078007920E4F0A3D8FCD9FAEA9000D5F0020011750B1F750CFD1202820206FA02A0
:4006C0000AA2E493A3F8E493A34003F68001F208DFF48029E493A3F85407240CC8C333C4540F4420C8834004F456800146F6DFE4800B010204081020408090073FE47E01F0
:400700009360BCA3FF543F30E509541FFEE493A360010ECF54C025E060A840B8E493A3FAE493A3F8E493A3C8C582C8CAC583CAF0A3C8C582C8CAC583CADFE9DEE780BE448D
:4007400000064060000044002E000000004400200000000042000200014200000000440028000000004400510000000044005D000000004200570000440041000000004274
:4007800000320000440024000000004400610000000044003A00000000420004000042000A0000440059000000004400360000000044004D00000000440049000000004471
:4007C00000450000000042002C0000420034000041004000420055000042003E00004100E0004100DF004100E1004400D1016E36004400CC00005DC04100D0184400D62E7D
:40080000E000004300DA0000004100E20000C0E0C0F0C083C082C085C084C086758600C093759300C0D075D000C000C001C002C003C004C005C006C00790003EE07002A3EA
:40084000E070227F01120C897BFF7A0B791A120ADE90003EE4F0A304F090003EE0A3E0FF120DF4802B90003EE07004A3E06401701F7F01120C897BFF7A0B7924120ADE9046
:40088000003EE4F0A3F090003EE0A3E0FF120DF4D007D006D005D004D003D002D001D000D0D0D093D086D084D085D082D083D0F0D0E032C0E0C0F0C083C082C085C084C04D
:4008C00086758600C093759300C0D075D000C000C001C002C003C004C005C006C007900055E07002A3E0701F7FDC7E05120D6E7F01120C897BFF7A0B792F120ADE900055CA
:40090000E4F0A304F08026900055E07004A3E06401701AFFFE120D6E7F01120C897BFF7A0B7939120ADE900055E4F0A3F0D007D006D005D004D003D002D001D000D0D0D047
:4009400093D086D084D085D082D083D0F0D0E032E47F28FEFDFC1209BE7F03120CACE47F05FEFDFC1209BE7F03120CACE47F0FFEFDFC1209BE7F03120CACE47F01FEFDFC8A
:400980001209BE7F02120CACE47F05FEFDFC1209BE7F06120C897F0E120C897F2C120C897F08120C897F01120C897F0C120C897F03120C89E47F05FEFDFC1209BE2290FF90
:4009C000FC1202311201E1850B83850C821201C9D3EF9400EE9480402E9000D61201C9120C00850B83850C82C083C0821201C9E42FFFEE3480FEED34FFFDEC34FFFCD082D7
:400A0000D0831201E180C09000CC1201C9850B83850C821201D5120068120C00900004120231229000C7EFF0905120E04420F0E054BFF0E4FFFE120B88905120E054F0F06D
:400A4000C083C082E0FF9000C7E04410FEEF4ED082D083F07F017E00120B88905120E054EFF0229000C0EDF0EF14601514601D1460252403702B9000C0E02480FF120C89D3
:400A8000229000C0E024C0FF120C89229000C0E02494FF120C89229000C0E024D4FF120C8922D2AF9044F474FDF0120D0E7E087F0E120D7C120D217E087FB3120D8A120C54
:400AC000E8E4FDFF120A637BFF7A0B7944120ADE120CFB120D347F01120DF480FE229000C01201F69000C37401F012001A9000C4F09000C4E0FF6021120C669000C012013E
:400B0000ED9000C3E029F9E43AFA12001A9000C4F09000C3E004F080D822666F72776172647321006261636B776172647321006D6F746F72206F6E21006D6F746F72206FDF
:400B400066662100454C45333032204361726C61622000758600EF4E6027EF60010E7593009000C5E0F595A3E0F585A3E0F5848B938A838982E0A30586F0A31586DFF6DE96
:400B8000F4E4F593F5952232EEFA9000D0E0F88FF0A4FFAEF0E88AF0A42EFEE5F03400FDEF24C9FF78FFEE38FEED38FDE438FC5003020C0022ACEAADA08B938A838982E0B3
:400BC000F96017A3E0F5EAA3E0F5A0A3E060F4FAA3E0F8A3E0F2DAF8D9E98DA08CEAE4F593227B0C7A0179CF120DA4EF540790586EF0EFC4540FA3F09058767444F02232E5
:400C0000EC4D4E700D78FCEF24E950032840FD2200007BF178DA0000EF28FF78FFEE38FEED38FDEC38FC50E7EF2BFFEE38FEED38FDEC38FC40F22205020304906478E054FD
:400C4000C0FF4409F0906498E04401F0A3E04401F07F107E27120D527F107E27120D60E4FFFE120D6E229000C5EFF01205619000C5E0FFC4540FFFA3F0120A239000C5E02A
:400C8000540FFFA3F0120A23229000C1EFF01205619000C1E0FFC4540FFFA3F0120CAC9000C1E0540FFFA3F0120CAC22905120E0549FF0E054F0F0E0FEEF4410FFEE4FF04C
:400CC0007F017E00120B88905120E054EFF022EC4D6011ED60010C8B938A838982E4F0A3DDFCDCFA759300229000DFE070091209509000DF7401F0120D98229000E1E070F0
:400D000009120C3B9000E17401F0120DD022120DDF7E0B7F87120D7C7F07120DBC120DD822120DED7E0B7FFF120D8A7F07120DC6120DE6229043A2E04404F09043B2E04444
:400D400004F0228B938A838982EDF0A3ECF0759300227B027A647908AD07AC06120D45227B027A647948AD07AC06120D45227B027A647928AD07AC06120D45227B027A44AE
:400D80007900AD07AC06120D45227B027A447904AD07AC06120D45227F0C120C899000E07401F0228B938A838982E0759300FF228B938A838982EDF075930022EFC433544B
:400DC000E0904480F022EFC43354E0904482F022906478E04480F0229044C07401F0229044C87401F0229044C07404F0229044C87404F022906575EFF02280FE220051101B
:400E0000001000516000100051F00010010000100001140008000140000A00014C000200015000002000000000000000000000000000000000000000000000000000000057
:400E40000000000000000000000000000000000000000000000000000000000000000000000000000000000000000000000000000000000000000000000000000000000072
:400E80000000000000000000000000000000000000000000000000000000000000000000000000000000000000000000000000000000000000000000000000000000000032
:400EC00000000000000000000000000000000000000000000000000000000000000000000000000000000000000000000000000000000000000000000000000000000000F2
:400F000000000000000000000000000000000000000000000000000000000000000000000000000000000000000000000000000000000000000000000000000000000000B1
:0200000480007A
:40000000220052070450189019802040241C292464040064032B188367870F006501870D0100412D0137013F404035410149FF4AFF4BFF4DA04F01501859045A045D095F59
:40004000016040628064406540668068406A506BA86C406D206E506FA893019901A703A801B302B501B601BE40BF10C034C105C9FFCAFFCBFFCDAFCE07CF01D018D280D893
:4000800004D904DA04DB04DC90DD99DF01E040E280E440E540E680E840EA50EBA8EC40ED20EE50EFA801011514081F8020022302272428012A802F1035023720420143041E
:4000C000470648014D807502C440CA48CCA0D0CAD2180102474034410549FF4AFF4BFF4DAF4E074F0150185A045D095F016040628064406540668068406A506BA86C406DD5
:40010000206E506FA884028C018F0297029B01A201A602B102B202B501B601BE44BF01C035C101C540C6C2C70EC81FC9FFCAFFCBFFCDAFCE07CF01D018D407D804D904DA3E
:4001400004DB04DC90DD99DE80DF05E040E280E440E540E680E840EA50EBA8EC40ED20EE50EFA801032B004410A019442004238030203108384042014304470648A14D806F
:40018000521453805820594462147801802083809201980199809A809B06A001AA80AD80AE01AF90B408C005C40CCC06CE08D0CAD218D60ED806DE01E840EA080104350403
:4001C0000406010E041E0422023002340436013E1040434105420649FF4AFF4BFF4F01501858045A045C095D095F016040624064406540668068806A806C806E80C013C173
:4002000004C206C9FFCAFFCBFFCD83CE03CF01D018DA04DD09DF01E040E240E440E540E680E880EA80EC80EE8001051A00480A011080184019A01A013C403D80404041084C
:4002400045484702480149204D2094409A809B82A081A508C005C201C408D0D3D22CEE0101064640134104420649FF4AFF4BFF4D834E034F0150185A045D095F01604062C5
:400280004064406540668068806A806C806E8084018E018F069306970598019B029E01A506A801AD01AE01AF02B307B401BB08C043C105C206C5ECC702C813C9FFCAFFCB9A
:4002C000FFCD83CE03CF01D018D403D604D804D904DA04DB04DC99DD99DE80DF05E040E240E440E540E680E880EA80EC80EE80010733000801C80960100112081910210447
:400300002208280129082A80312032083301394040404108430145484702480149254D20510859155B80608078018080904099A09A809B82A005A140A508AC04C005C203A8
:40034000C403CA0ACC07CE08D0D3D22CD60FD801DE01E401E804EE0201083807011F012E013101340138023E014020410549FF4AFF4BFF4DA04F0450185280580459045AB4
:40038000045B045C225D225F01604062C06440654066C068C06AC06CC06EC0C020C105C501C720C821C9FFCAFFCBFFCDAFCE0FCF04D018DA04DD02DF01E040E2C0E440E58D
:4003C00040E6C0E8C0EAC0ECC0EEC001091717401D201F02250137403F044120452048024B044E02500252027740A702AB10AF08C480CC10CE40D024D218E401010A1A96E2
:400400000298029A01AA01B203C023C502C801C9FFCAFFCBFFD804DA04DC09DD09DF01E080E240E340E440E540E680E880EA80EC80EE80010B0D0D080F0817101D081F083A
:40044000450847104F08A702AA40C260C440D060010C354060410249FF4AFF4BFF4DA04F0450185A045D015F01604062C06440654066C068C06AC06CC06EC09203A602B00A
:4004800002B401B601C010C106C501C702C811C9FFCAFFCBFFCDAFCE0FCF04D018D280D804DA04DB04DC01DD11DF01E040E2C0E440E540E6C0E8C0EAC0ECC0EEC0010D124D
:4004C0000902102018011A801B104001460448284F20500852047102A702AF02C208C404D028D224011431404649FF4AFF4BFF4F01501852805A045B045F0160406240648A
:40050000406540668068806A806C806E808A018B019301AC01B401B501BE10BF10C046C9FFCAFFCBFFCD83CE03CF01D018D804D904DA04DB04DF01E040E240E440E540E6E3
:4005400080E880EA80EC80EE8001151A041015401F10261037013C104102450248084C086D406F0171027380861087108C109F80A008B404C040C480CC80CE20D081D2240F
:4005800001163F401649FF4AFF4BFF4D834E034F0150185A045F016040624064406540668068806A806C806E80840287028E028F0293029B019E02A502AA01AD01AE01AFA1
:4005C00002B402B503B601BB20BE40C016C5ECC702C813C9FFCAFFCBFFCD83CE03CF01D018D401D804D904DA04DB04DC99DF01E040E240E440E540E680E880EA80EC80EEDF
:40060000800117280048018809401008138018041940212029082A803120330138403908400244024780480849054C08500859458B01910899809A809B01A004A140A520F1
:40064000C005C201C403CA0ACC05CE0AD018D224D60BE620011901A101011B048D01A101E210EC4001400D030806020A100B10324436813B105F02C0C0C210CCF0CE10D68D
:400680008001410C0A8896889F02A601AA10AE80AF08B602C250E880EC40EE100142050310A601AB02C010EE800143058201A601AB10E680E8200147018120014801880133
:4006C00001490863026411841087019801D6C0D880E650014C019920014D085920600490049920B404D401D802EC0201500B0006010109010B010C040D010E02100111014E
:400700001A011B0101510200FF01030050000000000000000400000000000000007F7F000000000010B0A000B000000010001C54500040000000000020240400240000004D
:400740000000000000000000000000000000000000000000000000000000000000000000000000000000000000000000000000000000000000000000000000000000000079
:400780000000000000000000000000000000000000000000000000000000000000000000000000000000000000000000000000000000000000000000000000000000000039
:4007C00000000000000000000000000000000000000000000000000000000000000000000000000000000000000000000000000000000000000000000000000000000000F9
:4008000000000000000000000000000000000000000000000000000000000000000000000000000000000000000000000000000000000000000000000000000000000000B8
:0200000490006A
:0400000000004005B7
:0200000490105A
:04000000BC90ACAF55
:0200000490303A
:0200000029D8FD
:0200000490501A
:0C00000000011E02806903011E0BAA41D2
:0200000490402A
:4000000000000000000000000000000000000000000000000000000000000000000000000000000000000000000000000000000000000000000000000000000000000000C0
:00000001FF
