:1000000002160B008F828E83E0540100000070F80E
:100010002278FFE4F6D8FD0216690203DBE864806B
:10002000F8E933E83360110460F0ED33EC33700924
:10003000E8FCE9FDEAFEEBFF220460DED3EB9FEA79
:100040009EE99DE8C2E78CF0C2F795F0400CE8CC41
:10005000F8E9CDF9EACEFAEBCFFB1203A685D0F092
:100060005804700320D5B3E80470075002B2D502DB
:1000700003E592D5EC0460F7E4CCC0E0C398F860E7
:100080003B94186008400DD0E0FB0203BDE4FBFA8E
:10009000C9FC8028E830E406E4C9FBE4CAFCE83087
:1000A000E305E4C9CACBFCE854076010F8C3E913C0
:1000B000F9EA13FAEB13FBEC13FCD8F130F52FC37C
:1000C000E49CFCEF9BFFEE9AFEED99FDD0E0FBEF88
:1000D0004E4D4C701222DB030203E2EC2CFCEF339A
:1000E000FFEE33FEED33FDED30E7EB0203BDEF2B0A
:1000F000FFEE3AFEED39FDD0E0FB50130BBB0003E1
:100100000203E5ED13FDEE13FEEF13FFEC13FC020B
:1001100003BDEC4D6011E8497017ED33EC3304601A
:100120000DE4FCFFFEFD22E933E8330470F802031E
:10013000DB1203A658046009E4CC24815006285041
:10014000090203E52840030203E2C0E0EB4A7044E1
:10015000B98006D0E0FB0203D1EF4E701CBD8008D1
:10016000EBFFEAFEE9FD80EBE98DF0A4FEE5F0028D
:1001700001FBE9CDF9EAFEEBFFEF89F0A4FCE5F025
:10018000CE89F0A42EFFE435F0CD89F0A42DFEE455
:1001900035F08067EF4E7005BD80D780C3EF8BF0E0
:1001A000A4ACF0EE8BF0A42CFCE435F0F8EF8AF070
:1001B000A42CE5F038FCE433CB8DF0A42CFCE5F066
:1001C0003BF8EE8AF0A42CFCE5F038F8E433CF8954
:1001D000F0A42CFCE5F038CF3400CE89F0A42FFF3A
:1001E000E5F03EFEE433C98DF0A42EFEE5F039CDF6
:1001F0008AF0A42FFFE5F03EFEE43DFD33D0E0FBA6
:1002000050070BBB000F0203E5EC2CFCEF33FFEEB5
:1002100033FEED33FD0203BD0203E5EC5D04600532
:10022000E8590470030203DB1203A6580460F6ECDD
:100230004860F2EC7004FDFEFF22C860DB2481C838
:100240005009C398600250060203E29850CAF58232
:10025000E9294B4A7005AB820203D175F0007C1A84
:100260007880C3EF9BEE9AED99400DC3EF9BFFEEB4
:100270009AFEED99FDE842F0DC23ACF0D0E0FFD02F
:10028000E0FED0E0FDAB8220E7101BEB60BAEC2C67
:10029000FCEF33FFEE33FEED33FD0203BDE803F860
:1002A00030E705C0F075F000EF2FFFEE33FEED33C1
:1002B000FD40B830E7C280AA74F8CC6480CCC86432
:1002C00080C8F58204604FC3EB9FF5F0EA9E42F0D0
:1002D000E99D42F0E89C45F0603C501DE5825FFFDF
:1002E000E582D313CB5BCBF42B5582FB50280ABAA3
:1002F000002409B9002008801DE5825BFBE582D35C
:1003000013CF5FCFF4C3132F5582FF50090EBE00E9
:10031000050DBD00010CC3EB9FF5F0EA9E42F0E92C
:100320009D42F0E89C45F06007CC4820E701B3EC23
:100330002275F020800E75F010800575F0087D00A4
:100340007E007F003392D530D50312078BEC33400B
:1003500010EF33FFEE33FEED33FDEC33FCD5F0ED63
:1003600022E5F0247EA2D513CC92E7CDCEFF22ED7C
:10037000D2E7CD33EC3392D524814006E4FFFEFD75
:10038000FC22FCE4CFCECDCC24E0501174FF80EDF4
:10039000C3CC13CCCD13CDCE13CECF13CF0470F07E
:1003A00030D5DE02078BE9D2E7C933E833F892D5BE
:1003B000EDD2E7CD33EC33FC5002B2D522EC30E77E
:1003C000100FBF000C0EBE00080DBD00040BEB604B
:1003D00014A2D5EB13FCED92E7FD2274FFFCFDFEA9
:1003E000FF22E480F8A2D574FF13FC7D80E480EF47
:1003F000F920E73624F950037907E4F42402FBE5F9
:1004000082158270021583DBF6E024FB501BE96045
:1004100014E4F0E582158270021583E004F0B40A5A
:1004200008E4F0D9EE7401F00A22C2D522ED33ECD3
:100430003392D5FA602AB4FF33EDC2E77BFF600642
:100440007A047952E4227A04795B20D5047A04791B
:1004500056224E614E002B494E46002D494E460015
:10046000E47A08F0A3DAFC7B00740722C083C08220
:10047000ECC0E0EDC0E0EEC0E0EFC0E0EA75F010E7
:10048000A4CAABF075F04DA42BFBE435F0FCEA24D4
:1004900010FAEB34C5FBEC34D9FCEDC2E7FF75F084
:1004A00056A4F42411C5F0F434C58FF0A42AE5F065
:1004B0003BE43CF020E714120562D0E0FFD0E0FE00
:1004C000D0E0FDD0E0FC12021B8014F4041205629F
:1004D000D0E0FFD0E0FED0E0FDD0E0FC120112D071
:1004E00082D083E0FAEDD2E7CD33EC332482FBE413
:1004F000C3CF33CFCE33CECD33CD33DBF37B0775D4
:10050000F00A846004F0A31B0AE5F0F0A38FF074F6
:100510000AA4FFACF08EF0740AA42CFEACF05001DB
:100520000C8DF0740AA42CFDE435F0F0A3DBDE742E
:1005300007223F8000004120000042C80000447AAA
:100540000000461C400047C35000497424004B186B
:1005500096804CBEBC205A0E1BCA6753C21C749DA9
:10056000C5AEFB60065407601C2323120590EB54B4
:1005700038600912057C12058B120112ECF8EDF9B6
:10058000EEFAEFCB22EB12058B80F1543803241CDA
:10059000900532FE93FC0EEE93FD0EEE930ECE937D
:1005A000FF22BB010689828A83E0225002E722BB38
:1005B000FE02E32289828A83E49322BB010CE58256
:1005C00029F582E5833AF583E0225006E92582F891
:1005D000E622BBFE06E92582F8E222E58229F582C1
:1005E000E5833AF583E49322BB010689828A83F08E
:1005F000225002F722BBFE01F322C2D5EC30E709FC
:10060000B2D5E4C39DFDE49CFCEE30E715B2D5E421
:10061000C39FFFE49EFE1208C0C3E49DFDE49CFC62
:1006200080031208C030D507C3E49FFFE49EFE227A
:10063000C5F0F8A3E028F0C5F0F8E5821582700255
:100640001583E038F022EF2BFFEE3AFEED39FDEC9A
:1006500038FC22C3EF9BFFEE9AFEED99FDEC98FC6F
:1006600022E88FF0A4CC8BF0A42CFCE98EF0A42C13
:10067000FC8AF0EDA42CFCEA8EF0A4CDA8F08BF05F
:10068000A42DCC3825F0FDE98FF0A42CCD35F0FC5D
:10069000EB8EF0A4FEA9F0EB8FF0A4CFC5F02ECD29
:1006A00039FEE43CFCEAA42DCE35F0FDE43CFC220E
:1006B00075F008758200EF2FFFEE33FECD33CDCC01
:1006C00033CCC58233C5829BED9AEC99E582984084
:1006D0000CF582EE9BFEED9AFDEC99FC0FD5F0D661
:1006E000E4CEFBE4CDFAE4CCF9A88222B800C1B98B
:1006F0000059BA002DEC8BF084CFCECDFCE5F0CBC9
:10070000F97818EF2FFFEE33FEED33FDEC33FCEB01
:1007100033FB10D703994004EB99FB0FD8E5E4F9BC
:10072000FA227818EF2FFFEE33FEED33FDEC33FCA9
:10073000C933C910D7059BE99A4007EC9BFCE99A9D
:10074000F90FD8E0E4C9FAE4CCFB2275F010EF2FE2
:10075000FFEE33FEED33FDCC33CCC833C810D707E2
:100760009BEC9AE899400AED9BFDEC9AFCE899F81D
:100770000FD5F0DAE4CDFBE4CCFAE4C8F922EF4B74
:10078000FFEE4AFEED49FDEC48FC22C3E49FFFE486
:100790009EFEE49DFDE49CFC22EB9FF5F0EA9E4268
:1007A000F0E99D42F0E89C45F022E8600FECC313AD
:1007B000FCED13FDEE13FEEF13FFD8F122E8600FFE
:1007C000EFC333FFEE33FEED33FDEC33FCD8F12203
:1007D000E0FCA3E0FDA3E0FEA3E0FF22E0F8A3E03D
:1007E000F9A3E0FAA3E0FB22BB010789828A830216
:1007F00007DC5005E9F8020915BBFE05E9F8020916
:100800002289828A8302092FECF0A3EDF0A3EEF097
:10081000A3EFF022E0FBA3E0FAA3E0F922F8E0FB6B
:10082000A3A3E0F925F0F0E582158270021583E0BC
:10083000FA38F022EBF0A3EAF0A3E9F022E493FB0C
:10084000740193FA740293F922D083D082F8E4936E
:100850007012740193700DA3A393F8740193F58241
:100860008883E4737402936860EFA3A3A380DFE539
:10087000162582F582E5153583F583B51504858245
:10088000162210AF06858216F51522858216F515FB
:10089000D2AF22EC8EF0A4CCC5F0CCCDF8EFA4CE34
:1008A000C5F02DFDE43CFCE8A42EC8C5F03DFDE4F8
:1008B0003CFCEFA4FFE5F028FEE43DFDE43CFC2217
:1008C000BC000BBE0029EF8DF084FFADF022E4CC1C
:1008D000F875F008EF2FFFEE33FEEC33FCEE9DECE5
:1008E000984005FCEE9DFE0FD5F0E9E4CEFD22ED2B
:1008F000F8F5F0EE8420D21CFEADF075F008EF2F75
:10090000FFED33FD4007985006D5F0F222C398FD65
:100910000FD5F0EA22E6FB08E6F908E6FA08E6CB8E
:10092000F822E2FB08E2F908E2FA08E2CBF822E456
:1009300093F8740193F9740293FA740393FB22E51C
:100940000D2495F582E43400F583E0050D22900036
:1009500092301003900095E475F00112081D020515
:10096000A22009E97F2ED2098018EF540F2490D4D9
:100970003440D4FF300D0BEF24BFB41A00500324D1
:1009800061FFE50E6002150E0511E51170020510FC
:1009900030100E900092E475F00112081DEF020570
:1009A000E8021F727403D2108003E4C210F50D90A8
:1009B0000092120834E4F50EF510F511E50E60070B
:1009C0007F2012098280F5750FFFC20AC209C20B8F
:1009D000C20CC20EC20FC21112094EFF700D3010B0
:1009E000057F00120993AF11AE1022B4255FC2D566
:1009F000C20D12094EFF24D0B40A00501A75F00A35
:100A0000780E30D50508B6FF0106C6A426F620D517
:100A1000047002D20C80D924CFB41A00EF5004C263
:100A2000E5D20D020C85D20A80C6D20980C0D20B55
:100A300080BCD2D580BAD20E80B47F201209822029
:100A40000B077401B50E0040F112093FFF12098235
:100A50000209BCD211D20F809512093FFB12093F47
:100A6000FA12093FF94A4B700679837A0D7BFF2011
:100A70000B2EE50E602A7E008E827583001205BB68
:100A800060060EEE650F70F0C2D5EBC0E0EAC0E084
:100A9000E9C0E0EE120CE6D0E0F9D0E0FAD0E0FBDD
:100AA0001205A2FF60AAEBC0E0EAC0E0E9C0E012D4
:100AB0000982D0E02401F9D0E03400FAD0E0FBE56F
:100AC0000F0460DCD50FD98087D20B80A2120CC82E
:100AD00060F7E50F7001041203F0A90F600DE50F38
:100AE000600914F50F120D70EF60F3EA30E702F4BD
:100AF00004C3995079EAF4250F0430E701E404F5C2
:100B00000F800D120CC860C1EA050F250F1203F00B
:100B1000EA9000C1F030E701E4250F04D50F04206E
:100B20000E0114120CE6E4C0E0120D709000C1E05A
:100B3000601320E70714F012096A802204F0D0E065
:100B400014C0E07F0012096AE50F60071209611501
:100B50000F800B300E03120961D0E00209BCD0E017
:100B60000480C4120CC8609EE50F041203F09000CC
:100B7000C1EAF0E50F200E026001042404120CE625
:100B800074FF04C0E0120D7012096AE50F200E0216
:100B90006003120961D0E0B50FE87F451209749037
:100BA00000C1E07F2B30E7047F2DF404C0E0120980
:100BB00082D0E075F00A84C0F012096BD0E012090F
:100BC0006B0209BC791080027908C20FC21180083B
:100BD000D2D5790A8004790AC2D5E50F047002F5EE
:100BE0000FE4FAFDFEFF12093FFC7B08200A1312F6
:100BF000093FFD7B1030090A12093FFE12093FFF31
:100C00007B20EC3382D592D55013C3E43009069F84
:100C1000FFE49EFEE4200A039DFDE49CFCE4CBF887
:100C2000C20AEC700CCFCECDCCE824F8F870F3807B
:100C300017C3EF33FFEE33FEED33FDEC33FCEB3344
:100C4000FB994002FB0FD8E9EB300A05F8D0E0C46D
:100C500048B20AC0E00AEC4D4E4F78207B0070C2CB
:100C6000EAB50F0040BCC0E0120CE8D0F0D0E020A4
:100C70000A04C4C0E0C4B20AC0F012096BD0F0D5B7
:100C8000F0EB0209BC1208490A59530BC4580A2A4E
:100C90004C0A26420BC84F0BD0440BD0490A3F43A5
:100CA0000BD6550B03460B63450ACD470DA3500ADF
:100CB0002E2D0A322E0A552B0A36230A53200D8C6C
:100CC0002A09EE4800000A4DE50FB4FF03750F0630
:100CD00012093FFC12093FFD12093FFE12093FFFB6
:100CE0009000BA02042D790AA2D5200C14300E0906
:100CF000B910020404B9080104A2D5200F02500162
:100D000004200B68920BB50E005034C0E07F2030F9
:100D10000C197F30A20B720F720E500F120D3FC2D2
:100D20000BC20FC20EC2117F30800F300E03E9C01C
:100D3000E0120982300E03D0E0F9D0E0B50ECC30DD
:100D40000E177F30B9100C1209827F58300D077FC3
:100D5000788003B90803120982300B057F2D020940
:100D6000827F202011F87F2B200FF322920B80CF5F
:100D70007F00B40700500B24BAF582E43400F583F9
:100D8000E0FF22286E756C6C2900D20A12093F30F0
:100D90000AF8C20A780E30D50108F60209EE2D5085
:100DA00043495812093F2403B405004001E4900D63
:100DB0009E93120973743A120973D20C750E0402D1
:100DC0000BC4C0E0C0F0C083C082C085C084C086B0
:100DD000758600C093759300C0D075D000C000C068
:100DE00001C002C003C004C005C006C007E4FFFE86
:100DF000FDFC900020120808E4FFFEFDFC9000249A
:100E0000120808E4FFFEFDFC900028120808E4FF29
:100E1000FEFDFC90002C120808E4FFFEFDFC900093
:100E200030120808E4FFFEFDFC9000431208089011
:100E30000047E4F0A3F0900114E07004A3E0640123
:100E40007017122198E412033190012C12080890B7
:100E50000114E4F0A3F00210CC122198E412033143
:100E60009000201208089000201207D090012C1248
:100E700007DC1202B8502690012C1207DCC000C01B
:100E800001C002C0031222FFE4120331D003D002DA
:100E9000D001D00012002190012C120808900020EF
:100EA0001207DC90012C1207D012001D90002412B2
:100EB00008081222FFE4120331A804A905AA06AB10
:100EC000079000241207D012021B7BFE7AF479B23D
:100ED000784312011290002812080890002412078B
:100EE000D0C004C005C006C007900112E0FEA3E018
:100EF000FF7C007D051205FAEDAE047802C333CE07
:100F000033CED8F92418F58274013EF583D007D08A
:100F100006D005D004120808900112E475F0011201
:100F20000630121AA390013412080890002012070C
:100F3000D090012C1208089001341207DC7F337E18
:100F4000337D437C4012001D90002C120808900154
:100F50003A1207DCC000C001C002C0039000281292
:100F600007D090002C1207DC120112D003D002D05F
:100F700001D00012002190013A120808900112E0FD
:100F80007004A3E0641C700AFFFEFDFC90013A129D
:100F900008087F007E107DA47C4590002C1207DCA1
:100FA000120112E4FBFA79617844120021C004C0F6
:100FB00005C006C007E4FFFE7DFA7C4390002C12BA
:100FC00007DC1201129000281207DC12021BD0036A
:100FD000D002D001D0001200219000431208087FF7
:100FE00001121FBCE4FDFF121CC97BFF7A1E79862B
:100FF00090009512083490002C1207D0900098129F
:1010000008087B017A0079341209A47B017A0079FF
:1010100034121D087BFF7A1E7989121D087BFF7A26
:101020001E7986900095120834E4FFFE7DFA7C4319
:1010300090002C1207DC1201129000281207DC121B
:10104000021B9000981208087B017A00793412097B
:10105000A47B017A007934121D08E4FFFE7D7A7CBE
:10106000459000431207DC1202B86010400E7F006A
:101070007EC07DA87C44900043120808E4FFFEFD7A
:10108000FC9000431207DC1202B86002500DE4FF2E
:10109000FE7D807C3F9000431208089000431207B9
:1010A000D012036F900047EEF0A3EFF0E4FD7F0154
:1010B000121CC9900047E0FEA3E0FFE4FCFD1218FB
:1010C00080900047E0FEA3E0FF12223AD007D0064E
:1010D000D005D004D003D002D001D000D0D0D0931E
:1010E000D086D084D085D082D083D0F0D0E032C0FA
:1010F000E0C0F0C083C082C085C084C08675860011
:10110000C093759300C0D075D000C000C001C0026C
:10111000C003C004C005C006C0079001441207DC2C
:101120009001301207D012001D900079120808902B
:1011300001401207DCC000C001C002C0037FA47ED2
:101140008C7D387C379000791207DC120112D003B5
:10115000D002D001D000120021900140120808E412
:10116000FFFE7DC87C429000791207DC1201127BE1
:10117000007A80798E7845120021C004C005C0062F
:10118000C007E4FFFE7D487C429001401207DC125C
:101190000112D003D002D001D00012002190007DB6
:1011A0001208087F01121FBCE4FDFF121CC97BFF5F
:1011B0007A1E79869000951208349000791207D033
:1011C0009000981208087B017A0079831209A47BA9
:1011D000017A007983121D087BFF7A1E7989121D1E
:1011E00008E4FFFE7DAF7C4590007D1207DC120213
:1011F000B8600F400DE4FFFE7DAF7C4590007D128E
:101200000808E4FFFE7D617C4590007D1207DC123A
:1012100002B86002500DE4FFFE7D617C4590007DC8
:1012200012080890007D1207D012036F900081EE23
:10123000F0A3EFF0E4FD7F01121CC9900081E0FEF5
:10124000A3E0FFE4FCFD121880900081E0FEA3E023
:10125000FF122248D007D006D005D004D003D00218
:10126000D001D000D0D0D093D086D084D085D08289
:10127000D083D0F0D0E0327B007A4679E81222DDCC
:10128000EF4405FD7B007A4679E81222E9E4F51483
:10129000E514C3940A502CE51475F005A42412F546
:1012A00082E43424AF82F5128F13F58312083D8F48
:1012B00082851283740393FC740493FD121DE2056E
:1012C0001480CD7B087A007900121EC97B007A5801
:1012D000794C7D037C021222017B017A5079031242
:1012E00022DDEF4402FD7B017A5079031222E97B73
:1012F000017A5079131222DDEF4402FD7B017A500E
:1013000079131222E99043A0E04440F09043C2E0F8
:101310004410F07B087A047994C003C002C0017BBA
:10132000007A5179229000CC120834D001D002D03A
:10133000037F087E00121DAE7B087A04799CC003EF
:10134000C002C0017B007A5179329000CC1208347F
:10135000D001D002D0037F087E00121DAE7B087A38
:101360000479A4C003C002C0017B007A5179429085
:1013700000CC120834D001D002D0037F087E0012C6
:101380001DAE9044F47401F0904322E04408F090C4
:1013900046ECE0C394055006904689743AF09048B4
:1013A0000074F1F01213D190480074B1F0121D795D
:1013B0007B007A4379A0C00179B09000CC12083448
:1013C000D0017F0E7E00121DAE9043B0E054FDF0C0
:1013D000227B007A4079807D017C001222019040BE
:1013E000827418F07B007A4079847D077C00122299
:1013F000019040867418F07B007A4079887D177CD4
:101400000012220190408A7418F07B087A0479ACAB
:10141000C003C002C0017B007A4179009000CC1269
:101420000834D001D002D0037F047E00121DAE909C
:1014300043007402F09040007408F090420074037E
:10144000F07B0C7A0179081222DD9046A1EFF07B47
:10145000007A4279227D087C001222017B007A42C8
:1014600079207D517C12122201E49000C6F07F1990
:10147000FEFDFC9000C21208089000C21207D0D3F3
:10148000EF9400EE9400403B9000C6E0FF640360E0
:1014900032904225E05401FEEF25E04E54039000C7
:1014A000C6F0E47FE07E01FDFC121E009000C21237
:1014B00007D074FFFBFAF9F81206469000C2120832
:1014C0000880B69000C21207D0EF4E70057F03125D
:1014D0001DFB7B007A4079047D007C011222019083
:1014E00040047407F0904006E4F09040087448F01F
:1014F000904004E4F09040017402F090400B7404BA
:10150000F09043A2E04407F09043A1E04401F09042
:1015100043A0E04480F022E47F947E01FDFC900033
:10152000CA120808905120E05480F0905122E054F3
:10153000F09000C9F0E0440F905122F0A3E054F085
:101540009000C9F0E0905123F0A3E054F09000C95E
:10155000F0E0905124F0905120E054DFF0E044405E
:10156000F0E4FFFE121E9C905120E04410F07F0139
:101570007E00121E9C905121E09000C9F0905120F5
:10158000E054EFF0E4FFFE121E9C9000C9E0540806
:10159000F0905120E04410F07F017E00121E9C90DC
:1015A0005120E054EFF09000C9E070067F0AFE126F
:1015B0001E9C9000CA1207D074FFFBFAF9F81206BD
:1015C000469000CA1208089000C9E0600DA31207F7
:1015D000D0D3EF9400EE94005087905120E054BF98
:1015E000F0E05480F0905122E054F0F0A3E054F089
:1015F0009000C9F0E0440F905123F0A3E054F09024
:1016000000C9F0E0440F905124F022759300780057
:101610007583467582E8E04401F0009046ECE0F9FD
:101620009046FAE0FAB903225420B40012B8001A26
:10163000EA901FFFF07401901FFEF09046F6F090C4
:101640001FFEE06005901FFFE0FA90480074C0F0B4
:1016500075812290000078007920E4F0A3D8FCD9AD
:10166000FAEA900151F002001175151F7516FD126E
:1016700012770216B0021BDEE493A3F8E493A340B2
:1016800003F68001F208DFF48029E493A3F85407FD
:10169000240CC8C333C4540F4420C8834004F456F8
:1016A000800146F6DFE4800B010204081020408030
:1016B000901925E47E019360BCA3FF543F30E509F7
:1016C000541FFEE493A360010ECF54C025E060A830
:1016D00040B8E493A3FAE493A3F8E493A3C8C582C3
:1016E000C8CAC583CAF0A3C8C582C8CAC583CADF31
:1016F000E9DEE780BE90004D120834E4FFFEFDFCF9
:10170000900050120808E4FFFEFDFC9000541208FF
:1017100008E47F05FEFDFC900058120808900112B5
:10172000E0FEA3E0FFC39405EE64809480500CEECD
:101730003395E0FDFC900058120808E4FFFEFDFC24
:101740009000541208089000581207D090005412CC
:1017500007DCC312079950579000501207D0C004FD
:10176000C005C006C007E47F04FEFDFC90005412D3
:1017700007DC12066190004D120814E92FF9EA3EC9
:10178000FAEB3DFB1207E8D007D006D005D00412D3
:1017900000219000501208089000541207D0E47BFA
:1017A00001FAF9F812064690005412080880979042
:1017B00000581207D0E4120331A804A905AA06AB09
:1017C000079000501207D012021B22C0E0C0F0C0E8
:1017D00083C082C085C084C086758600C09375931F
:1017E00000C0D075D000C000C001C002C003C0045A
:1017F000C005C006C007122345E4FCFD9000181286
:101800000808122345E4FCFD90001C12080812236E
:1018100081900138E07002A3E07022900138F0A3BB
:1018200004F09000181207DC90001C1207D012067A
:1018300053E41203319001301208088020900138DF
:10184000E4F0A3F09000181207DC90001C1207D0FF
:10185000120653E4120331900144120808D007D055
:1018600006D005D004D003D002D001D000D0D0D013
:1018700093D086D084D085D082D083D0F0D0E0328F
:101880009000921208089000A2740AF0E02497F5E4
:1018900082E43400F583E4F09000A2E014F09000BC
:1018A000921207D0C3EF940AEE94004043E47B0AFF
:1018B000FAF9F89000921207D01206ECEB2430FFF0
:1018C000900096F09000A2E02497F582E43400F5B1
:1018D00083EFF09000921207D0E47B0AFAF9F81235
:1018E00006EC9000921208089000A2E014F080AE7E
:1018F000E47B0AFAF9F89000921207D01206ECEB9A
:101900002430FF900096F09000A2E0FE2497F5822C
:10191000E43400F583EFF074972EF9E43400FA7B99
:1019200001121D082244012C000000004201140095
:101930000142011200004401340000000044013A59
:10194000000000004401400000000042013E000091
:10195000420138000044013000000000440144000E
:10196000000000420116000041015C0041015B00E3
:1019700041015D0041015E0041015F0041016000E5
:1019800041016100410162004101630044014D01D8
:101990006E360044014800005DC041014C1844010E
:1019A000522EE00000430156000000410164000097
:1019B000C0E0C0F0C083C082C085C084C086758688
:1019C00000C093759300C0D075D000C000C001C0A6
:1019D00002C003C004C005C006C0077F01121FBCBF
:1019E0007BFF7A1E7979121D08122150122371C3D0
:1019F000900117E09402900116E0648094805008F2
:101A00001220F17F501223F9900116E475F00112B3
:101A10000630D007D006D005D004D003D002D001C4
:101A2000D000D0D0D093D086D084D085D082D0833F
:101A3000D0F0D0E032E47F28FEFDFC121B797F035A
:101A4000121FDFE47F05FEFDFC121B797F03121FCE
:101A5000DFE47F0FFEFDFC121B797F03121FDFE422
:101A60007F01FEFDFC121B797F02121FDFE47F0560
:101A7000FEFDFC121B797F06121FBC7F0E121FBCDD
:101A80007F2C121FBC7F08121FBC7F01121FBC7F5E
:101A90000C121FBC7F03121FBCE47F05FEFDFC126D
:101AA0001B7922E4FFFEFDFC9000491208087B012F
:101AB0007A0179181216F59000491208081222FFCF
:101AC000E4120331A804A905AA06AB079000491245
:101AD00007D012021B7BFE7AF479B278431201120E
:101AE0009000491208089000491207DC7F717E3D82
:101AF0007DCA7C3F12021BE4FBFA79407841120256
:101B00001B9000491208089000491207D022C0E03B
:101B1000C0F0C083C082C085C084C086758600C006
:101B200093759300C0D075D000C000C001C002C042
:101B300003C004C005C006C0077F01121FBC7BFFA5
:101B40007A1E796D121D081220F17F141223F9906C
:101B50000116E4F0A3F0D007D006D005D004D003DE
:101B6000D002D001D000D0D0D093D086D084D08500
:101B7000D082D083D0F0D0E03290FFFC12086F12F8
:101B800008088515838516821207D0D3EF9400EEDE
:101B90009480402E9001521207D0121E00851583AA
:101BA000851682C083C0821207D0E42FFFEE3480F6
:101BB000FEED34FFFDEC34FFFCD082D08312080828
:101BC00080C09001481207D08515838516821207C0
:101BD000DC120661121E0090000412086F22D2AFC0
:101BE0009044F474FDF01220CB1220A57E0D7FC22C
:101BF00012221012213D7E1B7F0E12227212212A08
:101C00007E197FB01222641221177E177FCB122219
:101C1000561221637E107FEF12229C122022122185
:101C2000041221B61220DE1221A71220B8E4FDFF13
:101C3000121CC97BFF7A1E798C121D0880FE22EFD0
:101C40005403FE905842E054FC4EF0EFB4011D7B6B
:101C50000C7A0179121222DD904634EFF07B0C7A77
:101C60000179161222DD904635EFF0227B0C7A01C5
:101C700079B11222DD904634EFF07B0C7A0179B90C
:101C80001222DD904635EFF0229000C9EFF090511E
:101C900020E04420F0E054BFF0E4FFFE121E9C90D0
:101CA0005120E054F0F0C083C082E0FF9000C9E012
:101CB0004410FEEF4ED082D083F07F017E00121ED2
:101CC0009C905120E054EFF0229000C2EDF0EF1410
:101CD000601514601D1460252403702B9000C2E071
:101CE0002480FF121FBC229000C2E024C0FF121FFC
:101CF000BC229000C2E02494FF121FBC229000C2BC
:101D0000E024D4FF121FBC229000C21208349000BD
:101D1000C57401F01205A29000C6F09000C6E0FF65
:101D20006021121F999000C21208149000C5E0298A
:101D3000F9E43AFA1205A29000C6F09000C5E0045A
:101D4000F080D822906475E054F8FFF0E054FCFF76
:101D5000F01222B77FFF1223F3E4FF1223E7E4FF20
:101D60001223DB1223E17F501223F91220529064D8
:101D700095E04410F012203A227B0C7A0179CF12C0
:101D800022DDEF540790586EF0EFC4540FA3F0908B
:101D9000514D7401F0905A907420F0905AD0741004
:101DA000F0905AD47420F09058767444F0227586DE
:101DB00000EF4E6027EF60010E7593009000CCE0BD
:101DC000F595A3E0F585A3E0F5848B938A8389825A
:101DD000E0A30586F0A31586DFF6DEF4E4F593F5BF
:101DE0009522EC4D6011ED60010C8B938A83898202
:101DF000E4F0A3DDFCDCFA7593002280FE2232328F
:101E0000EC4D4E700D78FCEF24E950032840FD2284
:101E100000007BF178DA0000EF28FF78FFEE38FE53
:101E2000ED38FDEC38FC50E7EF2BFFEE38FEED38D7
:101E3000FDEC38FC40F22205020304905828E054DF
:101E40000C7E007802CEC313CE13D8F92406FFE42B
:101E5000EF2428FFE43401FEE4340CFDE433A90749
:101E6000AA06AB051222DD90460AEFF02246726107
:101E70006D652073746172740052656164696E6788
:101E8000206C696E65002566002F2F00454C453398
:101E90003032204361726C6162003232EEFA90019E
:101EA0004CE0F88FF0A4FFAEF0E88AF0A42EFEE537
:101EB000F03400FDEF24C9FF78FFEE38FEED38FD69
:101EC000E438FC5003021E0022ACEAADA08B938ADA
:101ED000838982E0F96017A3E0F5EAA3E0F5A0A307
:101EE000E060F4FAA3E0F8A3E0F2DAF8D9E98DA013
:101EF0008CEAE4F59322906471E054C0FF4409F049
:101F0000906490E04401F0A3E04401F07F107E274C
:101F100012221E7F107E2712222CE4FFFE12223A8C
:101F20002274FFFFFE12228074FFFFFE12228E1227
:101F30002052906497E04410F012203A7F01122161
:101F4000E31222C47F021224052274FFFFFEFDFC6F
:101F500012230974FFFFFEFDFC12231D1220529074
:101F60006597E04410F012203A1222AAE4FF1223EF
:101F7000CF22EFB40A07740D121F7D740A30981136
:101F8000A899B8130CC2983098FDA899C298B811B6
:101F9000F63099FDC299F599229000C7EFF012151D
:101FA000179000C7E0FFC4540FFFA3F0121C8990E4
:101FB00000C7E0540FFFA3F0121C89229000C3EF6A
:101FC000F01215179000C3E0FFC4540FFFA3F012E6
:101FD0001FDF9000C3E0540FFFA3F0121FDF229019
:101FE0005120E0549FF0E054F0F0E0FEEF4410FF89
:101FF000EE4FF07F017E00121E9C905120E054EFC6
:10200000F022E4FF121C3F905842E04420F0E054DC
:10201000FBF0E04408F0905AD7E054E7F0E04408C1
:10202000F022900162E07009122176900162740141
:10203000F01221D47F641223FF22EF54016004D2F6
:10204000AF8002C2AFEF5402FF9044F4E054FD4F62
:10205000F0229044F4E0F84402F0E85402FF10AF9C
:10206000012274014FFF228B938A838982E0FFA3B0
:10207000E0FEA3E0FDA3E0FC759300228B938A832E
:102080008982EFF0A3EEF0A3EDF0A3ECF0759300DE
:1020900022905828E054F3F0E0FEEF540CFFEE4F8E
:1020A000F0121E3B221223907E1D7FFE1222107F13
:1020B000071222F51223892290015BE07009121A9F
:1020C0003590015B7401F01222D12290015DE07025
:1020D00009121F4A90015D7401F0122359229001E8
:1020E0005EE07009121EF690015E7401F012236129
:1020F00022900160E07009121D449001607401F0AB
:1021000012236922900161E070091220029001619E
:102110007401F01221C52212239E7E1D7FFF122220
:10212000567F07122327122397221223AC7E1E7F8D
:102130009A1222647F071223311223A5221223BA96
:102140007E1E7F9B1222727F0712233B1223B32233
:10215000900163E07009121F219001637401F01275
:102160002379221223C87E247F1112229C7F07121A
:10217000234F1223C122905828E4F0A3F0FF12202D
:1021800091E4FF12218722905828E054FDF0E0FEF0
:10219000EF5402FFEE4FF022906504E0FF7B027ADD
:1021A000657944122069229043A2E04404F09043F0
:1021B000B2E04404F0229043A1E04401F09043B126
:1021C000E04401F0229043A7E04404F09043B7E0DC
:1021D0004404F0229043A8E04404F09043B8E04463
:1021E00004F022EF5403FF906477E054FCF0E04FDA
:1021F000F0228B938A838982E0FFA3E0FE7593002F
:10220000228B938A838982EDF0A3ECF075930022F0
:102210007B027A447906AD07AC06122203227B02C8
:102220007A647900AD07AC06122203227B027A643D
:102230007940AD07AC06122203227B027A64792032
:10224000AD07AC06122203227B027A647922AD0725
:10225000AC06122203227B027A447902AD07AC0657
:10226000122203227B027A447900AD07AC061222C7
:1022700003227B027A447904AD07AC0612220322C2
:102280007B027A647926AD07AC06122203227B0218
:102290007A647906AD07AC06122203227B027A44E7
:1022A0007922AD07AC06122203221223D5EF30E3C8
:1022B0000512231380F4221223E1EF30E6051223E6
:1022C000ED80F42212240BEF30E30512234580F455
:1022D000227F0C121FBC90015C7401F0228B938A48
:1022E000838982E0759300FF228B938A838982ED34
:1022F000F075930022EFC43354E0904483F0227BC6
:10230000027A657924122069227B027A6579241287
:10231000207E227B027A657944122069227B027A30
:1023200065790412207E22EFC43354E0904481F09A
:1023300022EFC43354E0904480F022EFC43354E0E1
:10234000904482F0227B027A6479461221F422EFD3
:10235000C43354E0904491F022906575E04480F0DD
:1023600022906471E04480F022906475E04480F033
:1023700022906475E0547FF022906477E04480F00E
:1023800022906477E0547FF0229044C07408F022D9
:102390009044C87408F0229044C07402F022904423
:1023A000C87402F0229044C07401F0229044C874B2
:1023B00001F0229044C07404F0229044C87404F0E8
:1023C000229044C27402F0229044CA7402F0229017
:1023D0006587EFF022906567E0FF22906485EFF05B
:1023E00022906465E0FF22906405EFF0229064453E
:1023F000E0FF22906425EFF022906435EFF0229008
:102400005B82EFF022906487EFF022906467E0FF38
:102410002232004F00000C005100002000515000FB
:10242000200051C000100051F00010010000100009
:1024300001140008000140000A00014C00020001E4
:042440005000002028
:00000001FF
