:10000000020F11008F828E83E0540100000070F80F
:100010002278FFE4F6D8FD020F6F0203DBE864806C
:10002000F8E933E83360110460F0ED33EC33700924
:10003000E8FCE9FDEAFEEBFF220460DED3EB9FEA79
:100040009EE99DE8C2E78CF0C2F795F0400CE8CC41
:10005000F8E9CDF9EACEFAEBCFFB1203A685D0F092
:100060005804700320D5B3E80470075002B2D502DB
:1000700003E592D5EC0460F7E4CCC0E0C398F860E7
:100080003B94186008400DD0E0FB0203BDE4FBFA8E
:10009000C9FC8028E830E406E4C9FBE4CAFCE83087
:1000A000E305E4C9CACBFCE854076010F8C3E913C0
:1000B000F9EA13FAEB13FBEC13FCD8F130F52FC37C
:1000C000E49CFCEF9BFFEE9AFEED99FDD0E0FBEF88
:1000D0004E4D4C701222DB030203E2EC2CFCEF339A
:1000E000FFEE33FEED33FDED30E7EB0203BDEF2B0A
:1000F000FFEE3AFEED39FDD0E0FB50130BBB0003E1
:100100000203E5ED13FDEE13FEEF13FFEC13FC020B
:1001100003BDEC4D6011E8497017ED33EC3304601A
:100120000DE4FCFFFEFD22E933E8330470F802031E
:10013000DB1203A658046009E4CC24815006285041
:10014000090203E52840030203E2C0E0EB4A7044E1
:10015000B98006D0E0FB0203D1EF4E701CBD8008D1
:10016000EBFFEAFEE9FD80EBE98DF0A4FEE5F0028D
:1001700001FBE9CDF9EAFEEBFFEF89F0A4FCE5F025
:10018000CE89F0A42EFFE435F0CD89F0A42DFEE455
:1001900035F08067EF4E7005BD80D780C3EF8BF0E0
:1001A000A4ACF0EE8BF0A42CFCE435F0F8EF8AF070
:1001B000A42CE5F038FCE433CB8DF0A42CFCE5F066
:1001C0003BF8EE8AF0A42CFCE5F038F8E433CF8954
:1001D000F0A42CFCE5F038CF3400CE89F0A42FFF3A
:1001E000E5F03EFEE433C98DF0A42EFEE5F039CDF6
:1001F0008AF0A42FFFE5F03EFEE43DFD33D0E0FBA6
:1002000050070BBB000F0203E5EC2CFCEF33FFEEB5
:1002100033FEED33FD0203BD0203E5EC5D04600532
:10022000E8590470030203DB1203A6580460F6ECDD
:100230004860F2EC7004FDFEFF22C860DB2481C838
:100240005009C398600250060203E29850CAF58232
:10025000E9294B4A7005AB820203D175F0007C1A84
:100260007880C3EF9BEE9AED99400DC3EF9BFFEEB4
:100270009AFEED99FDE842F0DC23ACF0D0E0FFD02F
:10028000E0FED0E0FDAB8220E7101BEB60BAEC2C67
:10029000FCEF33FFEE33FEED33FD0203BDE803F860
:1002A00030E705C0F075F000EF2FFFEE33FEED33C1
:1002B000FD40B830E7C280AA74F8CC6480CCC86432
:1002C00080C8F58204604FC3EB9FF5F0EA9E42F0D0
:1002D000E99D42F0E89C45F0603C501DE5825FFFDF
:1002E000E582D313CB5BCBF42B5582FB50280ABAA3
:1002F000002409B9002008801DE5825BFBE582D35C
:1003000013CF5FCFF4C3132F5582FF50090EBE00E9
:10031000050DBD00010CC3EB9FF5F0EA9E42F0E92C
:100320009D42F0E89C45F06007CC4820E701B3EC23
:100330002275F020800E75F010800575F0087D00A4
:100340007E007F003392D530D5031205ACEC3340EC
:1003500010EF33FFEE33FEED33FDEC33FCD5F0ED63
:1003600022E5F0247EA2D513CC92E7CDCEFF22ED7C
:10037000D2E7CD33EC3392D524814006E4FFFEFD75
:10038000FC22FCE4CFCECDCC24E0501174FF80EDF4
:10039000C3CC13CCCD13CDCE13CECF13CF0470F07E
:1003A00030D5DE0205ACE9D2E7C933E833F892D59F
:1003B000EDD2E7CD33EC33FC5002B2D522EC30E77E
:1003C000100FBF000C0EBE00080DBD00040BEB604B
:1003D00014A2D5EB13FCED92E7FD2274FFFCFDFEA9
:1003E000FF22E480F8A2D574FF13FC7D80E480EF47
:1003F000BB010689828A83E0225002E722BBFE020B
:10040000E32289828A83E49322BB010689828A835C
:10041000F0225002F722BBFE01F322C2D5EC30E7F6
:1004200009B2D5E4C39DFDE49CFCEE30E715B2D5DE
:10043000E4C39FFFE49EFE1206CAC3E49DFDE49C54
:10044000FC80031206CA30D507C3E49FFFE49EFE7A
:1004500022C5F0F8A3E028F0C5F0F8E58215827017
:10046000021583E038F022EF2BFFEE3AFEED39FD66
:10047000EC38FC22C3EF9BFFEE9AFEED99FDEC9861
:10048000FC22E88FF0A4CC8BF0A42CFCE98EF0A425
:100490002CFC8AF0EDA42CFCEA8EF0A4CDA8F08B05
:1004A000F0A42DCC3825F0FDE98FF0A42CCD35F04B
:1004B000FCEB8EF0A4FEA9F0EB8FF0A4CFC5F02EDC
:1004C000CD39FEE43CFCEAA42DCE35F0FDE43CFC45
:1004D0002275F008758200EF2FFFEE33FECD33CD8D
:1004E000CC33CCC58233C5829BED9AEC99E58298DA
:1004F000400CF582EE9BFEED9AFDEC99FC0FD5F0D9
:10050000D6E4CEFBE4CDFAE4CCF9A88222B800C14F
:10051000B90059BA002DEC8BF084CFCECDFCE5F0BC
:10052000CBF97818EF2FFFEE33FEED33FDEC33FC03
:10053000EB33FB10D703994004EB99FB0FD8E5E4AC
:10054000F9FA227818EF2FFFEE33FEED33FDEC338E
:10055000FCC933C910D7059BE99A4007EC9BFCE91D
:100560009AF90FD8E0E4C9FAE4CCFB2275F010EF59
:100570002FFFEE33FEED33FDCC33CCC833C810D79C
:10058000079BEC9AE899400AED9BFDEC9AFCE899F0
:10059000F80FD5F0DAE4CDFBE4CCFAE4C8F922EFA9
:1005A0004BFFEE4AFEED49FDEC48FC22C3E49FFF01
:1005B000E49EFEE49DFDE49CFC22EB9FF5F0EA9EA8
:1005C00042F0E99D42F0E89C45F022E8600FECC360
:1005D00013FCED13FDEE13FEEF13FFD8F122E860DC
:1005E0000FEFC333FFEE33FEED33FDEC33FCD8F1F8
:1005F00022E0FCA3E0FDA3E0FEA3E0FF22E0F8A3DD
:10060000E0F9A3E0FAA3E0FB22BB010789828A8319
:100610000205FD5005E9F802071FBBFE05E9F802D7
:10062000072C89828A83020739ECF0A3EDF0A3EE50
:10063000F0A3EFF022E0FBA3E0FAA3E0F922EBF055
:10064000A3EAF0A3E9F022E493FB740193FA7402A5
:1006500093F922D083D082F8E493701274019370DE
:100660000DA3A393F8740193F5828883E473740255
:10067000936860EFA3A3A380DFE50C2582F582E5F4
:100680000B3583F583B50B0485820C2210AF0685EC
:10069000820CF50B2285820CF50BD2AF22EC8EF08A
:1006A000A4CCC5F0CCCDF8EFA4CEC5F02DFDE43C34
:1006B000FCE8A42EC8C5F03DFDE43CFCEFA4FFE53A
:1006C000F028FEE43DFDE43CFC22BC000BBE00290A
:1006D000EF8DF084FFADF022E4CCF875F008EF2F39
:1006E000FFEE33FEEC33FCEE9DEC984005FCEE9DF6
:1006F000FE0FD5F0E9E4CEFD22EDF8F5F0EE842012
:10070000D21CFEADF075F008EF2FFFED33FD400772
:10071000985006D5F0F222C398FD0FD5F0EA22E6F4
:10072000FB08E6F908E6FA08E6CBF822E2FB08E265
:10073000F908E2FA08E2CBF822E493F8740193F99D
:10074000740293FA740393FB22C0E0C0F0C083C02C
:1007500082C085C084C086758600C093759300C032
:10076000D075D000C000C001C002C003C004C005E5
:10077000C006C007E4FFFEFDFC900023120629E43A
:10078000FFFEFDFC900027120629E4FFFEFDFC9011
:10079000002B120629E4FFFEFDFC90002F12062913
:1007A000E4FFFEFDFC900033120629E4FFFEFDFC91
:1007B00090004612062990004AE4F0A3F0900099B8
:1007C0001205F17B717A3D79CA783F1200219000C1
:1007D0009912062990006DE07004A3E0640170177F
:1007E000121857E412033190008B12062990006D05
:1007F000E4F0A3F00209E9121857E4120331900063
:10080000231206299000231205F190008B1205FD9A
:100810001202B8502690008B1205FDC000C001C026
:1008200002C003121974E4120331D003D002D001C4
:10083000D00012002190008B12062990002312058F
:10084000FD90008B1205F112001D90002712062961
:10085000121974E4120331A804A905AA06AB079083
:1008600000271205F112021B7BFE7AF479B278435D
:1008700012011290002B1206299000271205F1C0D8
:1008800004C005C006C00790006BE0FEA3E0FF7C3B
:10089000007D0512041BEDAE047802C333CE33CEC7
:1008A000D8F92477F58274003EF583D007D006D0BE
:1008B00005D00412062990006BE475F00112045172
:1008C0001212D19000931206299000231205F19084
:1008D000008B1206299000931205FD9000711205FD
:1008E000F112001D90002F1206299000B91205FD8B
:1008F000C000C001C002C00390002B1205F190009F
:100900002F1205FD120112D003D002D001D0001227
:1009100000219000B912062990006BE07004A3E05A
:10092000641C700AFFFEFDFC9000B91206297F00CE
:100930007E407D9C7C4490002F1205FD120112E444
:10094000FBFA79617844120021C004C005C006C0DA
:1009500007E4FFFE7DF07C429000B91205FD120114
:1009600012D003D002D001D0001200219000461214
:100970000629E4FFFE7D7A7C459000461205FD12B3
:1009800002B86010400E7F007EC07DA87C449000BD
:1009900046120629E4FFFEFDFC9000461205FD12FA
:1009A00002B86002500DE4FFFE7D807C3F9000465F
:1009B0001206297F007E207D197C45900099120542
:1009C000FD1202B8600F400DE4FFFE7D807C3F9079
:1009D00000461206299000461205F112036F90009E
:1009E0004AEEF0A3EFF01218CBD007D006D005D016
:1009F00004D003D002D001D000D0D0D093D086D084
:100A000084D085D082D083D0F0D0E0327B007A468B
:100A100079E8121952EF4405FD7B007A4679E81215
:100A2000195EE4F50AE50AC39408502CE50A75F04E
:100A300005A42461F582E4341AAF82F5088F09F524
:100A4000831206478F82850883740393FC74049392
:100A5000FD12173C050A80CD7B087A00790012153B
:100A6000A17B017A507903121952EF4402FD7B01F8
:100A70007A50790312195E7B017A50791312195258
:100A8000EF4402FD7B017A50791312195E9043A066
:100A9000E04440F09043C2E04410F07B087A0679CD
:100AA000C4C003C002C0017B007A51790290006487
:100AB00012063ED001D002D0037F087E0012153D01
:100AC0007B087A0679CCC003C002C0017B007A5152
:100AD00079C290006412063ED001D002D0037F0894
:100AE0007E0012153D7B087A0679D4C003C002C08F
:100AF000017B007A51792290006412063ED001D029
:100B000002D0037F087E0012153D7B087A0679DC4F
:100B1000C003C002C0017B007A5179329000641298
:100B2000063ED001D002D0037F087E0012153D7B27
:100B3000087A0679E4C003C002C0017B007A5179CB
:100B40004090006412063ED001D002D0037F0A7E9E
:100B50000012153D9044F47401F0904322E04408E3
:100B6000F09046ECE0C394055006904689743AF044
:100B700090480074F1F0120D1090480074B1F0121A
:100B8000171F7B007A4379A0C00179B090006412EE
:100B9000063ED0017F0E7E0012153D9043B0E0541A
:100BA000FDF022E4FFFE7D437CC49000A51205FD0C
:100BB00012002190000012062990009FE0FCA3E0A3
:100BC000FDEC1203369000001205FD12001D7B00A3
:100BD0007A6079EA78461201127B807A0D79C178C1
:100BE0004812021BC004C005C006C007E4FFFE7D1A
:100BF000107C409000001205FD120112A804A90506
:100C0000AA06AB077F007E807D8E7C4512001DD03A
:100C100003D002D001D00012001D9000A9120629B5
:100C20009000001205F112036F90009FEEF0A3EF09
:100C3000F0E4FFFE7D437C449000A51205FD120206
:100C4000B8603F403DE4FFFE7D437CC49000A512A8
:100C500005FD120021E4FBFA798C784312021BE4B3
:100C6000FBFAF97840120112A804A905AA06AB07FD
:100C7000E4FFFE7DB07C4012001D90007112062939
:100C8000803B9000A51205FDE4FFFE7D437C4412ED
:100C9000001DE4FBFA79AF784312021BE4FBFAF97A
:100CA0007840120112A804A905AA06AB07E4FFFECA
:100CB0007DB07C4012001D9000711206297F007EDD
:100CC000907DB07C459000A91205FD1202B860101D
:100CD000400E7F007E907DB07C459000A9120629D1
:100CE0007F007E407D677C459000A91205FD1202C1
:100CF000B86002500E7F007E407D677C459000A961
:100D00001206299000A91205F112036F1218F5229C
:100D10007B007A4079807D017C00121884904082AB
:100D20007418F07B007A4079847D077C0012188467
:100D30009040867418F07B007A4079887D177C009B
:100D400012188490408A7418F09043007402F09056
:100D500040007408F09042007403F07B0C7A017933
:100D6000081219529046A1EFF07B007A4279227D59
:100D7000087C001218847B007A4279207D517C1215
:100D8000121884E4900063F07F19FEFDFC90005F70
:100D900012062990005F1205F1D3EF9400EE940043
:100DA000403B900063E0FF64036032904225E054D2
:100DB00001FEEF25E04E5403900063F0E47FE07EF7
:100DC00001FDFC12160090005F1205F174FFFBFAA2
:100DD000F9F812046790005F12062980B690005F50
:100DE0001205F1EF4E70057F031215717B007A40FA
:100DF00079047D007C011218849040047407F090FF
:100E00004006E4F09040087448F0904004E4F0900C
:100E100040017402F09043A2E04407F022E47F9482
:100E20007E01FDFC900067120629905120E054805D
:100E3000F0905122E054F0900066F0E0440F9051A1
:100E400022F0A3E054F0900066F0E0905123F0A36C
:100E5000E054F0900066F0E0905124F0905120E0D2
:100E600054DFF0E04440F0E4FFFE1215749051208E
:100E7000E04410F07F017E00121574905121E09043
:100E80000066F0905120E054EFF0E4FFFE1215747C
:100E9000900066E05408F0905120E04410F07F018B
:100EA0007E00121574905120E054EFF0900066E03F
:100EB00070067F0AFE1215749000671205F174FF28
:100EC000FBFAF9F812046790006712062990006691
:100ED000E0600DA31205F1D3EF9400EE940050876B
:100EE000905120E054BFF0E05480F0905122E05443
:100EF000F0F0A3E054F0900066F0E0440F9051232E
:100F0000F0A3E054F0900066F0E0440F905124F01C
:100F10002275930078007583467582E8E04401F0FD
:100F2000009046ECE0F99046FAE0FAB9032254202A
:100F3000B40012B8001AEA901FFFF07401901FFE6F
:100F4000F09046F6F0901FFEE06005901FFFE0FA7B
:100F500090480074C0F075810C90000078007920F2
:100F6000E4F0A3D8FCD9FAEA900117F00200117559
:100F70000B1F750CFD120A0C020FB60213F2E4935C
:100F8000A3F8E493A34003F68001F208DFF480297C
:100F9000E493A3F85407240CC8C333C4540F44206B
:100FA000C8834004F456800146F6DFE4800B01025A
:100FB0000408102040809010D1E47E019360BCA30F
:100FC000FF543F30E509541FFEE493A360010ECFA8
:100FD00054C025E060A840B8E493A3FAE493A3F8D2
:100FE000E493A3C8C582C8CAC583CAF0A3C8C58292
:100FF000C8CAC583CADFE9DEE780BE90005012068A
:101000003EE4FFFEFDFC900053120629E4FFFEFDC6
:10101000FC900057120629E47F05FEFDFC90005B62
:1010200012062990006BE0FEA3E0FFC39405EE6476
:10103000809480500CEE3395E0FDFC90005B12062E
:1010400029E4FFFEFDFC90005712062990005B1278
:1010500005F19000571205FDC31205BA50579000D4
:10106000531205F1C004C005C006C007E47F04FEAA
:10107000FDFC9000571205FD1204829000501206EC
:1010800035E92FF9EA3EFAEB3DFB120609D007D00D
:1010900006D005D0041200219000531206299000BA
:1010A000571205F1E47B01FAF9F812046790005732
:1010B000120629809790005B1205F1E4120331A813
:1010C00004A905AA06AB079000531205F112021BF2
:1010D0002244007140600000440099000000004478
:1010E000008B0000000042006D000142006B000018
:1010F000440093000000004400B9000000004400D8
:10110000C3000000004200BD00004400A900000030
:101110000042009D000044008F000000004400C712
:10112000000000004400A50000000042006F000025
:1011300042007500004400BF000000004400A10010
:101140000000004400B5000000004400B1000000B1
:10115000004400AD00000000420097000042009FE4
:101160000000410122004101210041012300410111
:1011700024004101250041012600410127004401CE
:1011800013016E360044010E00005DC041011218CB
:101190004401182EE0000043011C0000004101281A
:1011A0000000C0E0C0F0C083C082C085C084C0869B
:1011B000758600C093759300C0D075D000C000C084
:1011C00001C002C003C004C005C006C0071219CE8A
:1011D0009000BF1206291219CE9000A11206291202
:1011E00019399000BF1205FD9000A11205F11204FB
:1011F00074E41203319000A5120629E4FFFE7D8CF1
:101200007C439000A51205FD1202B8500FE4FFFECA
:101210007D8C7C439000A51206298021E4FFFE7D91
:10122000967C449000A51205FD1202B8600F400D97
:10123000E4FFFE7D967C449000A5120629121A5701
:10124000D007D006D005D004D003D002D001D00002
:10125000D0D0D093D086D084D085D082D083D0F027
:10126000D0E032E47F28FEFDFC12133C7F0312160F
:10127000FCE47F05FEFDFC12133C7F031216FCE428
:101280007F0FFEFDFC12133C7F031216FCE47F016E
:10129000FEFDFC12133C7F021216FCE47F05FEFDEE
:1012A000FC12133C7F061216D97F0E1216D97F2C22
:1012B0001216D97F081216D97F011216D97F0C1287
:1012C00016D97F031216D9E47F05FEFDFC12133CEC
:1012D00022E4FFFEFDFC90004C1206297B017A00FF
:1012E0007977120FFB90004C120629121974E41240
:1012F0000331A804A905AA06AB0790004C1205F11A
:1013000012021B7BFE7AF479B2784312011290002C
:101310004C12062990004C1205FD7F717E3D7DCA5E
:101320007C3F12021BE4FBFA7940784112021B90C9
:10133000004C12062990004C1205F12290FFFC127D
:101340000679120629850B83850C821205F1D3EFED
:101350009400EE9480402E9001181205F1121600B0
:10136000850B83850C82C083C0821205F1E42FFFB8
:10137000EE3480FEED34FFFDEC34FFFCD082D083F0
:1013800012062980C090010E1205F1850B83850C91
:10139000821205FD120482121600900004120679D2
:1013A00022C0E0C0F0C083C082C085C084C0867502
:1013B0008600C093759300C0D075D000C000C001F6
:1013C000C002C003C004C005C006C007120BA3D0F2
:1013D00007D006D005D004D003D002D001D000D071
:1013E000D0D093D086D084D085D082D083D0F0D096
:1013F000E032D2AF9044F474FDF01217D21217AC61
:101400007E077F491218A11217E512186612180BF1
:101410001218317E117FA212190312181E121844DD
:101420007E137FA11219111217F81218751217BF27
:10143000E4FDFF1214C27BFF7A1879931215018024
:10144000FE22900066EFF0905120E04420F0E0543E
:10145000BFF0E4FFFE121574905120E054F0F0C08C
:1014600083C082E0FF900066E04410FEEF4ED08221
:10147000D083F07F017E00121574905120E054EF6C
:10148000F022906472E054F8FFF0E054FCFFF01298
:10149000192C74FFFFFEFDFC1219B0E4FFFEFDFCE9
:1014A00012199CE4FF121A45121A4BE47F32FEFD1A
:1014B000FC1219BA12176D90649AE04410F01217DA
:1014C000552290005FEDF0EF14601514601D14605C
:1014D000252403702B90005FE02480FF1216D92290
:1014E00090005FE024C0FF1216D92290005FE02434
:1014F00094FF1216D92290005FE024D4FF1216D96F
:101500002290005F12063E9000627401F01203F018
:10151000900063F0900063E0FF60211216B6900027
:101520005F120635900062E029F9E43AFA1203F0FE
:10153000900063F0900062E004F080D8227586008D
:10154000EF4E6027EF60010E759300900064E0F5A8
:1015500095A3E0F585A3E0F5848B938A838982E0E7
:10156000A30586F0A31586DFF6DEF4E4F593F59582
:101570002280FE22EEFA900112E0F88FF0A4FFAE76
:10158000F0E88AF0A42EFEE5F03400FDEF24C9FF58
:1015900078FFEE38FEED38FDE438FC50030216000B
:1015A00022ACEAADA08B938A838982E0F96017A30D
:1015B000E0F5EAA3E0F5A0A3E060F4FAA3E0F8A365
:1015C000E0F2DAF8D9E98DA08CEAE4F59322906490
:1015D0007FE054C0FF4409F090649EE04401F0A312
:1015E000E04401F07F107E271218AF7F107E271293
:1015F00018BDE4FFFE1218CB229044C07401F02203
:10160000EC4D4E700D78FCEF24E950032840FD228C
:1016100000007BF178DA0000EF28FF78FFEE38FE5B
:10162000ED38FDEC38FC50E7EF2BFFEE38FEED38DF
:10163000FDEC38FC40F2220502030490647CE05487
:10164000C0FF4409F090649CE04401F0A3E0440131
:10165000F07F607EEA1218D97F607EEA1218E7E414
:10166000FFFE1218F52274FFFFFEFDFC12197E74B6
:10167000FFFFFEFDFC12199212176D906597E04472
:1016800010F012175512191FE4FF121A392274FFB5
:10169000FFFEFDFC1219C474FFFFFEFDFC1219D8F9
:1016A00012176D906495E04410F012175512193915
:1016B0007F02121A5122900064EFF0120E1D90006A
:1016C00064E0FFC4540FFFA3F0121442900064E0E2
:1016D000540FFFA3F012144222900060EFF0120E9C
:1016E0001D900060E0FFC4540FFFA3F01216FC90A1
:1016F0000060E0540FFFA3F01216FC22905120E08E
:10170000549FF0E054F0F0E0FEEF4410FFEE4FF095
:101710007F017E00121574905120E054EFF0227B7F
:101720000C7A0179CF121952EF540790586EF0EFEE
:10173000C4540FA3F09058767444F022EC4D60111D
:10174000ED60010C8B938A838982E4F0A3DDFCDCDD
:10175000FA75930022EF54016004D2AF8002C2AF49
:10176000EF5402FF9044F4E054FD4FF0229044F413
:10177000E0F84402F0E85402FF10AF012274014F78
:10178000FF228B938A838982E0FFA3E0FEA3E0FD22
:10179000A3E0FC759300228B938A838982EFF0A3E8
:1017A000EEF0A3EDF0A3ECF075930022121A167E72
:1017B0001A7F5D1218A17F0712196A1215F922907B
:1017C0000121E070091212639001217401F01219D5
:1017D0004622900123E070091216669001237401DD
:1017E000F01219F622900124E070091215CE900132
:1017F000247401F01219FE22900125E070091216DE
:101800003B9001257401F0121A0622900126E07027
:10181000091214829001267401F0121A0E2290010E
:1018200027E0700912168E9001277401F0121A5EDB
:1018300022121A247E1A7F5F1219037F071219E2FF
:10184000121A1D22121A327E1A7F601219117F0796
:101850001219EC121A2B22906504E0FF7B027A65C4
:101860007944121784229043A2E04404F09043B2DA
:10187000E04404F0229043A2E04402F09043B2E03E
:101880004402F0228B938A838982EDF0A3ECF075F9
:10189000930022454C45333032204361726C6162C3
:1018A000007B027A447900AD07AC06121886227BD1
:1018B000027A64790EAD07AC06121886227B027A92
:1018C00064794EAD07AC06121886227B027A6479E1
:1018D0002EAD07AC06121886227B027A64790CAD15
:1018E00007AC06121886227B027A64794CAD07ACED
:1018F00006121886227B027A64792CAD07AC061298
:101900001886227B027A447902AD07AC061218864B
:10191000227B027A447904AD07AC061218862212A3
:101920001A3FEF30E30512198880F422121A4BEFA8
:1019300030E6051219A680F422121A57EF30E3059B
:101940001219CE80F4227F0C1216D9900122740154
:10195000F0228B938A838982E0759300FF228B9318
:101960008A838982EDF075930022EFC43354E090AE
:101970004480F0227B027A657924121784227B024C
:101980007A657924121799227B027A6579441217B5
:1019900084227B027A657904121799227B027A6489
:1019A0007907121799227B027A64794712178422E9
:1019B0007B027A647927121799227B027A6479373D
:1019C000121799227B027A647922121799227B02DC
:1019D0007A647942121784227B027A6479021217A0
:1019E0009922EFC43354E0904481F022EFC4335481
:1019F000E0904482F022906574E04480F02290648C
:101A00007FE04480F02290647CE04480F022906487
:101A100072E04480F0229044C87401F0229044C0E7
:101A20007402F0229044C87402F0229044C07404FE
:101A3000F0229044C87404F022906587EFF0229061
:101A40006567E0FF2290648AEFF02290646AE0FF0D
:101A500022906485EFF022906465E0FF223222320A
:101A600032005110001000515000200051F00010C1
:101A7000010000100001140008000140000A0001EC
:091A80004C00020001500000209E
:00000001FF
