:1000000002159A008F828E83E0540100000070F880
:100010002278FFE4F6D8FD0215F80203DBE86480DD
:10002000F8E933E83360110460F0ED33EC33700924
:10003000E8FCE9FDEAFEEBFF220460DED3EB9FEA79
:100040009EE99DE8C2E78CF0C2F795F0400CE8CC41
:10005000F8E9CDF9EACEFAEBCFFB1203A685D0F092
:100060005804700320D5B3E80470075002B2D502DB
:1000700003E592D5EC0460F7E4CCC0E0C398F860E7
:100080003B94186008400DD0E0FB0203BDE4FBFA8E
:10009000C9FC8028E830E406E4C9FBE4CAFCE83087
:1000A000E305E4C9CACBFCE854076010F8C3E913C0
:1000B000F9EA13FAEB13FBEC13FCD8F130F52FC37C
:1000C000E49CFCEF9BFFEE9AFEED99FDD0E0FBEF88
:1000D0004E4D4C701222DB030203E2EC2CFCEF339A
:1000E000FFEE33FEED33FDED30E7EB0203BDEF2B0A
:1000F000FFEE3AFEED39FDD0E0FB50130BBB0003E1
:100100000203E5ED13FDEE13FEEF13FFEC13FC020B
:1001100003BDEC4D6011E8497017ED33EC3304601A
:100120000DE4FCFFFEFD22E933E8330470F802031E
:10013000DB1203A658046009E4CC24815006285041
:10014000090203E52840030203E2C0E0EB4A7044E1
:10015000B98006D0E0FB0203D1EF4E701CBD8008D1
:10016000EBFFEAFEE9FD80EBE98DF0A4FEE5F0028D
:1001700001FBE9CDF9EAFEEBFFEF89F0A4FCE5F025
:10018000CE89F0A42EFFE435F0CD89F0A42DFEE455
:1001900035F08067EF4E7005BD80D780C3EF8BF0E0
:1001A000A4ACF0EE8BF0A42CFCE435F0F8EF8AF070
:1001B000A42CE5F038FCE433CB8DF0A42CFCE5F066
:1001C0003BF8EE8AF0A42CFCE5F038F8E433CF8954
:1001D000F0A42CFCE5F038CF3400CE89F0A42FFF3A
:1001E000E5F03EFEE433C98DF0A42EFEE5F039CDF6
:1001F0008AF0A42FFFE5F03EFEE43DFD33D0E0FBA6
:1002000050070BBB000F0203E5EC2CFCEF33FFEEB5
:1002100033FEED33FD0203BD0203E5EC5D04600532
:10022000E8590470030203DB1203A6580460F6ECDD
:100230004860F2EC7004FDFEFF22C860DB2481C838
:100240005009C398600250060203E29850CAF58232
:10025000E9294B4A7005AB820203D175F0007C1A84
:100260007880C3EF9BEE9AED99400DC3EF9BFFEEB4
:100270009AFEED99FDE842F0DC23ACF0D0E0FFD02F
:10028000E0FED0E0FDAB8220E7101BEB60BAEC2C67
:10029000FCEF33FFEE33FEED33FD0203BDE803F860
:1002A00030E705C0F075F000EF2FFFEE33FEED33C1
:1002B000FD40B830E7C280AA74F8CC6480CCC86432
:1002C00080C8F58204604FC3EB9FF5F0EA9E42F0D0
:1002D000E99D42F0E89C45F0603C501DE5825FFFDF
:1002E000E582D313CB5BCBF42B5582FB50280ABAA3
:1002F000002409B9002008801DE5825BFBE582D35C
:1003000013CF5FCFF4C3132F5582FF50090EBE00E9
:10031000050DBD00010CC3EB9FF5F0EA9E42F0E92C
:100320009D42F0E89C45F06007CC4820E701B3EC23
:100330002275F020800E75F010800575F0087D00A4
:100340007E007F003392D530D50312078BEC33400B
:1003500010EF33FFEE33FEED33FDEC33FCD5F0ED63
:1003600022E5F0247EA2D513CC92E7CDCEFF22ED7C
:10037000D2E7CD33EC3392D524814006E4FFFEFD75
:10038000FC22FCE4CFCECDCC24E0501174FF80EDF4
:10039000C3CC13CCCD13CDCE13CECF13CF0470F07E
:1003A00030D5DE02078BE9D2E7C933E833F892D5BE
:1003B000EDD2E7CD33EC33FC5002B2D522EC30E77E
:1003C000100FBF000C0EBE00080DBD00040BEB604B
:1003D00014A2D5EB13FCED92E7FD2274FFFCFDFEA9
:1003E000FF22E480F8A2D574FF13FC7D80E480EF47
:1003F000F920E73624F950037907E4F42402FBE5F9
:1004000082158270021583DBF6E024FB501BE96045
:1004100014E4F0E582158270021583E004F0B40A5A
:1004200008E4F0D9EE7401F00A22C2D522ED33ECD3
:100430003392D5FA602AB4FF33EDC2E77BFF600642
:100440007A047952E4227A04795B20D5047A04791B
:1004500056224E614E002B494E46002D494E460015
:10046000E47A08F0A3DAFC7B00740722C083C08220
:10047000ECC0E0EDC0E0EEC0E0EFC0E0EA75F010E7
:10048000A4CAABF075F04DA42BFBE435F0FCEA24D4
:1004900010FAEB34C5FBEC34D9FCEDC2E7FF75F084
:1004A00056A4F42411C5F0F434C58FF0A42AE5F065
:1004B0003BE43CF020E714120562D0E0FFD0E0FE00
:1004C000D0E0FDD0E0FC12021B8014F4041205629F
:1004D000D0E0FFD0E0FED0E0FDD0E0FC120112D071
:1004E00082D083E0FAEDD2E7CD33EC332482FBE413
:1004F000C3CF33CFCE33CECD33CD33DBF37B0775D4
:10050000F00A846004F0A31B0AE5F0F0A38FF074F6
:100510000AA4FFACF08EF0740AA42CFEACF05001DB
:100520000C8DF0740AA42CFDE435F0F0A3DBDE742E
:1005300007223F8000004120000042C80000447AAA
:100540000000461C400047C35000497424004B186B
:1005500096804CBEBC205A0E1BCA6753C21C749DA9
:10056000C5AEFB60065407601C2323120590EB54B4
:1005700038600912057C12058B120112ECF8EDF9B6
:10058000EEFAEFCB22EB12058B80F1543803241CDA
:10059000900532FE93FC0EEE93FD0EEE930ECE937D
:1005A000FF22BB010689828A83E0225002E722BB38
:1005B000FE02E32289828A83E49322BB010CE58256
:1005C00029F582E5833AF583E0225006E92582F891
:1005D000E622BBFE06E92582F8E222E58229F582C1
:1005E000E5833AF583E49322BB010689828A83F08E
:1005F000225002F722BBFE01F322C2D5EC30E709FC
:10060000B2D5E4C39DFDE49CFCEE30E715B2D5E421
:10061000C39FFFE49EFE1208C0C3E49DFDE49CFC62
:1006200080031208C030D507C3E49FFFE49EFE227A
:10063000C5F0F8A3E028F0C5F0F8E5821582700255
:100640001583E038F022EF2BFFEE3AFEED39FDEC9A
:1006500038FC22C3EF9BFFEE9AFEED99FDEC98FC6F
:1006600022E88FF0A4CC8BF0A42CFCE98EF0A42C13
:10067000FC8AF0EDA42CFCEA8EF0A4CDA8F08BF05F
:10068000A42DCC3825F0FDE98FF0A42CCD35F0FC5D
:10069000EB8EF0A4FEA9F0EB8FF0A4CFC5F02ECD29
:1006A00039FEE43CFCEAA42DCE35F0FDE43CFC220E
:1006B00075F008758200EF2FFFEE33FECD33CDCC01
:1006C00033CCC58233C5829BED9AEC99E582984084
:1006D0000CF582EE9BFEED9AFDEC99FC0FD5F0D661
:1006E000E4CEFBE4CDFAE4CCF9A88222B800C1B98B
:1006F0000059BA002DEC8BF084CFCECDFCE5F0CBC9
:10070000F97818EF2FFFEE33FEED33FDEC33FCEB01
:1007100033FB10D703994004EB99FB0FD8E5E4F9BC
:10072000FA227818EF2FFFEE33FEED33FDEC33FCA9
:10073000C933C910D7059BE99A4007EC9BFCE99A9D
:10074000F90FD8E0E4C9FAE4CCFB2275F010EF2FE2
:10075000FFEE33FEED33FDCC33CCC833C810D707E2
:100760009BEC9AE899400AED9BFDEC9AFCE899F81D
:100770000FD5F0DAE4CDFBE4CCFAE4C8F922EF4B74
:10078000FFEE4AFEED49FDEC48FC22C3E49FFFE486
:100790009EFEE49DFDE49CFC22EB9FF5F0EA9E4268
:1007A000F0E99D42F0E89C45F022E8600FECC313AD
:1007B000FCED13FDEE13FEEF13FFD8F122E8600FFE
:1007C000EFC333FFEE33FEED33FDEC33FCD8F12203
:1007D000E0FCA3E0FDA3E0FEA3E0FF22E0F8A3E03D
:1007E000F9A3E0FAA3E0FB22BB010789828A830216
:1007F00007DC5005E9F8020915BBFE05E9F8020916
:100800002289828A8302092FECF0A3EDF0A3EEF097
:10081000A3EFF022E0FBA3E0FAA3E0F922F8E0FB6B
:10082000A3A3E0F925F0F0E582158270021583E0BC
:10083000FA38F022EBF0A3EAF0A3E9F022E493FB0C
:10084000740193FA740293F922D083D082F8E4936E
:100850007012740193700DA3A393F8740193F58241
:100860008883E4737402936860EFA3A3A380DFE539
:10087000162582F582E5153583F583B51504858245
:10088000162210AF06858216F51522858216F515FB
:10089000D2AF22EC8EF0A4CCC5F0CCCDF8EFA4CE34
:1008A000C5F02DFDE43CFCE8A42EC8C5F03DFDE4F8
:1008B0003CFCEFA4FFE5F028FEE43DFDE43CFC2217
:1008C000BC000BBE0029EF8DF084FFADF022E4CC1C
:1008D000F875F008EF2FFFEE33FEEC33FCEE9DECE5
:1008E000984005FCEE9DFE0FD5F0E9E4CEFD22ED2B
:1008F000F8F5F0EE8420D21CFEADF075F008EF2F75
:10090000FFED33FD4007985006D5F0F222C398FD65
:100910000FD5F0EA22E6FB08E6F908E6FA08E6CB8E
:10092000F822E2FB08E2F908E2FA08E2CBF822E456
:1009300093F8740193F9740293FA740393FB22E51C
:100940000D24A6F582E43400F583E0050D22900025
:10095000A33010039000A6E475F00112081D0205F3
:10096000A22009E97F2ED2098018EF540F2490D4D9
:100970003440D4FF300D0BEF24BFB41A00500324D1
:1009800061FFE50E6002150E0511E51170020510FC
:1009900030100E9000A3E475F00112081DEF02055F
:1009A000E8021E717403D2108003E4C210F50D90AA
:1009B00000A3120834E4F50EF510F511E50E6007FA
:1009C0007F2012098280F5750FFFC20AC209C20B8F
:1009D000C20CC20EC20FC21112094EFF700D3010B0
:1009E000057F00120993AF11AE1022B4255FC2D566
:1009F000C20D12094EFF24D0B40A00501A75F00A35
:100A0000780E30D50508B6FF0106C6A426F620D517
:100A1000047002D20C80D924CFB41A00EF5004C263
:100A2000E5D20D020C85D20A80C6D20980C0D20B55
:100A300080BCD2D580BAD20E80B47F201209822029
:100A40000B077401B50E0040F112093FFF12098235
:100A50000209BCD211D20F809512093FFB12093F47
:100A6000FA12093FF94A4B700679837A0D7BFF2011
:100A70000B2EE50E602A7E008E827583001205BB68
:100A800060060EEE650F70F0C2D5EBC0E0EAC0E084
:100A9000E9C0E0EE120CE6D0E0F9D0E0FAD0E0FBDD
:100AA0001205A2FF60AAEBC0E0EAC0E0E9C0E012D4
:100AB0000982D0E02401F9D0E03400FAD0E0FBE56F
:100AC0000F0460DCD50FD98087D20B80A2120CC82E
:100AD00060F7E50F7001041203F0A90F600DE50F38
:100AE000600914F50F120D70EF60F3EA30E702F4BD
:100AF00004C3995079EAF4250F0430E701E404F5C2
:100B00000F800D120CC860C1EA050F250F1203F00B
:100B1000EA9000D2F030E701E4250F04D50F04205D
:100B20000E0114120CE6E4C0E0120D709000D2E049
:100B3000601320E70714F012096A802204F0D0E065
:100B400014C0E07F0012096AE50F60071209611501
:100B50000F800B300E03120961D0E00209BCD0E017
:100B60000480C4120CC8609EE50F041203F09000CC
:100B7000D2EAF0E50F200E026001042404120CE614
:100B800074FF04C0E0120D7012096AE50F200E0216
:100B90006003120961D0E0B50FE87F451209749037
:100BA00000D2E07F2B30E7047F2DF404C0E012096F
:100BB00082D0E075F00A84C0F012096BD0E012090F
:100BC0006B0209BC791080027908C20FC21180083B
:100BD000D2D5790A8004790AC2D5E50F047002F5EE
:100BE0000FE4FAFDFEFF12093FFC7B08200A1312F6
:100BF000093FFD7B1030090A12093FFE12093FFF31
:100C00007B20EC3382D592D55013C3E43009069F84
:100C1000FFE49EFEE4200A039DFDE49CFCE4CBF887
:100C2000C20AEC700CCFCECDCCE824F8F870F3807B
:100C300017C3EF33FFEE33FEED33FDEC33FCEB3344
:100C4000FB994002FB0FD8E9EB300A05F8D0E0C46D
:100C500048B20AC0E00AEC4D4E4F78207B0070C2CB
:100C6000EAB50F0040BCC0E0120CE8D0F0D0E020A4
:100C70000A04C4C0E0C4B20AC0F012096BD0F0D5B7
:100C8000F0EB0209BC1208490A59530BC4580A2A4E
:100C90004C0A26420BC84F0BD0440BD0490A3F43A5
:100CA0000BD6550B03460B63450ACD470DA3500ADF
:100CB0002E2D0A322E0A552B0A36230A53200D8C6C
:100CC0002A09EE4800000A4DE50FB4FF03750F0630
:100CD00012093FFC12093FFD12093FFE12093FFFB6
:100CE0009000CB02042D790AA2D5200C14300E09F5
:100CF000B910020404B9080104A2D5200F02500162
:100D000004200B68920BB50E005034C0E07F2030F9
:100D10000C197F30A20B720F720E500F120D3FC2D2
:100D20000BC20FC20EC2117F30800F300E03E9C01C
:100D3000E0120982300E03D0E0F9D0E0B50ECC30DD
:100D40000E177F30B9100C1209827F58300D077FC3
:100D5000788003B90803120982300B057F2D020940
:100D6000827F202011F87F2B200FF322920B80CF5F
:100D70007F00B40700500B24CBF582E43400F583E8
:100D8000E0FF22286E756C6C2900D20A12093F30F0
:100D90000AF8C20A780E30D50108F60209EE2D5085
:100DA00043495812093F2403B405004001E4900D63
:100DB0009E93120973743A120973D20C750E0402D1
:100DC0000BC4C0E0C0F0C083C082C085C084C086B0
:100DD000758600C093759300C0D075D000C000C068
:100DE00001C002C003C004C005C006C007E4FFFE86
:100DF000FDFC900031120808E4FFFEFDFC90003578
:100E0000120808E4FFFEFDFC900039120808E4FF18
:100E1000FEFDFC90003D120808E4FFFEFDFC900082
:100E200041120808E4FFFEFDFC90005412080890EF
:100E30000058E4F0A3F0900126E07004A3E0640100
:100E40007017122040E412033190013E12080890FE
:100E50000126E4F0A3F00210CC122040E41203318A
:100E60009000311208089000311207D090013E1214
:100E700007DC1202B8502690013E1207DCC000C009
:100E800001C002C003122189E4120331D003D00251
:100E9000D001D00012002190013E120808900031CC
:100EA0001207DC90013E1207D012001D900035128F
:100EB0000808122189E4120331A804A905AA06AB87
:100EC000079000351207D012021B7BFE7AF479B22C
:100ED0007843120112900039120808900035120769
:100EE000D0C004C005C006C007900124E0FEA3E006
:100EF000FF7C007D051205FAEDAE047802C333CE07
:100F000033CED8F9242AF58274013EF583D007D078
:100F100006D005D004120808900124E475F00112EF
:100F20000630121A66900146120808900031120726
:100F3000D090013E1208089001461207DC7F337EF4
:100F4000337D437C4012001D90003D120808900143
:100F5000501207DCC000C001C002C003900039126B
:100F600007D090003D1207DC120112D003D002D04E
:100F700001D000120021900150120808900124E0D5
:100F80007004A3E0641C700AFFFEFDFC9001501287
:100F900008087F007E107DA47C4590003D1207DC90
:100FA000120112E4FBFA79617844120021C004C0F6
:100FB00005C006C007E4FFFE7DFA7C4390003D12A9
:100FC00007DC1201129000391207DC12021BD00359
:100FD000D002D001D0001200219000541208087FE6
:100FE00001121EBBE4FDFF121C347BFF7A1F790D3A
:100FF0009000A612083490003D1207D09000A9126C
:1010000008087B017A0079451209A47B017A0079EE
:1010100045121C737BFF7A1F7910121C737BFF7AB9
:101020001F790D9000A6120834E4FFFE7DFA7C4380
:1010300090003D1207DC1201129000391207DC12F9
:10104000021B9000A91208087B017A007945120959
:10105000A47B017A007945121C73E4FFFE7D7A7C43
:10106000459000541207DC1202B86010400E7F0059
:101070007EC07DA87C44900054120808E4FFFEFD69
:10108000FC9000541207DC1202B86002500DE4FF1D
:10109000FE7D807C3F900054120808900054120797
:1010A000D012036F900058EEF0A3EFF0E4FD7F0143
:1010B000121C34900058E0FEA3E0FFE4FCFD12187F
:1010C00027900058E0FEA3E0FF1220C4D007D0060E
:1010D000D005D004D003D002D001D000D0D0D0931E
:1010E000D086D084D085D082D083D0F0D0E032C0FA
:1010F000E0C0F0C083C082C085C084C08675860011
:10110000C093759300C0D075D000C000C001C0026C
:10111000C003C004C005C006C00712226D90014C78
:101120001207D090008A1208089001561207DCC0FE
:1011300000C001C002C0037FA47E8C7D387C379044
:10114000008A1207DC120112D003D002D001D000B5
:10115000120021900156120808E4FFFE7DC87C426F
:1011600090008A1207DC1201127B007A80798E7857
:1011700045120021C004C005C006C007E4FFFE7D83
:10118000487C429001561207DC120112D003D002B3
:10119000D001D00012002190008E1208087F0112A9
:1011A0001EBBE4FDFF121C347BFF7A1F790D9000FB
:1011B000A612083490008A1207D09000A9120808DD
:1011C0007B017A0079941209A47B017A0079941248
:1011D0001C737BFF7A1F7910121C73E4FFFE7DAF36
:1011E0007C4590008E1207DC1202B8600F400DE4BF
:1011F000FFFE7DAF7C4590008E120808E4FFFE7D67
:10120000617C4590008E1207DC1202B86002500D1E
:10121000E4FFFE7D617C4590008E12080890008EF0
:101220001207D012036F900092EEF0A3EFF0E4FDEE
:101230007F01121C34900092E0FEA3E0FFE4FCFD6D
:10124000121827900092E0FEA3E0FF1220EED007D4
:10125000D006D005D004D003D002D001D000D0D029
:10126000D093D086D084D085D082D083D0F0D0E007
:10127000327B007A4679E8122167EF4405FD7B0056
:101280007A4679E8122173E4F514E514C3940B50FF
:101290002CE51475F005A42475F582E43422AF82A0
:1012A000F5128F13F58312083D8F82851283740324
:1012B00093FC740493FD121CE4051480CD7B087A22
:1012C000007900121D9D7B017A507903122167EF8E
:1012D0004402FD7B017A5079031221737B017A501D
:1012E0007913122167EF4402FD7B017A50791312C2
:1012F00021739043A0E04440F09043C2E04410F0DA
:101300007B087A0379E8C003C002C0017B007A51F0
:1013100079229000D8120834D001D002D0037F087F
:101320007E00121D3B7B087A0379F0C003C002C027
:10133000017B007A5179429000D8120834D001D054
:1013400002D0037F087E00121D3B9044F47401F02C
:10135000904322E04408F09046ECE0C39405500628
:10136000904689743AF090480074F1F01213999005
:10137000480074B1F0121F217B007A4379A0C001AC
:1013800079B09000D8120834D0017F0E7E00121D73
:101390003B9043B0E054FDF0227B007A4079807DA1
:1013A000017C0012208B9040827418F07B007A4000
:1013B00079847D077C0012208B9040867418F07B26
:1013C000007A4079887D177C0012208B90408A74C7
:1013D00018F09043007402F09040007408F09042BE
:1013E000007403F07B0C7A0179081221679046A102
:1013F000EFF07B007A4279227D087C0012208B7B03
:10140000007A4279207D517C1212208BE49000D723
:10141000F07F19FEFDFC9000D31208089000D31253
:1014200007D0D3EF9400EE9400403B9000D7E0FF4C
:1014300064036032904225E05401FEEF25E04E54F3
:10144000039000D7F0E47FE07E01FDFC121D0090C8
:1014500000D31207D074FFFBFAF9F8120646900089
:10146000D312080880B69000D31207D0EF4E700553
:101470007F03121CFD7B007A4079047D007C011201
:10148000208B9040047407F0904006E4F0904008F0
:101490007448F0904004E4F09040017402F09043EE
:1014A000A2E04407F022E47F947E01FDFC9000DD81
:1014B000120808905120E05480F0905122E054F03E
:1014C0009000DCF0E0440F905122F0A3E054F09043
:1014D00000DCF0E0905123F0A3E054F09000DCF049
:1014E000E0905124F0905120E054DFF0E04440F0CF
:1014F000E4FFFE121D70905120E04410F07F017E49
:1015000000121D70905121E09000DCF0905120E01D
:1015100054EFF0E4FFFE121D709000DCE05408F080
:10152000905120E04410F07F017E00121D70905118
:1015300020E054EFF09000DCE070067F0AFE121D00
:10154000709000DD1207D074FFFBFAF9F81206461E
:101550009000DD1208089000DCE0600DA31207D0B7
:10156000D3EF9400EE94005087905120E054BFF0E8
:10157000E05480F0905122E054F0F0A3E054F09059
:1015800000DCF0E0440F905123F0A3E054F0900011
:10159000DCF0E0440F905124F02275930078007540
:1015A00083467582E8E04401F0009046ECE0F99053
:1015B00046FAE0FAB903225420B40012B8001AEA3D
:1015C000901FFFF07401901FFEF09046F6F0901F00
:1015D000FEE06005901FFFE0FA90480074C0F075CF
:1015E000812290000078007920E4F0A3D8FCD9FA99
:1015F000EA900167F002001175151F7516FD1212B1
:101600007102163F021B9CE493A3F8E493A34003EA
:10161000F68001F208DFF48029E493A3F85407244C
:101620000CC8C333C4540F4420C8834004F456800C
:101630000146F6DFE4800B01020408102040809090
:10164000196AE47E019360BCA3FF543F30E509545E
:101650001FFEE493A360010ECF54C025E060A840B4
:10166000B8E493A3FAE493A3F8E493A3C8C582C8AB
:10167000CAC583CAF0A3C8C582C8CAC583CADFE980
:10168000DEE780BE90005E120834E4FFFEFDFC90B1
:101690000061120808E4FFFEFDFC900065120808D6
:1016A000E47F05FEFDFC900069120808900124E02B
:1016B000FEA3E0FFC39405EE64809480500CEE33EB
:1016C00095E0FDFC900069120808E4FFFEFDFC9027
:1016D00000651208089000691207D0900065120793
:1016E000DCC312079950579000611207D0C004C0A4
:1016F00005C006C007E47F04FEFDFC9000651207EC
:10170000DC12066190005E120814E92FF9EA3EFA35
:10171000EB3DFB1207E8D007D006D005D00412003D
:10172000219000611208089000651207D0E47B0147
:10173000FAF9F812064690006512080880979000A2
:10174000691207D0E4120331A804A905AA06AB0761
:101750009000611207D012021B22C0E0C0F0C083CB
:10176000C082C085C084C086758600C09375930012
:10177000C0D075D000C000C001C002C003C004C00A
:1017800005C006C0071222671221C5E4FCFD9000C7
:10179000291208081221C5E4FCFD90002D1208084A
:1017A0001221FF90014AE07002A3E0702290014AEA
:1017B000F0A304F09000291207DC90002D1207D04E
:1017C000120653E41203319001421208088035904A
:1017D000014AE4F0A3F09000291207DC90002D12DA
:1017E00007D0120653E412033190015A12080890F0
:1017F000015A1207DC9001421207D012001D90011D
:101800004C120808D007D006D005D004D003D0026F
:10181000D001D000D0D0D093D086D084D085D082D3
:10182000D083D0F0D0E0329000A31208089000B32B
:10183000740AF0E024A8F582E43400F583E4F09023
:1018400000B3E014F09000A31207D0C3EF940AEEA7
:1018500094004043E47B0AFAF9F89000A31207D001
:101860001206ECEB2430FF9000A7F09000B3E024C8
:10187000A8F582E43400F583EFF09000A31207D0BE
:10188000E47B0AFAF9F81206EC9000A3120808901B
:1018900000B3E014F080AEE47B0AFAF9F89000A3FC
:1018A0001207D01206ECEB2430FF9000A7F0900056
:1018B000B3E0FE24A8F582E43400F583EFF074A8C9
:1018C0002EF9E43400FA7B01121C7322C0E0C0F050
:1018D000C083C082C085C084C086758600C09375F1
:1018E0009300C0D075D000C000C001C002C003C0CA
:1018F00004C005C006C0071222437F01121EBB9020
:101900000128E0FEA3E0FFE4FCFD121827C39001CC
:1019100029E09402900128E0648094805003122012
:101920002D1221EFC3900129E09402900128E06478
:101930008094805008121FF47F5012225B9001287F
:10194000E475F001120630D007D006D005D004D0DF
:1019500003D002D001D000D0D0D093D086D084D094
:1019600085D082D083D0F0D0E03244013E00000028
:10197000004201260001420124000044014600000B
:101980000000440150000000004401560000000027
:10199000420154000042014A00004401420000009C
:1019A0000044015A0000000044014C0000000042C5
:1019B00001280000410172004101710041017300E2
:1019C0004101740041017500410176004101770039
:1019D00041017800440163016E360044015E00005D
:1019E0005DC0410162184401682EE0000043016CB3
:1019F0000000004101790000E47F28FEFDFC121B7D
:101A0000377F03121EDEE47F05FEFDFC121B377FCD
:101A100003121EDEE47F0FFEFDFC121B377F031254
:101A20001EDEE47F01FEFDFC121B377F02121EDE6C
:101A3000E47F05FEFDFC121B377F06121EBB7F0EE6
:101A4000121EBB7F2C121EBB7F08121EBB7F011211
:101A50001EBB7F0C121EBB7F03121EBBE47F05FE64
:101A6000FDFC121B3722E4FFFEFDFC90005A120819
:101A7000087B017A01792A12168490005A1208080C
:101A8000122189E4120331A804A905AA06AB079024
:101A9000005A1207D012021B7BFE7AF479B2784307
:101AA00012011290005A12080890005A1207DC7FA7
:101AB000717E3D7DCA7C3F12021BE4FBFA794078BF
:101AC0004112021B90005A12080890005A1207D0C7
:101AD00022C0E0C0F0C083C082C085C084C08675CB
:101AE0008600C093759300C0D075D000C000C001BF
:101AF000C002C003C004C005C006C0077BFF7A1F38
:101B00007901121C73121FF47F1412225B900128BA
:101B1000E4F0A3F0D007D006D005D004D003D00263
:101B2000D001D000D0D0D093D086D084D085D082C0
:101B3000D083D0F0D0E03290FFFC12086F1208087A
:101B40008515838516821207D0D3EF9400EE94801A
:101B5000402E9001681207D0121D0085158385164E
:101B600082C083C0821207D0E42FFFEE3480FEEDE6
:101B700034FFFDEC34FFFCD082D08312080880C013
:101B800090015E1207D08515838516821207DC123C
:101B90000661121D0090000412086F22E49000D329
:101BA000F0A3F0D2AF9044F474FDF0121FBB121FEB
:101BB000957E0D7FC212209A12201A7E1A7FD112B2
:101BC000210A1220077E187FCC1220FC121FCE1291
:101BD000204F7FE87E031220C4121FE112205E1204
:101BE0001FA8E4FDFF121C347BFF7A1F7913121C1F
:101BF0007380FE229000DCEFF0905120E04420F052
:101C0000E054BFF0E4FFFE121D70905120E054F04C
:101C1000F0C083C082E0FF9000DCE04410FEEF4E95
:101C2000D082D083F07F017E00121D70905120E0A1
:101C300054EFF0229000D5EDF0EF14601514601D04
:101C40001460252403702B9000D5E02480FF121E21
:101C5000BB229000D5E024C0FF121EBB229000D50D
:101C6000E02494FF121EBB229000D5E024D4FF1282
:101C70001EBB229000D51208349000D87401F012D7
:101C800005A29000D9F09000D9E0FF6021121E98C3
:101C90009000D51208149000D8E029F9E43AFA121D
:101CA00005A29000D9F09000D8E004F080D82290EE
:101CB0006471E054F8FFF0E054FCFFF01221417F22
:101CC000FF122255E4FF122249E4FF12223D1222A4
:101CD000437F5012225B121F56906491E04410F033
:101CE000121F3E22EC4D6011ED60010C8B938A8334
:101CF0008982E4F0A3DDFCDCFA7593002280FE22E9
:101D0000EC4D4E700D78FCEF24E950032840FD2285
:101D100000007BF178DA0000EF28FF78FFEE38FE54
:101D2000ED38FDEC38FC50E7EF2BFFEE38FEED38D8
:101D3000FDEC38FC40F22205020304758600EF4EEC
:101D40006027EF60010E7593009000D8E0F595A331
:101D5000E0F585A3E0F5848B938A838982E0A3056F
:101D600086F0A31586DFF6DEF4E4F593F5952232CE
:101D7000EEFA900162E0F88FF0A4FFAEF0E88AF08E
:101D8000A42EFEE5F03400FDEF24C9FF78FFEE3805
:101D9000FEED38FDE438FC5003021D0022ACEAAD34
:101DA000A08B938A838982E0F96017A3E0F5EAA308
:101DB000E0F5A0A3E060F4FAA3E0F8A3E0F2DAF81B
:101DC000D9E98DA08CEAE4F59322906473E054C0C5
:101DD000FF4409F0906492E04401F0A3E04401F074
:101DE0007F107E271220A87F107E271220B6E4FFE6
:101DF000FE1220C422906475E054C0FF4409F090A4
:101E00006494E04401F0A3E04401F07F607EEA12B4
:101E100020D27F607EEA1220E0E4FFFE1220EE2254
:101E200074FFFFFE12211874FFFFFE122126121FFD
:101E300056906497E04410F0121F3E7F0112206D0F
:101E400012214E7F021222612274FFFFFEFDFC125E
:101E5000219374FFFFFEFDFC1221A7121F5690650F
:101E600097E04410F0121F3E122134E4FF12223199
:101E700022EFB40A07740D121E7C740A309811A860
:101E800099B8130CC2983098FDA899C298B811F669
:101E90003099FDC299F599229000DAEFF01214A65C
:101EA0009000DAE0FFC4540FFFA3F0121BF490007F
:101EB000DAE0540FFFA3F0121BF4229000D6EFF0EB
:101EC0001214A69000D6E0FFC4540FFFA3F0121E18
:101ED000DE9000D6E0540FFFA3F0121EDE229051D8
:101EE00020E0549FF0E054F0F0E0FEEF4410FFEEED
:101EF0004FF07F017E00121D70905120E054EFF0F2
:101F0000224672616D6520737461727400256600EB
:101F10002F2F00454C45333032204361726C616293
:101F2000007B0C7A0179CF122167EF540790586E2D
:101F3000F0EFC4540FA3F09058767444F022EF549D
:101F4000016004D2AF8002C2AFEF5402FF9044F4AC
:101F5000E054FD4FF0229044F4E0F84402F0E854DD
:101F600002FF10AF012274014FFF228B938A8389F5
:101F700082E0FFA3E0FEA3E0FDA3E0FC7593002256
:101F80008B938A838982EFF0A3EEF0A3EDF0A3ECAC
:101F9000F07593002212220E7E1D7F6F12209A7F11
:101FA0000712217F12220722900171E07009121995
:101FB000F89001717401F012215B22900173E070BE
:101FC00009121E499001737401F01221CF22900171
:101FD00074E07009121DCA9001747401F01221D7C7
:101FE00022900175E07009121DF59001757401F0E1
:101FF0001221DF22900176E07009121CAF90017669
:102000007401F01221E72212221C7E227F7312201B
:10201000FC7F071221B11222152212222A7E227F72
:102020007412210A7F071221BB122223229001770A
:10203000E07009121E209001777401F01221F7223E
:10204000906504E0FF7B027A657944121F6D22904F
:1020500043A2E04404F09043B2E04404F0229043F1
:10206000A2E04402F09043B2E04402F022EF5403B5
:10207000FF906477E054FCF0E04FF0228B938A836A
:102080008982E0FFA3E0FE759300228B938A838907
:1020900082EDF0A3ECF0759300227B027A44790480
:1020A000AD07AC0612208D227B027A647902AD075F
:1020B000AC0612208D227B027A647942AD07AC0611
:1020C00012208D227B027A647922AD07AC061220A1
:1020D0008D227B027A647904AD07AC0612208D2232
:1020E0007B027A647944AD07AC0612208D227B0214
:1020F0007A647924AD07AC0612208D227B027A44E3
:102100007900AD07AC0612208D227B027A44790259
:10211000AD07AC0612208D227B027A647926AD07CA
:10212000AC0612208D227B027A647906AD07AC06DC
:1021300012208D22122237EF30E30512219D80F408
:1021400022122243EF30E60512224F80F42212229F
:1021500067EF30E3051221C580F4227F0C121EBB0D
:102160009001727401F0228B938A838982E07593C7
:1021700000FF228B938A838982EDF075930022EF12
:10218000C43354E0904482F0227B027A65792412B1
:102190001F6D227B027A657924121F82227B027ACC
:1021A000657944121F6D227B027A657904121F82C1
:1021B00022EFC43354E0904480F022EFC43354E063
:1021C000904481F0227B027A64794612207E22902C
:1021D0006575E04480F022906473E04480F02290C2
:1021E0006475E04480F022906471E04480F02290B5
:1021F0006471E0547FF022906477E04480F0229094
:102200006477E0547FF0229044C07404F02290443C
:10221000C87404F0229044C07401F0229044C87441
:1022200001F0229044C07402F0229044C87402F07D
:1022300022906587EFF022906567E0FF229064812D
:10224000EFF022906461E0FF22906401EFF02290B1
:102250006441E0FF22906421EFF022906431EFF0BE
:1022600022906487EFF022906467E0FF22904F0392
:10227000E0FF223232004F00000C0051000020002D
:102280005130001000515000200051C0001000518A
:10229000F0001001000010000114000800014000CF
:0C22A0000A00014C000200015000002068
:00000001FF
