:100000000211F4008F828E83E0540100000070F82A
:100010002278FFE4F6D8FD0212520203DBE8648086
:10002000F8E933E83360110460F0ED33EC33700924
:10003000E8FCE9FDEAFEEBFF220460DED3EB9FEA79
:100040009EE99DE8C2E78CF0C2F795F0400CE8CC41
:10005000F8E9CDF9EACEFAEBCFFB1203A685D0F092
:100060005804700320D5B3E80470075002B2D502DB
:1000700003E592D5EC0460F7E4CCC0E0C398F860E7
:100080003B94186008400DD0E0FB0203BDE4FBFA8E
:10009000C9FC8028E830E406E4C9FBE4CAFCE83087
:1000A000E305E4C9CACBFCE854076010F8C3E913C0
:1000B000F9EA13FAEB13FBEC13FCD8F130F52FC37C
:1000C000E49CFCEF9BFFEE9AFEED99FDD0E0FBEF88
:1000D0004E4D4C701222DB030203E2EC2CFCEF339A
:1000E000FFEE33FEED33FDED30E7EB0203BDEF2B0A
:1000F000FFEE3AFEED39FDD0E0FB50130BBB0003E1
:100100000203E5ED13FDEE13FEEF13FFEC13FC020B
:1001100003BDEC4D6011E8497017ED33EC3304601A
:100120000DE4FCFFFEFD22E933E8330470F802031E
:10013000DB1203A658046009E4CC24815006285041
:10014000090203E52840030203E2C0E0EB4A7044E1
:10015000B98006D0E0FB0203D1EF4E701CBD8008D1
:10016000EBFFEAFEE9FD80EBE98DF0A4FEE5F0028D
:1001700001FBE9CDF9EAFEEBFFEF89F0A4FCE5F025
:10018000CE89F0A42EFFE435F0CD89F0A42DFEE455
:1001900035F08067EF4E7005BD80D780C3EF8BF0E0
:1001A000A4ACF0EE8BF0A42CFCE435F0F8EF8AF070
:1001B000A42CE5F038FCE433CB8DF0A42CFCE5F066
:1001C0003BF8EE8AF0A42CFCE5F038F8E433CF8954
:1001D000F0A42CFCE5F038CF3400CE89F0A42FFF3A
:1001E000E5F03EFEE433C98DF0A42EFEE5F039CDF6
:1001F0008AF0A42FFFE5F03EFEE43DFD33D0E0FBA6
:1002000050070BBB000F0203E5EC2CFCEF33FFEEB5
:1002100033FEED33FD0203BD0203E5EC5D04600532
:10022000E8590470030203DB1203A6580460F6ECDD
:100230004860F2EC7004FDFEFF22C860DB2481C838
:100240005009C398600250060203E29850CAF58232
:10025000E9294B4A7005AB820203D175F0007C1A84
:100260007880C3EF9BEE9AED99400DC3EF9BFFEEB4
:100270009AFEED99FDE842F0DC23ACF0D0E0FFD02F
:10028000E0FED0E0FDAB8220E7101BEB60BAEC2C67
:10029000FCEF33FFEE33FEED33FD0203BDE803F860
:1002A00030E705C0F075F000EF2FFFEE33FEED33C1
:1002B000FD40B830E7C280AA74F8CC6480CCC86432
:1002C00080C8F58204604FC3EB9FF5F0EA9E42F0D0
:1002D000E99D42F0E89C45F0603C501DE5825FFFDF
:1002E000E582D313CB5BCBF42B5582FB50280ABAA3
:1002F000002409B9002008801DE5825BFBE582D35C
:1003000013CF5FCFF4C3132F5582FF50090EBE00E9
:10031000050DBD00010CC3EB9FF5F0EA9E42F0E92C
:100320009D42F0E89C45F06007CC4820E701B3EC23
:100330002275F020800E75F010800575F0087D00A4
:100340007E007F003392D530D503120755EC334041
:1003500010EF33FFEE33FEED33FDEC33FCD5F0ED63
:1003600022E5F0247EA2D513CC92E7CDCEFF22ED7C
:10037000D2E7CD33EC3392D524814006E4FFFEFD75
:10038000FC22FCE4CFCECDCC24E0501174FF80EDF4
:10039000C3CC13CCCD13CDCE13CECF13CF0470F07E
:1003A00030D5DE020755E9D2E7C933E833F892D5F4
:1003B000EDD2E7CD33EC33FC5002B2D522EC30E77E
:1003C000100FBF000C0EBE00080DBD00040BEB604B
:1003D00014A2D5EB13FCED92E7FD2274FFFCFDFEA9
:1003E000FF22E480F8A2D574FF13FC7D80E480EF47
:1003F000F920E73624F950037907E4F42402FBE5F9
:1004000082158270021583DBF6E024FB501BE96045
:1004100014E4F0E582158270021583E004F0B40A5A
:1004200008E4F0D9EE7401F00A22C2D522ED33ECD3
:100430003392D5FA602AB4FF33EDC2E77BFF600642
:100440007A047952E4227A04795B20D5047A04791B
:1004500056224E614E002B494E46002D494E460015
:10046000E47A08F0A3DAFC7B00740722C083C08220
:10047000ECC0E0EDC0E0EEC0E0EFC0E0EA75F010E7
:10048000A4CAABF075F04DA42BFBE435F0FCEA24D4
:1004900010FAEB34C5FBEC34D9FCEDC2E7FF75F084
:1004A00056A4F42411C5F0F434C58FF0A42AE5F065
:1004B0003BE43CF020E714120562D0E0FFD0E0FE00
:1004C000D0E0FDD0E0FC12021B8014F4041205629F
:1004D000D0E0FFD0E0FED0E0FDD0E0FC120112D071
:1004E00082D083E0FAEDD2E7CD33EC332482FBE413
:1004F000C3CF33CFCE33CECD33CD33DBF37B0775D4
:10050000F00A846004F0A31B0AE5F0F0A38FF074F6
:100510000AA4FFACF08EF0740AA42CFEACF05001DB
:100520000C8DF0740AA42CFDE435F0F0A3DBDE742E
:1005300007223F8000004120000042C80000447AAA
:100540000000461C400047C35000497424004B186B
:1005500096804CBEBC205A0E1BCA6753C21C749DA9
:10056000C5AEFB60065407601C2323120590EB54B4
:1005700038600912057C12058B120112ECF8EDF9B6
:10058000EEFAEFCB22EB12058B80F1543803241CDA
:10059000900532FE93FC0EEE93FD0EEE930ECE937D
:1005A000FF22BB010689828A83E0225002E722BB38
:1005B000FE02E32289828A83E49322BB010CE58256
:1005C00029F582E5833AF583E0225006E92582F891
:1005D000E622BBFE06E92582F8E222E58229F582C1
:1005E000E5833AF583E49322BB010689828A83F08E
:1005F000225002F722BBFE01F322C5F0F8A3E02847
:10060000F0C5F0F8E582158270021583E038F0221B
:10061000EF2BFFEE3AFEED39FDEC38FC22C3EF9BE9
:10062000FFEE9AFEED99FDEC98FC22E88FF0A4CC49
:100630008BF0A42CFCE98EF0A42CFC8AF0EDA42C09
:10064000FCEA8EF0A4CDA8F08BF0A42DCC3825F0D8
:10065000FDE98FF0A42CCD35F0FCEB8EF0A4FEA9C3
:10066000F0EB8FF0A4CFC5F02ECD39FEE43CFCEAD0
:10067000A42DCE35F0FDE43CFC2275F00875820017
:10068000EF2FFFEE33FECD33CDCC33CCC58233C557
:10069000829BED9AEC99E58298400CF582EE9BFEE8
:1006A000ED9AFDEC99FC0FD5F0D6E4CEFBE4CDFA43
:1006B000E4CCF9A88222B800C1B90059BA002DECE7
:1006C0008BF084CFCECDFCE5F0CBF97818EF2FFF7F
:1006D000EE33FEED33FDEC33FCEB33FB10D7039927
:1006E0004004EB99FB0FD8E5E4F9FA227818EF2FD4
:1006F000FFEE33FEED33FDEC33FCC933C910D705F3
:100700009BE99A4007EC9BFCE99AF90FD8E0E4C911
:10071000FAE4CCFB2275F010EF2FFFEE33FEED3341
:10072000FDCC33CCC833C810D7079BEC9AE899406E
:100730000AED9BFDEC9AFCE899F80FD5F0DAE4CDD0
:10074000FBE4CCFAE4C8F922EF4BFFEE4AFEED4998
:10075000FDEC48FC22C3E49FFFE49EFEE49DFDE423
:100760009CFC22EB9FF5F0EA9E42F0E99D42F0E806
:100770009C45F022E8600FECC313FCED13FDEE1373
:10078000FEEF13FFD8F122E8600FEFC333FFEE3323
:10079000FEED33FDEC33FCD8F122E0FCA3E0FDA339
:1007A000E0FEA3E0FF22E0F8A3E0F9A3E0FAA3E073
:1007B000FB22BB010789828A830207A65005E9F85C
:1007C00002088ABBFE05E9F802089789828A83023B
:1007D00008A4ECF0A3EDF0A3EEF0A3EFF022E0FB11
:1007E000A3E0FAA3E0F922F8E0FBA3A3E0F925F0E7
:1007F000F0E582158270021583E0FA38F022EBF002
:10080000A3EAF0A3E9F022E493FB740193FA7402E3
:1008100093F922D083D082F8E4937012740193701C
:100820000DA3A393F8740193F5828883E473740293
:10083000936860EFA3A3A380DFE5112582F582E52D
:10084000103583F583B510048582112210AF06851B
:100850008211F51022858211F510D2AF22EC8EF0B4
:10086000A4CCC5F0CCCDF8EFA4CEC5F02DFDE43C72
:10087000FCE8A42EC8C5F03DFDE43CFCEFA4FFE578
:10088000F028FEE43DFDE43CFC22E6FB08E6F90826
:10089000E6FA08E6CBF822E2FB08E2F908E2FA08F9
:1008A000E2CBF822E493F8740193F9740293FA749A
:1008B0000393FB22E5082426F582E43400F583E067
:1008C000050822900023300703900026E475F0010C
:1008D0001207E70205A22000E97F2ED2008018EF60
:1008E000540F2490D43440D4FF30040BEF24BFB411
:1008F0001A0050032461FFE50960021509050CE5A3
:100900000C7002050B30070E900023E475F0011205
:1009100007E7EF0205E80217E17403D2078003E45A
:10092000C207F5089000231207FEE4F509F50BF560
:100930000CE50960077F201208F780F5750AFFC2F1
:1009400001C200C202C203C205C206C2081208C325
:10095000FF700D3007057F00120908AF0CAE0B22A7
:10096000B4255FC2D5C2041208C3FF24D0B40A0064
:10097000501A75F00A780930D50508B6FF0106C689
:10098000A426F620D5047002D20380D924CFB41A4D
:1009900000EF5004C2E5D204020BFAD20180C6D2A5
:1009A0000080C0D20280BCD2D580BAD20580B47F8C
:1009B000201208F72002077401B5090040F112085F
:1009C000B4FF1208F7020931D208D2068095120846
:1009D000B4FB1208B4FA1208B4F94A4B700679F85D
:1009E0007A0C7BFF20022EE509602A7E008E82753C
:1009F00083001205BB60060EEE650A70F0C2D5EBEF
:100A0000C0E0EAC0E0E9C0E0EE120C5BD0E0F9D053
:100A1000E0FAD0E0FB1205A2FF60AAEBC0E0EAC05A
:100A2000E0E9C0E01208F7D0E02401F9D0E034009A
:100A3000FAD0E0FBE50A0460DCD50AD98087D2024F
:100A400080A2120C3D60F7E50A7001041203F0A9C0
:100A50000A600DE50A600914F50A120CE5EF60F36F
:100A6000EA30E702F404C3995079EAF4250A043025
:100A7000E701E404F50A800D120C3D60C1EA050AA5
:100A8000250A1203F0EA900052F030E701E4250A4B
:100A900004D50A0420050114120C5BE4C0E0120C1A
:100AA000E5900052E0601320E70714F01208DF80A1
:100AB0002204F0D0E014C0E07F001208DFE50A60F5
:100AC000071208D6150A800B3005031208D6D0E0AD
:100AD000020931D0E00480C4120C3D609EE50A0496
:100AE0001203F0900052EAF0E50A200502600104CA
:100AF0002404120C5B74FF04C0E0120CE51208DF42
:100B0000E50A20050260031208D6D0E0B50AE87FA6
:100B1000451208E9900052E07F2B30E7047F2DF466
:100B200004C0E01208F7D0E075F00A84C0F01208A3
:100B3000E0D0E01208E0020931791080027908C2A1
:100B400006C2088008D2D5790A8004790AC2D5E5A0
:100B50000A047002F50AE4FAFDFEFF1208B4FC7BF9
:100B6000082001131208B4FD7B1030000A1208B4EB
:100B7000FE1208B4FF7B20EC3382D592D55013C30C
:100B8000E43000069FFFE49EFEE42001039DFDE4A7
:100B90009CFCE4CBF8C201EC700CCFCECDCCE824A9
:100BA000F8F870F38017C3EF33FFEE33FEED33FD3B
:100BB000EC33FCEB33FB994002FB0FD8E9EB30013F
:100BC00005F8D0E0C448B201C0E00AEC4D4E4F78C1
:100BD000207B0070C2EAB50A0040BCC0E0120C5D88
:100BE000D0F0D0E0200104C4C0E0C4B201C0F012D3
:100BF00008E0D0F0D5F0EB02093112081309CE530A
:100C00000B3958099F4C099B420B3D4F0B45440B38
:100C1000454909B4430B4B550A78460AD8450A4260
:100C2000470D185009A32D09A72E09CA2B09AB237C
:100C300009C8200D012A096348000009C2E50AB469
:100C4000FF03750A061208B4FC1208B4FD1208B4BA
:100C5000FE1208B4FF90004B02042D790AA2D520A1
:100C60000314300509B910020404B9080104A2D51F
:100C70002006025001042002689202B50900503497
:100C8000C0E07F203003197F30A202720672055047
:100C90000F120CB4C202C206C205C2087F30800F18
:100CA000300503E9C0E01208F7300503D0E0F9D0C1
:100CB000E0B509CC3005177F30B9100C1208F77F6A
:100CC000583004077F788003B908031208F7300210
:100CD000057F2D0208F77F202008F87F2B2006F3E0
:100CE00022920280CF7F00B40700500B244BF58284
:100CF000E43400F583E0FF22286E756C6C2900D285
:100D0000011208B43001F8C201780930D50108F6A3
:100D10000209632D504349581208B42403B4050056
:100D20004001E4900D13931208E8743A1208E8D2D7
:100D300003750904020B397B007A4679E8121A66BA
:100D4000EF4405FD7B007A4679E8121A72E4F50F4C
:100D5000E50FC39408502CE50F75F005A4245CF54D
:100D600082E4341BAF82F50D8F0EF5831208078FD6
:100D700082850D83740393FC740493FD12188E0511
:100D80000F80CD7B087A0079001216C17B017A5062
:100D90007903121A66EF4402FD7B017A507903123F
:100DA0001A727B017A507913121A66EF4402FD7BA6
:100DB000017A507913121A729043A0E04440F090E7
:100DC00043C2E04410F07B087A06796CC003C0028D
:100DD000C0017B007A5179C29000581207FED00101
:100DE000D002D0037F087E001216607B087A067955
:100DF00074C003C002C0017B007A51792290005870
:100E00001207FED001D002D0037F087E00121660C8
:100E10007B087A06797CC003C002C0017B007A514E
:100E200079329000581207FED001D002D0037F081B
:100E30007E001216607B087A067984C003C002C067
:100E4000017B007A5179409000581207FED001D002
:100E500002D0037F0A7E001216607B017A04795B60
:100E60007D84121A727B017A06795B7D84121A7274
:100E70009044F47401F0904322E04408F09046EC72
:100E8000E0C394055006904689743AF09048007487
:100E9000F1F0120FF390480074B1F01218717B005A
:100EA0007A4379A0C00179B09000581207FED001B2
:100EB0007F0E7E001216609043B0E054FDF022E4F5
:100EC000FFFE7D437CC490008D1207A61200219086
:100ED000000F1207D29000A31207A6C000C001C0E5
:100EE00002C0037FA47E8C7D387C3790000F1207F0
:100EF000A6120112D003D002D001D000120021901E
:100F000000A31207D2E4FFFE7DC87C4290000F12BE
:100F100007A6120112A804A905AA06AB077F007E46
:100F2000807D8E7C4512001D9000131207D2E4FFD5
:100F3000FE7DAF7C459000131207A61202B8600F29
:100F4000400DE4FFFE7DAF7C459000131207D2E414
:100F5000FFFE7D617C459000131207A61202B86067
:100F600002500DE4FFFE7D617C459000131207D214
:100F700090001312079A12036F900017EEF0A3EF80
:100F8000F07F0112182BE4FDFF1215E57BFF7A16A6
:100F900079EE9000261207FE90009F12079A9000AB
:100FA000291207D27B017A0079191209197B017A7B
:100FB000007919121624E4FD7F011215E57BFF7AF2
:100FC0001679EE9000261207FE90008912079A907B
:100FD00000291207D27B017A0079191209197B01C5
:100FE0007A007919121624900017E0FEA3E0FF1290
:100FF0001A17227B007A4079807D017C001219B497
:101000009040827418F07B007A4079847D077C00E0
:101010001219B49040867418F07B007A4079887D6C
:10102000177C001219B490408A7418F09043007431
:1010300002F09040007408F09042007403F07B0CC2
:101040007A017908121A669046A1EFF07B007A4285
:1010500079227D087C001219B47B007A4279207DC8
:10106000517C121219B4E4900057F07F19FEFDFC78
:101070009000531207D290005312079AD3EF9400B6
:10108000EE9400403B900057E0FF640360329042D2
:1010900025E05401FEEF25E04E5403900057F0E4A4
:1010A0007FE07E01FDFC12170090005312079A7436
:1010B000FFFBFAF9F81206109000531207D280B61F
:1010C00090005312079AEF4E70057F03121B567B58
:1010D000007A4079047D007C011219B490400474B8
:1010E00007F0904006E4F09040087448F090400407
:1010F000E4F09040017402F09043A2E04407F02233
:10110000E47F947E01FDFC90005B1207D290512099
:10111000E05480F0905122E054F090005AF0E04406
:101120000F905122F0A3E054F090005AF0E090515B
:1011300023F0A3E054F090005AF0E0905124F09096
:101140005120E054DFF0E04440F0E4FFFE1216943A
:10115000905120E04410F07F017E001216949051CF
:1011600021E090005AF0905120E054EFF0E4FFFEAF
:1011700012169490005AE05408F0905120E0441068
:10118000F07F017E00121694905120E054EFF09011
:10119000005AE070067F0AFE12169490005B120758
:1011A0009A74FFFBFAF9F812061090005B1207D24E
:1011B00090005AE0600DA312079AD3EF9400EE94CA
:1011C000005087905120E054BFF0E05480F09051DF
:1011D00022E054F0F0A3E054F090005AF0E0440F05
:1011E000905123F0A3E054F090005AF0E0440F90A7
:1011F0005124F02275930078007583467582E8E0EB
:101200004401F0009046ECE0F99046FAE0FAB903A8
:10121000225420B40012B8001AEA901FFFF07401A3
:10122000901FFEF09046F6F0901FFEE06005901FC4
:10123000FFE0FA90480074C0F075812190000078BA
:10124000007920E4F0A3D8FCD9FAEA9000F7F00284
:10125000001175101F7511FD120D3702129902153C
:101260001FE493A3F8E493A34003F68001F208DFA0
:10127000F48029E493A3F85407240CC8C333C4545E
:101280000F4420C8834004F456800146F6DFE48012
:101290000B01020408102040809012DEE47E0193CE
:1012A00060BCA3FF543F30E509541FFEE493A360E4
:1012B000010ECF54C025E060A840B8E493A3FAE43F
:1012C00093A3F8E493A3C8C582C8CAC583CAF0A390
:1012D000C8C582C8CAC583CADFE9DEE780BE44004C
:1012E0007B00000000420061000142005F000044FA
:1012F000008300000000440099000000004400A3A7
:101300000000000042009D000042008700004400F1
:101310007F000000004400A70000000044008D0092
:10132000000000420063000042006500004101022D
:101330000041010100410103004101040041010598
:101340000041010600410107004400F3016E360030
:101350004400EE00005DC04100F2184400F82EE0A9
:1013600000004300FC0000004101080000C0E0C094
:10137000F0C083C082C085C084C086758600C093DB
:10138000759300C0D075D000C000C001C002C0037A
:10139000C004C005C006C007121AD890009F1207EB
:1013A000D2121AD89000891207D2121AD89000953A
:1013B0001207D2121AD89000911207D290009F12F1
:1013C00007A690008912079A12061DE412033190B5
:1013D000008D1207D2121B50D007D006D005D004C2
:1013E000D003D002D001D000D0D0D093D086D0840A
:1013F000D085D082D083D0F0D0E032E47F28FEFDCB
:10140000FC1214697F0312184EE47F05FEFDFC12E6
:1014100014697F0312184EE47F0FFEFDFC1214695D
:101420007F0312184EE47F01FEFDFC1214697F0257
:1014300012184EE47F05FEFDFC1214697F06121897
:101440002B7F0E12182B7F2C12182B7F0812182BB3
:101450007F0112182B7F0C12182B7F0312182BE41C
:101460007F05FEFDFC1214692290FFFC1208391260
:1014700007D285108385118212079AD3EF9400EE6C
:101480009480402E9000F812079A1217008510835E
:10149000851182C083C08212079AE42FFFEE348048
:1014A000FEED34FFFDEC34FFFCD082D0831207D276
:1014B00080C09000EE12079A851083851182120772
:1014C000A612062B12170090000412083922C0E061
:1014D000C0F0C083C082C085C084C086758600C04D
:1014E00093759300C0D075D000C000C001C002C089
:1014F00003C004C005C006C007120EBFD007D00647
:10150000D005D004D003D002D001D000D0D0D093E9
:10151000D086D084D085D082D083D0F0D0E032D2B3
:10152000AF9044F474FDF01219241218FE7E147F5B
:10153000CE1219C312193712199612195D12198396
:101540007E137F6D121A2512197012194A1219A5ED
:10155000121911E4FDFF1215E57BFF7A1679F212DC
:10156000162480FE2290005AEFF0905120E0442093
:10157000F0E054BFF0E4FFFE121694905120E054C6
:10158000F0F0C083C082E0FF90005AE04410FEEF0C
:101590004ED082D083F07F017E00121694905120AD
:1015A000E054EFF022906474E054F8FFF0E054FC53
:1015B000FFF0121A4074FFFFFEFDFC121ABAE4FF9E
:1015C000FEFDFC121AA6E4FF121B3E121B44E47F30
:1015D00014FEFDFC121AC41218BF906494E044106B
:1015E000F01218A722900053EDF0EF14601514606C
:1015F0001D1460252403702B900053E02480FF12FB
:10160000182B22900053E024C0FF12182B229000C8
:1016100053E02494FF12182B22900053E024D4FFAF
:1016200012182B229000531207FE9000567401F0FE
:101630001205A2900057F0900057E0FF60211218A9
:10164000089000531207DE900056E029F9E43AFAB8
:101650001205A2900057F0900056E004F080D822C6
:10166000758600EF4E6027EF60010E7593009000C5
:1016700058E0F595A3E0F585A3E0F5848B938A8384
:101680008982E0A30586F0A31586DFF6DEF4E4F593
:1016900093F59522EEFA9000F2E0F88FF0A4FFAEF9
:1016A000F0E88AF0A42EFEE5F03400FDEF24C9FF37
:1016B00078FFEE38FEED38FDE438FC5003021700E9
:1016C00022ACEAADA08B938A838982E0F96017A3EC
:1016D000E0F5EAA3E0F5A0A3E060F4FAA3E0F8A344
:1016E000E0F2DAF8D9E98DA08CEAE4F59322256CD2
:1016F0007500454C45333032204361726C616200A5
:10170000EC4D4E700D78FCEF24E950032840FD228B
:1017100000007BF178DA0000EF28FF78FFEE38FE5A
:10172000ED38FDEC38FC50E7EF2BFFEE38FEED38DE
:10173000FDEC38FC40F2220502030490647FE05483
:10174000C0FF4409F090649EE04401F0A3E044012E
:10175000F07F107E271219D17F107E271219DFE447
:10176000FFFE1219ED2290647CE054C0FF4409F0A2
:1017700090649CE04401F0A3E04401F07F607EEAC5
:101780001219FB7F607EEA121A09E4FFFE121A1793
:101790002274FFFFFEFDFC121A8874FFFFFEFDFCA1
:1017A000121A9C1218BF906597E04410F01218A707
:1017B000121A33E4FF121B322274FFFFFEFDFC12EB
:1017C0001ACE74FFFFFEFDFC121AE21218BF9064DD
:1017D00096E04410F01218A7121A4D7F02121B4A0D
:1017E00022EFB40A07740D1217EC740A309811A88E
:1017F00099B8130CC2983098FDA899C298B811F600
:101800003099FDC299F59922900058EFF01211001D
:10181000900058E0FFC4540FFFA3F012156590002C
:1018200058E0540FFFA3F012156522900054EFF01A
:10183000121100900054E0FFC4540FFFA3F01218DF
:101840004E900054E0540FFFA3F012184E22905116
:1018500020E0549FF0E054F0F0E0FEEF4410FFEE83
:101860004FF07F017E00121694905120E054EFF06B
:10187000227B0C7A0179CF121A66EF540790586ECA
:10188000F0EFC4540FA3F09058767444F022EC4D5E
:101890006011ED60010C8B938A838982E4F0A3DDF3
:1018A000FCDCFA75930022EF54016004D2AF800291
:1018B000C2AFEF5402FF9044F4E054FD4FF0229089
:1018C00044F4E0F84402F0E85402FF10AF0122743F
:1018D000014FFF228B938A838982E0FFA3E0FEA35E
:1018E000E0FDA3E0FC759300228B938A838982EF4D
:1018F000F0A3EEF0A3EDF0A3ECF075930022121B21
:101900001D7E1B7F591219C37F07121A7E121B16E8
:1019100022900101E070091213FB9001017401F0A3
:10192000121A5A22900103E07009121791900103D4
:101930007401F0121AF622900104E0700912173BAC
:101940009001047401F0121AFE22900105E0700962
:101950001217669001057401F0121B062290010611
:10196000E070091215A59001067401F0121B0E22F9
:10197000900107E070091217B99001077401F01285
:101980001B5A22121B2B7E1B7F5B121A257F07120C
:101990001AEC121B24229043A2E04404F09043B2BC
:1019A000E04404F0229043A2E04402F09043B2E00D
:1019B0004402F0228B938A838982EDF0A3ECF075C8
:1019C0009300227B027A447900AD07AC061219B667
:1019D000227B027A64790EAD07AC061219B6227B1F
:1019E000027A64794EAD07AC061219B6227B027AF0
:1019F00064792EAD07AC061219B6227B027A64799F
:101A00000CAD07AC061219B6227B027A64794CAD94
:101A100007AC061219B6227B027A64792CAD07ACAA
:101A2000061219B6227B027A447902AD07AC06127F
:101A300019B622121B38EF30E305121A9280F422F5
:101A4000121B44EF30E605121AB080F422121B502C
:101A5000EF30E305121AD880F4227F0C12182B9075
:101A600001027401F0228B938A838982E0759300CE
:101A7000FF228B938A838982EDF075930022EFC455
:101A80003354E0904480F0227B027A657924121866
:101A9000EB227B027A6579441218D6227B027A65A2
:101AA00079041218EB227B027A6479071218EB2270
:101AB0007B027A6479471218D6227B027A647927EE
:101AC0001218EB227B027A6479371218EB227B0220
:101AD0007A6479221218EB227B027A647942121816
:101AE000D6227B027A6479021218EB22EFC43354B7
:101AF000E0904481F022906575E04480F02290648B
:101B00007FE04480F02290647CE04480F022906486
:101B100074E04480F0229044C07401F0229044C8E4
:101B20007401F0229044C07402F0229044C8740200
:101B3000F022906587EFF022906567E0FF229064C5
:101B400084EFF022906464E0FF22906486EFF0223C
:101B5000906466E0FF2280FE2232223200510000B3
:101B60002000515000200051F00010010000100032
:101B700001140008000140000A00014C00020001AD
:041B800050000020F1
:00000001FF
